{"noir/target/simple_price.sol":{"HonkVerifier":{"abi":[{"inputs":[],"name":"ProofLengthWrong","type":"error"},{"inputs":[],"name":"PublicInputsLengthWrong","type":"error"},{"inputs":[],"name":"ShpleminiFailed","type":"error"},{"inputs":[],"name":"SumcheckFailed","type":"error"},{"inputs":[{"internalType":"bytes","name":"proof","type":"bytes"},{"internalType":"bytes32[]","name":"publicInputs","type":"bytes32[]"}],"name":"verify","outputs":[{"internalType":"bool","name":"","type":"bool"}],"stateMutability":"view","type":"function"}],"evm":{"bytecode":{"linkReferences":{},"object":"60e060405234801561001057600080fd5b5062010000608052601060a052602560c05260805160a05160c051615e246100666000396000818161011001526106c90152600081816107d8015281816110a101526111400152600061066b0152615e246000f3fe608060405234801561001057600080fd5b506004361061002b5760003560e01c8063ea50d0e414610030575b600080fd5b61004361003e366004615934565b610057565b604051901515815260200160405180910390f35b60006100666101c86020615a36565b841461009e576040517fed74ac0a00000000000000000000000000000000000000000000000000000000815260040160405180910390fd5b60006100a8610230565b905060006100b68787610245565b9050601082604001516100c99190615a4d565b8414610101576040517ffa06659300000000000000000000000000000000000000000000000000000000815260040160405180910390fd5b600061013682878786600001517f000000000000000000000000000000000000000000000000000000000000000060016105a4565b90506101878686808060200260200160405190810160405280939291908181526020018383602002808284376000920191909152505085518551606081015160809091015191935091506001610654565b815160a00152600061019983836107cf565b9050806101d2576040517f9fc3a21800000000000000000000000000000000000000000000000000000000815260040160405180910390fd5b60006101df8486856108ef565b905080610218576040517fa5d82e8a00000000000000000000000000000000000000000000000000000000815260040160405180910390fd5b8180156102225750805b9a9950505050505050505050565b610238614ff1565b6102406114d0565b905090565b61024d6153a8565b6000805b60108110156102b05761027d85838661026b826020615a60565b9261027893929190615a73565b611db6565b8351826010811061029057610290615a9d565b6020020181815250506020826102a69190615a60565b9150600101610251565b506102d48482856102c2826080615a60565b926102cf93929190615a73565b611e61565b60208301526102e4608082615a60565b90506102f78482856102c2826080615a60565b6040830152610307608082615a60565b905061031a8482856102c2826080615a60565b606083015261032a608082615a60565b905061033d8482856102c2826080615a60565b60c083015261034d608082615a60565b90506103608482856102c2826080615a60565b60e0830152610370608082615a60565b90506103838482856102c2826080615a60565b6080808401919091526103969082615a60565b90506103a98482856102c2826080615a60565b6101008301526103ba608082615a60565b90506103cd8482856102c2826080615a60565b60a08301526103dd608082615a60565b905060005b601c81101561045e5760005b60088110156104555761040886848761026b826020615a60565b84610120015183601c811061041f5761041f615a9d565b6020020151826008811061043557610435615a9d565b60200201818152505060208361044b9190615a60565b92506001016103ee565b506001016103e2565b5060005b60288110156104b35761047c85838661026b826020615a60565b836101400151826028811061049357610493615a9d565b6020020181815250506020826104a99190615a60565b9150600101610462565b5060005b6104c36001601c615a4d565b81101561050c576104db8583866102c2826080615a60565b83610160015182601b81106104f2576104f2615a9d565b6020020152610502608083615a60565b91506001016104b7565b5060005b601c8110156105615761052a85838661026b826020615a60565b83610180015182601c811061054157610541615a9d565b6020020181815250506020826105579190615a60565b9150600101610510565b506105738482856102c2826080615a60565b6101a0830152610584608082615a60565b90506105978482856102c2826080615a60565b6101c08301525092915050565b6105ac6155d0565b60006105bd88888888888887611f9f565b90835290506105cc8189612027565b602084019190915290506105df81612179565b604084019190915290506105f388826121dc565b6060840191909152905061060788826122b3565b6080840191909152905061061b8882612341565b60a0840191909152905061062f88826124b1565b60c084019190915290506106438882612525565b5060e0830152509695505050505050565b60006001808261069e866106998961069461068f8a7f0000000000000000000000000000000000000000000000000000000000000000615a60565b61257d565b6125af565b6125dc565b905060006106bd876106b88a61069461068f8b6001615a60565b612609565b905060005b6106ed60107f0000000000000000000000000000000000000000000000000000000000000000615a4d565b81101561075b5760006107188c838151811061070b5761070b615a9d565b602002602001015161257d565b90506107288661069486846125dc565b95506107388561069485846125dc565b9450610744848b6125dc565b9350610750838b612609565b9250506001016106c2565b5060005b60108110156107c45760008a826010811061077c5761077c615a9d565b602002015190506107918661069486846125dc565b95506107a18561069485846125dc565b94506107ad848b6125dc565b93506107b9838b612609565b92505060010161075f565b50610222848461265f565b6000806001815b7f00000000000000000000000000000000000000000000000000000000000000008110156108c357600086610120015182601c811061081757610817615a9d565b60200201519050600061082a828661266e565b905080610863576040517f9fc3a21800000000000000000000000000000000000000000000000000000000815260040160405180910390fd5b6000876060015184601c811061087b5761087b615a9d565b6020020151905061088c838261268c565b95506108b3886040015185601c81106108a7576108a7615a9d565b60200201518683612840565b94505050508060010190506107d6565b5060006108df866101400151866000015187602001518561286c565b90508281145b9695505050505050565b60006108f961565e565b60006109088460a001516128db565b90506109126156cb565b61091a6156ea565b60e086015161093a90610935908560005b6020020151612609565b612940565b60e08086019190915286015161095c90610935908560005b60200201516125dc565b610100850181905260e085015160c088015161097c9261069991906125af565b845260a08601516109ab9061099090612940565b6106948660e001516106b88a60c001518961010001516125af565b602085810191909152600183526101a089015160408051808201825260008082529084015280518082018252828401518351608891821b178252606084015192909301519190921b17918101919091528152600160608501819052600060808601525b60238111610ab557610a30610a2686600001516129d4565b86606001516125af565b838260468110610a4257610a42615a9d565b602002015260808501516101408a0151610a85919061069990610a66600186615a4d565b60288110610a7657610a76615a9d565b602002015188606001516125af565b856080018181525050610aa0856060015188608001516125af565b6060860152610aae81615acc565b9050610a0e565b506000610ac460236001615a60565b90505b60288111610b4557610adf610a2686602001516129d4565b838260468110610af157610af1615a9d565b602002015260808501516101408a0151610b15919061069990610a66600186615a4d565b856080018181525050610b30856060015188608001516125af565b6060860152610b3e81615acc565b9050610ac7565b50606087015181600160200201526080870151816002602002015260a0870151816003602002015260c0870151816004602002015260e0870151816005602002015261010087015181600660200201526101208701518160076020020152610140870151816008602002015261016087015181600960200201526101a087015181600a602002015261018087015181600b60200201526101c087015181600c60200201526101e087015181600d602002015261020087015181600e602002015261022087015181600f60200201526102408701518160106020020152610260870151816011602002015261028087015181601260200201526102a087015181601360200201526102c087015181601460200201526102e08701518160156020020152610300870151816016602002015261032087015181601760200201526103408701518160186020020152610360870151816019602002015261038087015181601a60200201526103a087015181601b6020020181905250610d1288602001516040805180820190915260008082526020820152604051806040016040528060888460200151901b846000015117815260200160888460600151901b8460400151178152509050919050565b61038082015260408881015181518083018352600080825260209182015282518084018452818301518351608891821b178252606084015193909401519290931b909117908201526103a0820152606088810151604080518082018252600080825260209182015281518083018352818401518451608891821b1782529484015192909301519190931b17918101919091526103c08201526080880151604080518082018252600080825260209182015281518083018352818401518451608891821b178252606085015193909401519290931b909117908201526103e082015260a0880151604080518082018252600080825260209182015281518083018352818401518451608891821b178252606085015193909401519290931b90911790820152610400820152610100880151604080518082018252600080825260209182015281518083018352818401518451608891821b178252606085015193909401519290931b9091179082015261042082015260c0880151604080518082018252600080825260209182015281518083018352818401518451608891821b178252606085015193909401519290931b9091179082015261044082015260e0880151604080518082018252600080825260209182015281518083018352818401518451608891821b178252606085015193909401519290931b9091179082015261046082015260208881015160408051808201825260008082529084015280518082018252828401518351608891821b178252606084015192909301519190921b179181019190915261048082015260408881015181518083018352600080825260209182015282518084018452818301518351608891821b178252606084015193909401519290931b909117908201526104a0820152606088810151604080518082018252600080825260209182015281518083018352818401518451608891821b1782529484015192909301519190931b17918101919091526104c08201526080880151604080518082018252600080825260209182015281518083018352818401518451608891821b178252606085015193909401519290931b909117908201526104e082015260a0880151604080518082018252600080825260209182015281518083018352818401518451608891821b178252606085015193909401519290931b90911790820152610500820152606086015160808501516101808a01516000926110c5929091877f0000000000000000000000000000000000000000000000000000000000000000612a00565b805160e08701519192506110d8916125af565b604086018190526101808a01515160c08901516111099291610699916110fe91906125af565b8861010001516125af565b604086015260c087015161111c90612b1e565b606086015260005b6111306001601c615a4d565b81101561138157600061116460017f0000000000000000000000000000000000000000000000000000000000000000615a4d565b8210159050806112e0576111976109358a60e00151888560016111879190615a60565b601c811061092b5761092b615a9d565b60e0808901919091528901516111c79061093590886111b7866001615a60565b601c811061095257610952615a9d565b610100880152606087015160e08801516111e191906125af565b610120880152606087015160c08a01516111fe916110fe916125af565b610140880181905261122190611213906129d4565b6106998961012001516129d4565b858361122f60286001615a60565b6112399190615a60565b6046811061124957611249615a9d565b60200201526101408701516101808c01516000916112869161126c866001615a60565b601c811061127c5761127c615a9d565b60200201516125af565b90506112a3816106998a61012001518787600161126c9190615a60565b90506112b38860400151826125dc565b6040890152606088015160c08b01516112d9916112cf916125af565b8b60c001516125af565b6060890152505b61134b8b610160015183601b81106112fa576112fa615a9d565b60200201516040805180820190915260008082526020820152604051806040016040528060888460200151901b846000015117815260200160888460600151901b8460400151178152509050919050565b848361135960286001615a60565b6113639190615a60565b6046811061137357611373615a9d565b602002015250600101611124565b50604080518082019091526001815260026020820152826113a4601c6028615a60565b604681106113b4576113b4615a9d565b60200201526040850151836113cb601c6028615a60565b604681106113db576113db615a9d565b60200201526101c0890151600090611439906040805180820190915260008082526020820152604051806040016040528060888460200151901b846000015117815260200160888460600151901b8460400151178152509050919050565b90508083611449601c6028615a60565b611454906001615a60565b6046811061146457611464615a9d565b602002015260e08801518461147b601c6028615a60565b611486906001615a60565b6046811061149657611496615a9d565b602002015260006114a78486612b2a565b905060006114b483612bfd565b90506114c08282612c75565b9c9b505050505050505050505050565b6114d8614ff1565b50604080516103c0810182526201000081526010602080830191909152602582840152825180840184527f2be1c5a83a9bb45ccc72715215e11aee13d12bd14e44631b79c9a7bc6867460a81527f1ce1b2e74b29f47141488b7ffc4fa985c9efae113c864041b42857f806c548ca818301526060830152825180840184527f2d444ccd32996f4199ead2691d645146d4c80f40bbbe7ce91c6ed2e79bba092c81527f17eae415f44057a8150b5c31adc879e66e08f296acef84b7bcc40b0f38850193818301526080830152825180840184527f1fb9453d9930841028164017a77e4ea18e5ac5a6d9d762b165a95d5f76ca366d81527f1619ee9e7240a3f1ed899c6d5d52c4c0cd8385c985b60bd2dc6fb394eda64f548183015260a0830152825180840184527f1f8364d500486b7c4b7953254747399e4d9b3aa698d947896d483cc69b1b36e981527f2c632f2b7fc3ed54625d1d9ea149215c4c0a6feac3aa5a616352845edd4134b58183015260c0830152825180840184527f08ab575287c40193f72516c9b0f16e63bc98abf00e6b2b718ceb4210be51f83a81527f1670b6bd12b552588b777ff289ecb666d6574bd52612658ffb065056f46a0ae58183015260e0830152825180840184527f1049807df058fdd0232f25f33e344bdaed9ba87c397cdb607f67b1f399cf5b2b81527f212c81642ba2f4e9ff537ed6f01d8c63308dd0301d67406741f061eb91cbcea181830152610100830152825180840184527f2c4d447b22aa60596802b0c76efb96642e91a4cd4ba9b5fea6cef463a51e8fdd81527f29185a4cac6a0fb9990b63700e694c042e7f0801029cda067e67fe248802e1a881830152610120830152825180840184527f08fe669521564cd7b4955f8ba617c4af0942b39ed8793bd5d368bc4b44d8637c81527f0b3f4e454a02385cc373a39cc42f1e3c9a2e1eda3515a9ea0cd4aab48f8660ca81830152610140830152825180840184527f1b0496b81801081998ffc464e31733e20dc5cae78118e213675142878aa80af881527f036487f719d87081b59f559df9887531c2565789b18256bf1e727659554eed0281830152610160830152825180840184527f0a2c96286e7983f1b5947f54939ab5af76eebaba18ad9c79f2dafba30339933881527f0918a2102ef11fc29b27d975cf7e38d17f250c24e733916d645fa59c98930afa81830152610180830152825180840184527f065023e2a2ef1b33b6eb46ef1b07143791b80205396b5f6c909475d2b61d234781527f0c62d95fc5c548307536d9f5a3a88bddf145cf8c6ad7a8b7376601b766dd0c23818301526101a0830152825180840184527f0e319e733c17f729465dfa447c9fc401145e57d7e5c628aa91b4b923b23cc57f81527f1c491172c301fdb9b5ab72a7869dd3034389a2f60cd5f3df87681fffe2c0a9fd818301526101c0830152825180840184527f08d9bc2e5547488f591201c197d1d98861a4373ea780701cc9d7d8f5c1dec9c181527f1759d05380a8775c9330fcbcf03b30390a177b2d3b7d91b1b23529e9fe52d94d818301526101e0830152825180840184527f29f175a342eea2e0d29e2b722c6278c8b1da959bdb525e46be05907d96ad822b81527f2c53447ac61252576d6acac3991b92db0641f7e37bb720295110bc938bf2821981830152610200830152825180840184527f0d2e379ec5bc6f5c77face3d06b7b04aacaf95119b5038df14efca139a25f28781527f23ba3ed0422b1a1448bee236eeaa3d58559236e5d370aefebf1a878b54d4139981830152610220830152825180840184527f3058c4d4673f2e8e608456d42b799850b2142a213a66c9d0cc14f45b3b47ac2681527f12f15afa653c1d8e34043fdd2edba7d6f499576b777563cba087c66ae508315781830152610240830152825180840184527f241a63b8bff0253d02157eefb23cdeb7f628f82bd49262d9a75458a60553ddf981527f0c38e8e62a578bae09fe52b7e61e652bcc8ac391fff56a71167a158331be807a81830152610260830152825180840184527f25d964b18d3d27c3addfec533a43330485e7fc2c004ab65946c569ac8da7e61381527f2ccadba02fc8b19e6b353882afc417c09b2b2407ba5223a7ec3d90fb3310a60381830152610280830152825180840184527f2250e2352728391e1985e9b691ee9c6db3af42a1973f6d2b162ed0df51fca62e81527f1ff4a936df4c21f02bf08236cd9f602904c7996a6a73b2f628156e51852a6e51818301526102a0830152825180840184527f04fbc8b219dddd1914a371f04d9b948f487530452765974a7eac59f696fed29281527f2360d6fa214ba961282a4ec5be1ab44a3cb6b05b5b3b9a47319d08169aa1e294818301526102c0830152825180840184527f302005e3f37d26c24c8504950f63a1110d47da957169f6686d48cd0a59a6034081527f0ef0552db1a1726d96ff943d32a65b7f9c950444ea26809df70d25c4f71374c5818301526102e0830152825180840184527f03c9857603c62c4b13a7be8beb30c3a852548d7218bf373abc4edf49dbb5eba781527f303a555afab20e7aa7e8f38670b98353c291ab2198dd6b2ae0031818a05e996381830152610300830152825180840184527f15250006c2072e54fb550a16ae90ac799901ace1b18ba767d78a845ccd2d1f5d81527f176840c8ad52e220e167dfc832b4e7e5c0599b44eb928eff28bd2186855e3efb81830152610320830152825180840184527f0f40a25db17c59d2810e2cddf25585bda7199b1d3f9582adf229a947a2ea021e81527f26825f765eb8fef3da4574e4e6b6e7140b7e3e04f88a5e1db19e2770f94bacb181830152610340830152825180840184527f067e3889977ad6bf917065041c2b3f2a3978dbb70c3e9dfbb1cc9a4b192098c581527f1b9ba68888ec6674fab4d9e078d5e65cf401e0bf1b52f13bace717467921ab3381830152610360830152825180840184526001815260028183015261038083015282518084019093527f16c3d7d2e6a45353d3403048ddb0d74ed37ba6654a78d7875504a4856e2ccf9783527f0316f8edc6227217ce96b5974742a6377c0483494cea3940f0a6dc50711966c8908301526103a081019190915290565b600060208214611e4d576040517f08c379a000000000000000000000000000000000000000000000000000000000815260206004820152602e60248201527f696e76616c6964206e756d626572206f6620627974657320746f20636f6e737460448201527f72756374204672207363616c617200000000000000000000000000000000000060648201526084015b60405180910390fd5b611e5a61068f8385615b04565b9392505050565b611e8c6040518060800160405280600081526020016000815260200160008152602001600081525090565b60808214611f1c576040517f08c379a000000000000000000000000000000000000000000000000000000000815260206004820152602f60248201527f696e76616c6964206e756d626572206f6620627974657320746f20636f6e737460448201527f72756374206120473120706f696e7400000000000000000000000000000000006064820152608401611e44565b604080516080810190915280611f36602060008688615a73565b611f3f91615b04565b8152602090810190611f55906040908688615a73565b611f5e91615b04565b8152602001611f71606060408688615a73565b611f7a91615b04565b8152602001611f8d608060608688615a73565b611f9691615b04565b90529392505050565b611fd86040518060c001604052806000815260200160008152602001600081526020016000815260200160008152602001600081525090565b6000611fe8898989898989612e7b565b604086019190915260208501919091529083529250612007838a61332b565b608085019190915260608401919091529199919850909650505050505050565b61202f615724565b6000612039615743565b848152610100848101805151602080850191909152815181015160408086019190915282518101516060808701919091529251830151608086015260a080890180515191870191909152805183015160c0870152805182015160e0870152519092015192840192909252516120cf916120b491849101615b40565b6040516020818303038152906040528051906020012061257d565b91506120da826133fc565b6020850152835260015b6120f06002601a615ba4565b8110156121705761210d836040516020016120b491815260200190565b9250612118836133fc565b85612124846002615a36565b601a811061213457612134615a9d565b6020020186612144856002615a36565b61214f906001615a60565b601a811061215f5761215f615a9d565b6020020191909152526001016120e4565b50509250929050565b612181615762565b6000805b601c8110156121d5576121a4846040516020016120b491815260200190565b935060006121b1856133fc565b8584601c81106121c3576121c3615a9d565b60200201919091525050600101612185565b5090929050565b6121e4615762565b6000805b601c8110156122aa576121f9615743565b84815260005b60088110156122635786610120015183601c811061221f5761221f615a9d565b6020020151816008811061223557612235615a9d565b602002015182612246836001615a60565b6009811061225657612256615a9d565b60200201526001016121ff565b50612278816040516020016120b49190615b40565b94506000612285866133fc565b8685601c811061229757612297615a9d565b60200201919091525050506001016121e8565b50909391925050565b6000806122be615781565b83815260005b60288110156123125785610140015181602881106122e4576122e4615a9d565b6020020151826122f5836001615a60565b6029811061230557612305615a9d565b60200201526001016122c4565b50612327816040516020016120b49190615bb8565b91506000612334836133fc565b5096929550919350505050565b60008061234c6157a0565b83815260005b61235e6001601c615a4d565b81101561249c5785610160015181601b811061237c5761237c615a9d565b6020020151518261238e836004615a36565b612399906001615a60565b606d81106123a9576123a9615a9d565b602002015261016086015181601b81106123c5576123c5615a9d565b602002015160200151828260046123dc9190615a36565b6123e7906002615a60565b606d81106123f7576123f7615a9d565b602002015261016086015181601b811061241357612413615a9d565b60200201516040015182612428836004615a36565b612433906003615a60565b606d811061244357612443615a9d565b602002015261016086015181601b811061245f5761245f615a9d565b60200201516060015182612474836004615a36565b61247f906004615a60565b606d811061248f5761248f615a9d565b6020020152600101612352565b50612327816040516020016120b49190615bed565b6000806124bc6157bf565b83815260005b601c8110156125105785610180015181601c81106124e2576124e2615a9d565b6020020151826124f3836001615a60565b601d811061250357612503615a9d565b60200201526001016124c2565b50612327816040516020016120b49190615c22565b6000806125306157de565b8381526101a085018051516020808401919091528151810151604080850191909152825181015160608086019190915292519092015160808401529051612327916120b491849101615c57565b60006125a97f30644e72e131a029b85045b68181585d2833e84879b9709143e1f593f000000183615c8b565b92915050565b60007f30644e72e131a029b85045b68181585d2833e84879b9709143e1f593f00000018284099392505050565b60007f30644e72e131a029b85045b68181585d2833e84879b9709143e1f593f00000018284089392505050565b60007f30644e72e131a029b85045b68181585d2833e84879b9709143e1f593f0000001612656837f30644e72e131a029b85045b68181585d2833e84879b9709143e1f593f0000001615a4d565b84089392505050565b6000611e5a8361069484612940565b8151600090819061268190856001610952565b929092149392505050565b60408051610100810182527f30644e72e131a029b85045b68181585d2833e84879b9709143e1f593efffec5181526102d060208201527f30644e72e131a029b85045b68181585d2833e84879b9709143e1f593efffff1191810191909152609060608201527f30644e72e131a029b85045b68181585d2833e84879b9709143e1f593efffff71608082015260f060a08201527f30644e72e131a029b85045b68181585d2833e84879b9709143e1f593effffd3160c08201526113b060e08201526000906001825b60088110156127745761276a826106948784612609565b9150600101612753565b5061277d6157fc565b60005b60088110156127e057600084826008811061279d5761279d615a9d565b602002015190506127b2816106948985612609565b90506127bd81612940565b9050808383600881106127d2576127d2615a9d565b602002015250600101612780565b5060005b600881101561283557600087826008811061280157612801615a9d565b6020020151905061281e8184846008811061127c5761127c615a9d565b905061282a86826125dc565b9550506001016127e4565b506108e584836125af565b600080612857600161069985610694896001612609565b905061286384826125af565b95945050505050565b600061287661581b565b612881868285613436565b61288d868683866135e7565b612899868683866137d4565b6128a4868285613a0c565b6128af868285613c0a565b6128bb86868386613f6f565b6128c686828561487c565b6128d1868285614c58565b6108e58185614f5a565b6128e3615762565b81815260015b601c81101561293a5761291b82612901600184615a4d565b601c811061291157612911615a9d565b6020020151612b1e565b8282601c811061292d5761292d615a9d565b60200201526001016128e9565b50919050565b6000808290506000604051602081526020808201526020604082015282606082015260027f30644e72e131a029b85045b68181585d2833e84879b9709143e1f593f00000010360808201527f30644e72e131a029b85045b68181585d2833e84879b9709143e1f593f000000160a08201526020600060c08360055afa9050806129c857600080fd5b50506000519392505050565b60006125a9827f30644e72e131a029b85045b68181585d2833e84879b9709143e1f593f0000001615a4d565b612a08615762565b601c5b8015612b1457600084612a1f600184615a4d565b601c8110612a2f57612a2f615a9d565b60200201519050600088612a44600185615a4d565b601c8110612a5457612a54615a9d565b602002015190506000612ab0612a74612a6d858c6125af565b60026125af565b6106b88a612a83600189615a4d565b601c8110612a9357612a93615a9d565b6020020151610694612aaa8861069460018a612609565b87612609565b9050612ad181610694610935612acb87610694600189612609565b866125dc565b9050858411612b00579750878085612aea600187615a4d565b601c8110612afa57612afa615a9d565b60200201525b50505080612b0d90615c9f565b9050612a0b565b5095945050505050565b60006125a982836125af565b60408051808201909152600080825260208201526000612b4c601c6028615a60565b612b57906002615a60565b90506001604051855151604082015285516020015160608201528451608082015260408160606040840160075afa8216915060015b83811015612be55760208102870160208202870181515160408501528151602001516060850152805160808501525050604080830160606040850160075afa8316925060408260808460065afa90921691600101612b8c565b50805184526020810151602085015250505092915050565b60408051808201909152600080825260208201527f30644e72e131a029b85045b68181585d97816a916871ca8d3c208c16d87cfd4782602001517f30644e72e131a029b85045b68181585d97816a916871ca8d3c208c16d87cfd47612c629190615a4d565b612c6c9190615c8b565b60208301525090565b81516020808401518351848301516040805194850195909552938301919091527f198e9393920d483a7260bfb731fb5d25f1aa493335a9e71297e485b7aef312c260608301527f1800deef121f1e76426a00665e5c4479674322d4f75edadd46debd5cd992f6ed60808301527f090689d0585ff075ec9e99ad690c3395bc4b313370b38ef355acdadcd122975b60a08301527f12c85ea5db8c6deb4aab71808dcb408fe3d1e7690c43d37b4ce6cc0166fa7daa60c083015260e08201526101008101919091527f260e01b251f6f1c7e7ff4e580791dee8ea51d87a358e038b4efe30fac09383c16101208201527f0118c4d5b837bcc2bc89b5b398b5974e9f5944073b32078b7e231fec938883b06101408201527f04fc6369f7110fe3d25156c1bb9a72859cf2a04641f99ba4ee413c80da6a5fe46101608201527f22febda3c0c0632a56475b4214e5615e11e6dd3f96e6cea2854a87d4dacc5e5561018082015260009081906101a0016040516020818303038152906040529050600080600873ffffffffffffffffffffffffffffffffffffffff1683604051612e1a9190615cd4565b600060405180830381855afa9150503d8060008114612e55576040519150601f19603f3d011682016040523d82523d6000602084013e612e5a565b606091505b50915091508180156108e55750808060200190518101906108e59190615d03565b600080808080612e8c876003615a60565b612e9790600c615a60565b67ffffffffffffffff811115612eaf57612eaf615d25565b604051908082528060200260200182016040528015612ed8578160200160208202803683370190505b5090508760001b81600081518110612ef257612ef2615a9d565b6020026020010181815250508660001b81600181518110612f1557612f15615a9d565b6020026020010181815250508560001b81600281518110612f3857612f38615a9d565b60200260200101818152505060005b612f52601089615a4d565b811015612fa3578a8a82818110612f6b57612f6b615a9d565b9050602002013582826003612f809190615a60565b81518110612f9057612f90615a9d565b6020908102919091010152600101612f47565b5060005b6010811015613015578b51612fcf908260108110612fc757612fc7615a9d565b602002015190565b82826010612fde8c6003615a60565b612fe89190615a4d565b612ff29190615a60565b8151811061300257613002615a9d565b6020908102919091010152600101612fa7565b5060208b01515181613028896003615a60565b8151811061303857613038615a9d565b6020908102919091018101919091528b810151015181613059896003615a60565b613064906001615a60565b8151811061307457613074615a9d565b6020908102919091018101919091528b01516040015181613096896003615a60565b6130a1906002615a60565b815181106130b1576130b1615a9d565b6020908102919091018101919091528b015160600151816130d3896003615a60565b6130de906003615a60565b815181106130ee576130ee615a9d565b602090810291909101015260408b0151518161310b896003615a60565b613116906004615a60565b8151811061312657613126615a9d565b60209081029190910181019190915260408c0151015181613148896003615a60565b613153906005615a60565b8151811061316357613163615a9d565b60209081029190910101526040808c0151015181613182896003615a60565b61318d906006615a60565b8151811061319d5761319d615a9d565b602090810291909101015260408b015160600151816131bd896003615a60565b6131c8906007615a60565b815181106131d8576131d8615a9d565b602090810291909101015260608b015151816131f5896003615a60565b613200906008615a60565b8151811061321057613210615a9d565b60209081029190910181019190915260608c0151015181613232896003615a60565b61323d906009615a60565b8151811061324d5761324d615a9d565b602090810291909101015260608b0151604001518161326d896003615a60565b61327890600a615a60565b8151811061328857613288615a9d565b60209081029190910101526060808c01510151816132a7896003615a60565b6132b290600b615a60565b815181106132c2576132c2615a9d565b6020026020010181815250506132e2816040516020016120b49190615d54565b91506132ed826133fc565b604080516020810186905292975090955061330891016120b4565b91506000613315836133fc565b50959c949b509499509097509195505050505050565b600080600061333861583a565b85815260c085810180515160208085019190915281518101516040808601919091528251810151606080870191909152925183015160808087019190915260e0808b0180515160a0890152805185015196880196909652855183015190870152935183015161010086015292880180515161012086015280518201516101408601528051840151610160860152519091015161018084015290516133e2916120b491849101615d8a565b91506133ed826133fc565b90979096509194509092505050565b600080826fffffffffffffffffffffffffffffffff8116608082901c6134218261257d565b945061342c8161257d565b9350505050915091565b6000613443846007614fc0565b90507f183227397098d014dc2822db40c0ac2e9419f4243cdcb848a1f0fac9f800000060006134a66134a0613479856003612609565b61069461349561348a8b6000614fc0565b6106948c601c614fc0565b6106948b601b614fc0565b836125af565b905061352761351c6135036134ea6134d1856106996134c68d6002614fc0565b6106948e601b614fc0565b6106996134df8c6003614fc0565b6106948d601c614fc0565b6106996134f88b6004614fc0565b6106948c601d614fc0565b6106996135118a6005614fc0565b6106948b601e614fc0565b610699886001614fc0565b90506135468161069961353b866001612609565b6106948a6026614fc0565b905061355281846125af565b905061355e81856125af565b8552506000905061359a61358f61358461357988601b614fc0565b61069989601e614fc0565b6106b8886023614fc0565b610699876000614fc0565b90506135ab81610694846002612609565b90506135bc81610694846001612609565b90506135c881836125af565b90506135d481846125af565b9050808460015b60200201525050505050565b600080600061361f6136156135fd89601b614fc0565b61069961360b8b6011614fc0565b8a606001516125af565b87608001516125dc565b90506136588161069461364e6136368b601c614fc0565b6106996136448d6012614fc0565b8c606001516125af565b89608001516125dc565b905061367d8161069461364e61366f8b601d614fc0565b6106996136448d6013614fc0565b90506136a28161069461364e6136948b601e614fc0565b6106996136448d6014614fc0565b9250600090506136c76136156136b989601b614fc0565b61069961360b8b600d614fc0565b90506136ec8161069461364e6136de8b601c614fc0565b6106996136448d600e614fc0565b90506137118161069461364e6137038b601d614fc0565b6106996136448d600f614fc0565b90506137368161069461364e6137288b601e614fc0565b6106996136448d6010614fc0565b91506000905061375e61375861374d89601f614fc0565b6106998a6019614fc0565b846125af565b9050613793816106b861378d6137758b6027614fc0565b6106996137838d601a614fc0565b8c60a001516125af565b856125af565b905061379f81856125af565b60408601525060006137c361378d6137b889601a614fc0565b6106948a6027614fc0565b606090950194909452505050505050565b60008061383361381b6138036137ee61364e8a6015614fc0565b6106996137fc8b6016614fc0565b8a516125af565b6106996138118a6017614fc0565b89602001516125af565b610699613829896018614fc0565b88604001516125af565b9150600061386b61385261384889601b614fc0565b88608001516125dc565b6106996138608a6003614fc0565b6106948b6023614fc0565b9050600061389661387d89601c614fc0565b61069961388b8b6000614fc0565b6106948c6024614fc0565b905060006138c16138a88a601d614fc0565b6106996138b68c6001614fc0565b6106948d6025614fc0565b90506139016138e96138db85610699868d600001516125af565b610699848c602001516125af565b6106996138f78c6004614fc0565b8b604001516125af565b93505050506000613916613758886020614fc0565b90506000613928613758896020614fc0565b9050600061396161394861393d8b6022614fc0565b6106998c6006614fc0565b6106b86139568c6022614fc0565b6106948d6006614fc0565b9050600061398661398061397587896125af565b6106948d6020614fc0565b83612609565b905061399281886125af565b905060006139bb6139ad6139a78d6006614fc0565b876125af565b6106b86139a78e6021614fc0565b905060006139ca8c6022614fc0565b905060006139db61398083846125af565b60808c0185905260a08c0184905290506139f5818b6125af565b8b6006602002015250505050505050505050505050565b6000613a1a60006001612609565b90506000613a2a60006002612609565b90506000613a3a60006003612609565b90506000613a57613a4c88601c614fc0565b6106b889601b614fc0565b90506000613a74613a6989601d614fc0565b6106b88a601c614fc0565b90506000613a91613a868a601e614fc0565b6106b88b601d614fc0565b90506000613aae613aa38b6023614fc0565b6106b88c601e614fc0565b905083613abf81610694818b6125dc565b9050613acf81610694878a6125dc565b9050613adf8161069487896125dc565b9050613af0816106948d6008614fc0565b9050613afc818a6125af565b60e08b01525082613b1181610694818b6125dc565b9050613b2181610694868a6125dc565b9050613b318161069486896125dc565b9050613b42816106948d6008614fc0565b9050613b4e818a6125af565b6101008b01525081613b6481610694818b6125dc565b9050613b7481610694858a6125dc565b9050613b848161069485896125dc565b9050613b95816106948d6008614fc0565b9050613ba1818a6125af565b6101208b01525080613bb781610694818b6125dc565b9050613bc781610694848a6125dc565b9050613bd78161069484896125dc565b9050613be8816106948d6008614fc0565b9050613bf4818a6125af565b610140909a019990995250505050505050505050565b613c4a6040518060e00160405280600081526020016000815260200160008152602001600081526020016000815260200160008152602001600081525090565b613c5584601c614fc0565b8152613c6284601d614fc0565b6020820152613c72846023614fc0565b6040820152613c82846026614fc0565b6060820152613c92846025614fc0565b6080820152613ca2846024614fc0565b60a08201526000613cb4856002614fc0565b90506000613cc3866000614fc0565b90506000613cd984604001518560000151612609565b90506000613cef856020015186602001516125af565b60608601519091508690600090613d0690806125af565b90506000613d25613d1f89602001518a606001516125af565b886125af565b90506000613d45613d3e8a60a001518b604001516125dc565b8a516125dc565b9050613d546139a782886125af565b9050613d7b613d75613d6f613d698487612609565b88612609565b846125dc565b836125dc565b9050613da3613d98613d8d83876125af565b6106948f6009614fc0565b61069460018a612609565b6101608c01525050505060208501516080860151600091613dc3916125dc565b90506000613de2613dd88860600151886125af565b8860200151612609565b90506000613e08613df384876125af565b61069961378d8b60a001518c60000151612609565b9050613e30613e25613e1a838c6125af565b6106948e6009614fc0565b610694600189612609565b6101808b01525060009150613e529050613e4b8360116125dc565b87516125af565b90506000613e6083846125dc565b9050613e6c81826125dc565b90506000613e7b8360096125af565b9050613ea5613e9f613758613e988b60a001518c600001516125dc565b8b516125dc565b82612609565b60c08901819052600090613ec190613d1f90613d8d908d6125af565b9050613ed48b600b6020020151826125dc565b6101608c01525050865160009250613efc9150613e4b90613ef590806125dc565b88516125dc565b90506000613f3e613f19836106948a600001518b60a00151612609565b60208901516106b890613f2c90806125dc565b6106948b602001518c608001516125dc565b9050613f5b89600c6020020151610699613d1f613d8d858d6125af565b89600c602002015250505050505050505050565b614019604051806102c00160405280600081526020016000815260200160008152602001600081526020016000815260200160008152602001600081526020016000815260200160008152602001600081526020016000815260200160008152602001600081526020016000815260200160008152602001600081526020016000815260200160008152602001600081526020016000815260200160008152602001600081525090565b61404e61403561402a87601b614fc0565b610694886024614fc0565b610699614043886023614fc0565b61069489601c614fc0565b815261409361408861406f61406488601b614fc0565b61069489601e614fc0565b61069961407d89601c614fc0565b6106948a601d614fc0565b6106b8876025614fc0565b604082018190526140ad90681000000000000000006125af565b604082018190526140c3906106b8876026614fc0565b6040820181905281516140d691906125dc565b604082018190526140ec90610694876005614fc0565b6040820152805161410690681000000000000000006125af565b8082526141269061069961411b886023614fc0565b610694896024614fc0565b80825260208201819052614142906106b861357988601d614fc0565b6020820181905261415890610694876004614fc0565b60208201528051606082018190526141759061069987601e614fc0565b60608201819052614199906106b861418e886025614fc0565b610699896026614fc0565b606082018190526141af90610694876000614fc0565b81606001818152505060006141d96141cf836020015184604001516125dc565b83606001516125dc565b90506141ea81610694886003614fc0565b90506142026141fa876024614fc0565b6140006125af565b6080830181905261421890610699886023614fc0565b6080830181905261422b906140006125af565b608083018190526142419061069988601d614fc0565b60808301819052614254906140006125af565b6080830181905261426a9061069988601c614fc0565b6080830181905261427d906140006125af565b608083018190526142939061069988601b614fc0565b608083018190526142a9906106b888601e614fc0565b608083018190526142bf90610694886005614fc0565b60808301526142d26141fa876025614fc0565b60a083018190526142e890610699886024614fc0565b60a083018190526142fb906140006125af565b60a0830181905261431190610699886023614fc0565b60a08301819052614324906140006125af565b60a0830181905261433a9061069988601e614fc0565b60a0830181905261434d906140006125af565b60a083018190526143639061069988601d614fc0565b60a08301819052614379906106b8886026614fc0565b60a0830181905261438f90610694886000614fc0565b60a0830181905260808301516000916143a891906125dc565b90506143b981610694896004614fc0565b90506143d36143c988601d614fc0565b87604001516125af565b60c084018190526143ec906106996138118a601c614fc0565b60c0840181905261440c906106996144058a601b614fc0565b89516125af565b60c0840181905261442290610699896001614fc0565b60c0840181905260e0840181905261443f906106b889601e614fc0565b60c0840152614452613a4c886023614fc0565b610140840152614471614466886026614fc0565b6106b889601e614fc0565b6101208401526101408301516144969061448b90806125af565b846101400151612609565b6102808401526101408301516144eb906144e0906144d99061069460017f30644e72e131a029b85045b68181585d2833e84879b9709143e1f593f0000001615a4d565b60016125dc565b8461012001516125af565b610160840181905261452290614514906106946145098b6002614fc0565b6106948c6003614fc0565b6106946139a78a600a614fc0565b6101c086015261028083015161454490614514906106946145098b6002614fc0565b6101e086015260c083015161456c906106946145618a6002614fc0565b6106948b6003614fc0565b6101e0840152600061458c61458289601e614fc0565b8560e00151612609565b905061459b613e9f82836125af565b6101a08501526145af613829896025614fc0565b61010085018190526145d3906106996145c98b6024614fc0565b8a602001516125af565b61010085018190526145ed906106996137fc8b6023614fc0565b61010085015261460c614601896026614fc0565b856101000151612609565b6101008501526000614622613a868a6025614fc0565b905061469c6146636134a06144d988610140015160017f30644e72e131a029b85045b68181585d2833e84879b9709143e1f593f00000016106949190615a4d565b6106946144d988610100015160017f30644e72e131a029b85045b68181585d2833e84879b9709143e1f593f00000016106949190615a4d565b6101808601526101008501516146c1906146b690806125af565b866101000151612609565b6101c08601526101808501516146f4906146e0906106948c6007614fc0565b6106946146ee8c600a614fc0565b896125af565b610200880152610280850151614713906146e0906106948c6007614fc0565b6102208801526101c0850151614732906146e0906106948c6007614fc0565b6102408801526101a085015161474d906106948b6007614fc0565b61020086015261476c6147618a6024614fc0565b6106b88b601c614fc0565b6102208601526101408501516147be90613a86906147b3906144d99061069460017f30644e72e131a029b85045b68181585d2833e84879b9709143e1f593f0000001615a4d565b8761022001516125af565b61024086018190526101e086015161026087018190526147f591610699906106946147ea8e6005614fc0565b6106948f6002614fc0565b610260860181905260c08601516148199190610699906106946147ea8e6000614fc0565b610260860181905261020086015161483191906125dc565b610260860181905261484790613d6f90866125dc565b6102a08601819052614861906106946146ee8c600a614fc0565b6102a0860181905287600d6020020152505050505050505050565b61490360405180610220016040528060008152602001600081526020016000815260200160008152602001600081526020016000815260200160008152602001600081526020016000815260200160008152602001600081526020016000815260200160008152602001600081526020016000815260200160008152602001600081525090565b61491c61491185601b614fc0565b610699866002614fc0565b815261493761492c85601c614fc0565b610699866003614fc0565b602082015261495561494a85601d614fc0565b610699866004614fc0565b604082015261497361496885601e614fc0565b610699866005614fc0565b606082015280516149a59061499e906149979061499090806125af565b84516125af565b83516125af565b82516125af565b608082015260208101516149e3906149d9906149cf906149c590806125af565b84602001516125af565b83602001516125af565b82602001516125af565b60a08201526040810151614a2190614a1790614a0d90614a0390806125af565b84604001516125af565b83604001516125af565b82604001516125af565b60c08201526060810151614a5f90614a5590614a4b90614a4190806125af565b84606001516125af565b83606001516125af565b82606001516125af565b60e0820152608081015160a0820151614a7891906125dc565b61010082015260c081015160e0820151614a9291906125dc565b61012082015260a0810151614ab690614aab90806125dc565b8261012001516125dc565b61014082015260e0810151614ada90614acf90806125dc565b8261010001516125dc565b610160820152610120810151614af090806125dc565b6101e08201819052614b1190614b0690806125dc565b8261016001516125dc565b6101e0820152610100810151614b2790806125dc565b6101a08201819052614b4890614b3d90806125dc565b8261014001516125dc565b6101a08201819052610160820151614b5f916125dc565b6101808201526101408101516101e0820151614b7b91906125dc565b6101c0820152614b8f6134a085600b614fc0565b6102008201819052610260840151610180830151614bba9261069991610694906106b88a6023614fc0565b8360136020020152614bea8360146020020151610699836102000151610694856101a001516106b88a6024614fc0565b8360146020020152614c1a8360156020020151610699836102000151610694856101c001516106b88a6025614fc0565b8360156020020152614c4a8360166020020151610699836102000151610694856101e001516106b88a6026614fc0565b836016602002015250505050565b614cb560405180610160016040528060008152602001600081526020016000815260200160008152602001600081526020016000815260200160008152602001600081526020016000815260200160008152602001600081525090565b60006040518060800160405280614ceb7f10dc6e9c006ea38b04b1e03b4bd9490c0d03f98929ca1d7fb56821fd19d3b6e761257d565b8152602001614d197f0c28145b6a44df3e0149b3d0a30b3bb599df9756d4dd9b84a86b38cfb45a740b61257d565b8152602001614d467e544b8338791518b2c7645a50392798b21f75bb60e3596170067d00141cac1561257d565b8152602001614d747f222c01175718386f2e2e82eb122789e352e105a3b8fa852613bc534433ee428b61257d565b90529050614d91614d8686601b614fc0565b610699876002614fc0565b6101208301819052614dc590614dba906144e090614daf90806125af565b8561012001516125af565b8361012001516125af565b8252614dd285601c614fc0565b6020830152614de285601d614fc0565b6040830152614df285601e614fc0565b606083015281516020830151614e1a916141cf91614e1091906125dc565b84604001516125dc565b6080830152614e2d61375886600c614fc0565b6101408301528151614e4f90614e459083600061127c565b83608001516125dc565b60a0830152614e7b84601760200201516106998461014001516106948660a001516106b88b6023614fc0565b6102e08501526020820151614e9690614e459083600161127c565b60c0830152614ec284601860200201516106998461014001516106948660c001516106b88b6024614fc0565b6103008501526040820151614edd90614e459083600261127c565b60e0830152614f0984601960200201516106998461014001516106948660e001516106b88b6025614fc0565b6103208501526060820151614f2490614e459083600361127c565b610100830152614f5284601a60200201516106998461014001516106948661010001516106b88b6026614fc0565b84601a6135db565b6000614f67818481610952565b905060015b601b811015614fb957614faf826106998684601b8110614f8e57614f8e615a9d565b602002015186614f9f600187615a4d565b601a811061127c5761127c615a9d565b9150600101614f6c565b5092915050565b600082826027811115614fd557614fd5615dbf565b60288110614fe557614fe5615a9d565b60200201519392505050565b604051806103c0016040528060008152602001600081526020016000815260200161502f604051806040016040528060008152602001600081525090565b8152602001615051604051806040016040528060008152602001600081525090565b8152602001615073604051806040016040528060008152602001600081525090565b8152602001615095604051806040016040528060008152602001600081525090565b81526020016150b7604051806040016040528060008152602001600081525090565b81526020016150d9604051806040016040528060008152602001600081525090565b81526020016150fb604051806040016040528060008152602001600081525090565b815260200161511d604051806040016040528060008152602001600081525090565b815260200161513f604051806040016040528060008152602001600081525090565b8152602001615161604051806040016040528060008152602001600081525090565b8152602001615183604051806040016040528060008152602001600081525090565b81526020016151a5604051806040016040528060008152602001600081525090565b81526020016151c7604051806040016040528060008152602001600081525090565b81526020016151e9604051806040016040528060008152602001600081525090565b815260200161520b604051806040016040528060008152602001600081525090565b815260200161522d604051806040016040528060008152602001600081525090565b815260200161524f604051806040016040528060008152602001600081525090565b8152602001615271604051806040016040528060008152602001600081525090565b8152602001615293604051806040016040528060008152602001600081525090565b81526020016152b5604051806040016040528060008152602001600081525090565b81526020016152d7604051806040016040528060008152602001600081525090565b81526020016152f9604051806040016040528060008152602001600081525090565b815260200161531b604051806040016040528060008152602001600081525090565b815260200161533d604051806040016040528060008152602001600081525090565b815260200161535f604051806040016040528060008152602001600081525090565b8152602001615381604051806040016040528060008152602001600081525090565b81526020016153a3604051806040016040528060008152602001600081525090565b905290565b604051806101e001604052806153bc615859565b81526020016153ec6040518060800160405280600081526020016000815260200160008152602001600081525090565b815260200161541c6040518060800160405280600081526020016000815260200160008152602001600081525090565b815260200161544c6040518060800160405280600081526020016000815260200160008152602001600081525090565b815260200161547c6040518060800160405280600081526020016000815260200160008152602001600081525090565b81526020016154ac6040518060800160405280600081526020016000815260200160008152602001600081525090565b81526020016154dc6040518060800160405280600081526020016000815260200160008152602001600081525090565b815260200161550c6040518060800160405280600081526020016000815260200160008152602001600081525090565b815260200161553c6040518060800160405280600081526020016000815260200160008152602001600081525090565b8152602001615549615878565b81526020016155566158a6565b81526020016155636158c5565b8152602001615570615762565b81526020016155a06040518060800160405280600081526020016000815260200160008152602001600081525090565b81526020016153a36040518060800160405280600081526020016000815260200160008152602001600081525090565b6040518061010001604052806156156040518060c001604052806000815260200160008152602001600081526020016000815260200160008152602001600081525090565b8152602001615622615724565b815260200161562f615762565b815260200161563c615762565b8152602001600081526020016000815260200160008152602001600081525090565b6040518061018001604052806000815260200160008152602001600081526020016000815260200160008152602001615695615916565b81526020016156a2615916565b8152602001600081526020016000815260200160008152602001600081526020016153a3615762565b604051806108c001604052806046906020820280368337509192915050565b604051806108c001604052806046905b60408051808201909152600080825260208201528152602001906001900390816156fa5790505090565b604051806103400160405280601a906020820280368337509192915050565b6040518061012001604052806009906020820280368337509192915050565b604051806103800160405280601c906020820280368337509192915050565b6040518061052001604052806029906020820280368337509192915050565b60405180610da00160405280606d906020820280368337509192915050565b604051806103a00160405280601d906020820280368337509192915050565b6040518060a001604052806005906020820280368337509192915050565b6040518061010001604052806008906020820280368337509192915050565b604051806103600160405280601b906020820280368337509192915050565b604051806101a00160405280600d906020820280368337509192915050565b6040518061020001604052806010906020820280368337509192915050565b604051806103800160405280601c905b6158906157fc565b8152602001906001900390816158885790505090565b6040518061050001604052806028906020820280368337509192915050565b604051806103600160405280601b905b6159006040518060800160405280600081526020016000815260200160008152602001600081525090565b8152602001906001900390816158d55790505090565b60405180608001604052806004906020820280368337509192915050565b6000806000806040858703121561594a57600080fd5b843567ffffffffffffffff81111561596157600080fd5b8501601f8101871361597257600080fd5b803567ffffffffffffffff81111561598957600080fd5b87602082840101111561599b57600080fd5b60209182019550935085013567ffffffffffffffff8111156159bc57600080fd5b8501601f810187136159cd57600080fd5b803567ffffffffffffffff8111156159e457600080fd5b8760208260051b84010111156159f957600080fd5b949793965060200194505050565b7f4e487b7100000000000000000000000000000000000000000000000000000000600052601160045260246000fd5b80820281158282048414176125a9576125a9615a07565b818103818111156125a9576125a9615a07565b808201808211156125a9576125a9615a07565b60008085851115615a8357600080fd5b83861115615a9057600080fd5b5050820193919092039150565b7f4e487b7100000000000000000000000000000000000000000000000000000000600052603260045260246000fd5b60007fffffffffffffffffffffffffffffffffffffffffffffffffffffffffffffffff8203615afd57615afd615a07565b5060010190565b803560208310156125a9577fffffffffffffffffffffffffffffffffffffffffffffffffffffffffffffffff602084900360031b1b1692915050565b60008183825b6009811015615b65578151835260209283019290910190600101615b46565b5050506101208201905092915050565b7f4e487b7100000000000000000000000000000000000000000000000000000000600052601260045260246000fd5b600082615bb357615bb3615b75565b500490565b60008183825b6029811015615bdd578151835260209283019290910190600101615bbe565b5050506105208201905092915050565b60008183825b606d811015615c12578151835260209283019290910190600101615bf3565b505050610da08201905092915050565b60008183825b601d811015615c47578151835260209283019290910190600101615c28565b5050506103a08201905092915050565b60008183825b6005811015615c7c578151835260209283019290910190600101615c5d565b50505060a08201905092915050565b600082615c9a57615c9a615b75565b500690565b600081615cae57615cae615a07565b507fffffffffffffffffffffffffffffffffffffffffffffffffffffffffffffffff0190565b6000825160005b81811015615cf55760208186018101518583015201615cdb565b506000920191825250919050565b600060208284031215615d1557600080fd5b81518015158114611e5a57600080fd5b7f4e487b7100000000000000000000000000000000000000000000000000000000600052604160045260246000fd5b8151600090829060208501835b82811015615d7f578151845260209384019390910190600101615d61565b509195945050505050565b60008183825b600d811015615daf578151835260209283019290910190600101615d90565b5050506101a08201905092915050565b7f4e487b7100000000000000000000000000000000000000000000000000000000600052602160045260246000fdfea2646970667358221220f138546b405d833c808e19a22186d9b279e2001b988347b2c185571763fc726c64736f6c634300081b0033","opcodes":"PUSH1 0xE0 PUSH1 0x40 MSTORE CALLVALUE DUP1 ISZERO PUSH2 0x10 JUMPI PUSH1 0x0 DUP1 REVERT JUMPDEST POP PUSH3 0x10000 PUSH1 0x80 MSTORE PUSH1 0x10 PUSH1 0xA0 MSTORE PUSH1 0x25 PUSH1 0xC0 MSTORE PUSH1 0x80 MLOAD PUSH1 0xA0 MLOAD PUSH1 0xC0 MLOAD PUSH2 0x5E24 PUSH2 0x66 PUSH1 0x0 CODECOPY PUSH1 0x0 DUP2 DUP2 PUSH2 0x110 ADD MSTORE PUSH2 0x6C9 ADD MSTORE PUSH1 0x0 DUP2 DUP2 PUSH2 0x7D8 ADD MSTORE DUP2 DUP2 PUSH2 0x10A1 ADD MSTORE PUSH2 0x1140 ADD MSTORE PUSH1 0x0 PUSH2 0x66B ADD MSTORE PUSH2 0x5E24 PUSH1 0x0 RETURN INVALID PUSH1 0x80 PUSH1 0x40 MSTORE CALLVALUE DUP1 ISZERO PUSH2 0x10 JUMPI PUSH1 0x0 DUP1 REVERT JUMPDEST POP PUSH1 0x4 CALLDATASIZE LT PUSH2 0x2B JUMPI PUSH1 0x0 CALLDATALOAD PUSH1 0xE0 SHR DUP1 PUSH4 0xEA50D0E4 EQ PUSH2 0x30 JUMPI JUMPDEST PUSH1 0x0 DUP1 REVERT JUMPDEST PUSH2 0x43 PUSH2 0x3E CALLDATASIZE PUSH1 0x4 PUSH2 0x5934 JUMP JUMPDEST PUSH2 0x57 JUMP JUMPDEST PUSH1 0x40 MLOAD SWAP1 ISZERO ISZERO DUP2 MSTORE PUSH1 0x20 ADD PUSH1 0x40 MLOAD DUP1 SWAP2 SUB SWAP1 RETURN JUMPDEST PUSH1 0x0 PUSH2 0x66 PUSH2 0x1C8 PUSH1 0x20 PUSH2 0x5A36 JUMP JUMPDEST DUP5 EQ PUSH2 0x9E JUMPI PUSH1 0x40 MLOAD PUSH32 0xED74AC0A00000000000000000000000000000000000000000000000000000000 DUP2 MSTORE PUSH1 0x4 ADD PUSH1 0x40 MLOAD DUP1 SWAP2 SUB SWAP1 REVERT JUMPDEST PUSH1 0x0 PUSH2 0xA8 PUSH2 0x230 JUMP JUMPDEST SWAP1 POP PUSH1 0x0 PUSH2 0xB6 DUP8 DUP8 PUSH2 0x245 JUMP JUMPDEST SWAP1 POP PUSH1 0x10 DUP3 PUSH1 0x40 ADD MLOAD PUSH2 0xC9 SWAP2 SWAP1 PUSH2 0x5A4D JUMP JUMPDEST DUP5 EQ PUSH2 0x101 JUMPI PUSH1 0x40 MLOAD PUSH32 0xFA06659300000000000000000000000000000000000000000000000000000000 DUP2 MSTORE PUSH1 0x4 ADD PUSH1 0x40 MLOAD DUP1 SWAP2 SUB SWAP1 REVERT JUMPDEST PUSH1 0x0 PUSH2 0x136 DUP3 DUP8 DUP8 DUP7 PUSH1 0x0 ADD MLOAD PUSH32 0x0 PUSH1 0x1 PUSH2 0x5A4 JUMP JUMPDEST SWAP1 POP PUSH2 0x187 DUP7 DUP7 DUP1 DUP1 PUSH1 0x20 MUL PUSH1 0x20 ADD PUSH1 0x40 MLOAD SWAP1 DUP2 ADD PUSH1 0x40 MSTORE DUP1 SWAP4 SWAP3 SWAP2 SWAP1 DUP2 DUP2 MSTORE PUSH1 0x20 ADD DUP4 DUP4 PUSH1 0x20 MUL DUP1 DUP3 DUP5 CALLDATACOPY PUSH1 0x0 SWAP3 ADD SWAP2 SWAP1 SWAP2 MSTORE POP POP DUP6 MLOAD DUP6 MLOAD PUSH1 0x60 DUP2 ADD MLOAD PUSH1 0x80 SWAP1 SWAP2 ADD MLOAD SWAP2 SWAP4 POP SWAP2 POP PUSH1 0x1 PUSH2 0x654 JUMP JUMPDEST DUP2 MLOAD PUSH1 0xA0 ADD MSTORE PUSH1 0x0 PUSH2 0x199 DUP4 DUP4 PUSH2 0x7CF JUMP JUMPDEST SWAP1 POP DUP1 PUSH2 0x1D2 JUMPI PUSH1 0x40 MLOAD PUSH32 0x9FC3A21800000000000000000000000000000000000000000000000000000000 DUP2 MSTORE PUSH1 0x4 ADD PUSH1 0x40 MLOAD DUP1 SWAP2 SUB SWAP1 REVERT JUMPDEST PUSH1 0x0 PUSH2 0x1DF DUP5 DUP7 DUP6 PUSH2 0x8EF JUMP JUMPDEST SWAP1 POP DUP1 PUSH2 0x218 JUMPI PUSH1 0x40 MLOAD PUSH32 0xA5D82E8A00000000000000000000000000000000000000000000000000000000 DUP2 MSTORE PUSH1 0x4 ADD PUSH1 0x40 MLOAD DUP1 SWAP2 SUB SWAP1 REVERT JUMPDEST DUP2 DUP1 ISZERO PUSH2 0x222 JUMPI POP DUP1 JUMPDEST SWAP11 SWAP10 POP POP POP POP POP POP POP POP POP POP JUMP JUMPDEST PUSH2 0x238 PUSH2 0x4FF1 JUMP JUMPDEST PUSH2 0x240 PUSH2 0x14D0 JUMP JUMPDEST SWAP1 POP SWAP1 JUMP JUMPDEST PUSH2 0x24D PUSH2 0x53A8 JUMP JUMPDEST PUSH1 0x0 DUP1 JUMPDEST PUSH1 0x10 DUP2 LT ISZERO PUSH2 0x2B0 JUMPI PUSH2 0x27D DUP6 DUP4 DUP7 PUSH2 0x26B DUP3 PUSH1 0x20 PUSH2 0x5A60 JUMP JUMPDEST SWAP3 PUSH2 0x278 SWAP4 SWAP3 SWAP2 SWAP1 PUSH2 0x5A73 JUMP JUMPDEST PUSH2 0x1DB6 JUMP JUMPDEST DUP4 MLOAD DUP3 PUSH1 0x10 DUP2 LT PUSH2 0x290 JUMPI PUSH2 0x290 PUSH2 0x5A9D JUMP JUMPDEST PUSH1 0x20 MUL ADD DUP2 DUP2 MSTORE POP POP PUSH1 0x20 DUP3 PUSH2 0x2A6 SWAP2 SWAP1 PUSH2 0x5A60 JUMP JUMPDEST SWAP2 POP PUSH1 0x1 ADD PUSH2 0x251 JUMP JUMPDEST POP PUSH2 0x2D4 DUP5 DUP3 DUP6 PUSH2 0x2C2 DUP3 PUSH1 0x80 PUSH2 0x5A60 JUMP JUMPDEST SWAP3 PUSH2 0x2CF SWAP4 SWAP3 SWAP2 SWAP1 PUSH2 0x5A73 JUMP JUMPDEST PUSH2 0x1E61 JUMP JUMPDEST PUSH1 0x20 DUP4 ADD MSTORE PUSH2 0x2E4 PUSH1 0x80 DUP3 PUSH2 0x5A60 JUMP JUMPDEST SWAP1 POP PUSH2 0x2F7 DUP5 DUP3 DUP6 PUSH2 0x2C2 DUP3 PUSH1 0x80 PUSH2 0x5A60 JUMP JUMPDEST PUSH1 0x40 DUP4 ADD MSTORE PUSH2 0x307 PUSH1 0x80 DUP3 PUSH2 0x5A60 JUMP JUMPDEST SWAP1 POP PUSH2 0x31A DUP5 DUP3 DUP6 PUSH2 0x2C2 DUP3 PUSH1 0x80 PUSH2 0x5A60 JUMP JUMPDEST PUSH1 0x60 DUP4 ADD MSTORE PUSH2 0x32A PUSH1 0x80 DUP3 PUSH2 0x5A60 JUMP JUMPDEST SWAP1 POP PUSH2 0x33D DUP5 DUP3 DUP6 PUSH2 0x2C2 DUP3 PUSH1 0x80 PUSH2 0x5A60 JUMP JUMPDEST PUSH1 0xC0 DUP4 ADD MSTORE PUSH2 0x34D PUSH1 0x80 DUP3 PUSH2 0x5A60 JUMP JUMPDEST SWAP1 POP PUSH2 0x360 DUP5 DUP3 DUP6 PUSH2 0x2C2 DUP3 PUSH1 0x80 PUSH2 0x5A60 JUMP JUMPDEST PUSH1 0xE0 DUP4 ADD MSTORE PUSH2 0x370 PUSH1 0x80 DUP3 PUSH2 0x5A60 JUMP JUMPDEST SWAP1 POP PUSH2 0x383 DUP5 DUP3 DUP6 PUSH2 0x2C2 DUP3 PUSH1 0x80 PUSH2 0x5A60 JUMP JUMPDEST PUSH1 0x80 DUP1 DUP5 ADD SWAP2 SWAP1 SWAP2 MSTORE PUSH2 0x396 SWAP1 DUP3 PUSH2 0x5A60 JUMP JUMPDEST SWAP1 POP PUSH2 0x3A9 DUP5 DUP3 DUP6 PUSH2 0x2C2 DUP3 PUSH1 0x80 PUSH2 0x5A60 JUMP JUMPDEST PUSH2 0x100 DUP4 ADD MSTORE PUSH2 0x3BA PUSH1 0x80 DUP3 PUSH2 0x5A60 JUMP JUMPDEST SWAP1 POP PUSH2 0x3CD DUP5 DUP3 DUP6 PUSH2 0x2C2 DUP3 PUSH1 0x80 PUSH2 0x5A60 JUMP JUMPDEST PUSH1 0xA0 DUP4 ADD MSTORE PUSH2 0x3DD PUSH1 0x80 DUP3 PUSH2 0x5A60 JUMP JUMPDEST SWAP1 POP PUSH1 0x0 JUMPDEST PUSH1 0x1C DUP2 LT ISZERO PUSH2 0x45E JUMPI PUSH1 0x0 JUMPDEST PUSH1 0x8 DUP2 LT ISZERO PUSH2 0x455 JUMPI PUSH2 0x408 DUP7 DUP5 DUP8 PUSH2 0x26B DUP3 PUSH1 0x20 PUSH2 0x5A60 JUMP JUMPDEST DUP5 PUSH2 0x120 ADD MLOAD DUP4 PUSH1 0x1C DUP2 LT PUSH2 0x41F JUMPI PUSH2 0x41F PUSH2 0x5A9D JUMP JUMPDEST PUSH1 0x20 MUL ADD MLOAD DUP3 PUSH1 0x8 DUP2 LT PUSH2 0x435 JUMPI PUSH2 0x435 PUSH2 0x5A9D JUMP JUMPDEST PUSH1 0x20 MUL ADD DUP2 DUP2 MSTORE POP POP PUSH1 0x20 DUP4 PUSH2 0x44B SWAP2 SWAP1 PUSH2 0x5A60 JUMP JUMPDEST SWAP3 POP PUSH1 0x1 ADD PUSH2 0x3EE JUMP JUMPDEST POP PUSH1 0x1 ADD PUSH2 0x3E2 JUMP JUMPDEST POP PUSH1 0x0 JUMPDEST PUSH1 0x28 DUP2 LT ISZERO PUSH2 0x4B3 JUMPI PUSH2 0x47C DUP6 DUP4 DUP7 PUSH2 0x26B DUP3 PUSH1 0x20 PUSH2 0x5A60 JUMP JUMPDEST DUP4 PUSH2 0x140 ADD MLOAD DUP3 PUSH1 0x28 DUP2 LT PUSH2 0x493 JUMPI PUSH2 0x493 PUSH2 0x5A9D JUMP JUMPDEST PUSH1 0x20 MUL ADD DUP2 DUP2 MSTORE POP POP PUSH1 0x20 DUP3 PUSH2 0x4A9 SWAP2 SWAP1 PUSH2 0x5A60 JUMP JUMPDEST SWAP2 POP PUSH1 0x1 ADD PUSH2 0x462 JUMP JUMPDEST POP PUSH1 0x0 JUMPDEST PUSH2 0x4C3 PUSH1 0x1 PUSH1 0x1C PUSH2 0x5A4D JUMP JUMPDEST DUP2 LT ISZERO PUSH2 0x50C JUMPI PUSH2 0x4DB DUP6 DUP4 DUP7 PUSH2 0x2C2 DUP3 PUSH1 0x80 PUSH2 0x5A60 JUMP JUMPDEST DUP4 PUSH2 0x160 ADD MLOAD DUP3 PUSH1 0x1B DUP2 LT PUSH2 0x4F2 JUMPI PUSH2 0x4F2 PUSH2 0x5A9D JUMP JUMPDEST PUSH1 0x20 MUL ADD MSTORE PUSH2 0x502 PUSH1 0x80 DUP4 PUSH2 0x5A60 JUMP JUMPDEST SWAP2 POP PUSH1 0x1 ADD PUSH2 0x4B7 JUMP JUMPDEST POP PUSH1 0x0 JUMPDEST PUSH1 0x1C DUP2 LT ISZERO PUSH2 0x561 JUMPI PUSH2 0x52A DUP6 DUP4 DUP7 PUSH2 0x26B DUP3 PUSH1 0x20 PUSH2 0x5A60 JUMP JUMPDEST DUP4 PUSH2 0x180 ADD MLOAD DUP3 PUSH1 0x1C DUP2 LT PUSH2 0x541 JUMPI PUSH2 0x541 PUSH2 0x5A9D JUMP JUMPDEST PUSH1 0x20 MUL ADD DUP2 DUP2 MSTORE POP POP PUSH1 0x20 DUP3 PUSH2 0x557 SWAP2 SWAP1 PUSH2 0x5A60 JUMP JUMPDEST SWAP2 POP PUSH1 0x1 ADD PUSH2 0x510 JUMP JUMPDEST POP PUSH2 0x573 DUP5 DUP3 DUP6 PUSH2 0x2C2 DUP3 PUSH1 0x80 PUSH2 0x5A60 JUMP JUMPDEST PUSH2 0x1A0 DUP4 ADD MSTORE PUSH2 0x584 PUSH1 0x80 DUP3 PUSH2 0x5A60 JUMP JUMPDEST SWAP1 POP PUSH2 0x597 DUP5 DUP3 DUP6 PUSH2 0x2C2 DUP3 PUSH1 0x80 PUSH2 0x5A60 JUMP JUMPDEST PUSH2 0x1C0 DUP4 ADD MSTORE POP SWAP3 SWAP2 POP POP JUMP JUMPDEST PUSH2 0x5AC PUSH2 0x55D0 JUMP JUMPDEST PUSH1 0x0 PUSH2 0x5BD DUP9 DUP9 DUP9 DUP9 DUP9 DUP9 DUP8 PUSH2 0x1F9F JUMP JUMPDEST SWAP1 DUP4 MSTORE SWAP1 POP PUSH2 0x5CC DUP2 DUP10 PUSH2 0x2027 JUMP JUMPDEST PUSH1 0x20 DUP5 ADD SWAP2 SWAP1 SWAP2 MSTORE SWAP1 POP PUSH2 0x5DF DUP2 PUSH2 0x2179 JUMP JUMPDEST PUSH1 0x40 DUP5 ADD SWAP2 SWAP1 SWAP2 MSTORE SWAP1 POP PUSH2 0x5F3 DUP9 DUP3 PUSH2 0x21DC JUMP JUMPDEST PUSH1 0x60 DUP5 ADD SWAP2 SWAP1 SWAP2 MSTORE SWAP1 POP PUSH2 0x607 DUP9 DUP3 PUSH2 0x22B3 JUMP JUMPDEST PUSH1 0x80 DUP5 ADD SWAP2 SWAP1 SWAP2 MSTORE SWAP1 POP PUSH2 0x61B DUP9 DUP3 PUSH2 0x2341 JUMP JUMPDEST PUSH1 0xA0 DUP5 ADD SWAP2 SWAP1 SWAP2 MSTORE SWAP1 POP PUSH2 0x62F DUP9 DUP3 PUSH2 0x24B1 JUMP JUMPDEST PUSH1 0xC0 DUP5 ADD SWAP2 SWAP1 SWAP2 MSTORE SWAP1 POP PUSH2 0x643 DUP9 DUP3 PUSH2 0x2525 JUMP JUMPDEST POP PUSH1 0xE0 DUP4 ADD MSTORE POP SWAP7 SWAP6 POP POP POP POP POP POP JUMP JUMPDEST PUSH1 0x0 PUSH1 0x1 DUP1 DUP3 PUSH2 0x69E DUP7 PUSH2 0x699 DUP10 PUSH2 0x694 PUSH2 0x68F DUP11 PUSH32 0x0 PUSH2 0x5A60 JUMP JUMPDEST PUSH2 0x257D JUMP JUMPDEST PUSH2 0x25AF JUMP JUMPDEST PUSH2 0x25DC JUMP JUMPDEST SWAP1 POP PUSH1 0x0 PUSH2 0x6BD DUP8 PUSH2 0x6B8 DUP11 PUSH2 0x694 PUSH2 0x68F DUP12 PUSH1 0x1 PUSH2 0x5A60 JUMP JUMPDEST PUSH2 0x2609 JUMP JUMPDEST SWAP1 POP PUSH1 0x0 JUMPDEST PUSH2 0x6ED PUSH1 0x10 PUSH32 0x0 PUSH2 0x5A4D JUMP JUMPDEST DUP2 LT ISZERO PUSH2 0x75B JUMPI PUSH1 0x0 PUSH2 0x718 DUP13 DUP4 DUP2 MLOAD DUP2 LT PUSH2 0x70B JUMPI PUSH2 0x70B PUSH2 0x5A9D JUMP JUMPDEST PUSH1 0x20 MUL PUSH1 0x20 ADD ADD MLOAD PUSH2 0x257D JUMP JUMPDEST SWAP1 POP PUSH2 0x728 DUP7 PUSH2 0x694 DUP7 DUP5 PUSH2 0x25DC JUMP JUMPDEST SWAP6 POP PUSH2 0x738 DUP6 PUSH2 0x694 DUP6 DUP5 PUSH2 0x25DC JUMP JUMPDEST SWAP5 POP PUSH2 0x744 DUP5 DUP12 PUSH2 0x25DC JUMP JUMPDEST SWAP4 POP PUSH2 0x750 DUP4 DUP12 PUSH2 0x2609 JUMP JUMPDEST SWAP3 POP POP PUSH1 0x1 ADD PUSH2 0x6C2 JUMP JUMPDEST POP PUSH1 0x0 JUMPDEST PUSH1 0x10 DUP2 LT ISZERO PUSH2 0x7C4 JUMPI PUSH1 0x0 DUP11 DUP3 PUSH1 0x10 DUP2 LT PUSH2 0x77C JUMPI PUSH2 0x77C PUSH2 0x5A9D JUMP JUMPDEST PUSH1 0x20 MUL ADD MLOAD SWAP1 POP PUSH2 0x791 DUP7 PUSH2 0x694 DUP7 DUP5 PUSH2 0x25DC JUMP JUMPDEST SWAP6 POP PUSH2 0x7A1 DUP6 PUSH2 0x694 DUP6 DUP5 PUSH2 0x25DC JUMP JUMPDEST SWAP5 POP PUSH2 0x7AD DUP5 DUP12 PUSH2 0x25DC JUMP JUMPDEST SWAP4 POP PUSH2 0x7B9 DUP4 DUP12 PUSH2 0x2609 JUMP JUMPDEST SWAP3 POP POP PUSH1 0x1 ADD PUSH2 0x75F JUMP JUMPDEST POP PUSH2 0x222 DUP5 DUP5 PUSH2 0x265F JUMP JUMPDEST PUSH1 0x0 DUP1 PUSH1 0x1 DUP2 JUMPDEST PUSH32 0x0 DUP2 LT ISZERO PUSH2 0x8C3 JUMPI PUSH1 0x0 DUP7 PUSH2 0x120 ADD MLOAD DUP3 PUSH1 0x1C DUP2 LT PUSH2 0x817 JUMPI PUSH2 0x817 PUSH2 0x5A9D JUMP JUMPDEST PUSH1 0x20 MUL ADD MLOAD SWAP1 POP PUSH1 0x0 PUSH2 0x82A DUP3 DUP7 PUSH2 0x266E JUMP JUMPDEST SWAP1 POP DUP1 PUSH2 0x863 JUMPI PUSH1 0x40 MLOAD PUSH32 0x9FC3A21800000000000000000000000000000000000000000000000000000000 DUP2 MSTORE PUSH1 0x4 ADD PUSH1 0x40 MLOAD DUP1 SWAP2 SUB SWAP1 REVERT JUMPDEST PUSH1 0x0 DUP8 PUSH1 0x60 ADD MLOAD DUP5 PUSH1 0x1C DUP2 LT PUSH2 0x87B JUMPI PUSH2 0x87B PUSH2 0x5A9D JUMP JUMPDEST PUSH1 0x20 MUL ADD MLOAD SWAP1 POP PUSH2 0x88C DUP4 DUP3 PUSH2 0x268C JUMP JUMPDEST SWAP6 POP PUSH2 0x8B3 DUP9 PUSH1 0x40 ADD MLOAD DUP6 PUSH1 0x1C DUP2 LT PUSH2 0x8A7 JUMPI PUSH2 0x8A7 PUSH2 0x5A9D JUMP JUMPDEST PUSH1 0x20 MUL ADD MLOAD DUP7 DUP4 PUSH2 0x2840 JUMP JUMPDEST SWAP5 POP POP POP POP DUP1 PUSH1 0x1 ADD SWAP1 POP PUSH2 0x7D6 JUMP JUMPDEST POP PUSH1 0x0 PUSH2 0x8DF DUP7 PUSH2 0x140 ADD MLOAD DUP7 PUSH1 0x0 ADD MLOAD DUP8 PUSH1 0x20 ADD MLOAD DUP6 PUSH2 0x286C JUMP JUMPDEST SWAP1 POP DUP3 DUP2 EQ JUMPDEST SWAP7 SWAP6 POP POP POP POP POP POP JUMP JUMPDEST PUSH1 0x0 PUSH2 0x8F9 PUSH2 0x565E JUMP JUMPDEST PUSH1 0x0 PUSH2 0x908 DUP5 PUSH1 0xA0 ADD MLOAD PUSH2 0x28DB JUMP JUMPDEST SWAP1 POP PUSH2 0x912 PUSH2 0x56CB JUMP JUMPDEST PUSH2 0x91A PUSH2 0x56EA JUMP JUMPDEST PUSH1 0xE0 DUP7 ADD MLOAD PUSH2 0x93A SWAP1 PUSH2 0x935 SWAP1 DUP6 PUSH1 0x0 JUMPDEST PUSH1 0x20 MUL ADD MLOAD PUSH2 0x2609 JUMP JUMPDEST PUSH2 0x2940 JUMP JUMPDEST PUSH1 0xE0 DUP1 DUP7 ADD SWAP2 SWAP1 SWAP2 MSTORE DUP7 ADD MLOAD PUSH2 0x95C SWAP1 PUSH2 0x935 SWAP1 DUP6 PUSH1 0x0 JUMPDEST PUSH1 0x20 MUL ADD MLOAD PUSH2 0x25DC JUMP JUMPDEST PUSH2 0x100 DUP6 ADD DUP2 SWAP1 MSTORE PUSH1 0xE0 DUP6 ADD MLOAD PUSH1 0xC0 DUP9 ADD MLOAD PUSH2 0x97C SWAP3 PUSH2 0x699 SWAP2 SWAP1 PUSH2 0x25AF JUMP JUMPDEST DUP5 MSTORE PUSH1 0xA0 DUP7 ADD MLOAD PUSH2 0x9AB SWAP1 PUSH2 0x990 SWAP1 PUSH2 0x2940 JUMP JUMPDEST PUSH2 0x694 DUP7 PUSH1 0xE0 ADD MLOAD PUSH2 0x6B8 DUP11 PUSH1 0xC0 ADD MLOAD DUP10 PUSH2 0x100 ADD MLOAD PUSH2 0x25AF JUMP JUMPDEST PUSH1 0x20 DUP6 DUP2 ADD SWAP2 SWAP1 SWAP2 MSTORE PUSH1 0x1 DUP4 MSTORE PUSH2 0x1A0 DUP10 ADD MLOAD PUSH1 0x40 DUP1 MLOAD DUP1 DUP3 ADD DUP3 MSTORE PUSH1 0x0 DUP1 DUP3 MSTORE SWAP1 DUP5 ADD MSTORE DUP1 MLOAD DUP1 DUP3 ADD DUP3 MSTORE DUP3 DUP5 ADD MLOAD DUP4 MLOAD PUSH1 0x88 SWAP2 DUP3 SHL OR DUP3 MSTORE PUSH1 0x60 DUP5 ADD MLOAD SWAP3 SWAP1 SWAP4 ADD MLOAD SWAP2 SWAP1 SWAP3 SHL OR SWAP2 DUP2 ADD SWAP2 SWAP1 SWAP2 MSTORE DUP2 MSTORE PUSH1 0x1 PUSH1 0x60 DUP6 ADD DUP2 SWAP1 MSTORE PUSH1 0x0 PUSH1 0x80 DUP7 ADD MSTORE JUMPDEST PUSH1 0x23 DUP2 GT PUSH2 0xAB5 JUMPI PUSH2 0xA30 PUSH2 0xA26 DUP7 PUSH1 0x0 ADD MLOAD PUSH2 0x29D4 JUMP JUMPDEST DUP7 PUSH1 0x60 ADD MLOAD PUSH2 0x25AF JUMP JUMPDEST DUP4 DUP3 PUSH1 0x46 DUP2 LT PUSH2 0xA42 JUMPI PUSH2 0xA42 PUSH2 0x5A9D JUMP JUMPDEST PUSH1 0x20 MUL ADD MSTORE PUSH1 0x80 DUP6 ADD MLOAD PUSH2 0x140 DUP11 ADD MLOAD PUSH2 0xA85 SWAP2 SWAP1 PUSH2 0x699 SWAP1 PUSH2 0xA66 PUSH1 0x1 DUP7 PUSH2 0x5A4D JUMP JUMPDEST PUSH1 0x28 DUP2 LT PUSH2 0xA76 JUMPI PUSH2 0xA76 PUSH2 0x5A9D JUMP JUMPDEST PUSH1 0x20 MUL ADD MLOAD DUP9 PUSH1 0x60 ADD MLOAD PUSH2 0x25AF JUMP JUMPDEST DUP6 PUSH1 0x80 ADD DUP2 DUP2 MSTORE POP POP PUSH2 0xAA0 DUP6 PUSH1 0x60 ADD MLOAD DUP9 PUSH1 0x80 ADD MLOAD PUSH2 0x25AF JUMP JUMPDEST PUSH1 0x60 DUP7 ADD MSTORE PUSH2 0xAAE DUP2 PUSH2 0x5ACC JUMP JUMPDEST SWAP1 POP PUSH2 0xA0E JUMP JUMPDEST POP PUSH1 0x0 PUSH2 0xAC4 PUSH1 0x23 PUSH1 0x1 PUSH2 0x5A60 JUMP JUMPDEST SWAP1 POP JUMPDEST PUSH1 0x28 DUP2 GT PUSH2 0xB45 JUMPI PUSH2 0xADF PUSH2 0xA26 DUP7 PUSH1 0x20 ADD MLOAD PUSH2 0x29D4 JUMP JUMPDEST DUP4 DUP3 PUSH1 0x46 DUP2 LT PUSH2 0xAF1 JUMPI PUSH2 0xAF1 PUSH2 0x5A9D JUMP JUMPDEST PUSH1 0x20 MUL ADD MSTORE PUSH1 0x80 DUP6 ADD MLOAD PUSH2 0x140 DUP11 ADD MLOAD PUSH2 0xB15 SWAP2 SWAP1 PUSH2 0x699 SWAP1 PUSH2 0xA66 PUSH1 0x1 DUP7 PUSH2 0x5A4D JUMP JUMPDEST DUP6 PUSH1 0x80 ADD DUP2 DUP2 MSTORE POP POP PUSH2 0xB30 DUP6 PUSH1 0x60 ADD MLOAD DUP9 PUSH1 0x80 ADD MLOAD PUSH2 0x25AF JUMP JUMPDEST PUSH1 0x60 DUP7 ADD MSTORE PUSH2 0xB3E DUP2 PUSH2 0x5ACC JUMP JUMPDEST SWAP1 POP PUSH2 0xAC7 JUMP JUMPDEST POP PUSH1 0x60 DUP8 ADD MLOAD DUP2 PUSH1 0x1 PUSH1 0x20 MUL ADD MSTORE PUSH1 0x80 DUP8 ADD MLOAD DUP2 PUSH1 0x2 PUSH1 0x20 MUL ADD MSTORE PUSH1 0xA0 DUP8 ADD MLOAD DUP2 PUSH1 0x3 PUSH1 0x20 MUL ADD MSTORE PUSH1 0xC0 DUP8 ADD MLOAD DUP2 PUSH1 0x4 PUSH1 0x20 MUL ADD MSTORE PUSH1 0xE0 DUP8 ADD MLOAD DUP2 PUSH1 0x5 PUSH1 0x20 MUL ADD MSTORE PUSH2 0x100 DUP8 ADD MLOAD DUP2 PUSH1 0x6 PUSH1 0x20 MUL ADD MSTORE PUSH2 0x120 DUP8 ADD MLOAD DUP2 PUSH1 0x7 PUSH1 0x20 MUL ADD MSTORE PUSH2 0x140 DUP8 ADD MLOAD DUP2 PUSH1 0x8 PUSH1 0x20 MUL ADD MSTORE PUSH2 0x160 DUP8 ADD MLOAD DUP2 PUSH1 0x9 PUSH1 0x20 MUL ADD MSTORE PUSH2 0x1A0 DUP8 ADD MLOAD DUP2 PUSH1 0xA PUSH1 0x20 MUL ADD MSTORE PUSH2 0x180 DUP8 ADD MLOAD DUP2 PUSH1 0xB PUSH1 0x20 MUL ADD MSTORE PUSH2 0x1C0 DUP8 ADD MLOAD DUP2 PUSH1 0xC PUSH1 0x20 MUL ADD MSTORE PUSH2 0x1E0 DUP8 ADD MLOAD DUP2 PUSH1 0xD PUSH1 0x20 MUL ADD MSTORE PUSH2 0x200 DUP8 ADD MLOAD DUP2 PUSH1 0xE PUSH1 0x20 MUL ADD MSTORE PUSH2 0x220 DUP8 ADD MLOAD DUP2 PUSH1 0xF PUSH1 0x20 MUL ADD MSTORE PUSH2 0x240 DUP8 ADD MLOAD DUP2 PUSH1 0x10 PUSH1 0x20 MUL ADD MSTORE PUSH2 0x260 DUP8 ADD MLOAD DUP2 PUSH1 0x11 PUSH1 0x20 MUL ADD MSTORE PUSH2 0x280 DUP8 ADD MLOAD DUP2 PUSH1 0x12 PUSH1 0x20 MUL ADD MSTORE PUSH2 0x2A0 DUP8 ADD MLOAD DUP2 PUSH1 0x13 PUSH1 0x20 MUL ADD MSTORE PUSH2 0x2C0 DUP8 ADD MLOAD DUP2 PUSH1 0x14 PUSH1 0x20 MUL ADD MSTORE PUSH2 0x2E0 DUP8 ADD MLOAD DUP2 PUSH1 0x15 PUSH1 0x20 MUL ADD MSTORE PUSH2 0x300 DUP8 ADD MLOAD DUP2 PUSH1 0x16 PUSH1 0x20 MUL ADD MSTORE PUSH2 0x320 DUP8 ADD MLOAD DUP2 PUSH1 0x17 PUSH1 0x20 MUL ADD MSTORE PUSH2 0x340 DUP8 ADD MLOAD DUP2 PUSH1 0x18 PUSH1 0x20 MUL ADD MSTORE PUSH2 0x360 DUP8 ADD MLOAD DUP2 PUSH1 0x19 PUSH1 0x20 MUL ADD MSTORE PUSH2 0x380 DUP8 ADD MLOAD DUP2 PUSH1 0x1A PUSH1 0x20 MUL ADD MSTORE PUSH2 0x3A0 DUP8 ADD MLOAD DUP2 PUSH1 0x1B PUSH1 0x20 MUL ADD DUP2 SWAP1 MSTORE POP PUSH2 0xD12 DUP9 PUSH1 0x20 ADD MLOAD PUSH1 0x40 DUP1 MLOAD DUP1 DUP3 ADD SWAP1 SWAP2 MSTORE PUSH1 0x0 DUP1 DUP3 MSTORE PUSH1 0x20 DUP3 ADD MSTORE PUSH1 0x40 MLOAD DUP1 PUSH1 0x40 ADD PUSH1 0x40 MSTORE DUP1 PUSH1 0x88 DUP5 PUSH1 0x20 ADD MLOAD SWAP1 SHL DUP5 PUSH1 0x0 ADD MLOAD OR DUP2 MSTORE PUSH1 0x20 ADD PUSH1 0x88 DUP5 PUSH1 0x60 ADD MLOAD SWAP1 SHL DUP5 PUSH1 0x40 ADD MLOAD OR DUP2 MSTORE POP SWAP1 POP SWAP2 SWAP1 POP JUMP JUMPDEST PUSH2 0x380 DUP3 ADD MSTORE PUSH1 0x40 DUP9 DUP2 ADD MLOAD DUP2 MLOAD DUP1 DUP4 ADD DUP4 MSTORE PUSH1 0x0 DUP1 DUP3 MSTORE PUSH1 0x20 SWAP2 DUP3 ADD MSTORE DUP3 MLOAD DUP1 DUP5 ADD DUP5 MSTORE DUP2 DUP4 ADD MLOAD DUP4 MLOAD PUSH1 0x88 SWAP2 DUP3 SHL OR DUP3 MSTORE PUSH1 0x60 DUP5 ADD MLOAD SWAP4 SWAP1 SWAP5 ADD MLOAD SWAP3 SWAP1 SWAP4 SHL SWAP1 SWAP2 OR SWAP1 DUP3 ADD MSTORE PUSH2 0x3A0 DUP3 ADD MSTORE PUSH1 0x60 DUP9 DUP2 ADD MLOAD PUSH1 0x40 DUP1 MLOAD DUP1 DUP3 ADD DUP3 MSTORE PUSH1 0x0 DUP1 DUP3 MSTORE PUSH1 0x20 SWAP2 DUP3 ADD MSTORE DUP2 MLOAD DUP1 DUP4 ADD DUP4 MSTORE DUP2 DUP5 ADD MLOAD DUP5 MLOAD PUSH1 0x88 SWAP2 DUP3 SHL OR DUP3 MSTORE SWAP5 DUP5 ADD MLOAD SWAP3 SWAP1 SWAP4 ADD MLOAD SWAP2 SWAP1 SWAP4 SHL OR SWAP2 DUP2 ADD SWAP2 SWAP1 SWAP2 MSTORE PUSH2 0x3C0 DUP3 ADD MSTORE PUSH1 0x80 DUP9 ADD MLOAD PUSH1 0x40 DUP1 MLOAD DUP1 DUP3 ADD DUP3 MSTORE PUSH1 0x0 DUP1 DUP3 MSTORE PUSH1 0x20 SWAP2 DUP3 ADD MSTORE DUP2 MLOAD DUP1 DUP4 ADD DUP4 MSTORE DUP2 DUP5 ADD MLOAD DUP5 MLOAD PUSH1 0x88 SWAP2 DUP3 SHL OR DUP3 MSTORE PUSH1 0x60 DUP6 ADD MLOAD SWAP4 SWAP1 SWAP5 ADD MLOAD SWAP3 SWAP1 SWAP4 SHL SWAP1 SWAP2 OR SWAP1 DUP3 ADD MSTORE PUSH2 0x3E0 DUP3 ADD MSTORE PUSH1 0xA0 DUP9 ADD MLOAD PUSH1 0x40 DUP1 MLOAD DUP1 DUP3 ADD DUP3 MSTORE PUSH1 0x0 DUP1 DUP3 MSTORE PUSH1 0x20 SWAP2 DUP3 ADD MSTORE DUP2 MLOAD DUP1 DUP4 ADD DUP4 MSTORE DUP2 DUP5 ADD MLOAD DUP5 MLOAD PUSH1 0x88 SWAP2 DUP3 SHL OR DUP3 MSTORE PUSH1 0x60 DUP6 ADD MLOAD SWAP4 SWAP1 SWAP5 ADD MLOAD SWAP3 SWAP1 SWAP4 SHL SWAP1 SWAP2 OR SWAP1 DUP3 ADD MSTORE PUSH2 0x400 DUP3 ADD MSTORE PUSH2 0x100 DUP9 ADD MLOAD PUSH1 0x40 DUP1 MLOAD DUP1 DUP3 ADD DUP3 MSTORE PUSH1 0x0 DUP1 DUP3 MSTORE PUSH1 0x20 SWAP2 DUP3 ADD MSTORE DUP2 MLOAD DUP1 DUP4 ADD DUP4 MSTORE DUP2 DUP5 ADD MLOAD DUP5 MLOAD PUSH1 0x88 SWAP2 DUP3 SHL OR DUP3 MSTORE PUSH1 0x60 DUP6 ADD MLOAD SWAP4 SWAP1 SWAP5 ADD MLOAD SWAP3 SWAP1 SWAP4 SHL SWAP1 SWAP2 OR SWAP1 DUP3 ADD MSTORE PUSH2 0x420 DUP3 ADD MSTORE PUSH1 0xC0 DUP9 ADD MLOAD PUSH1 0x40 DUP1 MLOAD DUP1 DUP3 ADD DUP3 MSTORE PUSH1 0x0 DUP1 DUP3 MSTORE PUSH1 0x20 SWAP2 DUP3 ADD MSTORE DUP2 MLOAD DUP1 DUP4 ADD DUP4 MSTORE DUP2 DUP5 ADD MLOAD DUP5 MLOAD PUSH1 0x88 SWAP2 DUP3 SHL OR DUP3 MSTORE PUSH1 0x60 DUP6 ADD MLOAD SWAP4 SWAP1 SWAP5 ADD MLOAD SWAP3 SWAP1 SWAP4 SHL SWAP1 SWAP2 OR SWAP1 DUP3 ADD MSTORE PUSH2 0x440 DUP3 ADD MSTORE PUSH1 0xE0 DUP9 ADD MLOAD PUSH1 0x40 DUP1 MLOAD DUP1 DUP3 ADD DUP3 MSTORE PUSH1 0x0 DUP1 DUP3 MSTORE PUSH1 0x20 SWAP2 DUP3 ADD MSTORE DUP2 MLOAD DUP1 DUP4 ADD DUP4 MSTORE DUP2 DUP5 ADD MLOAD DUP5 MLOAD PUSH1 0x88 SWAP2 DUP3 SHL OR DUP3 MSTORE PUSH1 0x60 DUP6 ADD MLOAD SWAP4 SWAP1 SWAP5 ADD MLOAD SWAP3 SWAP1 SWAP4 SHL SWAP1 SWAP2 OR SWAP1 DUP3 ADD MSTORE PUSH2 0x460 DUP3 ADD MSTORE PUSH1 0x20 DUP9 DUP2 ADD MLOAD PUSH1 0x40 DUP1 MLOAD DUP1 DUP3 ADD DUP3 MSTORE PUSH1 0x0 DUP1 DUP3 MSTORE SWAP1 DUP5 ADD MSTORE DUP1 MLOAD DUP1 DUP3 ADD DUP3 MSTORE DUP3 DUP5 ADD MLOAD DUP4 MLOAD PUSH1 0x88 SWAP2 DUP3 SHL OR DUP3 MSTORE PUSH1 0x60 DUP5 ADD MLOAD SWAP3 SWAP1 SWAP4 ADD MLOAD SWAP2 SWAP1 SWAP3 SHL OR SWAP2 DUP2 ADD SWAP2 SWAP1 SWAP2 MSTORE PUSH2 0x480 DUP3 ADD MSTORE PUSH1 0x40 DUP9 DUP2 ADD MLOAD DUP2 MLOAD DUP1 DUP4 ADD DUP4 MSTORE PUSH1 0x0 DUP1 DUP3 MSTORE PUSH1 0x20 SWAP2 DUP3 ADD MSTORE DUP3 MLOAD DUP1 DUP5 ADD DUP5 MSTORE DUP2 DUP4 ADD MLOAD DUP4 MLOAD PUSH1 0x88 SWAP2 DUP3 SHL OR DUP3 MSTORE PUSH1 0x60 DUP5 ADD MLOAD SWAP4 SWAP1 SWAP5 ADD MLOAD SWAP3 SWAP1 SWAP4 SHL SWAP1 SWAP2 OR SWAP1 DUP3 ADD MSTORE PUSH2 0x4A0 DUP3 ADD MSTORE PUSH1 0x60 DUP9 DUP2 ADD MLOAD PUSH1 0x40 DUP1 MLOAD DUP1 DUP3 ADD DUP3 MSTORE PUSH1 0x0 DUP1 DUP3 MSTORE PUSH1 0x20 SWAP2 DUP3 ADD MSTORE DUP2 MLOAD DUP1 DUP4 ADD DUP4 MSTORE DUP2 DUP5 ADD MLOAD DUP5 MLOAD PUSH1 0x88 SWAP2 DUP3 SHL OR DUP3 MSTORE SWAP5 DUP5 ADD MLOAD SWAP3 SWAP1 SWAP4 ADD MLOAD SWAP2 SWAP1 SWAP4 SHL OR SWAP2 DUP2 ADD SWAP2 SWAP1 SWAP2 MSTORE PUSH2 0x4C0 DUP3 ADD MSTORE PUSH1 0x80 DUP9 ADD MLOAD PUSH1 0x40 DUP1 MLOAD DUP1 DUP3 ADD DUP3 MSTORE PUSH1 0x0 DUP1 DUP3 MSTORE PUSH1 0x20 SWAP2 DUP3 ADD MSTORE DUP2 MLOAD DUP1 DUP4 ADD DUP4 MSTORE DUP2 DUP5 ADD MLOAD DUP5 MLOAD PUSH1 0x88 SWAP2 DUP3 SHL OR DUP3 MSTORE PUSH1 0x60 DUP6 ADD MLOAD SWAP4 SWAP1 SWAP5 ADD MLOAD SWAP3 SWAP1 SWAP4 SHL SWAP1 SWAP2 OR SWAP1 DUP3 ADD MSTORE PUSH2 0x4E0 DUP3 ADD MSTORE PUSH1 0xA0 DUP9 ADD MLOAD PUSH1 0x40 DUP1 MLOAD DUP1 DUP3 ADD DUP3 MSTORE PUSH1 0x0 DUP1 DUP3 MSTORE PUSH1 0x20 SWAP2 DUP3 ADD MSTORE DUP2 MLOAD DUP1 DUP4 ADD DUP4 MSTORE DUP2 DUP5 ADD MLOAD DUP5 MLOAD PUSH1 0x88 SWAP2 DUP3 SHL OR DUP3 MSTORE PUSH1 0x60 DUP6 ADD MLOAD SWAP4 SWAP1 SWAP5 ADD MLOAD SWAP3 SWAP1 SWAP4 SHL SWAP1 SWAP2 OR SWAP1 DUP3 ADD MSTORE PUSH2 0x500 DUP3 ADD MSTORE PUSH1 0x60 DUP7 ADD MLOAD PUSH1 0x80 DUP6 ADD MLOAD PUSH2 0x180 DUP11 ADD MLOAD PUSH1 0x0 SWAP3 PUSH2 0x10C5 SWAP3 SWAP1 SWAP2 DUP8 PUSH32 0x0 PUSH2 0x2A00 JUMP JUMPDEST DUP1 MLOAD PUSH1 0xE0 DUP8 ADD MLOAD SWAP2 SWAP3 POP PUSH2 0x10D8 SWAP2 PUSH2 0x25AF JUMP JUMPDEST PUSH1 0x40 DUP7 ADD DUP2 SWAP1 MSTORE PUSH2 0x180 DUP11 ADD MLOAD MLOAD PUSH1 0xC0 DUP10 ADD MLOAD PUSH2 0x1109 SWAP3 SWAP2 PUSH2 0x699 SWAP2 PUSH2 0x10FE SWAP2 SWAP1 PUSH2 0x25AF JUMP JUMPDEST DUP9 PUSH2 0x100 ADD MLOAD PUSH2 0x25AF JUMP JUMPDEST PUSH1 0x40 DUP7 ADD MSTORE PUSH1 0xC0 DUP8 ADD MLOAD PUSH2 0x111C SWAP1 PUSH2 0x2B1E JUMP JUMPDEST PUSH1 0x60 DUP7 ADD MSTORE PUSH1 0x0 JUMPDEST PUSH2 0x1130 PUSH1 0x1 PUSH1 0x1C PUSH2 0x5A4D JUMP JUMPDEST DUP2 LT ISZERO PUSH2 0x1381 JUMPI PUSH1 0x0 PUSH2 0x1164 PUSH1 0x1 PUSH32 0x0 PUSH2 0x5A4D JUMP JUMPDEST DUP3 LT ISZERO SWAP1 POP DUP1 PUSH2 0x12E0 JUMPI PUSH2 0x1197 PUSH2 0x935 DUP11 PUSH1 0xE0 ADD MLOAD DUP9 DUP6 PUSH1 0x1 PUSH2 0x1187 SWAP2 SWAP1 PUSH2 0x5A60 JUMP JUMPDEST PUSH1 0x1C DUP2 LT PUSH2 0x92B JUMPI PUSH2 0x92B PUSH2 0x5A9D JUMP JUMPDEST PUSH1 0xE0 DUP1 DUP10 ADD SWAP2 SWAP1 SWAP2 MSTORE DUP10 ADD MLOAD PUSH2 0x11C7 SWAP1 PUSH2 0x935 SWAP1 DUP9 PUSH2 0x11B7 DUP7 PUSH1 0x1 PUSH2 0x5A60 JUMP JUMPDEST PUSH1 0x1C DUP2 LT PUSH2 0x952 JUMPI PUSH2 0x952 PUSH2 0x5A9D JUMP JUMPDEST PUSH2 0x100 DUP9 ADD MSTORE PUSH1 0x60 DUP8 ADD MLOAD PUSH1 0xE0 DUP9 ADD MLOAD PUSH2 0x11E1 SWAP2 SWAP1 PUSH2 0x25AF JUMP JUMPDEST PUSH2 0x120 DUP9 ADD MSTORE PUSH1 0x60 DUP8 ADD MLOAD PUSH1 0xC0 DUP11 ADD MLOAD PUSH2 0x11FE SWAP2 PUSH2 0x10FE SWAP2 PUSH2 0x25AF JUMP JUMPDEST PUSH2 0x140 DUP9 ADD DUP2 SWAP1 MSTORE PUSH2 0x1221 SWAP1 PUSH2 0x1213 SWAP1 PUSH2 0x29D4 JUMP JUMPDEST PUSH2 0x699 DUP10 PUSH2 0x120 ADD MLOAD PUSH2 0x29D4 JUMP JUMPDEST DUP6 DUP4 PUSH2 0x122F PUSH1 0x28 PUSH1 0x1 PUSH2 0x5A60 JUMP JUMPDEST PUSH2 0x1239 SWAP2 SWAP1 PUSH2 0x5A60 JUMP JUMPDEST PUSH1 0x46 DUP2 LT PUSH2 0x1249 JUMPI PUSH2 0x1249 PUSH2 0x5A9D JUMP JUMPDEST PUSH1 0x20 MUL ADD MSTORE PUSH2 0x140 DUP8 ADD MLOAD PUSH2 0x180 DUP13 ADD MLOAD PUSH1 0x0 SWAP2 PUSH2 0x1286 SWAP2 PUSH2 0x126C DUP7 PUSH1 0x1 PUSH2 0x5A60 JUMP JUMPDEST PUSH1 0x1C DUP2 LT PUSH2 0x127C JUMPI PUSH2 0x127C PUSH2 0x5A9D JUMP JUMPDEST PUSH1 0x20 MUL ADD MLOAD PUSH2 0x25AF JUMP JUMPDEST SWAP1 POP PUSH2 0x12A3 DUP2 PUSH2 0x699 DUP11 PUSH2 0x120 ADD MLOAD DUP8 DUP8 PUSH1 0x1 PUSH2 0x126C SWAP2 SWAP1 PUSH2 0x5A60 JUMP JUMPDEST SWAP1 POP PUSH2 0x12B3 DUP9 PUSH1 0x40 ADD MLOAD DUP3 PUSH2 0x25DC JUMP JUMPDEST PUSH1 0x40 DUP10 ADD MSTORE PUSH1 0x60 DUP9 ADD MLOAD PUSH1 0xC0 DUP12 ADD MLOAD PUSH2 0x12D9 SWAP2 PUSH2 0x12CF SWAP2 PUSH2 0x25AF JUMP JUMPDEST DUP12 PUSH1 0xC0 ADD MLOAD PUSH2 0x25AF JUMP JUMPDEST PUSH1 0x60 DUP10 ADD MSTORE POP JUMPDEST PUSH2 0x134B DUP12 PUSH2 0x160 ADD MLOAD DUP4 PUSH1 0x1B DUP2 LT PUSH2 0x12FA JUMPI PUSH2 0x12FA PUSH2 0x5A9D JUMP JUMPDEST PUSH1 0x20 MUL ADD MLOAD PUSH1 0x40 DUP1 MLOAD DUP1 DUP3 ADD SWAP1 SWAP2 MSTORE PUSH1 0x0 DUP1 DUP3 MSTORE PUSH1 0x20 DUP3 ADD MSTORE PUSH1 0x40 MLOAD DUP1 PUSH1 0x40 ADD PUSH1 0x40 MSTORE DUP1 PUSH1 0x88 DUP5 PUSH1 0x20 ADD MLOAD SWAP1 SHL DUP5 PUSH1 0x0 ADD MLOAD OR DUP2 MSTORE PUSH1 0x20 ADD PUSH1 0x88 DUP5 PUSH1 0x60 ADD MLOAD SWAP1 SHL DUP5 PUSH1 0x40 ADD MLOAD OR DUP2 MSTORE POP SWAP1 POP SWAP2 SWAP1 POP JUMP JUMPDEST DUP5 DUP4 PUSH2 0x1359 PUSH1 0x28 PUSH1 0x1 PUSH2 0x5A60 JUMP JUMPDEST PUSH2 0x1363 SWAP2 SWAP1 PUSH2 0x5A60 JUMP JUMPDEST PUSH1 0x46 DUP2 LT PUSH2 0x1373 JUMPI PUSH2 0x1373 PUSH2 0x5A9D JUMP JUMPDEST PUSH1 0x20 MUL ADD MSTORE POP PUSH1 0x1 ADD PUSH2 0x1124 JUMP JUMPDEST POP PUSH1 0x40 DUP1 MLOAD DUP1 DUP3 ADD SWAP1 SWAP2 MSTORE PUSH1 0x1 DUP2 MSTORE PUSH1 0x2 PUSH1 0x20 DUP3 ADD MSTORE DUP3 PUSH2 0x13A4 PUSH1 0x1C PUSH1 0x28 PUSH2 0x5A60 JUMP JUMPDEST PUSH1 0x46 DUP2 LT PUSH2 0x13B4 JUMPI PUSH2 0x13B4 PUSH2 0x5A9D JUMP JUMPDEST PUSH1 0x20 MUL ADD MSTORE PUSH1 0x40 DUP6 ADD MLOAD DUP4 PUSH2 0x13CB PUSH1 0x1C PUSH1 0x28 PUSH2 0x5A60 JUMP JUMPDEST PUSH1 0x46 DUP2 LT PUSH2 0x13DB JUMPI PUSH2 0x13DB PUSH2 0x5A9D JUMP JUMPDEST PUSH1 0x20 MUL ADD MSTORE PUSH2 0x1C0 DUP10 ADD MLOAD PUSH1 0x0 SWAP1 PUSH2 0x1439 SWAP1 PUSH1 0x40 DUP1 MLOAD DUP1 DUP3 ADD SWAP1 SWAP2 MSTORE PUSH1 0x0 DUP1 DUP3 MSTORE PUSH1 0x20 DUP3 ADD MSTORE PUSH1 0x40 MLOAD DUP1 PUSH1 0x40 ADD PUSH1 0x40 MSTORE DUP1 PUSH1 0x88 DUP5 PUSH1 0x20 ADD MLOAD SWAP1 SHL DUP5 PUSH1 0x0 ADD MLOAD OR DUP2 MSTORE PUSH1 0x20 ADD PUSH1 0x88 DUP5 PUSH1 0x60 ADD MLOAD SWAP1 SHL DUP5 PUSH1 0x40 ADD MLOAD OR DUP2 MSTORE POP SWAP1 POP SWAP2 SWAP1 POP JUMP JUMPDEST SWAP1 POP DUP1 DUP4 PUSH2 0x1449 PUSH1 0x1C PUSH1 0x28 PUSH2 0x5A60 JUMP JUMPDEST PUSH2 0x1454 SWAP1 PUSH1 0x1 PUSH2 0x5A60 JUMP JUMPDEST PUSH1 0x46 DUP2 LT PUSH2 0x1464 JUMPI PUSH2 0x1464 PUSH2 0x5A9D JUMP JUMPDEST PUSH1 0x20 MUL ADD MSTORE PUSH1 0xE0 DUP9 ADD MLOAD DUP5 PUSH2 0x147B PUSH1 0x1C PUSH1 0x28 PUSH2 0x5A60 JUMP JUMPDEST PUSH2 0x1486 SWAP1 PUSH1 0x1 PUSH2 0x5A60 JUMP JUMPDEST PUSH1 0x46 DUP2 LT PUSH2 0x1496 JUMPI PUSH2 0x1496 PUSH2 0x5A9D JUMP JUMPDEST PUSH1 0x20 MUL ADD MSTORE PUSH1 0x0 PUSH2 0x14A7 DUP5 DUP7 PUSH2 0x2B2A JUMP JUMPDEST SWAP1 POP PUSH1 0x0 PUSH2 0x14B4 DUP4 PUSH2 0x2BFD JUMP JUMPDEST SWAP1 POP PUSH2 0x14C0 DUP3 DUP3 PUSH2 0x2C75 JUMP JUMPDEST SWAP13 SWAP12 POP POP POP POP POP POP POP POP POP POP POP POP JUMP JUMPDEST PUSH2 0x14D8 PUSH2 0x4FF1 JUMP JUMPDEST POP PUSH1 0x40 DUP1 MLOAD PUSH2 0x3C0 DUP2 ADD DUP3 MSTORE PUSH3 0x10000 DUP2 MSTORE PUSH1 0x10 PUSH1 0x20 DUP1 DUP4 ADD SWAP2 SWAP1 SWAP2 MSTORE PUSH1 0x25 DUP3 DUP5 ADD MSTORE DUP3 MLOAD DUP1 DUP5 ADD DUP5 MSTORE PUSH32 0x2BE1C5A83A9BB45CCC72715215E11AEE13D12BD14E44631B79C9A7BC6867460A DUP2 MSTORE PUSH32 0x1CE1B2E74B29F47141488B7FFC4FA985C9EFAE113C864041B42857F806C548CA DUP2 DUP4 ADD MSTORE PUSH1 0x60 DUP4 ADD MSTORE DUP3 MLOAD DUP1 DUP5 ADD DUP5 MSTORE PUSH32 0x2D444CCD32996F4199EAD2691D645146D4C80F40BBBE7CE91C6ED2E79BBA092C DUP2 MSTORE PUSH32 0x17EAE415F44057A8150B5C31ADC879E66E08F296ACEF84B7BCC40B0F38850193 DUP2 DUP4 ADD MSTORE PUSH1 0x80 DUP4 ADD MSTORE DUP3 MLOAD DUP1 DUP5 ADD DUP5 MSTORE PUSH32 0x1FB9453D9930841028164017A77E4EA18E5AC5A6D9D762B165A95D5F76CA366D DUP2 MSTORE PUSH32 0x1619EE9E7240A3F1ED899C6D5D52C4C0CD8385C985B60BD2DC6FB394EDA64F54 DUP2 DUP4 ADD MSTORE PUSH1 0xA0 DUP4 ADD MSTORE DUP3 MLOAD DUP1 DUP5 ADD DUP5 MSTORE PUSH32 0x1F8364D500486B7C4B7953254747399E4D9B3AA698D947896D483CC69B1B36E9 DUP2 MSTORE PUSH32 0x2C632F2B7FC3ED54625D1D9EA149215C4C0A6FEAC3AA5A616352845EDD4134B5 DUP2 DUP4 ADD MSTORE PUSH1 0xC0 DUP4 ADD MSTORE DUP3 MLOAD DUP1 DUP5 ADD DUP5 MSTORE PUSH32 0x8AB575287C40193F72516C9B0F16E63BC98ABF00E6B2B718CEB4210BE51F83A DUP2 MSTORE PUSH32 0x1670B6BD12B552588B777FF289ECB666D6574BD52612658FFB065056F46A0AE5 DUP2 DUP4 ADD MSTORE PUSH1 0xE0 DUP4 ADD MSTORE DUP3 MLOAD DUP1 DUP5 ADD DUP5 MSTORE PUSH32 0x1049807DF058FDD0232F25F33E344BDAED9BA87C397CDB607F67B1F399CF5B2B DUP2 MSTORE PUSH32 0x212C81642BA2F4E9FF537ED6F01D8C63308DD0301D67406741F061EB91CBCEA1 DUP2 DUP4 ADD MSTORE PUSH2 0x100 DUP4 ADD MSTORE DUP3 MLOAD DUP1 DUP5 ADD DUP5 MSTORE PUSH32 0x2C4D447B22AA60596802B0C76EFB96642E91A4CD4BA9B5FEA6CEF463A51E8FDD DUP2 MSTORE PUSH32 0x29185A4CAC6A0FB9990B63700E694C042E7F0801029CDA067E67FE248802E1A8 DUP2 DUP4 ADD MSTORE PUSH2 0x120 DUP4 ADD MSTORE DUP3 MLOAD DUP1 DUP5 ADD DUP5 MSTORE PUSH32 0x8FE669521564CD7B4955F8BA617C4AF0942B39ED8793BD5D368BC4B44D8637C DUP2 MSTORE PUSH32 0xB3F4E454A02385CC373A39CC42F1E3C9A2E1EDA3515A9EA0CD4AAB48F8660CA DUP2 DUP4 ADD MSTORE PUSH2 0x140 DUP4 ADD MSTORE DUP3 MLOAD DUP1 DUP5 ADD DUP5 MSTORE PUSH32 0x1B0496B81801081998FFC464E31733E20DC5CAE78118E213675142878AA80AF8 DUP2 MSTORE PUSH32 0x36487F719D87081B59F559DF9887531C2565789B18256BF1E727659554EED02 DUP2 DUP4 ADD MSTORE PUSH2 0x160 DUP4 ADD MSTORE DUP3 MLOAD DUP1 DUP5 ADD DUP5 MSTORE PUSH32 0xA2C96286E7983F1B5947F54939AB5AF76EEBABA18AD9C79F2DAFBA303399338 DUP2 MSTORE PUSH32 0x918A2102EF11FC29B27D975CF7E38D17F250C24E733916D645FA59C98930AFA DUP2 DUP4 ADD MSTORE PUSH2 0x180 DUP4 ADD MSTORE DUP3 MLOAD DUP1 DUP5 ADD DUP5 MSTORE PUSH32 0x65023E2A2EF1B33B6EB46EF1B07143791B80205396B5F6C909475D2B61D2347 DUP2 MSTORE PUSH32 0xC62D95FC5C548307536D9F5A3A88BDDF145CF8C6AD7A8B7376601B766DD0C23 DUP2 DUP4 ADD MSTORE PUSH2 0x1A0 DUP4 ADD MSTORE DUP3 MLOAD DUP1 DUP5 ADD DUP5 MSTORE PUSH32 0xE319E733C17F729465DFA447C9FC401145E57D7E5C628AA91B4B923B23CC57F DUP2 MSTORE PUSH32 0x1C491172C301FDB9B5AB72A7869DD3034389A2F60CD5F3DF87681FFFE2C0A9FD DUP2 DUP4 ADD MSTORE PUSH2 0x1C0 DUP4 ADD MSTORE DUP3 MLOAD DUP1 DUP5 ADD DUP5 MSTORE PUSH32 0x8D9BC2E5547488F591201C197D1D98861A4373EA780701CC9D7D8F5C1DEC9C1 DUP2 MSTORE PUSH32 0x1759D05380A8775C9330FCBCF03B30390A177B2D3B7D91B1B23529E9FE52D94D DUP2 DUP4 ADD MSTORE PUSH2 0x1E0 DUP4 ADD MSTORE DUP3 MLOAD DUP1 DUP5 ADD DUP5 MSTORE PUSH32 0x29F175A342EEA2E0D29E2B722C6278C8B1DA959BDB525E46BE05907D96AD822B DUP2 MSTORE PUSH32 0x2C53447AC61252576D6ACAC3991B92DB0641F7E37BB720295110BC938BF28219 DUP2 DUP4 ADD MSTORE PUSH2 0x200 DUP4 ADD MSTORE DUP3 MLOAD DUP1 DUP5 ADD DUP5 MSTORE PUSH32 0xD2E379EC5BC6F5C77FACE3D06B7B04AACAF95119B5038DF14EFCA139A25F287 DUP2 MSTORE PUSH32 0x23BA3ED0422B1A1448BEE236EEAA3D58559236E5D370AEFEBF1A878B54D41399 DUP2 DUP4 ADD MSTORE PUSH2 0x220 DUP4 ADD MSTORE DUP3 MLOAD DUP1 DUP5 ADD DUP5 MSTORE PUSH32 0x3058C4D4673F2E8E608456D42B799850B2142A213A66C9D0CC14F45B3B47AC26 DUP2 MSTORE PUSH32 0x12F15AFA653C1D8E34043FDD2EDBA7D6F499576B777563CBA087C66AE5083157 DUP2 DUP4 ADD MSTORE PUSH2 0x240 DUP4 ADD MSTORE DUP3 MLOAD DUP1 DUP5 ADD DUP5 MSTORE PUSH32 0x241A63B8BFF0253D02157EEFB23CDEB7F628F82BD49262D9A75458A60553DDF9 DUP2 MSTORE PUSH32 0xC38E8E62A578BAE09FE52B7E61E652BCC8AC391FFF56A71167A158331BE807A DUP2 DUP4 ADD MSTORE PUSH2 0x260 DUP4 ADD MSTORE DUP3 MLOAD DUP1 DUP5 ADD DUP5 MSTORE PUSH32 0x25D964B18D3D27C3ADDFEC533A43330485E7FC2C004AB65946C569AC8DA7E613 DUP2 MSTORE PUSH32 0x2CCADBA02FC8B19E6B353882AFC417C09B2B2407BA5223A7EC3D90FB3310A603 DUP2 DUP4 ADD MSTORE PUSH2 0x280 DUP4 ADD MSTORE DUP3 MLOAD DUP1 DUP5 ADD DUP5 MSTORE PUSH32 0x2250E2352728391E1985E9B691EE9C6DB3AF42A1973F6D2B162ED0DF51FCA62E DUP2 MSTORE PUSH32 0x1FF4A936DF4C21F02BF08236CD9F602904C7996A6A73B2F628156E51852A6E51 DUP2 DUP4 ADD MSTORE PUSH2 0x2A0 DUP4 ADD MSTORE DUP3 MLOAD DUP1 DUP5 ADD DUP5 MSTORE PUSH32 0x4FBC8B219DDDD1914A371F04D9B948F487530452765974A7EAC59F696FED292 DUP2 MSTORE PUSH32 0x2360D6FA214BA961282A4EC5BE1AB44A3CB6B05B5B3B9A47319D08169AA1E294 DUP2 DUP4 ADD MSTORE PUSH2 0x2C0 DUP4 ADD MSTORE DUP3 MLOAD DUP1 DUP5 ADD DUP5 MSTORE PUSH32 0x302005E3F37D26C24C8504950F63A1110D47DA957169F6686D48CD0A59A60340 DUP2 MSTORE PUSH32 0xEF0552DB1A1726D96FF943D32A65B7F9C950444EA26809DF70D25C4F71374C5 DUP2 DUP4 ADD MSTORE PUSH2 0x2E0 DUP4 ADD MSTORE DUP3 MLOAD DUP1 DUP5 ADD DUP5 MSTORE PUSH32 0x3C9857603C62C4B13A7BE8BEB30C3A852548D7218BF373ABC4EDF49DBB5EBA7 DUP2 MSTORE PUSH32 0x303A555AFAB20E7AA7E8F38670B98353C291AB2198DD6B2AE0031818A05E9963 DUP2 DUP4 ADD MSTORE PUSH2 0x300 DUP4 ADD MSTORE DUP3 MLOAD DUP1 DUP5 ADD DUP5 MSTORE PUSH32 0x15250006C2072E54FB550A16AE90AC799901ACE1B18BA767D78A845CCD2D1F5D DUP2 MSTORE PUSH32 0x176840C8AD52E220E167DFC832B4E7E5C0599B44EB928EFF28BD2186855E3EFB DUP2 DUP4 ADD MSTORE PUSH2 0x320 DUP4 ADD MSTORE DUP3 MLOAD DUP1 DUP5 ADD DUP5 MSTORE PUSH32 0xF40A25DB17C59D2810E2CDDF25585BDA7199B1D3F9582ADF229A947A2EA021E DUP2 MSTORE PUSH32 0x26825F765EB8FEF3DA4574E4E6B6E7140B7E3E04F88A5E1DB19E2770F94BACB1 DUP2 DUP4 ADD MSTORE PUSH2 0x340 DUP4 ADD MSTORE DUP3 MLOAD DUP1 DUP5 ADD DUP5 MSTORE PUSH32 0x67E3889977AD6BF917065041C2B3F2A3978DBB70C3E9DFBB1CC9A4B192098C5 DUP2 MSTORE PUSH32 0x1B9BA68888EC6674FAB4D9E078D5E65CF401E0BF1B52F13BACE717467921AB33 DUP2 DUP4 ADD MSTORE PUSH2 0x360 DUP4 ADD MSTORE DUP3 MLOAD DUP1 DUP5 ADD DUP5 MSTORE PUSH1 0x1 DUP2 MSTORE PUSH1 0x2 DUP2 DUP4 ADD MSTORE PUSH2 0x380 DUP4 ADD MSTORE DUP3 MLOAD DUP1 DUP5 ADD SWAP1 SWAP4 MSTORE PUSH32 0x16C3D7D2E6A45353D3403048DDB0D74ED37BA6654A78D7875504A4856E2CCF97 DUP4 MSTORE PUSH32 0x316F8EDC6227217CE96B5974742A6377C0483494CEA3940F0A6DC50711966C8 SWAP1 DUP4 ADD MSTORE PUSH2 0x3A0 DUP2 ADD SWAP2 SWAP1 SWAP2 MSTORE SWAP1 JUMP JUMPDEST PUSH1 0x0 PUSH1 0x20 DUP3 EQ PUSH2 0x1E4D JUMPI PUSH1 0x40 MLOAD PUSH32 0x8C379A000000000000000000000000000000000000000000000000000000000 DUP2 MSTORE PUSH1 0x20 PUSH1 0x4 DUP3 ADD MSTORE PUSH1 0x2E PUSH1 0x24 DUP3 ADD MSTORE PUSH32 0x696E76616C6964206E756D626572206F6620627974657320746F20636F6E7374 PUSH1 0x44 DUP3 ADD MSTORE PUSH32 0x72756374204672207363616C6172000000000000000000000000000000000000 PUSH1 0x64 DUP3 ADD MSTORE PUSH1 0x84 ADD JUMPDEST PUSH1 0x40 MLOAD DUP1 SWAP2 SUB SWAP1 REVERT JUMPDEST PUSH2 0x1E5A PUSH2 0x68F DUP4 DUP6 PUSH2 0x5B04 JUMP JUMPDEST SWAP4 SWAP3 POP POP POP JUMP JUMPDEST PUSH2 0x1E8C PUSH1 0x40 MLOAD DUP1 PUSH1 0x80 ADD PUSH1 0x40 MSTORE DUP1 PUSH1 0x0 DUP2 MSTORE PUSH1 0x20 ADD PUSH1 0x0 DUP2 MSTORE PUSH1 0x20 ADD PUSH1 0x0 DUP2 MSTORE PUSH1 0x20 ADD PUSH1 0x0 DUP2 MSTORE POP SWAP1 JUMP JUMPDEST PUSH1 0x80 DUP3 EQ PUSH2 0x1F1C JUMPI PUSH1 0x40 MLOAD PUSH32 0x8C379A000000000000000000000000000000000000000000000000000000000 DUP2 MSTORE PUSH1 0x20 PUSH1 0x4 DUP3 ADD MSTORE PUSH1 0x2F PUSH1 0x24 DUP3 ADD MSTORE PUSH32 0x696E76616C6964206E756D626572206F6620627974657320746F20636F6E7374 PUSH1 0x44 DUP3 ADD MSTORE PUSH32 0x72756374206120473120706F696E740000000000000000000000000000000000 PUSH1 0x64 DUP3 ADD MSTORE PUSH1 0x84 ADD PUSH2 0x1E44 JUMP JUMPDEST PUSH1 0x40 DUP1 MLOAD PUSH1 0x80 DUP2 ADD SWAP1 SWAP2 MSTORE DUP1 PUSH2 0x1F36 PUSH1 0x20 PUSH1 0x0 DUP7 DUP9 PUSH2 0x5A73 JUMP JUMPDEST PUSH2 0x1F3F SWAP2 PUSH2 0x5B04 JUMP JUMPDEST DUP2 MSTORE PUSH1 0x20 SWAP1 DUP2 ADD SWAP1 PUSH2 0x1F55 SWAP1 PUSH1 0x40 SWAP1 DUP7 DUP9 PUSH2 0x5A73 JUMP JUMPDEST PUSH2 0x1F5E SWAP2 PUSH2 0x5B04 JUMP JUMPDEST DUP2 MSTORE PUSH1 0x20 ADD PUSH2 0x1F71 PUSH1 0x60 PUSH1 0x40 DUP7 DUP9 PUSH2 0x5A73 JUMP JUMPDEST PUSH2 0x1F7A SWAP2 PUSH2 0x5B04 JUMP JUMPDEST DUP2 MSTORE PUSH1 0x20 ADD PUSH2 0x1F8D PUSH1 0x80 PUSH1 0x60 DUP7 DUP9 PUSH2 0x5A73 JUMP JUMPDEST PUSH2 0x1F96 SWAP2 PUSH2 0x5B04 JUMP JUMPDEST SWAP1 MSTORE SWAP4 SWAP3 POP POP POP JUMP JUMPDEST PUSH2 0x1FD8 PUSH1 0x40 MLOAD DUP1 PUSH1 0xC0 ADD PUSH1 0x40 MSTORE DUP1 PUSH1 0x0 DUP2 MSTORE PUSH1 0x20 ADD PUSH1 0x0 DUP2 MSTORE PUSH1 0x20 ADD PUSH1 0x0 DUP2 MSTORE PUSH1 0x20 ADD PUSH1 0x0 DUP2 MSTORE PUSH1 0x20 ADD PUSH1 0x0 DUP2 MSTORE PUSH1 0x20 ADD PUSH1 0x0 DUP2 MSTORE POP SWAP1 JUMP JUMPDEST PUSH1 0x0 PUSH2 0x1FE8 DUP10 DUP10 DUP10 DUP10 DUP10 DUP10 PUSH2 0x2E7B JUMP JUMPDEST PUSH1 0x40 DUP7 ADD SWAP2 SWAP1 SWAP2 MSTORE PUSH1 0x20 DUP6 ADD SWAP2 SWAP1 SWAP2 MSTORE SWAP1 DUP4 MSTORE SWAP3 POP PUSH2 0x2007 DUP4 DUP11 PUSH2 0x332B JUMP JUMPDEST PUSH1 0x80 DUP6 ADD SWAP2 SWAP1 SWAP2 MSTORE PUSH1 0x60 DUP5 ADD SWAP2 SWAP1 SWAP2 MSTORE SWAP2 SWAP10 SWAP2 SWAP9 POP SWAP1 SWAP7 POP POP POP POP POP POP POP JUMP JUMPDEST PUSH2 0x202F PUSH2 0x5724 JUMP JUMPDEST PUSH1 0x0 PUSH2 0x2039 PUSH2 0x5743 JUMP JUMPDEST DUP5 DUP2 MSTORE PUSH2 0x100 DUP5 DUP2 ADD DUP1 MLOAD MLOAD PUSH1 0x20 DUP1 DUP6 ADD SWAP2 SWAP1 SWAP2 MSTORE DUP2 MLOAD DUP2 ADD MLOAD PUSH1 0x40 DUP1 DUP7 ADD SWAP2 SWAP1 SWAP2 MSTORE DUP3 MLOAD DUP2 ADD MLOAD PUSH1 0x60 DUP1 DUP8 ADD SWAP2 SWAP1 SWAP2 MSTORE SWAP3 MLOAD DUP4 ADD MLOAD PUSH1 0x80 DUP7 ADD MSTORE PUSH1 0xA0 DUP1 DUP10 ADD DUP1 MLOAD MLOAD SWAP2 DUP8 ADD SWAP2 SWAP1 SWAP2 MSTORE DUP1 MLOAD DUP4 ADD MLOAD PUSH1 0xC0 DUP8 ADD MSTORE DUP1 MLOAD DUP3 ADD MLOAD PUSH1 0xE0 DUP8 ADD MSTORE MLOAD SWAP1 SWAP3 ADD MLOAD SWAP3 DUP5 ADD SWAP3 SWAP1 SWAP3 MSTORE MLOAD PUSH2 0x20CF SWAP2 PUSH2 0x20B4 SWAP2 DUP5 SWAP2 ADD PUSH2 0x5B40 JUMP JUMPDEST PUSH1 0x40 MLOAD PUSH1 0x20 DUP2 DUP4 SUB SUB DUP2 MSTORE SWAP1 PUSH1 0x40 MSTORE DUP1 MLOAD SWAP1 PUSH1 0x20 ADD KECCAK256 PUSH2 0x257D JUMP JUMPDEST SWAP2 POP PUSH2 0x20DA DUP3 PUSH2 0x33FC JUMP JUMPDEST PUSH1 0x20 DUP6 ADD MSTORE DUP4 MSTORE PUSH1 0x1 JUMPDEST PUSH2 0x20F0 PUSH1 0x2 PUSH1 0x1A PUSH2 0x5BA4 JUMP JUMPDEST DUP2 LT ISZERO PUSH2 0x2170 JUMPI PUSH2 0x210D DUP4 PUSH1 0x40 MLOAD PUSH1 0x20 ADD PUSH2 0x20B4 SWAP2 DUP2 MSTORE PUSH1 0x20 ADD SWAP1 JUMP JUMPDEST SWAP3 POP PUSH2 0x2118 DUP4 PUSH2 0x33FC JUMP JUMPDEST DUP6 PUSH2 0x2124 DUP5 PUSH1 0x2 PUSH2 0x5A36 JUMP JUMPDEST PUSH1 0x1A DUP2 LT PUSH2 0x2134 JUMPI PUSH2 0x2134 PUSH2 0x5A9D JUMP JUMPDEST PUSH1 0x20 MUL ADD DUP7 PUSH2 0x2144 DUP6 PUSH1 0x2 PUSH2 0x5A36 JUMP JUMPDEST PUSH2 0x214F SWAP1 PUSH1 0x1 PUSH2 0x5A60 JUMP JUMPDEST PUSH1 0x1A DUP2 LT PUSH2 0x215F JUMPI PUSH2 0x215F PUSH2 0x5A9D JUMP JUMPDEST PUSH1 0x20 MUL ADD SWAP2 SWAP1 SWAP2 MSTORE MSTORE PUSH1 0x1 ADD PUSH2 0x20E4 JUMP JUMPDEST POP POP SWAP3 POP SWAP3 SWAP1 POP JUMP JUMPDEST PUSH2 0x2181 PUSH2 0x5762 JUMP JUMPDEST PUSH1 0x0 DUP1 JUMPDEST PUSH1 0x1C DUP2 LT ISZERO PUSH2 0x21D5 JUMPI PUSH2 0x21A4 DUP5 PUSH1 0x40 MLOAD PUSH1 0x20 ADD PUSH2 0x20B4 SWAP2 DUP2 MSTORE PUSH1 0x20 ADD SWAP1 JUMP JUMPDEST SWAP4 POP PUSH1 0x0 PUSH2 0x21B1 DUP6 PUSH2 0x33FC JUMP JUMPDEST DUP6 DUP5 PUSH1 0x1C DUP2 LT PUSH2 0x21C3 JUMPI PUSH2 0x21C3 PUSH2 0x5A9D JUMP JUMPDEST PUSH1 0x20 MUL ADD SWAP2 SWAP1 SWAP2 MSTORE POP POP PUSH1 0x1 ADD PUSH2 0x2185 JUMP JUMPDEST POP SWAP1 SWAP3 SWAP1 POP JUMP JUMPDEST PUSH2 0x21E4 PUSH2 0x5762 JUMP JUMPDEST PUSH1 0x0 DUP1 JUMPDEST PUSH1 0x1C DUP2 LT ISZERO PUSH2 0x22AA JUMPI PUSH2 0x21F9 PUSH2 0x5743 JUMP JUMPDEST DUP5 DUP2 MSTORE PUSH1 0x0 JUMPDEST PUSH1 0x8 DUP2 LT ISZERO PUSH2 0x2263 JUMPI DUP7 PUSH2 0x120 ADD MLOAD DUP4 PUSH1 0x1C DUP2 LT PUSH2 0x221F JUMPI PUSH2 0x221F PUSH2 0x5A9D JUMP JUMPDEST PUSH1 0x20 MUL ADD MLOAD DUP2 PUSH1 0x8 DUP2 LT PUSH2 0x2235 JUMPI PUSH2 0x2235 PUSH2 0x5A9D JUMP JUMPDEST PUSH1 0x20 MUL ADD MLOAD DUP3 PUSH2 0x2246 DUP4 PUSH1 0x1 PUSH2 0x5A60 JUMP JUMPDEST PUSH1 0x9 DUP2 LT PUSH2 0x2256 JUMPI PUSH2 0x2256 PUSH2 0x5A9D JUMP JUMPDEST PUSH1 0x20 MUL ADD MSTORE PUSH1 0x1 ADD PUSH2 0x21FF JUMP JUMPDEST POP PUSH2 0x2278 DUP2 PUSH1 0x40 MLOAD PUSH1 0x20 ADD PUSH2 0x20B4 SWAP2 SWAP1 PUSH2 0x5B40 JUMP JUMPDEST SWAP5 POP PUSH1 0x0 PUSH2 0x2285 DUP7 PUSH2 0x33FC JUMP JUMPDEST DUP7 DUP6 PUSH1 0x1C DUP2 LT PUSH2 0x2297 JUMPI PUSH2 0x2297 PUSH2 0x5A9D JUMP JUMPDEST PUSH1 0x20 MUL ADD SWAP2 SWAP1 SWAP2 MSTORE POP POP POP PUSH1 0x1 ADD PUSH2 0x21E8 JUMP JUMPDEST POP SWAP1 SWAP4 SWAP2 SWAP3 POP POP JUMP JUMPDEST PUSH1 0x0 DUP1 PUSH2 0x22BE PUSH2 0x5781 JUMP JUMPDEST DUP4 DUP2 MSTORE PUSH1 0x0 JUMPDEST PUSH1 0x28 DUP2 LT ISZERO PUSH2 0x2312 JUMPI DUP6 PUSH2 0x140 ADD MLOAD DUP2 PUSH1 0x28 DUP2 LT PUSH2 0x22E4 JUMPI PUSH2 0x22E4 PUSH2 0x5A9D JUMP JUMPDEST PUSH1 0x20 MUL ADD MLOAD DUP3 PUSH2 0x22F5 DUP4 PUSH1 0x1 PUSH2 0x5A60 JUMP JUMPDEST PUSH1 0x29 DUP2 LT PUSH2 0x2305 JUMPI PUSH2 0x2305 PUSH2 0x5A9D JUMP JUMPDEST PUSH1 0x20 MUL ADD MSTORE PUSH1 0x1 ADD PUSH2 0x22C4 JUMP JUMPDEST POP PUSH2 0x2327 DUP2 PUSH1 0x40 MLOAD PUSH1 0x20 ADD PUSH2 0x20B4 SWAP2 SWAP1 PUSH2 0x5BB8 JUMP JUMPDEST SWAP2 POP PUSH1 0x0 PUSH2 0x2334 DUP4 PUSH2 0x33FC JUMP JUMPDEST POP SWAP7 SWAP3 SWAP6 POP SWAP2 SWAP4 POP POP POP POP JUMP JUMPDEST PUSH1 0x0 DUP1 PUSH2 0x234C PUSH2 0x57A0 JUMP JUMPDEST DUP4 DUP2 MSTORE PUSH1 0x0 JUMPDEST PUSH2 0x235E PUSH1 0x1 PUSH1 0x1C PUSH2 0x5A4D JUMP JUMPDEST DUP2 LT ISZERO PUSH2 0x249C JUMPI DUP6 PUSH2 0x160 ADD MLOAD DUP2 PUSH1 0x1B DUP2 LT PUSH2 0x237C JUMPI PUSH2 0x237C PUSH2 0x5A9D JUMP JUMPDEST PUSH1 0x20 MUL ADD MLOAD MLOAD DUP3 PUSH2 0x238E DUP4 PUSH1 0x4 PUSH2 0x5A36 JUMP JUMPDEST PUSH2 0x2399 SWAP1 PUSH1 0x1 PUSH2 0x5A60 JUMP JUMPDEST PUSH1 0x6D DUP2 LT PUSH2 0x23A9 JUMPI PUSH2 0x23A9 PUSH2 0x5A9D JUMP JUMPDEST PUSH1 0x20 MUL ADD MSTORE PUSH2 0x160 DUP7 ADD MLOAD DUP2 PUSH1 0x1B DUP2 LT PUSH2 0x23C5 JUMPI PUSH2 0x23C5 PUSH2 0x5A9D JUMP JUMPDEST PUSH1 0x20 MUL ADD MLOAD PUSH1 0x20 ADD MLOAD DUP3 DUP3 PUSH1 0x4 PUSH2 0x23DC SWAP2 SWAP1 PUSH2 0x5A36 JUMP JUMPDEST PUSH2 0x23E7 SWAP1 PUSH1 0x2 PUSH2 0x5A60 JUMP JUMPDEST PUSH1 0x6D DUP2 LT PUSH2 0x23F7 JUMPI PUSH2 0x23F7 PUSH2 0x5A9D JUMP JUMPDEST PUSH1 0x20 MUL ADD MSTORE PUSH2 0x160 DUP7 ADD MLOAD DUP2 PUSH1 0x1B DUP2 LT PUSH2 0x2413 JUMPI PUSH2 0x2413 PUSH2 0x5A9D JUMP JUMPDEST PUSH1 0x20 MUL ADD MLOAD PUSH1 0x40 ADD MLOAD DUP3 PUSH2 0x2428 DUP4 PUSH1 0x4 PUSH2 0x5A36 JUMP JUMPDEST PUSH2 0x2433 SWAP1 PUSH1 0x3 PUSH2 0x5A60 JUMP JUMPDEST PUSH1 0x6D DUP2 LT PUSH2 0x2443 JUMPI PUSH2 0x2443 PUSH2 0x5A9D JUMP JUMPDEST PUSH1 0x20 MUL ADD MSTORE PUSH2 0x160 DUP7 ADD MLOAD DUP2 PUSH1 0x1B DUP2 LT PUSH2 0x245F JUMPI PUSH2 0x245F PUSH2 0x5A9D JUMP JUMPDEST PUSH1 0x20 MUL ADD MLOAD PUSH1 0x60 ADD MLOAD DUP3 PUSH2 0x2474 DUP4 PUSH1 0x4 PUSH2 0x5A36 JUMP JUMPDEST PUSH2 0x247F SWAP1 PUSH1 0x4 PUSH2 0x5A60 JUMP JUMPDEST PUSH1 0x6D DUP2 LT PUSH2 0x248F JUMPI PUSH2 0x248F PUSH2 0x5A9D JUMP JUMPDEST PUSH1 0x20 MUL ADD MSTORE PUSH1 0x1 ADD PUSH2 0x2352 JUMP JUMPDEST POP PUSH2 0x2327 DUP2 PUSH1 0x40 MLOAD PUSH1 0x20 ADD PUSH2 0x20B4 SWAP2 SWAP1 PUSH2 0x5BED JUMP JUMPDEST PUSH1 0x0 DUP1 PUSH2 0x24BC PUSH2 0x57BF JUMP JUMPDEST DUP4 DUP2 MSTORE PUSH1 0x0 JUMPDEST PUSH1 0x1C DUP2 LT ISZERO PUSH2 0x2510 JUMPI DUP6 PUSH2 0x180 ADD MLOAD DUP2 PUSH1 0x1C DUP2 LT PUSH2 0x24E2 JUMPI PUSH2 0x24E2 PUSH2 0x5A9D JUMP JUMPDEST PUSH1 0x20 MUL ADD MLOAD DUP3 PUSH2 0x24F3 DUP4 PUSH1 0x1 PUSH2 0x5A60 JUMP JUMPDEST PUSH1 0x1D DUP2 LT PUSH2 0x2503 JUMPI PUSH2 0x2503 PUSH2 0x5A9D JUMP JUMPDEST PUSH1 0x20 MUL ADD MSTORE PUSH1 0x1 ADD PUSH2 0x24C2 JUMP JUMPDEST POP PUSH2 0x2327 DUP2 PUSH1 0x40 MLOAD PUSH1 0x20 ADD PUSH2 0x20B4 SWAP2 SWAP1 PUSH2 0x5C22 JUMP JUMPDEST PUSH1 0x0 DUP1 PUSH2 0x2530 PUSH2 0x57DE JUMP JUMPDEST DUP4 DUP2 MSTORE PUSH2 0x1A0 DUP6 ADD DUP1 MLOAD MLOAD PUSH1 0x20 DUP1 DUP5 ADD SWAP2 SWAP1 SWAP2 MSTORE DUP2 MLOAD DUP2 ADD MLOAD PUSH1 0x40 DUP1 DUP6 ADD SWAP2 SWAP1 SWAP2 MSTORE DUP3 MLOAD DUP2 ADD MLOAD PUSH1 0x60 DUP1 DUP7 ADD SWAP2 SWAP1 SWAP2 MSTORE SWAP3 MLOAD SWAP1 SWAP3 ADD MLOAD PUSH1 0x80 DUP5 ADD MSTORE SWAP1 MLOAD PUSH2 0x2327 SWAP2 PUSH2 0x20B4 SWAP2 DUP5 SWAP2 ADD PUSH2 0x5C57 JUMP JUMPDEST PUSH1 0x0 PUSH2 0x25A9 PUSH32 0x30644E72E131A029B85045B68181585D2833E84879B9709143E1F593F0000001 DUP4 PUSH2 0x5C8B JUMP JUMPDEST SWAP3 SWAP2 POP POP JUMP JUMPDEST PUSH1 0x0 PUSH32 0x30644E72E131A029B85045B68181585D2833E84879B9709143E1F593F0000001 DUP3 DUP5 MULMOD SWAP4 SWAP3 POP POP POP JUMP JUMPDEST PUSH1 0x0 PUSH32 0x30644E72E131A029B85045B68181585D2833E84879B9709143E1F593F0000001 DUP3 DUP5 ADDMOD SWAP4 SWAP3 POP POP POP JUMP JUMPDEST PUSH1 0x0 PUSH32 0x30644E72E131A029B85045B68181585D2833E84879B9709143E1F593F0000001 PUSH2 0x2656 DUP4 PUSH32 0x30644E72E131A029B85045B68181585D2833E84879B9709143E1F593F0000001 PUSH2 0x5A4D JUMP JUMPDEST DUP5 ADDMOD SWAP4 SWAP3 POP POP POP JUMP JUMPDEST PUSH1 0x0 PUSH2 0x1E5A DUP4 PUSH2 0x694 DUP5 PUSH2 0x2940 JUMP JUMPDEST DUP2 MLOAD PUSH1 0x0 SWAP1 DUP2 SWAP1 PUSH2 0x2681 SWAP1 DUP6 PUSH1 0x1 PUSH2 0x952 JUMP JUMPDEST SWAP3 SWAP1 SWAP3 EQ SWAP4 SWAP3 POP POP POP JUMP JUMPDEST PUSH1 0x40 DUP1 MLOAD PUSH2 0x100 DUP2 ADD DUP3 MSTORE PUSH32 0x30644E72E131A029B85045B68181585D2833E84879B9709143E1F593EFFFEC51 DUP2 MSTORE PUSH2 0x2D0 PUSH1 0x20 DUP3 ADD MSTORE PUSH32 0x30644E72E131A029B85045B68181585D2833E84879B9709143E1F593EFFFFF11 SWAP2 DUP2 ADD SWAP2 SWAP1 SWAP2 MSTORE PUSH1 0x90 PUSH1 0x60 DUP3 ADD MSTORE PUSH32 0x30644E72E131A029B85045B68181585D2833E84879B9709143E1F593EFFFFF71 PUSH1 0x80 DUP3 ADD MSTORE PUSH1 0xF0 PUSH1 0xA0 DUP3 ADD MSTORE PUSH32 0x30644E72E131A029B85045B68181585D2833E84879B9709143E1F593EFFFFD31 PUSH1 0xC0 DUP3 ADD MSTORE PUSH2 0x13B0 PUSH1 0xE0 DUP3 ADD MSTORE PUSH1 0x0 SWAP1 PUSH1 0x1 DUP3 JUMPDEST PUSH1 0x8 DUP2 LT ISZERO PUSH2 0x2774 JUMPI PUSH2 0x276A DUP3 PUSH2 0x694 DUP8 DUP5 PUSH2 0x2609 JUMP JUMPDEST SWAP2 POP PUSH1 0x1 ADD PUSH2 0x2753 JUMP JUMPDEST POP PUSH2 0x277D PUSH2 0x57FC JUMP JUMPDEST PUSH1 0x0 JUMPDEST PUSH1 0x8 DUP2 LT ISZERO PUSH2 0x27E0 JUMPI PUSH1 0x0 DUP5 DUP3 PUSH1 0x8 DUP2 LT PUSH2 0x279D JUMPI PUSH2 0x279D PUSH2 0x5A9D JUMP JUMPDEST PUSH1 0x20 MUL ADD MLOAD SWAP1 POP PUSH2 0x27B2 DUP2 PUSH2 0x694 DUP10 DUP6 PUSH2 0x2609 JUMP JUMPDEST SWAP1 POP PUSH2 0x27BD DUP2 PUSH2 0x2940 JUMP JUMPDEST SWAP1 POP DUP1 DUP4 DUP4 PUSH1 0x8 DUP2 LT PUSH2 0x27D2 JUMPI PUSH2 0x27D2 PUSH2 0x5A9D JUMP JUMPDEST PUSH1 0x20 MUL ADD MSTORE POP PUSH1 0x1 ADD PUSH2 0x2780 JUMP JUMPDEST POP PUSH1 0x0 JUMPDEST PUSH1 0x8 DUP2 LT ISZERO PUSH2 0x2835 JUMPI PUSH1 0x0 DUP8 DUP3 PUSH1 0x8 DUP2 LT PUSH2 0x2801 JUMPI PUSH2 0x2801 PUSH2 0x5A9D JUMP JUMPDEST PUSH1 0x20 MUL ADD MLOAD SWAP1 POP PUSH2 0x281E DUP2 DUP5 DUP5 PUSH1 0x8 DUP2 LT PUSH2 0x127C JUMPI PUSH2 0x127C PUSH2 0x5A9D JUMP JUMPDEST SWAP1 POP PUSH2 0x282A DUP7 DUP3 PUSH2 0x25DC JUMP JUMPDEST SWAP6 POP POP PUSH1 0x1 ADD PUSH2 0x27E4 JUMP JUMPDEST POP PUSH2 0x8E5 DUP5 DUP4 PUSH2 0x25AF JUMP JUMPDEST PUSH1 0x0 DUP1 PUSH2 0x2857 PUSH1 0x1 PUSH2 0x699 DUP6 PUSH2 0x694 DUP10 PUSH1 0x1 PUSH2 0x2609 JUMP JUMPDEST SWAP1 POP PUSH2 0x2863 DUP5 DUP3 PUSH2 0x25AF JUMP JUMPDEST SWAP6 SWAP5 POP POP POP POP POP JUMP JUMPDEST PUSH1 0x0 PUSH2 0x2876 PUSH2 0x581B JUMP JUMPDEST PUSH2 0x2881 DUP7 DUP3 DUP6 PUSH2 0x3436 JUMP JUMPDEST PUSH2 0x288D DUP7 DUP7 DUP4 DUP7 PUSH2 0x35E7 JUMP JUMPDEST PUSH2 0x2899 DUP7 DUP7 DUP4 DUP7 PUSH2 0x37D4 JUMP JUMPDEST PUSH2 0x28A4 DUP7 DUP3 DUP6 PUSH2 0x3A0C JUMP JUMPDEST PUSH2 0x28AF DUP7 DUP3 DUP6 PUSH2 0x3C0A JUMP JUMPDEST PUSH2 0x28BB DUP7 DUP7 DUP4 DUP7 PUSH2 0x3F6F JUMP JUMPDEST PUSH2 0x28C6 DUP7 DUP3 DUP6 PUSH2 0x487C JUMP JUMPDEST PUSH2 0x28D1 DUP7 DUP3 DUP6 PUSH2 0x4C58 JUMP JUMPDEST PUSH2 0x8E5 DUP2 DUP6 PUSH2 0x4F5A JUMP JUMPDEST PUSH2 0x28E3 PUSH2 0x5762 JUMP JUMPDEST DUP2 DUP2 MSTORE PUSH1 0x1 JUMPDEST PUSH1 0x1C DUP2 LT ISZERO PUSH2 0x293A JUMPI PUSH2 0x291B DUP3 PUSH2 0x2901 PUSH1 0x1 DUP5 PUSH2 0x5A4D JUMP JUMPDEST PUSH1 0x1C DUP2 LT PUSH2 0x2911 JUMPI PUSH2 0x2911 PUSH2 0x5A9D JUMP JUMPDEST PUSH1 0x20 MUL ADD MLOAD PUSH2 0x2B1E JUMP JUMPDEST DUP3 DUP3 PUSH1 0x1C DUP2 LT PUSH2 0x292D JUMPI PUSH2 0x292D PUSH2 0x5A9D JUMP JUMPDEST PUSH1 0x20 MUL ADD MSTORE PUSH1 0x1 ADD PUSH2 0x28E9 JUMP JUMPDEST POP SWAP2 SWAP1 POP JUMP JUMPDEST PUSH1 0x0 DUP1 DUP3 SWAP1 POP PUSH1 0x0 PUSH1 0x40 MLOAD PUSH1 0x20 DUP2 MSTORE PUSH1 0x20 DUP1 DUP3 ADD MSTORE PUSH1 0x20 PUSH1 0x40 DUP3 ADD MSTORE DUP3 PUSH1 0x60 DUP3 ADD MSTORE PUSH1 0x2 PUSH32 0x30644E72E131A029B85045B68181585D2833E84879B9709143E1F593F0000001 SUB PUSH1 0x80 DUP3 ADD MSTORE PUSH32 0x30644E72E131A029B85045B68181585D2833E84879B9709143E1F593F0000001 PUSH1 0xA0 DUP3 ADD MSTORE PUSH1 0x20 PUSH1 0x0 PUSH1 0xC0 DUP4 PUSH1 0x5 GAS STATICCALL SWAP1 POP DUP1 PUSH2 0x29C8 JUMPI PUSH1 0x0 DUP1 REVERT JUMPDEST POP POP PUSH1 0x0 MLOAD SWAP4 SWAP3 POP POP POP JUMP JUMPDEST PUSH1 0x0 PUSH2 0x25A9 DUP3 PUSH32 0x30644E72E131A029B85045B68181585D2833E84879B9709143E1F593F0000001 PUSH2 0x5A4D JUMP JUMPDEST PUSH2 0x2A08 PUSH2 0x5762 JUMP JUMPDEST PUSH1 0x1C JUMPDEST DUP1 ISZERO PUSH2 0x2B14 JUMPI PUSH1 0x0 DUP5 PUSH2 0x2A1F PUSH1 0x1 DUP5 PUSH2 0x5A4D JUMP JUMPDEST PUSH1 0x1C DUP2 LT PUSH2 0x2A2F JUMPI PUSH2 0x2A2F PUSH2 0x5A9D JUMP JUMPDEST PUSH1 0x20 MUL ADD MLOAD SWAP1 POP PUSH1 0x0 DUP9 PUSH2 0x2A44 PUSH1 0x1 DUP6 PUSH2 0x5A4D JUMP JUMPDEST PUSH1 0x1C DUP2 LT PUSH2 0x2A54 JUMPI PUSH2 0x2A54 PUSH2 0x5A9D JUMP JUMPDEST PUSH1 0x20 MUL ADD MLOAD SWAP1 POP PUSH1 0x0 PUSH2 0x2AB0 PUSH2 0x2A74 PUSH2 0x2A6D DUP6 DUP13 PUSH2 0x25AF JUMP JUMPDEST PUSH1 0x2 PUSH2 0x25AF JUMP JUMPDEST PUSH2 0x6B8 DUP11 PUSH2 0x2A83 PUSH1 0x1 DUP10 PUSH2 0x5A4D JUMP JUMPDEST PUSH1 0x1C DUP2 LT PUSH2 0x2A93 JUMPI PUSH2 0x2A93 PUSH2 0x5A9D JUMP JUMPDEST PUSH1 0x20 MUL ADD MLOAD PUSH2 0x694 PUSH2 0x2AAA DUP9 PUSH2 0x694 PUSH1 0x1 DUP11 PUSH2 0x2609 JUMP JUMPDEST DUP8 PUSH2 0x2609 JUMP JUMPDEST SWAP1 POP PUSH2 0x2AD1 DUP2 PUSH2 0x694 PUSH2 0x935 PUSH2 0x2ACB DUP8 PUSH2 0x694 PUSH1 0x1 DUP10 PUSH2 0x2609 JUMP JUMPDEST DUP7 PUSH2 0x25DC JUMP JUMPDEST SWAP1 POP DUP6 DUP5 GT PUSH2 0x2B00 JUMPI SWAP8 POP DUP8 DUP1 DUP6 PUSH2 0x2AEA PUSH1 0x1 DUP8 PUSH2 0x5A4D JUMP JUMPDEST PUSH1 0x1C DUP2 LT PUSH2 0x2AFA JUMPI PUSH2 0x2AFA PUSH2 0x5A9D JUMP JUMPDEST PUSH1 0x20 MUL ADD MSTORE JUMPDEST POP POP POP DUP1 PUSH2 0x2B0D SWAP1 PUSH2 0x5C9F JUMP JUMPDEST SWAP1 POP PUSH2 0x2A0B JUMP JUMPDEST POP SWAP6 SWAP5 POP POP POP POP POP JUMP JUMPDEST PUSH1 0x0 PUSH2 0x25A9 DUP3 DUP4 PUSH2 0x25AF JUMP JUMPDEST PUSH1 0x40 DUP1 MLOAD DUP1 DUP3 ADD SWAP1 SWAP2 MSTORE PUSH1 0x0 DUP1 DUP3 MSTORE PUSH1 0x20 DUP3 ADD MSTORE PUSH1 0x0 PUSH2 0x2B4C PUSH1 0x1C PUSH1 0x28 PUSH2 0x5A60 JUMP JUMPDEST PUSH2 0x2B57 SWAP1 PUSH1 0x2 PUSH2 0x5A60 JUMP JUMPDEST SWAP1 POP PUSH1 0x1 PUSH1 0x40 MLOAD DUP6 MLOAD MLOAD PUSH1 0x40 DUP3 ADD MSTORE DUP6 MLOAD PUSH1 0x20 ADD MLOAD PUSH1 0x60 DUP3 ADD MSTORE DUP5 MLOAD PUSH1 0x80 DUP3 ADD MSTORE PUSH1 0x40 DUP2 PUSH1 0x60 PUSH1 0x40 DUP5 ADD PUSH1 0x7 GAS STATICCALL DUP3 AND SWAP2 POP PUSH1 0x1 JUMPDEST DUP4 DUP2 LT ISZERO PUSH2 0x2BE5 JUMPI PUSH1 0x20 DUP2 MUL DUP8 ADD PUSH1 0x20 DUP3 MUL DUP8 ADD DUP2 MLOAD MLOAD PUSH1 0x40 DUP6 ADD MSTORE DUP2 MLOAD PUSH1 0x20 ADD MLOAD PUSH1 0x60 DUP6 ADD MSTORE DUP1 MLOAD PUSH1 0x80 DUP6 ADD MSTORE POP POP PUSH1 0x40 DUP1 DUP4 ADD PUSH1 0x60 PUSH1 0x40 DUP6 ADD PUSH1 0x7 GAS STATICCALL DUP4 AND SWAP3 POP PUSH1 0x40 DUP3 PUSH1 0x80 DUP5 PUSH1 0x6 GAS STATICCALL SWAP1 SWAP3 AND SWAP2 PUSH1 0x1 ADD PUSH2 0x2B8C JUMP JUMPDEST POP DUP1 MLOAD DUP5 MSTORE PUSH1 0x20 DUP2 ADD MLOAD PUSH1 0x20 DUP6 ADD MSTORE POP POP POP SWAP3 SWAP2 POP POP JUMP JUMPDEST PUSH1 0x40 DUP1 MLOAD DUP1 DUP3 ADD SWAP1 SWAP2 MSTORE PUSH1 0x0 DUP1 DUP3 MSTORE PUSH1 0x20 DUP3 ADD MSTORE PUSH32 0x30644E72E131A029B85045B68181585D97816A916871CA8D3C208C16D87CFD47 DUP3 PUSH1 0x20 ADD MLOAD PUSH32 0x30644E72E131A029B85045B68181585D97816A916871CA8D3C208C16D87CFD47 PUSH2 0x2C62 SWAP2 SWAP1 PUSH2 0x5A4D JUMP JUMPDEST PUSH2 0x2C6C SWAP2 SWAP1 PUSH2 0x5C8B JUMP JUMPDEST PUSH1 0x20 DUP4 ADD MSTORE POP SWAP1 JUMP JUMPDEST DUP2 MLOAD PUSH1 0x20 DUP1 DUP5 ADD MLOAD DUP4 MLOAD DUP5 DUP4 ADD MLOAD PUSH1 0x40 DUP1 MLOAD SWAP5 DUP6 ADD SWAP6 SWAP1 SWAP6 MSTORE SWAP4 DUP4 ADD SWAP2 SWAP1 SWAP2 MSTORE PUSH32 0x198E9393920D483A7260BFB731FB5D25F1AA493335A9E71297E485B7AEF312C2 PUSH1 0x60 DUP4 ADD MSTORE PUSH32 0x1800DEEF121F1E76426A00665E5C4479674322D4F75EDADD46DEBD5CD992F6ED PUSH1 0x80 DUP4 ADD MSTORE PUSH32 0x90689D0585FF075EC9E99AD690C3395BC4B313370B38EF355ACDADCD122975B PUSH1 0xA0 DUP4 ADD MSTORE PUSH32 0x12C85EA5DB8C6DEB4AAB71808DCB408FE3D1E7690C43D37B4CE6CC0166FA7DAA PUSH1 0xC0 DUP4 ADD MSTORE PUSH1 0xE0 DUP3 ADD MSTORE PUSH2 0x100 DUP2 ADD SWAP2 SWAP1 SWAP2 MSTORE PUSH32 0x260E01B251F6F1C7E7FF4E580791DEE8EA51D87A358E038B4EFE30FAC09383C1 PUSH2 0x120 DUP3 ADD MSTORE PUSH32 0x118C4D5B837BCC2BC89B5B398B5974E9F5944073B32078B7E231FEC938883B0 PUSH2 0x140 DUP3 ADD MSTORE PUSH32 0x4FC6369F7110FE3D25156C1BB9A72859CF2A04641F99BA4EE413C80DA6A5FE4 PUSH2 0x160 DUP3 ADD MSTORE PUSH32 0x22FEBDA3C0C0632A56475B4214E5615E11E6DD3F96E6CEA2854A87D4DACC5E55 PUSH2 0x180 DUP3 ADD MSTORE PUSH1 0x0 SWAP1 DUP2 SWAP1 PUSH2 0x1A0 ADD PUSH1 0x40 MLOAD PUSH1 0x20 DUP2 DUP4 SUB SUB DUP2 MSTORE SWAP1 PUSH1 0x40 MSTORE SWAP1 POP PUSH1 0x0 DUP1 PUSH1 0x8 PUSH20 0xFFFFFFFFFFFFFFFFFFFFFFFFFFFFFFFFFFFFFFFF AND DUP4 PUSH1 0x40 MLOAD PUSH2 0x2E1A SWAP2 SWAP1 PUSH2 0x5CD4 JUMP JUMPDEST PUSH1 0x0 PUSH1 0x40 MLOAD DUP1 DUP4 SUB DUP2 DUP6 GAS STATICCALL SWAP2 POP POP RETURNDATASIZE DUP1 PUSH1 0x0 DUP2 EQ PUSH2 0x2E55 JUMPI PUSH1 0x40 MLOAD SWAP2 POP PUSH1 0x1F NOT PUSH1 0x3F RETURNDATASIZE ADD AND DUP3 ADD PUSH1 0x40 MSTORE RETURNDATASIZE DUP3 MSTORE RETURNDATASIZE PUSH1 0x0 PUSH1 0x20 DUP5 ADD RETURNDATACOPY PUSH2 0x2E5A JUMP JUMPDEST PUSH1 0x60 SWAP2 POP JUMPDEST POP SWAP2 POP SWAP2 POP DUP2 DUP1 ISZERO PUSH2 0x8E5 JUMPI POP DUP1 DUP1 PUSH1 0x20 ADD SWAP1 MLOAD DUP2 ADD SWAP1 PUSH2 0x8E5 SWAP2 SWAP1 PUSH2 0x5D03 JUMP JUMPDEST PUSH1 0x0 DUP1 DUP1 DUP1 DUP1 PUSH2 0x2E8C DUP8 PUSH1 0x3 PUSH2 0x5A60 JUMP JUMPDEST PUSH2 0x2E97 SWAP1 PUSH1 0xC PUSH2 0x5A60 JUMP JUMPDEST PUSH8 0xFFFFFFFFFFFFFFFF DUP2 GT ISZERO PUSH2 0x2EAF JUMPI PUSH2 0x2EAF PUSH2 0x5D25 JUMP JUMPDEST PUSH1 0x40 MLOAD SWAP1 DUP1 DUP3 MSTORE DUP1 PUSH1 0x20 MUL PUSH1 0x20 ADD DUP3 ADD PUSH1 0x40 MSTORE DUP1 ISZERO PUSH2 0x2ED8 JUMPI DUP2 PUSH1 0x20 ADD PUSH1 0x20 DUP3 MUL DUP1 CALLDATASIZE DUP4 CALLDATACOPY ADD SWAP1 POP JUMPDEST POP SWAP1 POP DUP8 PUSH1 0x0 SHL DUP2 PUSH1 0x0 DUP2 MLOAD DUP2 LT PUSH2 0x2EF2 JUMPI PUSH2 0x2EF2 PUSH2 0x5A9D JUMP JUMPDEST PUSH1 0x20 MUL PUSH1 0x20 ADD ADD DUP2 DUP2 MSTORE POP POP DUP7 PUSH1 0x0 SHL DUP2 PUSH1 0x1 DUP2 MLOAD DUP2 LT PUSH2 0x2F15 JUMPI PUSH2 0x2F15 PUSH2 0x5A9D JUMP JUMPDEST PUSH1 0x20 MUL PUSH1 0x20 ADD ADD DUP2 DUP2 MSTORE POP POP DUP6 PUSH1 0x0 SHL DUP2 PUSH1 0x2 DUP2 MLOAD DUP2 LT PUSH2 0x2F38 JUMPI PUSH2 0x2F38 PUSH2 0x5A9D JUMP JUMPDEST PUSH1 0x20 MUL PUSH1 0x20 ADD ADD DUP2 DUP2 MSTORE POP POP PUSH1 0x0 JUMPDEST PUSH2 0x2F52 PUSH1 0x10 DUP10 PUSH2 0x5A4D JUMP JUMPDEST DUP2 LT ISZERO PUSH2 0x2FA3 JUMPI DUP11 DUP11 DUP3 DUP2 DUP2 LT PUSH2 0x2F6B JUMPI PUSH2 0x2F6B PUSH2 0x5A9D JUMP JUMPDEST SWAP1 POP PUSH1 0x20 MUL ADD CALLDATALOAD DUP3 DUP3 PUSH1 0x3 PUSH2 0x2F80 SWAP2 SWAP1 PUSH2 0x5A60 JUMP JUMPDEST DUP2 MLOAD DUP2 LT PUSH2 0x2F90 JUMPI PUSH2 0x2F90 PUSH2 0x5A9D JUMP JUMPDEST PUSH1 0x20 SWAP1 DUP2 MUL SWAP2 SWAP1 SWAP2 ADD ADD MSTORE PUSH1 0x1 ADD PUSH2 0x2F47 JUMP JUMPDEST POP PUSH1 0x0 JUMPDEST PUSH1 0x10 DUP2 LT ISZERO PUSH2 0x3015 JUMPI DUP12 MLOAD PUSH2 0x2FCF SWAP1 DUP3 PUSH1 0x10 DUP2 LT PUSH2 0x2FC7 JUMPI PUSH2 0x2FC7 PUSH2 0x5A9D JUMP JUMPDEST PUSH1 0x20 MUL ADD MLOAD SWAP1 JUMP JUMPDEST DUP3 DUP3 PUSH1 0x10 PUSH2 0x2FDE DUP13 PUSH1 0x3 PUSH2 0x5A60 JUMP JUMPDEST PUSH2 0x2FE8 SWAP2 SWAP1 PUSH2 0x5A4D JUMP JUMPDEST PUSH2 0x2FF2 SWAP2 SWAP1 PUSH2 0x5A60 JUMP JUMPDEST DUP2 MLOAD DUP2 LT PUSH2 0x3002 JUMPI PUSH2 0x3002 PUSH2 0x5A9D JUMP JUMPDEST PUSH1 0x20 SWAP1 DUP2 MUL SWAP2 SWAP1 SWAP2 ADD ADD MSTORE PUSH1 0x1 ADD PUSH2 0x2FA7 JUMP JUMPDEST POP PUSH1 0x20 DUP12 ADD MLOAD MLOAD DUP2 PUSH2 0x3028 DUP10 PUSH1 0x3 PUSH2 0x5A60 JUMP JUMPDEST DUP2 MLOAD DUP2 LT PUSH2 0x3038 JUMPI PUSH2 0x3038 PUSH2 0x5A9D JUMP JUMPDEST PUSH1 0x20 SWAP1 DUP2 MUL SWAP2 SWAP1 SWAP2 ADD DUP2 ADD SWAP2 SWAP1 SWAP2 MSTORE DUP12 DUP2 ADD MLOAD ADD MLOAD DUP2 PUSH2 0x3059 DUP10 PUSH1 0x3 PUSH2 0x5A60 JUMP JUMPDEST PUSH2 0x3064 SWAP1 PUSH1 0x1 PUSH2 0x5A60 JUMP JUMPDEST DUP2 MLOAD DUP2 LT PUSH2 0x3074 JUMPI PUSH2 0x3074 PUSH2 0x5A9D JUMP JUMPDEST PUSH1 0x20 SWAP1 DUP2 MUL SWAP2 SWAP1 SWAP2 ADD DUP2 ADD SWAP2 SWAP1 SWAP2 MSTORE DUP12 ADD MLOAD PUSH1 0x40 ADD MLOAD DUP2 PUSH2 0x3096 DUP10 PUSH1 0x3 PUSH2 0x5A60 JUMP JUMPDEST PUSH2 0x30A1 SWAP1 PUSH1 0x2 PUSH2 0x5A60 JUMP JUMPDEST DUP2 MLOAD DUP2 LT PUSH2 0x30B1 JUMPI PUSH2 0x30B1 PUSH2 0x5A9D JUMP JUMPDEST PUSH1 0x20 SWAP1 DUP2 MUL SWAP2 SWAP1 SWAP2 ADD DUP2 ADD SWAP2 SWAP1 SWAP2 MSTORE DUP12 ADD MLOAD PUSH1 0x60 ADD MLOAD DUP2 PUSH2 0x30D3 DUP10 PUSH1 0x3 PUSH2 0x5A60 JUMP JUMPDEST PUSH2 0x30DE SWAP1 PUSH1 0x3 PUSH2 0x5A60 JUMP JUMPDEST DUP2 MLOAD DUP2 LT PUSH2 0x30EE JUMPI PUSH2 0x30EE PUSH2 0x5A9D JUMP JUMPDEST PUSH1 0x20 SWAP1 DUP2 MUL SWAP2 SWAP1 SWAP2 ADD ADD MSTORE PUSH1 0x40 DUP12 ADD MLOAD MLOAD DUP2 PUSH2 0x310B DUP10 PUSH1 0x3 PUSH2 0x5A60 JUMP JUMPDEST PUSH2 0x3116 SWAP1 PUSH1 0x4 PUSH2 0x5A60 JUMP JUMPDEST DUP2 MLOAD DUP2 LT PUSH2 0x3126 JUMPI PUSH2 0x3126 PUSH2 0x5A9D JUMP JUMPDEST PUSH1 0x20 SWAP1 DUP2 MUL SWAP2 SWAP1 SWAP2 ADD DUP2 ADD SWAP2 SWAP1 SWAP2 MSTORE PUSH1 0x40 DUP13 ADD MLOAD ADD MLOAD DUP2 PUSH2 0x3148 DUP10 PUSH1 0x3 PUSH2 0x5A60 JUMP JUMPDEST PUSH2 0x3153 SWAP1 PUSH1 0x5 PUSH2 0x5A60 JUMP JUMPDEST DUP2 MLOAD DUP2 LT PUSH2 0x3163 JUMPI PUSH2 0x3163 PUSH2 0x5A9D JUMP JUMPDEST PUSH1 0x20 SWAP1 DUP2 MUL SWAP2 SWAP1 SWAP2 ADD ADD MSTORE PUSH1 0x40 DUP1 DUP13 ADD MLOAD ADD MLOAD DUP2 PUSH2 0x3182 DUP10 PUSH1 0x3 PUSH2 0x5A60 JUMP JUMPDEST PUSH2 0x318D SWAP1 PUSH1 0x6 PUSH2 0x5A60 JUMP JUMPDEST DUP2 MLOAD DUP2 LT PUSH2 0x319D JUMPI PUSH2 0x319D PUSH2 0x5A9D JUMP JUMPDEST PUSH1 0x20 SWAP1 DUP2 MUL SWAP2 SWAP1 SWAP2 ADD ADD MSTORE PUSH1 0x40 DUP12 ADD MLOAD PUSH1 0x60 ADD MLOAD DUP2 PUSH2 0x31BD DUP10 PUSH1 0x3 PUSH2 0x5A60 JUMP JUMPDEST PUSH2 0x31C8 SWAP1 PUSH1 0x7 PUSH2 0x5A60 JUMP JUMPDEST DUP2 MLOAD DUP2 LT PUSH2 0x31D8 JUMPI PUSH2 0x31D8 PUSH2 0x5A9D JUMP JUMPDEST PUSH1 0x20 SWAP1 DUP2 MUL SWAP2 SWAP1 SWAP2 ADD ADD MSTORE PUSH1 0x60 DUP12 ADD MLOAD MLOAD DUP2 PUSH2 0x31F5 DUP10 PUSH1 0x3 PUSH2 0x5A60 JUMP JUMPDEST PUSH2 0x3200 SWAP1 PUSH1 0x8 PUSH2 0x5A60 JUMP JUMPDEST DUP2 MLOAD DUP2 LT PUSH2 0x3210 JUMPI PUSH2 0x3210 PUSH2 0x5A9D JUMP JUMPDEST PUSH1 0x20 SWAP1 DUP2 MUL SWAP2 SWAP1 SWAP2 ADD DUP2 ADD SWAP2 SWAP1 SWAP2 MSTORE PUSH1 0x60 DUP13 ADD MLOAD ADD MLOAD DUP2 PUSH2 0x3232 DUP10 PUSH1 0x3 PUSH2 0x5A60 JUMP JUMPDEST PUSH2 0x323D SWAP1 PUSH1 0x9 PUSH2 0x5A60 JUMP JUMPDEST DUP2 MLOAD DUP2 LT PUSH2 0x324D JUMPI PUSH2 0x324D PUSH2 0x5A9D JUMP JUMPDEST PUSH1 0x20 SWAP1 DUP2 MUL SWAP2 SWAP1 SWAP2 ADD ADD MSTORE PUSH1 0x60 DUP12 ADD MLOAD PUSH1 0x40 ADD MLOAD DUP2 PUSH2 0x326D DUP10 PUSH1 0x3 PUSH2 0x5A60 JUMP JUMPDEST PUSH2 0x3278 SWAP1 PUSH1 0xA PUSH2 0x5A60 JUMP JUMPDEST DUP2 MLOAD DUP2 LT PUSH2 0x3288 JUMPI PUSH2 0x3288 PUSH2 0x5A9D JUMP JUMPDEST PUSH1 0x20 SWAP1 DUP2 MUL SWAP2 SWAP1 SWAP2 ADD ADD MSTORE PUSH1 0x60 DUP1 DUP13 ADD MLOAD ADD MLOAD DUP2 PUSH2 0x32A7 DUP10 PUSH1 0x3 PUSH2 0x5A60 JUMP JUMPDEST PUSH2 0x32B2 SWAP1 PUSH1 0xB PUSH2 0x5A60 JUMP JUMPDEST DUP2 MLOAD DUP2 LT PUSH2 0x32C2 JUMPI PUSH2 0x32C2 PUSH2 0x5A9D JUMP JUMPDEST PUSH1 0x20 MUL PUSH1 0x20 ADD ADD DUP2 DUP2 MSTORE POP POP PUSH2 0x32E2 DUP2 PUSH1 0x40 MLOAD PUSH1 0x20 ADD PUSH2 0x20B4 SWAP2 SWAP1 PUSH2 0x5D54 JUMP JUMPDEST SWAP2 POP PUSH2 0x32ED DUP3 PUSH2 0x33FC JUMP JUMPDEST PUSH1 0x40 DUP1 MLOAD PUSH1 0x20 DUP2 ADD DUP7 SWAP1 MSTORE SWAP3 SWAP8 POP SWAP1 SWAP6 POP PUSH2 0x3308 SWAP2 ADD PUSH2 0x20B4 JUMP JUMPDEST SWAP2 POP PUSH1 0x0 PUSH2 0x3315 DUP4 PUSH2 0x33FC JUMP JUMPDEST POP SWAP6 SWAP13 SWAP5 SWAP12 POP SWAP5 SWAP10 POP SWAP1 SWAP8 POP SWAP2 SWAP6 POP POP POP POP POP POP JUMP JUMPDEST PUSH1 0x0 DUP1 PUSH1 0x0 PUSH2 0x3338 PUSH2 0x583A JUMP JUMPDEST DUP6 DUP2 MSTORE PUSH1 0xC0 DUP6 DUP2 ADD DUP1 MLOAD MLOAD PUSH1 0x20 DUP1 DUP6 ADD SWAP2 SWAP1 SWAP2 MSTORE DUP2 MLOAD DUP2 ADD MLOAD PUSH1 0x40 DUP1 DUP7 ADD SWAP2 SWAP1 SWAP2 MSTORE DUP3 MLOAD DUP2 ADD MLOAD PUSH1 0x60 DUP1 DUP8 ADD SWAP2 SWAP1 SWAP2 MSTORE SWAP3 MLOAD DUP4 ADD MLOAD PUSH1 0x80 DUP1 DUP8 ADD SWAP2 SWAP1 SWAP2 MSTORE PUSH1 0xE0 DUP1 DUP12 ADD DUP1 MLOAD MLOAD PUSH1 0xA0 DUP10 ADD MSTORE DUP1 MLOAD DUP6 ADD MLOAD SWAP7 DUP9 ADD SWAP7 SWAP1 SWAP7 MSTORE DUP6 MLOAD DUP4 ADD MLOAD SWAP1 DUP8 ADD MSTORE SWAP4 MLOAD DUP4 ADD MLOAD PUSH2 0x100 DUP7 ADD MSTORE SWAP3 DUP9 ADD DUP1 MLOAD MLOAD PUSH2 0x120 DUP7 ADD MSTORE DUP1 MLOAD DUP3 ADD MLOAD PUSH2 0x140 DUP7 ADD MSTORE DUP1 MLOAD DUP5 ADD MLOAD PUSH2 0x160 DUP7 ADD MSTORE MLOAD SWAP1 SWAP2 ADD MLOAD PUSH2 0x180 DUP5 ADD MSTORE SWAP1 MLOAD PUSH2 0x33E2 SWAP2 PUSH2 0x20B4 SWAP2 DUP5 SWAP2 ADD PUSH2 0x5D8A JUMP JUMPDEST SWAP2 POP PUSH2 0x33ED DUP3 PUSH2 0x33FC JUMP JUMPDEST SWAP1 SWAP8 SWAP1 SWAP7 POP SWAP2 SWAP5 POP SWAP1 SWAP3 POP POP POP JUMP JUMPDEST PUSH1 0x0 DUP1 DUP3 PUSH16 0xFFFFFFFFFFFFFFFFFFFFFFFFFFFFFFFF DUP2 AND PUSH1 0x80 DUP3 SWAP1 SHR PUSH2 0x3421 DUP3 PUSH2 0x257D JUMP JUMPDEST SWAP5 POP PUSH2 0x342C DUP2 PUSH2 0x257D JUMP JUMPDEST SWAP4 POP POP POP POP SWAP2 POP SWAP2 JUMP JUMPDEST PUSH1 0x0 PUSH2 0x3443 DUP5 PUSH1 0x7 PUSH2 0x4FC0 JUMP JUMPDEST SWAP1 POP PUSH32 0x183227397098D014DC2822DB40C0AC2E9419F4243CDCB848A1F0FAC9F8000000 PUSH1 0x0 PUSH2 0x34A6 PUSH2 0x34A0 PUSH2 0x3479 DUP6 PUSH1 0x3 PUSH2 0x2609 JUMP JUMPDEST PUSH2 0x694 PUSH2 0x3495 PUSH2 0x348A DUP12 PUSH1 0x0 PUSH2 0x4FC0 JUMP JUMPDEST PUSH2 0x694 DUP13 PUSH1 0x1C PUSH2 0x4FC0 JUMP JUMPDEST PUSH2 0x694 DUP12 PUSH1 0x1B PUSH2 0x4FC0 JUMP JUMPDEST DUP4 PUSH2 0x25AF JUMP JUMPDEST SWAP1 POP PUSH2 0x3527 PUSH2 0x351C PUSH2 0x3503 PUSH2 0x34EA PUSH2 0x34D1 DUP6 PUSH2 0x699 PUSH2 0x34C6 DUP14 PUSH1 0x2 PUSH2 0x4FC0 JUMP JUMPDEST PUSH2 0x694 DUP15 PUSH1 0x1B PUSH2 0x4FC0 JUMP JUMPDEST PUSH2 0x699 PUSH2 0x34DF DUP13 PUSH1 0x3 PUSH2 0x4FC0 JUMP JUMPDEST PUSH2 0x694 DUP14 PUSH1 0x1C PUSH2 0x4FC0 JUMP JUMPDEST PUSH2 0x699 PUSH2 0x34F8 DUP12 PUSH1 0x4 PUSH2 0x4FC0 JUMP JUMPDEST PUSH2 0x694 DUP13 PUSH1 0x1D PUSH2 0x4FC0 JUMP JUMPDEST PUSH2 0x699 PUSH2 0x3511 DUP11 PUSH1 0x5 PUSH2 0x4FC0 JUMP JUMPDEST PUSH2 0x694 DUP12 PUSH1 0x1E PUSH2 0x4FC0 JUMP JUMPDEST PUSH2 0x699 DUP9 PUSH1 0x1 PUSH2 0x4FC0 JUMP JUMPDEST SWAP1 POP PUSH2 0x3546 DUP2 PUSH2 0x699 PUSH2 0x353B DUP7 PUSH1 0x1 PUSH2 0x2609 JUMP JUMPDEST PUSH2 0x694 DUP11 PUSH1 0x26 PUSH2 0x4FC0 JUMP JUMPDEST SWAP1 POP PUSH2 0x3552 DUP2 DUP5 PUSH2 0x25AF JUMP JUMPDEST SWAP1 POP PUSH2 0x355E DUP2 DUP6 PUSH2 0x25AF JUMP JUMPDEST DUP6 MSTORE POP PUSH1 0x0 SWAP1 POP PUSH2 0x359A PUSH2 0x358F PUSH2 0x3584 PUSH2 0x3579 DUP9 PUSH1 0x1B PUSH2 0x4FC0 JUMP JUMPDEST PUSH2 0x699 DUP10 PUSH1 0x1E PUSH2 0x4FC0 JUMP JUMPDEST PUSH2 0x6B8 DUP9 PUSH1 0x23 PUSH2 0x4FC0 JUMP JUMPDEST PUSH2 0x699 DUP8 PUSH1 0x0 PUSH2 0x4FC0 JUMP JUMPDEST SWAP1 POP PUSH2 0x35AB DUP2 PUSH2 0x694 DUP5 PUSH1 0x2 PUSH2 0x2609 JUMP JUMPDEST SWAP1 POP PUSH2 0x35BC DUP2 PUSH2 0x694 DUP5 PUSH1 0x1 PUSH2 0x2609 JUMP JUMPDEST SWAP1 POP PUSH2 0x35C8 DUP2 DUP4 PUSH2 0x25AF JUMP JUMPDEST SWAP1 POP PUSH2 0x35D4 DUP2 DUP5 PUSH2 0x25AF JUMP JUMPDEST SWAP1 POP DUP1 DUP5 PUSH1 0x1 JUMPDEST PUSH1 0x20 MUL ADD MSTORE POP POP POP POP POP JUMP JUMPDEST PUSH1 0x0 DUP1 PUSH1 0x0 PUSH2 0x361F PUSH2 0x3615 PUSH2 0x35FD DUP10 PUSH1 0x1B PUSH2 0x4FC0 JUMP JUMPDEST PUSH2 0x699 PUSH2 0x360B DUP12 PUSH1 0x11 PUSH2 0x4FC0 JUMP JUMPDEST DUP11 PUSH1 0x60 ADD MLOAD PUSH2 0x25AF JUMP JUMPDEST DUP8 PUSH1 0x80 ADD MLOAD PUSH2 0x25DC JUMP JUMPDEST SWAP1 POP PUSH2 0x3658 DUP2 PUSH2 0x694 PUSH2 0x364E PUSH2 0x3636 DUP12 PUSH1 0x1C PUSH2 0x4FC0 JUMP JUMPDEST PUSH2 0x699 PUSH2 0x3644 DUP14 PUSH1 0x12 PUSH2 0x4FC0 JUMP JUMPDEST DUP13 PUSH1 0x60 ADD MLOAD PUSH2 0x25AF JUMP JUMPDEST DUP10 PUSH1 0x80 ADD MLOAD PUSH2 0x25DC JUMP JUMPDEST SWAP1 POP PUSH2 0x367D DUP2 PUSH2 0x694 PUSH2 0x364E PUSH2 0x366F DUP12 PUSH1 0x1D PUSH2 0x4FC0 JUMP JUMPDEST PUSH2 0x699 PUSH2 0x3644 DUP14 PUSH1 0x13 PUSH2 0x4FC0 JUMP JUMPDEST SWAP1 POP PUSH2 0x36A2 DUP2 PUSH2 0x694 PUSH2 0x364E PUSH2 0x3694 DUP12 PUSH1 0x1E PUSH2 0x4FC0 JUMP JUMPDEST PUSH2 0x699 PUSH2 0x3644 DUP14 PUSH1 0x14 PUSH2 0x4FC0 JUMP JUMPDEST SWAP3 POP PUSH1 0x0 SWAP1 POP PUSH2 0x36C7 PUSH2 0x3615 PUSH2 0x36B9 DUP10 PUSH1 0x1B PUSH2 0x4FC0 JUMP JUMPDEST PUSH2 0x699 PUSH2 0x360B DUP12 PUSH1 0xD PUSH2 0x4FC0 JUMP JUMPDEST SWAP1 POP PUSH2 0x36EC DUP2 PUSH2 0x694 PUSH2 0x364E PUSH2 0x36DE DUP12 PUSH1 0x1C PUSH2 0x4FC0 JUMP JUMPDEST PUSH2 0x699 PUSH2 0x3644 DUP14 PUSH1 0xE PUSH2 0x4FC0 JUMP JUMPDEST SWAP1 POP PUSH2 0x3711 DUP2 PUSH2 0x694 PUSH2 0x364E PUSH2 0x3703 DUP12 PUSH1 0x1D PUSH2 0x4FC0 JUMP JUMPDEST PUSH2 0x699 PUSH2 0x3644 DUP14 PUSH1 0xF PUSH2 0x4FC0 JUMP JUMPDEST SWAP1 POP PUSH2 0x3736 DUP2 PUSH2 0x694 PUSH2 0x364E PUSH2 0x3728 DUP12 PUSH1 0x1E PUSH2 0x4FC0 JUMP JUMPDEST PUSH2 0x699 PUSH2 0x3644 DUP14 PUSH1 0x10 PUSH2 0x4FC0 JUMP JUMPDEST SWAP2 POP PUSH1 0x0 SWAP1 POP PUSH2 0x375E PUSH2 0x3758 PUSH2 0x374D DUP10 PUSH1 0x1F PUSH2 0x4FC0 JUMP JUMPDEST PUSH2 0x699 DUP11 PUSH1 0x19 PUSH2 0x4FC0 JUMP JUMPDEST DUP5 PUSH2 0x25AF JUMP JUMPDEST SWAP1 POP PUSH2 0x3793 DUP2 PUSH2 0x6B8 PUSH2 0x378D PUSH2 0x3775 DUP12 PUSH1 0x27 PUSH2 0x4FC0 JUMP JUMPDEST PUSH2 0x699 PUSH2 0x3783 DUP14 PUSH1 0x1A PUSH2 0x4FC0 JUMP JUMPDEST DUP13 PUSH1 0xA0 ADD MLOAD PUSH2 0x25AF JUMP JUMPDEST DUP6 PUSH2 0x25AF JUMP JUMPDEST SWAP1 POP PUSH2 0x379F DUP2 DUP6 PUSH2 0x25AF JUMP JUMPDEST PUSH1 0x40 DUP7 ADD MSTORE POP PUSH1 0x0 PUSH2 0x37C3 PUSH2 0x378D PUSH2 0x37B8 DUP10 PUSH1 0x1A PUSH2 0x4FC0 JUMP JUMPDEST PUSH2 0x694 DUP11 PUSH1 0x27 PUSH2 0x4FC0 JUMP JUMPDEST PUSH1 0x60 SWAP1 SWAP6 ADD SWAP5 SWAP1 SWAP5 MSTORE POP POP POP POP POP POP JUMP JUMPDEST PUSH1 0x0 DUP1 PUSH2 0x3833 PUSH2 0x381B PUSH2 0x3803 PUSH2 0x37EE PUSH2 0x364E DUP11 PUSH1 0x15 PUSH2 0x4FC0 JUMP JUMPDEST PUSH2 0x699 PUSH2 0x37FC DUP12 PUSH1 0x16 PUSH2 0x4FC0 JUMP JUMPDEST DUP11 MLOAD PUSH2 0x25AF JUMP JUMPDEST PUSH2 0x699 PUSH2 0x3811 DUP11 PUSH1 0x17 PUSH2 0x4FC0 JUMP JUMPDEST DUP10 PUSH1 0x20 ADD MLOAD PUSH2 0x25AF JUMP JUMPDEST PUSH2 0x699 PUSH2 0x3829 DUP10 PUSH1 0x18 PUSH2 0x4FC0 JUMP JUMPDEST DUP9 PUSH1 0x40 ADD MLOAD PUSH2 0x25AF JUMP JUMPDEST SWAP2 POP PUSH1 0x0 PUSH2 0x386B PUSH2 0x3852 PUSH2 0x3848 DUP10 PUSH1 0x1B PUSH2 0x4FC0 JUMP JUMPDEST DUP9 PUSH1 0x80 ADD MLOAD PUSH2 0x25DC JUMP JUMPDEST PUSH2 0x699 PUSH2 0x3860 DUP11 PUSH1 0x3 PUSH2 0x4FC0 JUMP JUMPDEST PUSH2 0x694 DUP12 PUSH1 0x23 PUSH2 0x4FC0 JUMP JUMPDEST SWAP1 POP PUSH1 0x0 PUSH2 0x3896 PUSH2 0x387D DUP10 PUSH1 0x1C PUSH2 0x4FC0 JUMP JUMPDEST PUSH2 0x699 PUSH2 0x388B DUP12 PUSH1 0x0 PUSH2 0x4FC0 JUMP JUMPDEST PUSH2 0x694 DUP13 PUSH1 0x24 PUSH2 0x4FC0 JUMP JUMPDEST SWAP1 POP PUSH1 0x0 PUSH2 0x38C1 PUSH2 0x38A8 DUP11 PUSH1 0x1D PUSH2 0x4FC0 JUMP JUMPDEST PUSH2 0x699 PUSH2 0x38B6 DUP13 PUSH1 0x1 PUSH2 0x4FC0 JUMP JUMPDEST PUSH2 0x694 DUP14 PUSH1 0x25 PUSH2 0x4FC0 JUMP JUMPDEST SWAP1 POP PUSH2 0x3901 PUSH2 0x38E9 PUSH2 0x38DB DUP6 PUSH2 0x699 DUP7 DUP14 PUSH1 0x0 ADD MLOAD PUSH2 0x25AF JUMP JUMPDEST PUSH2 0x699 DUP5 DUP13 PUSH1 0x20 ADD MLOAD PUSH2 0x25AF JUMP JUMPDEST PUSH2 0x699 PUSH2 0x38F7 DUP13 PUSH1 0x4 PUSH2 0x4FC0 JUMP JUMPDEST DUP12 PUSH1 0x40 ADD MLOAD PUSH2 0x25AF JUMP JUMPDEST SWAP4 POP POP POP POP PUSH1 0x0 PUSH2 0x3916 PUSH2 0x3758 DUP9 PUSH1 0x20 PUSH2 0x4FC0 JUMP JUMPDEST SWAP1 POP PUSH1 0x0 PUSH2 0x3928 PUSH2 0x3758 DUP10 PUSH1 0x20 PUSH2 0x4FC0 JUMP JUMPDEST SWAP1 POP PUSH1 0x0 PUSH2 0x3961 PUSH2 0x3948 PUSH2 0x393D DUP12 PUSH1 0x22 PUSH2 0x4FC0 JUMP JUMPDEST PUSH2 0x699 DUP13 PUSH1 0x6 PUSH2 0x4FC0 JUMP JUMPDEST PUSH2 0x6B8 PUSH2 0x3956 DUP13 PUSH1 0x22 PUSH2 0x4FC0 JUMP JUMPDEST PUSH2 0x694 DUP14 PUSH1 0x6 PUSH2 0x4FC0 JUMP JUMPDEST SWAP1 POP PUSH1 0x0 PUSH2 0x3986 PUSH2 0x3980 PUSH2 0x3975 DUP8 DUP10 PUSH2 0x25AF JUMP JUMPDEST PUSH2 0x694 DUP14 PUSH1 0x20 PUSH2 0x4FC0 JUMP JUMPDEST DUP4 PUSH2 0x2609 JUMP JUMPDEST SWAP1 POP PUSH2 0x3992 DUP2 DUP9 PUSH2 0x25AF JUMP JUMPDEST SWAP1 POP PUSH1 0x0 PUSH2 0x39BB PUSH2 0x39AD PUSH2 0x39A7 DUP14 PUSH1 0x6 PUSH2 0x4FC0 JUMP JUMPDEST DUP8 PUSH2 0x25AF JUMP JUMPDEST PUSH2 0x6B8 PUSH2 0x39A7 DUP15 PUSH1 0x21 PUSH2 0x4FC0 JUMP JUMPDEST SWAP1 POP PUSH1 0x0 PUSH2 0x39CA DUP13 PUSH1 0x22 PUSH2 0x4FC0 JUMP JUMPDEST SWAP1 POP PUSH1 0x0 PUSH2 0x39DB PUSH2 0x3980 DUP4 DUP5 PUSH2 0x25AF JUMP JUMPDEST PUSH1 0x80 DUP13 ADD DUP6 SWAP1 MSTORE PUSH1 0xA0 DUP13 ADD DUP5 SWAP1 MSTORE SWAP1 POP PUSH2 0x39F5 DUP2 DUP12 PUSH2 0x25AF JUMP JUMPDEST DUP12 PUSH1 0x6 PUSH1 0x20 MUL ADD MSTORE POP POP POP POP POP POP POP POP POP POP POP POP POP JUMP JUMPDEST PUSH1 0x0 PUSH2 0x3A1A PUSH1 0x0 PUSH1 0x1 PUSH2 0x2609 JUMP JUMPDEST SWAP1 POP PUSH1 0x0 PUSH2 0x3A2A PUSH1 0x0 PUSH1 0x2 PUSH2 0x2609 JUMP JUMPDEST SWAP1 POP PUSH1 0x0 PUSH2 0x3A3A PUSH1 0x0 PUSH1 0x3 PUSH2 0x2609 JUMP JUMPDEST SWAP1 POP PUSH1 0x0 PUSH2 0x3A57 PUSH2 0x3A4C DUP9 PUSH1 0x1C PUSH2 0x4FC0 JUMP JUMPDEST PUSH2 0x6B8 DUP10 PUSH1 0x1B PUSH2 0x4FC0 JUMP JUMPDEST SWAP1 POP PUSH1 0x0 PUSH2 0x3A74 PUSH2 0x3A69 DUP10 PUSH1 0x1D PUSH2 0x4FC0 JUMP JUMPDEST PUSH2 0x6B8 DUP11 PUSH1 0x1C PUSH2 0x4FC0 JUMP JUMPDEST SWAP1 POP PUSH1 0x0 PUSH2 0x3A91 PUSH2 0x3A86 DUP11 PUSH1 0x1E PUSH2 0x4FC0 JUMP JUMPDEST PUSH2 0x6B8 DUP12 PUSH1 0x1D PUSH2 0x4FC0 JUMP JUMPDEST SWAP1 POP PUSH1 0x0 PUSH2 0x3AAE PUSH2 0x3AA3 DUP12 PUSH1 0x23 PUSH2 0x4FC0 JUMP JUMPDEST PUSH2 0x6B8 DUP13 PUSH1 0x1E PUSH2 0x4FC0 JUMP JUMPDEST SWAP1 POP DUP4 PUSH2 0x3ABF DUP2 PUSH2 0x694 DUP2 DUP12 PUSH2 0x25DC JUMP JUMPDEST SWAP1 POP PUSH2 0x3ACF DUP2 PUSH2 0x694 DUP8 DUP11 PUSH2 0x25DC JUMP JUMPDEST SWAP1 POP PUSH2 0x3ADF DUP2 PUSH2 0x694 DUP8 DUP10 PUSH2 0x25DC JUMP JUMPDEST SWAP1 POP PUSH2 0x3AF0 DUP2 PUSH2 0x694 DUP14 PUSH1 0x8 PUSH2 0x4FC0 JUMP JUMPDEST SWAP1 POP PUSH2 0x3AFC DUP2 DUP11 PUSH2 0x25AF JUMP JUMPDEST PUSH1 0xE0 DUP12 ADD MSTORE POP DUP3 PUSH2 0x3B11 DUP2 PUSH2 0x694 DUP2 DUP12 PUSH2 0x25DC JUMP JUMPDEST SWAP1 POP PUSH2 0x3B21 DUP2 PUSH2 0x694 DUP7 DUP11 PUSH2 0x25DC JUMP JUMPDEST SWAP1 POP PUSH2 0x3B31 DUP2 PUSH2 0x694 DUP7 DUP10 PUSH2 0x25DC JUMP JUMPDEST SWAP1 POP PUSH2 0x3B42 DUP2 PUSH2 0x694 DUP14 PUSH1 0x8 PUSH2 0x4FC0 JUMP JUMPDEST SWAP1 POP PUSH2 0x3B4E DUP2 DUP11 PUSH2 0x25AF JUMP JUMPDEST PUSH2 0x100 DUP12 ADD MSTORE POP DUP2 PUSH2 0x3B64 DUP2 PUSH2 0x694 DUP2 DUP12 PUSH2 0x25DC JUMP JUMPDEST SWAP1 POP PUSH2 0x3B74 DUP2 PUSH2 0x694 DUP6 DUP11 PUSH2 0x25DC JUMP JUMPDEST SWAP1 POP PUSH2 0x3B84 DUP2 PUSH2 0x694 DUP6 DUP10 PUSH2 0x25DC JUMP JUMPDEST SWAP1 POP PUSH2 0x3B95 DUP2 PUSH2 0x694 DUP14 PUSH1 0x8 PUSH2 0x4FC0 JUMP JUMPDEST SWAP1 POP PUSH2 0x3BA1 DUP2 DUP11 PUSH2 0x25AF JUMP JUMPDEST PUSH2 0x120 DUP12 ADD MSTORE POP DUP1 PUSH2 0x3BB7 DUP2 PUSH2 0x694 DUP2 DUP12 PUSH2 0x25DC JUMP JUMPDEST SWAP1 POP PUSH2 0x3BC7 DUP2 PUSH2 0x694 DUP5 DUP11 PUSH2 0x25DC JUMP JUMPDEST SWAP1 POP PUSH2 0x3BD7 DUP2 PUSH2 0x694 DUP5 DUP10 PUSH2 0x25DC JUMP JUMPDEST SWAP1 POP PUSH2 0x3BE8 DUP2 PUSH2 0x694 DUP14 PUSH1 0x8 PUSH2 0x4FC0 JUMP JUMPDEST SWAP1 POP PUSH2 0x3BF4 DUP2 DUP11 PUSH2 0x25AF JUMP JUMPDEST PUSH2 0x140 SWAP1 SWAP11 ADD SWAP10 SWAP1 SWAP10 MSTORE POP POP POP POP POP POP POP POP POP POP JUMP JUMPDEST PUSH2 0x3C4A PUSH1 0x40 MLOAD DUP1 PUSH1 0xE0 ADD PUSH1 0x40 MSTORE DUP1 PUSH1 0x0 DUP2 MSTORE PUSH1 0x20 ADD PUSH1 0x0 DUP2 MSTORE PUSH1 0x20 ADD PUSH1 0x0 DUP2 MSTORE PUSH1 0x20 ADD PUSH1 0x0 DUP2 MSTORE PUSH1 0x20 ADD PUSH1 0x0 DUP2 MSTORE PUSH1 0x20 ADD PUSH1 0x0 DUP2 MSTORE PUSH1 0x20 ADD PUSH1 0x0 DUP2 MSTORE POP SWAP1 JUMP JUMPDEST PUSH2 0x3C55 DUP5 PUSH1 0x1C PUSH2 0x4FC0 JUMP JUMPDEST DUP2 MSTORE PUSH2 0x3C62 DUP5 PUSH1 0x1D PUSH2 0x4FC0 JUMP JUMPDEST PUSH1 0x20 DUP3 ADD MSTORE PUSH2 0x3C72 DUP5 PUSH1 0x23 PUSH2 0x4FC0 JUMP JUMPDEST PUSH1 0x40 DUP3 ADD MSTORE PUSH2 0x3C82 DUP5 PUSH1 0x26 PUSH2 0x4FC0 JUMP JUMPDEST PUSH1 0x60 DUP3 ADD MSTORE PUSH2 0x3C92 DUP5 PUSH1 0x25 PUSH2 0x4FC0 JUMP JUMPDEST PUSH1 0x80 DUP3 ADD MSTORE PUSH2 0x3CA2 DUP5 PUSH1 0x24 PUSH2 0x4FC0 JUMP JUMPDEST PUSH1 0xA0 DUP3 ADD MSTORE PUSH1 0x0 PUSH2 0x3CB4 DUP6 PUSH1 0x2 PUSH2 0x4FC0 JUMP JUMPDEST SWAP1 POP PUSH1 0x0 PUSH2 0x3CC3 DUP7 PUSH1 0x0 PUSH2 0x4FC0 JUMP JUMPDEST SWAP1 POP PUSH1 0x0 PUSH2 0x3CD9 DUP5 PUSH1 0x40 ADD MLOAD DUP6 PUSH1 0x0 ADD MLOAD PUSH2 0x2609 JUMP JUMPDEST SWAP1 POP PUSH1 0x0 PUSH2 0x3CEF DUP6 PUSH1 0x20 ADD MLOAD DUP7 PUSH1 0x20 ADD MLOAD PUSH2 0x25AF JUMP JUMPDEST PUSH1 0x60 DUP7 ADD MLOAD SWAP1 SWAP2 POP DUP7 SWAP1 PUSH1 0x0 SWAP1 PUSH2 0x3D06 SWAP1 DUP1 PUSH2 0x25AF JUMP JUMPDEST SWAP1 POP PUSH1 0x0 PUSH2 0x3D25 PUSH2 0x3D1F DUP10 PUSH1 0x20 ADD MLOAD DUP11 PUSH1 0x60 ADD MLOAD PUSH2 0x25AF JUMP JUMPDEST DUP9 PUSH2 0x25AF JUMP JUMPDEST SWAP1 POP PUSH1 0x0 PUSH2 0x3D45 PUSH2 0x3D3E DUP11 PUSH1 0xA0 ADD MLOAD DUP12 PUSH1 0x40 ADD MLOAD PUSH2 0x25DC JUMP JUMPDEST DUP11 MLOAD PUSH2 0x25DC JUMP JUMPDEST SWAP1 POP PUSH2 0x3D54 PUSH2 0x39A7 DUP3 DUP9 PUSH2 0x25AF JUMP JUMPDEST SWAP1 POP PUSH2 0x3D7B PUSH2 0x3D75 PUSH2 0x3D6F PUSH2 0x3D69 DUP5 DUP8 PUSH2 0x2609 JUMP JUMPDEST DUP9 PUSH2 0x2609 JUMP JUMPDEST DUP5 PUSH2 0x25DC JUMP JUMPDEST DUP4 PUSH2 0x25DC JUMP JUMPDEST SWAP1 POP PUSH2 0x3DA3 PUSH2 0x3D98 PUSH2 0x3D8D DUP4 DUP8 PUSH2 0x25AF JUMP JUMPDEST PUSH2 0x694 DUP16 PUSH1 0x9 PUSH2 0x4FC0 JUMP JUMPDEST PUSH2 0x694 PUSH1 0x1 DUP11 PUSH2 0x2609 JUMP JUMPDEST PUSH2 0x160 DUP13 ADD MSTORE POP POP POP POP PUSH1 0x20 DUP6 ADD MLOAD PUSH1 0x80 DUP7 ADD MLOAD PUSH1 0x0 SWAP2 PUSH2 0x3DC3 SWAP2 PUSH2 0x25DC JUMP JUMPDEST SWAP1 POP PUSH1 0x0 PUSH2 0x3DE2 PUSH2 0x3DD8 DUP9 PUSH1 0x60 ADD MLOAD DUP9 PUSH2 0x25AF JUMP JUMPDEST DUP9 PUSH1 0x20 ADD MLOAD PUSH2 0x2609 JUMP JUMPDEST SWAP1 POP PUSH1 0x0 PUSH2 0x3E08 PUSH2 0x3DF3 DUP5 DUP8 PUSH2 0x25AF JUMP JUMPDEST PUSH2 0x699 PUSH2 0x378D DUP12 PUSH1 0xA0 ADD MLOAD DUP13 PUSH1 0x0 ADD MLOAD PUSH2 0x2609 JUMP JUMPDEST SWAP1 POP PUSH2 0x3E30 PUSH2 0x3E25 PUSH2 0x3E1A DUP4 DUP13 PUSH2 0x25AF JUMP JUMPDEST PUSH2 0x694 DUP15 PUSH1 0x9 PUSH2 0x4FC0 JUMP JUMPDEST PUSH2 0x694 PUSH1 0x1 DUP10 PUSH2 0x2609 JUMP JUMPDEST PUSH2 0x180 DUP12 ADD MSTORE POP PUSH1 0x0 SWAP2 POP PUSH2 0x3E52 SWAP1 POP PUSH2 0x3E4B DUP4 PUSH1 0x11 PUSH2 0x25DC JUMP JUMPDEST DUP8 MLOAD PUSH2 0x25AF JUMP JUMPDEST SWAP1 POP PUSH1 0x0 PUSH2 0x3E60 DUP4 DUP5 PUSH2 0x25DC JUMP JUMPDEST SWAP1 POP PUSH2 0x3E6C DUP2 DUP3 PUSH2 0x25DC JUMP JUMPDEST SWAP1 POP PUSH1 0x0 PUSH2 0x3E7B DUP4 PUSH1 0x9 PUSH2 0x25AF JUMP JUMPDEST SWAP1 POP PUSH2 0x3EA5 PUSH2 0x3E9F PUSH2 0x3758 PUSH2 0x3E98 DUP12 PUSH1 0xA0 ADD MLOAD DUP13 PUSH1 0x0 ADD MLOAD PUSH2 0x25DC JUMP JUMPDEST DUP12 MLOAD PUSH2 0x25DC JUMP JUMPDEST DUP3 PUSH2 0x2609 JUMP JUMPDEST PUSH1 0xC0 DUP10 ADD DUP2 SWAP1 MSTORE PUSH1 0x0 SWAP1 PUSH2 0x3EC1 SWAP1 PUSH2 0x3D1F SWAP1 PUSH2 0x3D8D SWAP1 DUP14 PUSH2 0x25AF JUMP JUMPDEST SWAP1 POP PUSH2 0x3ED4 DUP12 PUSH1 0xB PUSH1 0x20 MUL ADD MLOAD DUP3 PUSH2 0x25DC JUMP JUMPDEST PUSH2 0x160 DUP13 ADD MSTORE POP POP DUP7 MLOAD PUSH1 0x0 SWAP3 POP PUSH2 0x3EFC SWAP2 POP PUSH2 0x3E4B SWAP1 PUSH2 0x3EF5 SWAP1 DUP1 PUSH2 0x25DC JUMP JUMPDEST DUP9 MLOAD PUSH2 0x25DC JUMP JUMPDEST SWAP1 POP PUSH1 0x0 PUSH2 0x3F3E PUSH2 0x3F19 DUP4 PUSH2 0x694 DUP11 PUSH1 0x0 ADD MLOAD DUP12 PUSH1 0xA0 ADD MLOAD PUSH2 0x2609 JUMP JUMPDEST PUSH1 0x20 DUP10 ADD MLOAD PUSH2 0x6B8 SWAP1 PUSH2 0x3F2C SWAP1 DUP1 PUSH2 0x25DC JUMP JUMPDEST PUSH2 0x694 DUP12 PUSH1 0x20 ADD MLOAD DUP13 PUSH1 0x80 ADD MLOAD PUSH2 0x25DC JUMP JUMPDEST SWAP1 POP PUSH2 0x3F5B DUP10 PUSH1 0xC PUSH1 0x20 MUL ADD MLOAD PUSH2 0x699 PUSH2 0x3D1F PUSH2 0x3D8D DUP6 DUP14 PUSH2 0x25AF JUMP JUMPDEST DUP10 PUSH1 0xC PUSH1 0x20 MUL ADD MSTORE POP POP POP POP POP POP POP POP POP POP JUMP JUMPDEST PUSH2 0x4019 PUSH1 0x40 MLOAD DUP1 PUSH2 0x2C0 ADD PUSH1 0x40 MSTORE DUP1 PUSH1 0x0 DUP2 MSTORE PUSH1 0x20 ADD PUSH1 0x0 DUP2 MSTORE PUSH1 0x20 ADD PUSH1 0x0 DUP2 MSTORE PUSH1 0x20 ADD PUSH1 0x0 DUP2 MSTORE PUSH1 0x20 ADD PUSH1 0x0 DUP2 MSTORE PUSH1 0x20 ADD PUSH1 0x0 DUP2 MSTORE PUSH1 0x20 ADD PUSH1 0x0 DUP2 MSTORE PUSH1 0x20 ADD PUSH1 0x0 DUP2 MSTORE PUSH1 0x20 ADD PUSH1 0x0 DUP2 MSTORE PUSH1 0x20 ADD PUSH1 0x0 DUP2 MSTORE PUSH1 0x20 ADD PUSH1 0x0 DUP2 MSTORE PUSH1 0x20 ADD PUSH1 0x0 DUP2 MSTORE PUSH1 0x20 ADD PUSH1 0x0 DUP2 MSTORE PUSH1 0x20 ADD PUSH1 0x0 DUP2 MSTORE PUSH1 0x20 ADD PUSH1 0x0 DUP2 MSTORE PUSH1 0x20 ADD PUSH1 0x0 DUP2 MSTORE PUSH1 0x20 ADD PUSH1 0x0 DUP2 MSTORE PUSH1 0x20 ADD PUSH1 0x0 DUP2 MSTORE PUSH1 0x20 ADD PUSH1 0x0 DUP2 MSTORE PUSH1 0x20 ADD PUSH1 0x0 DUP2 MSTORE PUSH1 0x20 ADD PUSH1 0x0 DUP2 MSTORE PUSH1 0x20 ADD PUSH1 0x0 DUP2 MSTORE POP SWAP1 JUMP JUMPDEST PUSH2 0x404E PUSH2 0x4035 PUSH2 0x402A DUP8 PUSH1 0x1B PUSH2 0x4FC0 JUMP JUMPDEST PUSH2 0x694 DUP9 PUSH1 0x24 PUSH2 0x4FC0 JUMP JUMPDEST PUSH2 0x699 PUSH2 0x4043 DUP9 PUSH1 0x23 PUSH2 0x4FC0 JUMP JUMPDEST PUSH2 0x694 DUP10 PUSH1 0x1C PUSH2 0x4FC0 JUMP JUMPDEST DUP2 MSTORE PUSH2 0x4093 PUSH2 0x4088 PUSH2 0x406F PUSH2 0x4064 DUP9 PUSH1 0x1B PUSH2 0x4FC0 JUMP JUMPDEST PUSH2 0x694 DUP10 PUSH1 0x1E PUSH2 0x4FC0 JUMP JUMPDEST PUSH2 0x699 PUSH2 0x407D DUP10 PUSH1 0x1C PUSH2 0x4FC0 JUMP JUMPDEST PUSH2 0x694 DUP11 PUSH1 0x1D PUSH2 0x4FC0 JUMP JUMPDEST PUSH2 0x6B8 DUP8 PUSH1 0x25 PUSH2 0x4FC0 JUMP JUMPDEST PUSH1 0x40 DUP3 ADD DUP2 SWAP1 MSTORE PUSH2 0x40AD SWAP1 PUSH9 0x100000000000000000 PUSH2 0x25AF JUMP JUMPDEST PUSH1 0x40 DUP3 ADD DUP2 SWAP1 MSTORE PUSH2 0x40C3 SWAP1 PUSH2 0x6B8 DUP8 PUSH1 0x26 PUSH2 0x4FC0 JUMP JUMPDEST PUSH1 0x40 DUP3 ADD DUP2 SWAP1 MSTORE DUP2 MLOAD PUSH2 0x40D6 SWAP2 SWAP1 PUSH2 0x25DC JUMP JUMPDEST PUSH1 0x40 DUP3 ADD DUP2 SWAP1 MSTORE PUSH2 0x40EC SWAP1 PUSH2 0x694 DUP8 PUSH1 0x5 PUSH2 0x4FC0 JUMP JUMPDEST PUSH1 0x40 DUP3 ADD MSTORE DUP1 MLOAD PUSH2 0x4106 SWAP1 PUSH9 0x100000000000000000 PUSH2 0x25AF JUMP JUMPDEST DUP1 DUP3 MSTORE PUSH2 0x4126 SWAP1 PUSH2 0x699 PUSH2 0x411B DUP9 PUSH1 0x23 PUSH2 0x4FC0 JUMP JUMPDEST PUSH2 0x694 DUP10 PUSH1 0x24 PUSH2 0x4FC0 JUMP JUMPDEST DUP1 DUP3 MSTORE PUSH1 0x20 DUP3 ADD DUP2 SWAP1 MSTORE PUSH2 0x4142 SWAP1 PUSH2 0x6B8 PUSH2 0x3579 DUP9 PUSH1 0x1D PUSH2 0x4FC0 JUMP JUMPDEST PUSH1 0x20 DUP3 ADD DUP2 SWAP1 MSTORE PUSH2 0x4158 SWAP1 PUSH2 0x694 DUP8 PUSH1 0x4 PUSH2 0x4FC0 JUMP JUMPDEST PUSH1 0x20 DUP3 ADD MSTORE DUP1 MLOAD PUSH1 0x60 DUP3 ADD DUP2 SWAP1 MSTORE PUSH2 0x4175 SWAP1 PUSH2 0x699 DUP8 PUSH1 0x1E PUSH2 0x4FC0 JUMP JUMPDEST PUSH1 0x60 DUP3 ADD DUP2 SWAP1 MSTORE PUSH2 0x4199 SWAP1 PUSH2 0x6B8 PUSH2 0x418E DUP9 PUSH1 0x25 PUSH2 0x4FC0 JUMP JUMPDEST PUSH2 0x699 DUP10 PUSH1 0x26 PUSH2 0x4FC0 JUMP JUMPDEST PUSH1 0x60 DUP3 ADD DUP2 SWAP1 MSTORE PUSH2 0x41AF SWAP1 PUSH2 0x694 DUP8 PUSH1 0x0 PUSH2 0x4FC0 JUMP JUMPDEST DUP2 PUSH1 0x60 ADD DUP2 DUP2 MSTORE POP POP PUSH1 0x0 PUSH2 0x41D9 PUSH2 0x41CF DUP4 PUSH1 0x20 ADD MLOAD DUP5 PUSH1 0x40 ADD MLOAD PUSH2 0x25DC JUMP JUMPDEST DUP4 PUSH1 0x60 ADD MLOAD PUSH2 0x25DC JUMP JUMPDEST SWAP1 POP PUSH2 0x41EA DUP2 PUSH2 0x694 DUP9 PUSH1 0x3 PUSH2 0x4FC0 JUMP JUMPDEST SWAP1 POP PUSH2 0x4202 PUSH2 0x41FA DUP8 PUSH1 0x24 PUSH2 0x4FC0 JUMP JUMPDEST PUSH2 0x4000 PUSH2 0x25AF JUMP JUMPDEST PUSH1 0x80 DUP4 ADD DUP2 SWAP1 MSTORE PUSH2 0x4218 SWAP1 PUSH2 0x699 DUP9 PUSH1 0x23 PUSH2 0x4FC0 JUMP JUMPDEST PUSH1 0x80 DUP4 ADD DUP2 SWAP1 MSTORE PUSH2 0x422B SWAP1 PUSH2 0x4000 PUSH2 0x25AF JUMP JUMPDEST PUSH1 0x80 DUP4 ADD DUP2 SWAP1 MSTORE PUSH2 0x4241 SWAP1 PUSH2 0x699 DUP9 PUSH1 0x1D PUSH2 0x4FC0 JUMP JUMPDEST PUSH1 0x80 DUP4 ADD DUP2 SWAP1 MSTORE PUSH2 0x4254 SWAP1 PUSH2 0x4000 PUSH2 0x25AF JUMP JUMPDEST PUSH1 0x80 DUP4 ADD DUP2 SWAP1 MSTORE PUSH2 0x426A SWAP1 PUSH2 0x699 DUP9 PUSH1 0x1C PUSH2 0x4FC0 JUMP JUMPDEST PUSH1 0x80 DUP4 ADD DUP2 SWAP1 MSTORE PUSH2 0x427D SWAP1 PUSH2 0x4000 PUSH2 0x25AF JUMP JUMPDEST PUSH1 0x80 DUP4 ADD DUP2 SWAP1 MSTORE PUSH2 0x4293 SWAP1 PUSH2 0x699 DUP9 PUSH1 0x1B PUSH2 0x4FC0 JUMP JUMPDEST PUSH1 0x80 DUP4 ADD DUP2 SWAP1 MSTORE PUSH2 0x42A9 SWAP1 PUSH2 0x6B8 DUP9 PUSH1 0x1E PUSH2 0x4FC0 JUMP JUMPDEST PUSH1 0x80 DUP4 ADD DUP2 SWAP1 MSTORE PUSH2 0x42BF SWAP1 PUSH2 0x694 DUP9 PUSH1 0x5 PUSH2 0x4FC0 JUMP JUMPDEST PUSH1 0x80 DUP4 ADD MSTORE PUSH2 0x42D2 PUSH2 0x41FA DUP8 PUSH1 0x25 PUSH2 0x4FC0 JUMP JUMPDEST PUSH1 0xA0 DUP4 ADD DUP2 SWAP1 MSTORE PUSH2 0x42E8 SWAP1 PUSH2 0x699 DUP9 PUSH1 0x24 PUSH2 0x4FC0 JUMP JUMPDEST PUSH1 0xA0 DUP4 ADD DUP2 SWAP1 MSTORE PUSH2 0x42FB SWAP1 PUSH2 0x4000 PUSH2 0x25AF JUMP JUMPDEST PUSH1 0xA0 DUP4 ADD DUP2 SWAP1 MSTORE PUSH2 0x4311 SWAP1 PUSH2 0x699 DUP9 PUSH1 0x23 PUSH2 0x4FC0 JUMP JUMPDEST PUSH1 0xA0 DUP4 ADD DUP2 SWAP1 MSTORE PUSH2 0x4324 SWAP1 PUSH2 0x4000 PUSH2 0x25AF JUMP JUMPDEST PUSH1 0xA0 DUP4 ADD DUP2 SWAP1 MSTORE PUSH2 0x433A SWAP1 PUSH2 0x699 DUP9 PUSH1 0x1E PUSH2 0x4FC0 JUMP JUMPDEST PUSH1 0xA0 DUP4 ADD DUP2 SWAP1 MSTORE PUSH2 0x434D SWAP1 PUSH2 0x4000 PUSH2 0x25AF JUMP JUMPDEST PUSH1 0xA0 DUP4 ADD DUP2 SWAP1 MSTORE PUSH2 0x4363 SWAP1 PUSH2 0x699 DUP9 PUSH1 0x1D PUSH2 0x4FC0 JUMP JUMPDEST PUSH1 0xA0 DUP4 ADD DUP2 SWAP1 MSTORE PUSH2 0x4379 SWAP1 PUSH2 0x6B8 DUP9 PUSH1 0x26 PUSH2 0x4FC0 JUMP JUMPDEST PUSH1 0xA0 DUP4 ADD DUP2 SWAP1 MSTORE PUSH2 0x438F SWAP1 PUSH2 0x694 DUP9 PUSH1 0x0 PUSH2 0x4FC0 JUMP JUMPDEST PUSH1 0xA0 DUP4 ADD DUP2 SWAP1 MSTORE PUSH1 0x80 DUP4 ADD MLOAD PUSH1 0x0 SWAP2 PUSH2 0x43A8 SWAP2 SWAP1 PUSH2 0x25DC JUMP JUMPDEST SWAP1 POP PUSH2 0x43B9 DUP2 PUSH2 0x694 DUP10 PUSH1 0x4 PUSH2 0x4FC0 JUMP JUMPDEST SWAP1 POP PUSH2 0x43D3 PUSH2 0x43C9 DUP9 PUSH1 0x1D PUSH2 0x4FC0 JUMP JUMPDEST DUP8 PUSH1 0x40 ADD MLOAD PUSH2 0x25AF JUMP JUMPDEST PUSH1 0xC0 DUP5 ADD DUP2 SWAP1 MSTORE PUSH2 0x43EC SWAP1 PUSH2 0x699 PUSH2 0x3811 DUP11 PUSH1 0x1C PUSH2 0x4FC0 JUMP JUMPDEST PUSH1 0xC0 DUP5 ADD DUP2 SWAP1 MSTORE PUSH2 0x440C SWAP1 PUSH2 0x699 PUSH2 0x4405 DUP11 PUSH1 0x1B PUSH2 0x4FC0 JUMP JUMPDEST DUP10 MLOAD PUSH2 0x25AF JUMP JUMPDEST PUSH1 0xC0 DUP5 ADD DUP2 SWAP1 MSTORE PUSH2 0x4422 SWAP1 PUSH2 0x699 DUP10 PUSH1 0x1 PUSH2 0x4FC0 JUMP JUMPDEST PUSH1 0xC0 DUP5 ADD DUP2 SWAP1 MSTORE PUSH1 0xE0 DUP5 ADD DUP2 SWAP1 MSTORE PUSH2 0x443F SWAP1 PUSH2 0x6B8 DUP10 PUSH1 0x1E PUSH2 0x4FC0 JUMP JUMPDEST PUSH1 0xC0 DUP5 ADD MSTORE PUSH2 0x4452 PUSH2 0x3A4C DUP9 PUSH1 0x23 PUSH2 0x4FC0 JUMP JUMPDEST PUSH2 0x140 DUP5 ADD MSTORE PUSH2 0x4471 PUSH2 0x4466 DUP9 PUSH1 0x26 PUSH2 0x4FC0 JUMP JUMPDEST PUSH2 0x6B8 DUP10 PUSH1 0x1E PUSH2 0x4FC0 JUMP JUMPDEST PUSH2 0x120 DUP5 ADD MSTORE PUSH2 0x140 DUP4 ADD MLOAD PUSH2 0x4496 SWAP1 PUSH2 0x448B SWAP1 DUP1 PUSH2 0x25AF JUMP JUMPDEST DUP5 PUSH2 0x140 ADD MLOAD PUSH2 0x2609 JUMP JUMPDEST PUSH2 0x280 DUP5 ADD MSTORE PUSH2 0x140 DUP4 ADD MLOAD PUSH2 0x44EB SWAP1 PUSH2 0x44E0 SWAP1 PUSH2 0x44D9 SWAP1 PUSH2 0x694 PUSH1 0x1 PUSH32 0x30644E72E131A029B85045B68181585D2833E84879B9709143E1F593F0000001 PUSH2 0x5A4D JUMP JUMPDEST PUSH1 0x1 PUSH2 0x25DC JUMP JUMPDEST DUP5 PUSH2 0x120 ADD MLOAD PUSH2 0x25AF JUMP JUMPDEST PUSH2 0x160 DUP5 ADD DUP2 SWAP1 MSTORE PUSH2 0x4522 SWAP1 PUSH2 0x4514 SWAP1 PUSH2 0x694 PUSH2 0x4509 DUP12 PUSH1 0x2 PUSH2 0x4FC0 JUMP JUMPDEST PUSH2 0x694 DUP13 PUSH1 0x3 PUSH2 0x4FC0 JUMP JUMPDEST PUSH2 0x694 PUSH2 0x39A7 DUP11 PUSH1 0xA PUSH2 0x4FC0 JUMP JUMPDEST PUSH2 0x1C0 DUP7 ADD MSTORE PUSH2 0x280 DUP4 ADD MLOAD PUSH2 0x4544 SWAP1 PUSH2 0x4514 SWAP1 PUSH2 0x694 PUSH2 0x4509 DUP12 PUSH1 0x2 PUSH2 0x4FC0 JUMP JUMPDEST PUSH2 0x1E0 DUP7 ADD MSTORE PUSH1 0xC0 DUP4 ADD MLOAD PUSH2 0x456C SWAP1 PUSH2 0x694 PUSH2 0x4561 DUP11 PUSH1 0x2 PUSH2 0x4FC0 JUMP JUMPDEST PUSH2 0x694 DUP12 PUSH1 0x3 PUSH2 0x4FC0 JUMP JUMPDEST PUSH2 0x1E0 DUP5 ADD MSTORE PUSH1 0x0 PUSH2 0x458C PUSH2 0x4582 DUP10 PUSH1 0x1E PUSH2 0x4FC0 JUMP JUMPDEST DUP6 PUSH1 0xE0 ADD MLOAD PUSH2 0x2609 JUMP JUMPDEST SWAP1 POP PUSH2 0x459B PUSH2 0x3E9F DUP3 DUP4 PUSH2 0x25AF JUMP JUMPDEST PUSH2 0x1A0 DUP6 ADD MSTORE PUSH2 0x45AF PUSH2 0x3829 DUP10 PUSH1 0x25 PUSH2 0x4FC0 JUMP JUMPDEST PUSH2 0x100 DUP6 ADD DUP2 SWAP1 MSTORE PUSH2 0x45D3 SWAP1 PUSH2 0x699 PUSH2 0x45C9 DUP12 PUSH1 0x24 PUSH2 0x4FC0 JUMP JUMPDEST DUP11 PUSH1 0x20 ADD MLOAD PUSH2 0x25AF JUMP JUMPDEST PUSH2 0x100 DUP6 ADD DUP2 SWAP1 MSTORE PUSH2 0x45ED SWAP1 PUSH2 0x699 PUSH2 0x37FC DUP12 PUSH1 0x23 PUSH2 0x4FC0 JUMP JUMPDEST PUSH2 0x100 DUP6 ADD MSTORE PUSH2 0x460C PUSH2 0x4601 DUP10 PUSH1 0x26 PUSH2 0x4FC0 JUMP JUMPDEST DUP6 PUSH2 0x100 ADD MLOAD PUSH2 0x2609 JUMP JUMPDEST PUSH2 0x100 DUP6 ADD MSTORE PUSH1 0x0 PUSH2 0x4622 PUSH2 0x3A86 DUP11 PUSH1 0x25 PUSH2 0x4FC0 JUMP JUMPDEST SWAP1 POP PUSH2 0x469C PUSH2 0x4663 PUSH2 0x34A0 PUSH2 0x44D9 DUP9 PUSH2 0x140 ADD MLOAD PUSH1 0x1 PUSH32 0x30644E72E131A029B85045B68181585D2833E84879B9709143E1F593F0000001 PUSH2 0x694 SWAP2 SWAP1 PUSH2 0x5A4D JUMP JUMPDEST PUSH2 0x694 PUSH2 0x44D9 DUP9 PUSH2 0x100 ADD MLOAD PUSH1 0x1 PUSH32 0x30644E72E131A029B85045B68181585D2833E84879B9709143E1F593F0000001 PUSH2 0x694 SWAP2 SWAP1 PUSH2 0x5A4D JUMP JUMPDEST PUSH2 0x180 DUP7 ADD MSTORE PUSH2 0x100 DUP6 ADD MLOAD PUSH2 0x46C1 SWAP1 PUSH2 0x46B6 SWAP1 DUP1 PUSH2 0x25AF JUMP JUMPDEST DUP7 PUSH2 0x100 ADD MLOAD PUSH2 0x2609 JUMP JUMPDEST PUSH2 0x1C0 DUP7 ADD MSTORE PUSH2 0x180 DUP6 ADD MLOAD PUSH2 0x46F4 SWAP1 PUSH2 0x46E0 SWAP1 PUSH2 0x694 DUP13 PUSH1 0x7 PUSH2 0x4FC0 JUMP JUMPDEST PUSH2 0x694 PUSH2 0x46EE DUP13 PUSH1 0xA PUSH2 0x4FC0 JUMP JUMPDEST DUP10 PUSH2 0x25AF JUMP JUMPDEST PUSH2 0x200 DUP9 ADD MSTORE PUSH2 0x280 DUP6 ADD MLOAD PUSH2 0x4713 SWAP1 PUSH2 0x46E0 SWAP1 PUSH2 0x694 DUP13 PUSH1 0x7 PUSH2 0x4FC0 JUMP JUMPDEST PUSH2 0x220 DUP9 ADD MSTORE PUSH2 0x1C0 DUP6 ADD MLOAD PUSH2 0x4732 SWAP1 PUSH2 0x46E0 SWAP1 PUSH2 0x694 DUP13 PUSH1 0x7 PUSH2 0x4FC0 JUMP JUMPDEST PUSH2 0x240 DUP9 ADD MSTORE PUSH2 0x1A0 DUP6 ADD MLOAD PUSH2 0x474D SWAP1 PUSH2 0x694 DUP12 PUSH1 0x7 PUSH2 0x4FC0 JUMP JUMPDEST PUSH2 0x200 DUP7 ADD MSTORE PUSH2 0x476C PUSH2 0x4761 DUP11 PUSH1 0x24 PUSH2 0x4FC0 JUMP JUMPDEST PUSH2 0x6B8 DUP12 PUSH1 0x1C PUSH2 0x4FC0 JUMP JUMPDEST PUSH2 0x220 DUP7 ADD MSTORE PUSH2 0x140 DUP6 ADD MLOAD PUSH2 0x47BE SWAP1 PUSH2 0x3A86 SWAP1 PUSH2 0x47B3 SWAP1 PUSH2 0x44D9 SWAP1 PUSH2 0x694 PUSH1 0x1 PUSH32 0x30644E72E131A029B85045B68181585D2833E84879B9709143E1F593F0000001 PUSH2 0x5A4D JUMP JUMPDEST DUP8 PUSH2 0x220 ADD MLOAD PUSH2 0x25AF JUMP JUMPDEST PUSH2 0x240 DUP7 ADD DUP2 SWAP1 MSTORE PUSH2 0x1E0 DUP7 ADD MLOAD PUSH2 0x260 DUP8 ADD DUP2 SWAP1 MSTORE PUSH2 0x47F5 SWAP2 PUSH2 0x699 SWAP1 PUSH2 0x694 PUSH2 0x47EA DUP15 PUSH1 0x5 PUSH2 0x4FC0 JUMP JUMPDEST PUSH2 0x694 DUP16 PUSH1 0x2 PUSH2 0x4FC0 JUMP JUMPDEST PUSH2 0x260 DUP7 ADD DUP2 SWAP1 MSTORE PUSH1 0xC0 DUP7 ADD MLOAD PUSH2 0x4819 SWAP2 SWAP1 PUSH2 0x699 SWAP1 PUSH2 0x694 PUSH2 0x47EA DUP15 PUSH1 0x0 PUSH2 0x4FC0 JUMP JUMPDEST PUSH2 0x260 DUP7 ADD DUP2 SWAP1 MSTORE PUSH2 0x200 DUP7 ADD MLOAD PUSH2 0x4831 SWAP2 SWAP1 PUSH2 0x25DC JUMP JUMPDEST PUSH2 0x260 DUP7 ADD DUP2 SWAP1 MSTORE PUSH2 0x4847 SWAP1 PUSH2 0x3D6F SWAP1 DUP7 PUSH2 0x25DC JUMP JUMPDEST PUSH2 0x2A0 DUP7 ADD DUP2 SWAP1 MSTORE PUSH2 0x4861 SWAP1 PUSH2 0x694 PUSH2 0x46EE DUP13 PUSH1 0xA PUSH2 0x4FC0 JUMP JUMPDEST PUSH2 0x2A0 DUP7 ADD DUP2 SWAP1 MSTORE DUP8 PUSH1 0xD PUSH1 0x20 MUL ADD MSTORE POP POP POP POP POP POP POP POP POP JUMP JUMPDEST PUSH2 0x4903 PUSH1 0x40 MLOAD DUP1 PUSH2 0x220 ADD PUSH1 0x40 MSTORE DUP1 PUSH1 0x0 DUP2 MSTORE PUSH1 0x20 ADD PUSH1 0x0 DUP2 MSTORE PUSH1 0x20 ADD PUSH1 0x0 DUP2 MSTORE PUSH1 0x20 ADD PUSH1 0x0 DUP2 MSTORE PUSH1 0x20 ADD PUSH1 0x0 DUP2 MSTORE PUSH1 0x20 ADD PUSH1 0x0 DUP2 MSTORE PUSH1 0x20 ADD PUSH1 0x0 DUP2 MSTORE PUSH1 0x20 ADD PUSH1 0x0 DUP2 MSTORE PUSH1 0x20 ADD PUSH1 0x0 DUP2 MSTORE PUSH1 0x20 ADD PUSH1 0x0 DUP2 MSTORE PUSH1 0x20 ADD PUSH1 0x0 DUP2 MSTORE PUSH1 0x20 ADD PUSH1 0x0 DUP2 MSTORE PUSH1 0x20 ADD PUSH1 0x0 DUP2 MSTORE PUSH1 0x20 ADD PUSH1 0x0 DUP2 MSTORE PUSH1 0x20 ADD PUSH1 0x0 DUP2 MSTORE PUSH1 0x20 ADD PUSH1 0x0 DUP2 MSTORE PUSH1 0x20 ADD PUSH1 0x0 DUP2 MSTORE POP SWAP1 JUMP JUMPDEST PUSH2 0x491C PUSH2 0x4911 DUP6 PUSH1 0x1B PUSH2 0x4FC0 JUMP JUMPDEST PUSH2 0x699 DUP7 PUSH1 0x2 PUSH2 0x4FC0 JUMP JUMPDEST DUP2 MSTORE PUSH2 0x4937 PUSH2 0x492C DUP6 PUSH1 0x1C PUSH2 0x4FC0 JUMP JUMPDEST PUSH2 0x699 DUP7 PUSH1 0x3 PUSH2 0x4FC0 JUMP JUMPDEST PUSH1 0x20 DUP3 ADD MSTORE PUSH2 0x4955 PUSH2 0x494A DUP6 PUSH1 0x1D PUSH2 0x4FC0 JUMP JUMPDEST PUSH2 0x699 DUP7 PUSH1 0x4 PUSH2 0x4FC0 JUMP JUMPDEST PUSH1 0x40 DUP3 ADD MSTORE PUSH2 0x4973 PUSH2 0x4968 DUP6 PUSH1 0x1E PUSH2 0x4FC0 JUMP JUMPDEST PUSH2 0x699 DUP7 PUSH1 0x5 PUSH2 0x4FC0 JUMP JUMPDEST PUSH1 0x60 DUP3 ADD MSTORE DUP1 MLOAD PUSH2 0x49A5 SWAP1 PUSH2 0x499E SWAP1 PUSH2 0x4997 SWAP1 PUSH2 0x4990 SWAP1 DUP1 PUSH2 0x25AF JUMP JUMPDEST DUP5 MLOAD PUSH2 0x25AF JUMP JUMPDEST DUP4 MLOAD PUSH2 0x25AF JUMP JUMPDEST DUP3 MLOAD PUSH2 0x25AF JUMP JUMPDEST PUSH1 0x80 DUP3 ADD MSTORE PUSH1 0x20 DUP2 ADD MLOAD PUSH2 0x49E3 SWAP1 PUSH2 0x49D9 SWAP1 PUSH2 0x49CF SWAP1 PUSH2 0x49C5 SWAP1 DUP1 PUSH2 0x25AF JUMP JUMPDEST DUP5 PUSH1 0x20 ADD MLOAD PUSH2 0x25AF JUMP JUMPDEST DUP4 PUSH1 0x20 ADD MLOAD PUSH2 0x25AF JUMP JUMPDEST DUP3 PUSH1 0x20 ADD MLOAD PUSH2 0x25AF JUMP JUMPDEST PUSH1 0xA0 DUP3 ADD MSTORE PUSH1 0x40 DUP2 ADD MLOAD PUSH2 0x4A21 SWAP1 PUSH2 0x4A17 SWAP1 PUSH2 0x4A0D SWAP1 PUSH2 0x4A03 SWAP1 DUP1 PUSH2 0x25AF JUMP JUMPDEST DUP5 PUSH1 0x40 ADD MLOAD PUSH2 0x25AF JUMP JUMPDEST DUP4 PUSH1 0x40 ADD MLOAD PUSH2 0x25AF JUMP JUMPDEST DUP3 PUSH1 0x40 ADD MLOAD PUSH2 0x25AF JUMP JUMPDEST PUSH1 0xC0 DUP3 ADD MSTORE PUSH1 0x60 DUP2 ADD MLOAD PUSH2 0x4A5F SWAP1 PUSH2 0x4A55 SWAP1 PUSH2 0x4A4B SWAP1 PUSH2 0x4A41 SWAP1 DUP1 PUSH2 0x25AF JUMP JUMPDEST DUP5 PUSH1 0x60 ADD MLOAD PUSH2 0x25AF JUMP JUMPDEST DUP4 PUSH1 0x60 ADD MLOAD PUSH2 0x25AF JUMP JUMPDEST DUP3 PUSH1 0x60 ADD MLOAD PUSH2 0x25AF JUMP JUMPDEST PUSH1 0xE0 DUP3 ADD MSTORE PUSH1 0x80 DUP2 ADD MLOAD PUSH1 0xA0 DUP3 ADD MLOAD PUSH2 0x4A78 SWAP2 SWAP1 PUSH2 0x25DC JUMP JUMPDEST PUSH2 0x100 DUP3 ADD MSTORE PUSH1 0xC0 DUP2 ADD MLOAD PUSH1 0xE0 DUP3 ADD MLOAD PUSH2 0x4A92 SWAP2 SWAP1 PUSH2 0x25DC JUMP JUMPDEST PUSH2 0x120 DUP3 ADD MSTORE PUSH1 0xA0 DUP2 ADD MLOAD PUSH2 0x4AB6 SWAP1 PUSH2 0x4AAB SWAP1 DUP1 PUSH2 0x25DC JUMP JUMPDEST DUP3 PUSH2 0x120 ADD MLOAD PUSH2 0x25DC JUMP JUMPDEST PUSH2 0x140 DUP3 ADD MSTORE PUSH1 0xE0 DUP2 ADD MLOAD PUSH2 0x4ADA SWAP1 PUSH2 0x4ACF SWAP1 DUP1 PUSH2 0x25DC JUMP JUMPDEST DUP3 PUSH2 0x100 ADD MLOAD PUSH2 0x25DC JUMP JUMPDEST PUSH2 0x160 DUP3 ADD MSTORE PUSH2 0x120 DUP2 ADD MLOAD PUSH2 0x4AF0 SWAP1 DUP1 PUSH2 0x25DC JUMP JUMPDEST PUSH2 0x1E0 DUP3 ADD DUP2 SWAP1 MSTORE PUSH2 0x4B11 SWAP1 PUSH2 0x4B06 SWAP1 DUP1 PUSH2 0x25DC JUMP JUMPDEST DUP3 PUSH2 0x160 ADD MLOAD PUSH2 0x25DC JUMP JUMPDEST PUSH2 0x1E0 DUP3 ADD MSTORE PUSH2 0x100 DUP2 ADD MLOAD PUSH2 0x4B27 SWAP1 DUP1 PUSH2 0x25DC JUMP JUMPDEST PUSH2 0x1A0 DUP3 ADD DUP2 SWAP1 MSTORE PUSH2 0x4B48 SWAP1 PUSH2 0x4B3D SWAP1 DUP1 PUSH2 0x25DC JUMP JUMPDEST DUP3 PUSH2 0x140 ADD MLOAD PUSH2 0x25DC JUMP JUMPDEST PUSH2 0x1A0 DUP3 ADD DUP2 SWAP1 MSTORE PUSH2 0x160 DUP3 ADD MLOAD PUSH2 0x4B5F SWAP2 PUSH2 0x25DC JUMP JUMPDEST PUSH2 0x180 DUP3 ADD MSTORE PUSH2 0x140 DUP2 ADD MLOAD PUSH2 0x1E0 DUP3 ADD MLOAD PUSH2 0x4B7B SWAP2 SWAP1 PUSH2 0x25DC JUMP JUMPDEST PUSH2 0x1C0 DUP3 ADD MSTORE PUSH2 0x4B8F PUSH2 0x34A0 DUP6 PUSH1 0xB PUSH2 0x4FC0 JUMP JUMPDEST PUSH2 0x200 DUP3 ADD DUP2 SWAP1 MSTORE PUSH2 0x260 DUP5 ADD MLOAD PUSH2 0x180 DUP4 ADD MLOAD PUSH2 0x4BBA SWAP3 PUSH2 0x699 SWAP2 PUSH2 0x694 SWAP1 PUSH2 0x6B8 DUP11 PUSH1 0x23 PUSH2 0x4FC0 JUMP JUMPDEST DUP4 PUSH1 0x13 PUSH1 0x20 MUL ADD MSTORE PUSH2 0x4BEA DUP4 PUSH1 0x14 PUSH1 0x20 MUL ADD MLOAD PUSH2 0x699 DUP4 PUSH2 0x200 ADD MLOAD PUSH2 0x694 DUP6 PUSH2 0x1A0 ADD MLOAD PUSH2 0x6B8 DUP11 PUSH1 0x24 PUSH2 0x4FC0 JUMP JUMPDEST DUP4 PUSH1 0x14 PUSH1 0x20 MUL ADD MSTORE PUSH2 0x4C1A DUP4 PUSH1 0x15 PUSH1 0x20 MUL ADD MLOAD PUSH2 0x699 DUP4 PUSH2 0x200 ADD MLOAD PUSH2 0x694 DUP6 PUSH2 0x1C0 ADD MLOAD PUSH2 0x6B8 DUP11 PUSH1 0x25 PUSH2 0x4FC0 JUMP JUMPDEST DUP4 PUSH1 0x15 PUSH1 0x20 MUL ADD MSTORE PUSH2 0x4C4A DUP4 PUSH1 0x16 PUSH1 0x20 MUL ADD MLOAD PUSH2 0x699 DUP4 PUSH2 0x200 ADD MLOAD PUSH2 0x694 DUP6 PUSH2 0x1E0 ADD MLOAD PUSH2 0x6B8 DUP11 PUSH1 0x26 PUSH2 0x4FC0 JUMP JUMPDEST DUP4 PUSH1 0x16 PUSH1 0x20 MUL ADD MSTORE POP POP POP POP JUMP JUMPDEST PUSH2 0x4CB5 PUSH1 0x40 MLOAD DUP1 PUSH2 0x160 ADD PUSH1 0x40 MSTORE DUP1 PUSH1 0x0 DUP2 MSTORE PUSH1 0x20 ADD PUSH1 0x0 DUP2 MSTORE PUSH1 0x20 ADD PUSH1 0x0 DUP2 MSTORE PUSH1 0x20 ADD PUSH1 0x0 DUP2 MSTORE PUSH1 0x20 ADD PUSH1 0x0 DUP2 MSTORE PUSH1 0x20 ADD PUSH1 0x0 DUP2 MSTORE PUSH1 0x20 ADD PUSH1 0x0 DUP2 MSTORE PUSH1 0x20 ADD PUSH1 0x0 DUP2 MSTORE PUSH1 0x20 ADD PUSH1 0x0 DUP2 MSTORE PUSH1 0x20 ADD PUSH1 0x0 DUP2 MSTORE PUSH1 0x20 ADD PUSH1 0x0 DUP2 MSTORE POP SWAP1 JUMP JUMPDEST PUSH1 0x0 PUSH1 0x40 MLOAD DUP1 PUSH1 0x80 ADD PUSH1 0x40 MSTORE DUP1 PUSH2 0x4CEB PUSH32 0x10DC6E9C006EA38B04B1E03B4BD9490C0D03F98929CA1D7FB56821FD19D3B6E7 PUSH2 0x257D JUMP JUMPDEST DUP2 MSTORE PUSH1 0x20 ADD PUSH2 0x4D19 PUSH32 0xC28145B6A44DF3E0149B3D0A30B3BB599DF9756D4DD9B84A86B38CFB45A740B PUSH2 0x257D JUMP JUMPDEST DUP2 MSTORE PUSH1 0x20 ADD PUSH2 0x4D46 PUSH31 0x544B8338791518B2C7645A50392798B21F75BB60E3596170067D00141CAC15 PUSH2 0x257D JUMP JUMPDEST DUP2 MSTORE PUSH1 0x20 ADD PUSH2 0x4D74 PUSH32 0x222C01175718386F2E2E82EB122789E352E105A3B8FA852613BC534433EE428B PUSH2 0x257D JUMP JUMPDEST SWAP1 MSTORE SWAP1 POP PUSH2 0x4D91 PUSH2 0x4D86 DUP7 PUSH1 0x1B PUSH2 0x4FC0 JUMP JUMPDEST PUSH2 0x699 DUP8 PUSH1 0x2 PUSH2 0x4FC0 JUMP JUMPDEST PUSH2 0x120 DUP4 ADD DUP2 SWAP1 MSTORE PUSH2 0x4DC5 SWAP1 PUSH2 0x4DBA SWAP1 PUSH2 0x44E0 SWAP1 PUSH2 0x4DAF SWAP1 DUP1 PUSH2 0x25AF JUMP JUMPDEST DUP6 PUSH2 0x120 ADD MLOAD PUSH2 0x25AF JUMP JUMPDEST DUP4 PUSH2 0x120 ADD MLOAD PUSH2 0x25AF JUMP JUMPDEST DUP3 MSTORE PUSH2 0x4DD2 DUP6 PUSH1 0x1C PUSH2 0x4FC0 JUMP JUMPDEST PUSH1 0x20 DUP4 ADD MSTORE PUSH2 0x4DE2 DUP6 PUSH1 0x1D PUSH2 0x4FC0 JUMP JUMPDEST PUSH1 0x40 DUP4 ADD MSTORE PUSH2 0x4DF2 DUP6 PUSH1 0x1E PUSH2 0x4FC0 JUMP JUMPDEST PUSH1 0x60 DUP4 ADD MSTORE DUP2 MLOAD PUSH1 0x20 DUP4 ADD MLOAD PUSH2 0x4E1A SWAP2 PUSH2 0x41CF SWAP2 PUSH2 0x4E10 SWAP2 SWAP1 PUSH2 0x25DC JUMP JUMPDEST DUP5 PUSH1 0x40 ADD MLOAD PUSH2 0x25DC JUMP JUMPDEST PUSH1 0x80 DUP4 ADD MSTORE PUSH2 0x4E2D PUSH2 0x3758 DUP7 PUSH1 0xC PUSH2 0x4FC0 JUMP JUMPDEST PUSH2 0x140 DUP4 ADD MSTORE DUP2 MLOAD PUSH2 0x4E4F SWAP1 PUSH2 0x4E45 SWAP1 DUP4 PUSH1 0x0 PUSH2 0x127C JUMP JUMPDEST DUP4 PUSH1 0x80 ADD MLOAD PUSH2 0x25DC JUMP JUMPDEST PUSH1 0xA0 DUP4 ADD MSTORE PUSH2 0x4E7B DUP5 PUSH1 0x17 PUSH1 0x20 MUL ADD MLOAD PUSH2 0x699 DUP5 PUSH2 0x140 ADD MLOAD PUSH2 0x694 DUP7 PUSH1 0xA0 ADD MLOAD PUSH2 0x6B8 DUP12 PUSH1 0x23 PUSH2 0x4FC0 JUMP JUMPDEST PUSH2 0x2E0 DUP6 ADD MSTORE PUSH1 0x20 DUP3 ADD MLOAD PUSH2 0x4E96 SWAP1 PUSH2 0x4E45 SWAP1 DUP4 PUSH1 0x1 PUSH2 0x127C JUMP JUMPDEST PUSH1 0xC0 DUP4 ADD MSTORE PUSH2 0x4EC2 DUP5 PUSH1 0x18 PUSH1 0x20 MUL ADD MLOAD PUSH2 0x699 DUP5 PUSH2 0x140 ADD MLOAD PUSH2 0x694 DUP7 PUSH1 0xC0 ADD MLOAD PUSH2 0x6B8 DUP12 PUSH1 0x24 PUSH2 0x4FC0 JUMP JUMPDEST PUSH2 0x300 DUP6 ADD MSTORE PUSH1 0x40 DUP3 ADD MLOAD PUSH2 0x4EDD SWAP1 PUSH2 0x4E45 SWAP1 DUP4 PUSH1 0x2 PUSH2 0x127C JUMP JUMPDEST PUSH1 0xE0 DUP4 ADD MSTORE PUSH2 0x4F09 DUP5 PUSH1 0x19 PUSH1 0x20 MUL ADD MLOAD PUSH2 0x699 DUP5 PUSH2 0x140 ADD MLOAD PUSH2 0x694 DUP7 PUSH1 0xE0 ADD MLOAD PUSH2 0x6B8 DUP12 PUSH1 0x25 PUSH2 0x4FC0 JUMP JUMPDEST PUSH2 0x320 DUP6 ADD MSTORE PUSH1 0x60 DUP3 ADD MLOAD PUSH2 0x4F24 SWAP1 PUSH2 0x4E45 SWAP1 DUP4 PUSH1 0x3 PUSH2 0x127C JUMP JUMPDEST PUSH2 0x100 DUP4 ADD MSTORE PUSH2 0x4F52 DUP5 PUSH1 0x1A PUSH1 0x20 MUL ADD MLOAD PUSH2 0x699 DUP5 PUSH2 0x140 ADD MLOAD PUSH2 0x694 DUP7 PUSH2 0x100 ADD MLOAD PUSH2 0x6B8 DUP12 PUSH1 0x26 PUSH2 0x4FC0 JUMP JUMPDEST DUP5 PUSH1 0x1A PUSH2 0x35DB JUMP JUMPDEST PUSH1 0x0 PUSH2 0x4F67 DUP2 DUP5 DUP2 PUSH2 0x952 JUMP JUMPDEST SWAP1 POP PUSH1 0x1 JUMPDEST PUSH1 0x1B DUP2 LT ISZERO PUSH2 0x4FB9 JUMPI PUSH2 0x4FAF DUP3 PUSH2 0x699 DUP7 DUP5 PUSH1 0x1B DUP2 LT PUSH2 0x4F8E JUMPI PUSH2 0x4F8E PUSH2 0x5A9D JUMP JUMPDEST PUSH1 0x20 MUL ADD MLOAD DUP7 PUSH2 0x4F9F PUSH1 0x1 DUP8 PUSH2 0x5A4D JUMP JUMPDEST PUSH1 0x1A DUP2 LT PUSH2 0x127C JUMPI PUSH2 0x127C PUSH2 0x5A9D JUMP JUMPDEST SWAP2 POP PUSH1 0x1 ADD PUSH2 0x4F6C JUMP JUMPDEST POP SWAP3 SWAP2 POP POP JUMP JUMPDEST PUSH1 0x0 DUP3 DUP3 PUSH1 0x27 DUP2 GT ISZERO PUSH2 0x4FD5 JUMPI PUSH2 0x4FD5 PUSH2 0x5DBF JUMP JUMPDEST PUSH1 0x28 DUP2 LT PUSH2 0x4FE5 JUMPI PUSH2 0x4FE5 PUSH2 0x5A9D JUMP JUMPDEST PUSH1 0x20 MUL ADD MLOAD SWAP4 SWAP3 POP POP POP JUMP JUMPDEST PUSH1 0x40 MLOAD DUP1 PUSH2 0x3C0 ADD PUSH1 0x40 MSTORE DUP1 PUSH1 0x0 DUP2 MSTORE PUSH1 0x20 ADD PUSH1 0x0 DUP2 MSTORE PUSH1 0x20 ADD PUSH1 0x0 DUP2 MSTORE PUSH1 0x20 ADD PUSH2 0x502F PUSH1 0x40 MLOAD DUP1 PUSH1 0x40 ADD PUSH1 0x40 MSTORE DUP1 PUSH1 0x0 DUP2 MSTORE PUSH1 0x20 ADD PUSH1 0x0 DUP2 MSTORE POP SWAP1 JUMP JUMPDEST DUP2 MSTORE PUSH1 0x20 ADD PUSH2 0x5051 PUSH1 0x40 MLOAD DUP1 PUSH1 0x40 ADD PUSH1 0x40 MSTORE DUP1 PUSH1 0x0 DUP2 MSTORE PUSH1 0x20 ADD PUSH1 0x0 DUP2 MSTORE POP SWAP1 JUMP JUMPDEST DUP2 MSTORE PUSH1 0x20 ADD PUSH2 0x5073 PUSH1 0x40 MLOAD DUP1 PUSH1 0x40 ADD PUSH1 0x40 MSTORE DUP1 PUSH1 0x0 DUP2 MSTORE PUSH1 0x20 ADD PUSH1 0x0 DUP2 MSTORE POP SWAP1 JUMP JUMPDEST DUP2 MSTORE PUSH1 0x20 ADD PUSH2 0x5095 PUSH1 0x40 MLOAD DUP1 PUSH1 0x40 ADD PUSH1 0x40 MSTORE DUP1 PUSH1 0x0 DUP2 MSTORE PUSH1 0x20 ADD PUSH1 0x0 DUP2 MSTORE POP SWAP1 JUMP JUMPDEST DUP2 MSTORE PUSH1 0x20 ADD PUSH2 0x50B7 PUSH1 0x40 MLOAD DUP1 PUSH1 0x40 ADD PUSH1 0x40 MSTORE DUP1 PUSH1 0x0 DUP2 MSTORE PUSH1 0x20 ADD PUSH1 0x0 DUP2 MSTORE POP SWAP1 JUMP JUMPDEST DUP2 MSTORE PUSH1 0x20 ADD PUSH2 0x50D9 PUSH1 0x40 MLOAD DUP1 PUSH1 0x40 ADD PUSH1 0x40 MSTORE DUP1 PUSH1 0x0 DUP2 MSTORE PUSH1 0x20 ADD PUSH1 0x0 DUP2 MSTORE POP SWAP1 JUMP JUMPDEST DUP2 MSTORE PUSH1 0x20 ADD PUSH2 0x50FB PUSH1 0x40 MLOAD DUP1 PUSH1 0x40 ADD PUSH1 0x40 MSTORE DUP1 PUSH1 0x0 DUP2 MSTORE PUSH1 0x20 ADD PUSH1 0x0 DUP2 MSTORE POP SWAP1 JUMP JUMPDEST DUP2 MSTORE PUSH1 0x20 ADD PUSH2 0x511D PUSH1 0x40 MLOAD DUP1 PUSH1 0x40 ADD PUSH1 0x40 MSTORE DUP1 PUSH1 0x0 DUP2 MSTORE PUSH1 0x20 ADD PUSH1 0x0 DUP2 MSTORE POP SWAP1 JUMP JUMPDEST DUP2 MSTORE PUSH1 0x20 ADD PUSH2 0x513F PUSH1 0x40 MLOAD DUP1 PUSH1 0x40 ADD PUSH1 0x40 MSTORE DUP1 PUSH1 0x0 DUP2 MSTORE PUSH1 0x20 ADD PUSH1 0x0 DUP2 MSTORE POP SWAP1 JUMP JUMPDEST DUP2 MSTORE PUSH1 0x20 ADD PUSH2 0x5161 PUSH1 0x40 MLOAD DUP1 PUSH1 0x40 ADD PUSH1 0x40 MSTORE DUP1 PUSH1 0x0 DUP2 MSTORE PUSH1 0x20 ADD PUSH1 0x0 DUP2 MSTORE POP SWAP1 JUMP JUMPDEST DUP2 MSTORE PUSH1 0x20 ADD PUSH2 0x5183 PUSH1 0x40 MLOAD DUP1 PUSH1 0x40 ADD PUSH1 0x40 MSTORE DUP1 PUSH1 0x0 DUP2 MSTORE PUSH1 0x20 ADD PUSH1 0x0 DUP2 MSTORE POP SWAP1 JUMP JUMPDEST DUP2 MSTORE PUSH1 0x20 ADD PUSH2 0x51A5 PUSH1 0x40 MLOAD DUP1 PUSH1 0x40 ADD PUSH1 0x40 MSTORE DUP1 PUSH1 0x0 DUP2 MSTORE PUSH1 0x20 ADD PUSH1 0x0 DUP2 MSTORE POP SWAP1 JUMP JUMPDEST DUP2 MSTORE PUSH1 0x20 ADD PUSH2 0x51C7 PUSH1 0x40 MLOAD DUP1 PUSH1 0x40 ADD PUSH1 0x40 MSTORE DUP1 PUSH1 0x0 DUP2 MSTORE PUSH1 0x20 ADD PUSH1 0x0 DUP2 MSTORE POP SWAP1 JUMP JUMPDEST DUP2 MSTORE PUSH1 0x20 ADD PUSH2 0x51E9 PUSH1 0x40 MLOAD DUP1 PUSH1 0x40 ADD PUSH1 0x40 MSTORE DUP1 PUSH1 0x0 DUP2 MSTORE PUSH1 0x20 ADD PUSH1 0x0 DUP2 MSTORE POP SWAP1 JUMP JUMPDEST DUP2 MSTORE PUSH1 0x20 ADD PUSH2 0x520B PUSH1 0x40 MLOAD DUP1 PUSH1 0x40 ADD PUSH1 0x40 MSTORE DUP1 PUSH1 0x0 DUP2 MSTORE PUSH1 0x20 ADD PUSH1 0x0 DUP2 MSTORE POP SWAP1 JUMP JUMPDEST DUP2 MSTORE PUSH1 0x20 ADD PUSH2 0x522D PUSH1 0x40 MLOAD DUP1 PUSH1 0x40 ADD PUSH1 0x40 MSTORE DUP1 PUSH1 0x0 DUP2 MSTORE PUSH1 0x20 ADD PUSH1 0x0 DUP2 MSTORE POP SWAP1 JUMP JUMPDEST DUP2 MSTORE PUSH1 0x20 ADD PUSH2 0x524F PUSH1 0x40 MLOAD DUP1 PUSH1 0x40 ADD PUSH1 0x40 MSTORE DUP1 PUSH1 0x0 DUP2 MSTORE PUSH1 0x20 ADD PUSH1 0x0 DUP2 MSTORE POP SWAP1 JUMP JUMPDEST DUP2 MSTORE PUSH1 0x20 ADD PUSH2 0x5271 PUSH1 0x40 MLOAD DUP1 PUSH1 0x40 ADD PUSH1 0x40 MSTORE DUP1 PUSH1 0x0 DUP2 MSTORE PUSH1 0x20 ADD PUSH1 0x0 DUP2 MSTORE POP SWAP1 JUMP JUMPDEST DUP2 MSTORE PUSH1 0x20 ADD PUSH2 0x5293 PUSH1 0x40 MLOAD DUP1 PUSH1 0x40 ADD PUSH1 0x40 MSTORE DUP1 PUSH1 0x0 DUP2 MSTORE PUSH1 0x20 ADD PUSH1 0x0 DUP2 MSTORE POP SWAP1 JUMP JUMPDEST DUP2 MSTORE PUSH1 0x20 ADD PUSH2 0x52B5 PUSH1 0x40 MLOAD DUP1 PUSH1 0x40 ADD PUSH1 0x40 MSTORE DUP1 PUSH1 0x0 DUP2 MSTORE PUSH1 0x20 ADD PUSH1 0x0 DUP2 MSTORE POP SWAP1 JUMP JUMPDEST DUP2 MSTORE PUSH1 0x20 ADD PUSH2 0x52D7 PUSH1 0x40 MLOAD DUP1 PUSH1 0x40 ADD PUSH1 0x40 MSTORE DUP1 PUSH1 0x0 DUP2 MSTORE PUSH1 0x20 ADD PUSH1 0x0 DUP2 MSTORE POP SWAP1 JUMP JUMPDEST DUP2 MSTORE PUSH1 0x20 ADD PUSH2 0x52F9 PUSH1 0x40 MLOAD DUP1 PUSH1 0x40 ADD PUSH1 0x40 MSTORE DUP1 PUSH1 0x0 DUP2 MSTORE PUSH1 0x20 ADD PUSH1 0x0 DUP2 MSTORE POP SWAP1 JUMP JUMPDEST DUP2 MSTORE PUSH1 0x20 ADD PUSH2 0x531B PUSH1 0x40 MLOAD DUP1 PUSH1 0x40 ADD PUSH1 0x40 MSTORE DUP1 PUSH1 0x0 DUP2 MSTORE PUSH1 0x20 ADD PUSH1 0x0 DUP2 MSTORE POP SWAP1 JUMP JUMPDEST DUP2 MSTORE PUSH1 0x20 ADD PUSH2 0x533D PUSH1 0x40 MLOAD DUP1 PUSH1 0x40 ADD PUSH1 0x40 MSTORE DUP1 PUSH1 0x0 DUP2 MSTORE PUSH1 0x20 ADD PUSH1 0x0 DUP2 MSTORE POP SWAP1 JUMP JUMPDEST DUP2 MSTORE PUSH1 0x20 ADD PUSH2 0x535F PUSH1 0x40 MLOAD DUP1 PUSH1 0x40 ADD PUSH1 0x40 MSTORE DUP1 PUSH1 0x0 DUP2 MSTORE PUSH1 0x20 ADD PUSH1 0x0 DUP2 MSTORE POP SWAP1 JUMP JUMPDEST DUP2 MSTORE PUSH1 0x20 ADD PUSH2 0x5381 PUSH1 0x40 MLOAD DUP1 PUSH1 0x40 ADD PUSH1 0x40 MSTORE DUP1 PUSH1 0x0 DUP2 MSTORE PUSH1 0x20 ADD PUSH1 0x0 DUP2 MSTORE POP SWAP1 JUMP JUMPDEST DUP2 MSTORE PUSH1 0x20 ADD PUSH2 0x53A3 PUSH1 0x40 MLOAD DUP1 PUSH1 0x40 ADD PUSH1 0x40 MSTORE DUP1 PUSH1 0x0 DUP2 MSTORE PUSH1 0x20 ADD PUSH1 0x0 DUP2 MSTORE POP SWAP1 JUMP JUMPDEST SWAP1 MSTORE SWAP1 JUMP JUMPDEST PUSH1 0x40 MLOAD DUP1 PUSH2 0x1E0 ADD PUSH1 0x40 MSTORE DUP1 PUSH2 0x53BC PUSH2 0x5859 JUMP JUMPDEST DUP2 MSTORE PUSH1 0x20 ADD PUSH2 0x53EC PUSH1 0x40 MLOAD DUP1 PUSH1 0x80 ADD PUSH1 0x40 MSTORE DUP1 PUSH1 0x0 DUP2 MSTORE PUSH1 0x20 ADD PUSH1 0x0 DUP2 MSTORE PUSH1 0x20 ADD PUSH1 0x0 DUP2 MSTORE PUSH1 0x20 ADD PUSH1 0x0 DUP2 MSTORE POP SWAP1 JUMP JUMPDEST DUP2 MSTORE PUSH1 0x20 ADD PUSH2 0x541C PUSH1 0x40 MLOAD DUP1 PUSH1 0x80 ADD PUSH1 0x40 MSTORE DUP1 PUSH1 0x0 DUP2 MSTORE PUSH1 0x20 ADD PUSH1 0x0 DUP2 MSTORE PUSH1 0x20 ADD PUSH1 0x0 DUP2 MSTORE PUSH1 0x20 ADD PUSH1 0x0 DUP2 MSTORE POP SWAP1 JUMP JUMPDEST DUP2 MSTORE PUSH1 0x20 ADD PUSH2 0x544C PUSH1 0x40 MLOAD DUP1 PUSH1 0x80 ADD PUSH1 0x40 MSTORE DUP1 PUSH1 0x0 DUP2 MSTORE PUSH1 0x20 ADD PUSH1 0x0 DUP2 MSTORE PUSH1 0x20 ADD PUSH1 0x0 DUP2 MSTORE PUSH1 0x20 ADD PUSH1 0x0 DUP2 MSTORE POP SWAP1 JUMP JUMPDEST DUP2 MSTORE PUSH1 0x20 ADD PUSH2 0x547C PUSH1 0x40 MLOAD DUP1 PUSH1 0x80 ADD PUSH1 0x40 MSTORE DUP1 PUSH1 0x0 DUP2 MSTORE PUSH1 0x20 ADD PUSH1 0x0 DUP2 MSTORE PUSH1 0x20 ADD PUSH1 0x0 DUP2 MSTORE PUSH1 0x20 ADD PUSH1 0x0 DUP2 MSTORE POP SWAP1 JUMP JUMPDEST DUP2 MSTORE PUSH1 0x20 ADD PUSH2 0x54AC PUSH1 0x40 MLOAD DUP1 PUSH1 0x80 ADD PUSH1 0x40 MSTORE DUP1 PUSH1 0x0 DUP2 MSTORE PUSH1 0x20 ADD PUSH1 0x0 DUP2 MSTORE PUSH1 0x20 ADD PUSH1 0x0 DUP2 MSTORE PUSH1 0x20 ADD PUSH1 0x0 DUP2 MSTORE POP SWAP1 JUMP JUMPDEST DUP2 MSTORE PUSH1 0x20 ADD PUSH2 0x54DC PUSH1 0x40 MLOAD DUP1 PUSH1 0x80 ADD PUSH1 0x40 MSTORE DUP1 PUSH1 0x0 DUP2 MSTORE PUSH1 0x20 ADD PUSH1 0x0 DUP2 MSTORE PUSH1 0x20 ADD PUSH1 0x0 DUP2 MSTORE PUSH1 0x20 ADD PUSH1 0x0 DUP2 MSTORE POP SWAP1 JUMP JUMPDEST DUP2 MSTORE PUSH1 0x20 ADD PUSH2 0x550C PUSH1 0x40 MLOAD DUP1 PUSH1 0x80 ADD PUSH1 0x40 MSTORE DUP1 PUSH1 0x0 DUP2 MSTORE PUSH1 0x20 ADD PUSH1 0x0 DUP2 MSTORE PUSH1 0x20 ADD PUSH1 0x0 DUP2 MSTORE PUSH1 0x20 ADD PUSH1 0x0 DUP2 MSTORE POP SWAP1 JUMP JUMPDEST DUP2 MSTORE PUSH1 0x20 ADD PUSH2 0x553C PUSH1 0x40 MLOAD DUP1 PUSH1 0x80 ADD PUSH1 0x40 MSTORE DUP1 PUSH1 0x0 DUP2 MSTORE PUSH1 0x20 ADD PUSH1 0x0 DUP2 MSTORE PUSH1 0x20 ADD PUSH1 0x0 DUP2 MSTORE PUSH1 0x20 ADD PUSH1 0x0 DUP2 MSTORE POP SWAP1 JUMP JUMPDEST DUP2 MSTORE PUSH1 0x20 ADD PUSH2 0x5549 PUSH2 0x5878 JUMP JUMPDEST DUP2 MSTORE PUSH1 0x20 ADD PUSH2 0x5556 PUSH2 0x58A6 JUMP JUMPDEST DUP2 MSTORE PUSH1 0x20 ADD PUSH2 0x5563 PUSH2 0x58C5 JUMP JUMPDEST DUP2 MSTORE PUSH1 0x20 ADD PUSH2 0x5570 PUSH2 0x5762 JUMP JUMPDEST DUP2 MSTORE PUSH1 0x20 ADD PUSH2 0x55A0 PUSH1 0x40 MLOAD DUP1 PUSH1 0x80 ADD PUSH1 0x40 MSTORE DUP1 PUSH1 0x0 DUP2 MSTORE PUSH1 0x20 ADD PUSH1 0x0 DUP2 MSTORE PUSH1 0x20 ADD PUSH1 0x0 DUP2 MSTORE PUSH1 0x20 ADD PUSH1 0x0 DUP2 MSTORE POP SWAP1 JUMP JUMPDEST DUP2 MSTORE PUSH1 0x20 ADD PUSH2 0x53A3 PUSH1 0x40 MLOAD DUP1 PUSH1 0x80 ADD PUSH1 0x40 MSTORE DUP1 PUSH1 0x0 DUP2 MSTORE PUSH1 0x20 ADD PUSH1 0x0 DUP2 MSTORE PUSH1 0x20 ADD PUSH1 0x0 DUP2 MSTORE PUSH1 0x20 ADD PUSH1 0x0 DUP2 MSTORE POP SWAP1 JUMP JUMPDEST PUSH1 0x40 MLOAD DUP1 PUSH2 0x100 ADD PUSH1 0x40 MSTORE DUP1 PUSH2 0x5615 PUSH1 0x40 MLOAD DUP1 PUSH1 0xC0 ADD PUSH1 0x40 MSTORE DUP1 PUSH1 0x0 DUP2 MSTORE PUSH1 0x20 ADD PUSH1 0x0 DUP2 MSTORE PUSH1 0x20 ADD PUSH1 0x0 DUP2 MSTORE PUSH1 0x20 ADD PUSH1 0x0 DUP2 MSTORE PUSH1 0x20 ADD PUSH1 0x0 DUP2 MSTORE PUSH1 0x20 ADD PUSH1 0x0 DUP2 MSTORE POP SWAP1 JUMP JUMPDEST DUP2 MSTORE PUSH1 0x20 ADD PUSH2 0x5622 PUSH2 0x5724 JUMP JUMPDEST DUP2 MSTORE PUSH1 0x20 ADD PUSH2 0x562F PUSH2 0x5762 JUMP JUMPDEST DUP2 MSTORE PUSH1 0x20 ADD PUSH2 0x563C PUSH2 0x5762 JUMP JUMPDEST DUP2 MSTORE PUSH1 0x20 ADD PUSH1 0x0 DUP2 MSTORE PUSH1 0x20 ADD PUSH1 0x0 DUP2 MSTORE PUSH1 0x20 ADD PUSH1 0x0 DUP2 MSTORE PUSH1 0x20 ADD PUSH1 0x0 DUP2 MSTORE POP SWAP1 JUMP JUMPDEST PUSH1 0x40 MLOAD DUP1 PUSH2 0x180 ADD PUSH1 0x40 MSTORE DUP1 PUSH1 0x0 DUP2 MSTORE PUSH1 0x20 ADD PUSH1 0x0 DUP2 MSTORE PUSH1 0x20 ADD PUSH1 0x0 DUP2 MSTORE PUSH1 0x20 ADD PUSH1 0x0 DUP2 MSTORE PUSH1 0x20 ADD PUSH1 0x0 DUP2 MSTORE PUSH1 0x20 ADD PUSH2 0x5695 PUSH2 0x5916 JUMP JUMPDEST DUP2 MSTORE PUSH1 0x20 ADD PUSH2 0x56A2 PUSH2 0x5916 JUMP JUMPDEST DUP2 MSTORE PUSH1 0x20 ADD PUSH1 0x0 DUP2 MSTORE PUSH1 0x20 ADD PUSH1 0x0 DUP2 MSTORE PUSH1 0x20 ADD PUSH1 0x0 DUP2 MSTORE PUSH1 0x20 ADD PUSH1 0x0 DUP2 MSTORE PUSH1 0x20 ADD PUSH2 0x53A3 PUSH2 0x5762 JUMP JUMPDEST PUSH1 0x40 MLOAD DUP1 PUSH2 0x8C0 ADD PUSH1 0x40 MSTORE DUP1 PUSH1 0x46 SWAP1 PUSH1 0x20 DUP3 MUL DUP1 CALLDATASIZE DUP4 CALLDATACOPY POP SWAP2 SWAP3 SWAP2 POP POP JUMP JUMPDEST PUSH1 0x40 MLOAD DUP1 PUSH2 0x8C0 ADD PUSH1 0x40 MSTORE DUP1 PUSH1 0x46 SWAP1 JUMPDEST PUSH1 0x40 DUP1 MLOAD DUP1 DUP3 ADD SWAP1 SWAP2 MSTORE PUSH1 0x0 DUP1 DUP3 MSTORE PUSH1 0x20 DUP3 ADD MSTORE DUP2 MSTORE PUSH1 0x20 ADD SWAP1 PUSH1 0x1 SWAP1 SUB SWAP1 DUP2 PUSH2 0x56FA JUMPI SWAP1 POP POP SWAP1 JUMP JUMPDEST PUSH1 0x40 MLOAD DUP1 PUSH2 0x340 ADD PUSH1 0x40 MSTORE DUP1 PUSH1 0x1A SWAP1 PUSH1 0x20 DUP3 MUL DUP1 CALLDATASIZE DUP4 CALLDATACOPY POP SWAP2 SWAP3 SWAP2 POP POP JUMP JUMPDEST PUSH1 0x40 MLOAD DUP1 PUSH2 0x120 ADD PUSH1 0x40 MSTORE DUP1 PUSH1 0x9 SWAP1 PUSH1 0x20 DUP3 MUL DUP1 CALLDATASIZE DUP4 CALLDATACOPY POP SWAP2 SWAP3 SWAP2 POP POP JUMP JUMPDEST PUSH1 0x40 MLOAD DUP1 PUSH2 0x380 ADD PUSH1 0x40 MSTORE DUP1 PUSH1 0x1C SWAP1 PUSH1 0x20 DUP3 MUL DUP1 CALLDATASIZE DUP4 CALLDATACOPY POP SWAP2 SWAP3 SWAP2 POP POP JUMP JUMPDEST PUSH1 0x40 MLOAD DUP1 PUSH2 0x520 ADD PUSH1 0x40 MSTORE DUP1 PUSH1 0x29 SWAP1 PUSH1 0x20 DUP3 MUL DUP1 CALLDATASIZE DUP4 CALLDATACOPY POP SWAP2 SWAP3 SWAP2 POP POP JUMP JUMPDEST PUSH1 0x40 MLOAD DUP1 PUSH2 0xDA0 ADD PUSH1 0x40 MSTORE DUP1 PUSH1 0x6D SWAP1 PUSH1 0x20 DUP3 MUL DUP1 CALLDATASIZE DUP4 CALLDATACOPY POP SWAP2 SWAP3 SWAP2 POP POP JUMP JUMPDEST PUSH1 0x40 MLOAD DUP1 PUSH2 0x3A0 ADD PUSH1 0x40 MSTORE DUP1 PUSH1 0x1D SWAP1 PUSH1 0x20 DUP3 MUL DUP1 CALLDATASIZE DUP4 CALLDATACOPY POP SWAP2 SWAP3 SWAP2 POP POP JUMP JUMPDEST PUSH1 0x40 MLOAD DUP1 PUSH1 0xA0 ADD PUSH1 0x40 MSTORE DUP1 PUSH1 0x5 SWAP1 PUSH1 0x20 DUP3 MUL DUP1 CALLDATASIZE DUP4 CALLDATACOPY POP SWAP2 SWAP3 SWAP2 POP POP JUMP JUMPDEST PUSH1 0x40 MLOAD DUP1 PUSH2 0x100 ADD PUSH1 0x40 MSTORE DUP1 PUSH1 0x8 SWAP1 PUSH1 0x20 DUP3 MUL DUP1 CALLDATASIZE DUP4 CALLDATACOPY POP SWAP2 SWAP3 SWAP2 POP POP JUMP JUMPDEST PUSH1 0x40 MLOAD DUP1 PUSH2 0x360 ADD PUSH1 0x40 MSTORE DUP1 PUSH1 0x1B SWAP1 PUSH1 0x20 DUP3 MUL DUP1 CALLDATASIZE DUP4 CALLDATACOPY POP SWAP2 SWAP3 SWAP2 POP POP JUMP JUMPDEST PUSH1 0x40 MLOAD DUP1 PUSH2 0x1A0 ADD PUSH1 0x40 MSTORE DUP1 PUSH1 0xD SWAP1 PUSH1 0x20 DUP3 MUL DUP1 CALLDATASIZE DUP4 CALLDATACOPY POP SWAP2 SWAP3 SWAP2 POP POP JUMP JUMPDEST PUSH1 0x40 MLOAD DUP1 PUSH2 0x200 ADD PUSH1 0x40 MSTORE DUP1 PUSH1 0x10 SWAP1 PUSH1 0x20 DUP3 MUL DUP1 CALLDATASIZE DUP4 CALLDATACOPY POP SWAP2 SWAP3 SWAP2 POP POP JUMP JUMPDEST PUSH1 0x40 MLOAD DUP1 PUSH2 0x380 ADD PUSH1 0x40 MSTORE DUP1 PUSH1 0x1C SWAP1 JUMPDEST PUSH2 0x5890 PUSH2 0x57FC JUMP JUMPDEST DUP2 MSTORE PUSH1 0x20 ADD SWAP1 PUSH1 0x1 SWAP1 SUB SWAP1 DUP2 PUSH2 0x5888 JUMPI SWAP1 POP POP SWAP1 JUMP JUMPDEST PUSH1 0x40 MLOAD DUP1 PUSH2 0x500 ADD PUSH1 0x40 MSTORE DUP1 PUSH1 0x28 SWAP1 PUSH1 0x20 DUP3 MUL DUP1 CALLDATASIZE DUP4 CALLDATACOPY POP SWAP2 SWAP3 SWAP2 POP POP JUMP JUMPDEST PUSH1 0x40 MLOAD DUP1 PUSH2 0x360 ADD PUSH1 0x40 MSTORE DUP1 PUSH1 0x1B SWAP1 JUMPDEST PUSH2 0x5900 PUSH1 0x40 MLOAD DUP1 PUSH1 0x80 ADD PUSH1 0x40 MSTORE DUP1 PUSH1 0x0 DUP2 MSTORE PUSH1 0x20 ADD PUSH1 0x0 DUP2 MSTORE PUSH1 0x20 ADD PUSH1 0x0 DUP2 MSTORE PUSH1 0x20 ADD PUSH1 0x0 DUP2 MSTORE POP SWAP1 JUMP JUMPDEST DUP2 MSTORE PUSH1 0x20 ADD SWAP1 PUSH1 0x1 SWAP1 SUB SWAP1 DUP2 PUSH2 0x58D5 JUMPI SWAP1 POP POP SWAP1 JUMP JUMPDEST PUSH1 0x40 MLOAD DUP1 PUSH1 0x80 ADD PUSH1 0x40 MSTORE DUP1 PUSH1 0x4 SWAP1 PUSH1 0x20 DUP3 MUL DUP1 CALLDATASIZE DUP4 CALLDATACOPY POP SWAP2 SWAP3 SWAP2 POP POP JUMP JUMPDEST PUSH1 0x0 DUP1 PUSH1 0x0 DUP1 PUSH1 0x40 DUP6 DUP8 SUB SLT ISZERO PUSH2 0x594A JUMPI PUSH1 0x0 DUP1 REVERT JUMPDEST DUP5 CALLDATALOAD PUSH8 0xFFFFFFFFFFFFFFFF DUP2 GT ISZERO PUSH2 0x5961 JUMPI PUSH1 0x0 DUP1 REVERT JUMPDEST DUP6 ADD PUSH1 0x1F DUP2 ADD DUP8 SGT PUSH2 0x5972 JUMPI PUSH1 0x0 DUP1 REVERT JUMPDEST DUP1 CALLDATALOAD PUSH8 0xFFFFFFFFFFFFFFFF DUP2 GT ISZERO PUSH2 0x5989 JUMPI PUSH1 0x0 DUP1 REVERT JUMPDEST DUP8 PUSH1 0x20 DUP3 DUP5 ADD ADD GT ISZERO PUSH2 0x599B JUMPI PUSH1 0x0 DUP1 REVERT JUMPDEST PUSH1 0x20 SWAP2 DUP3 ADD SWAP6 POP SWAP4 POP DUP6 ADD CALLDATALOAD PUSH8 0xFFFFFFFFFFFFFFFF DUP2 GT ISZERO PUSH2 0x59BC JUMPI PUSH1 0x0 DUP1 REVERT JUMPDEST DUP6 ADD PUSH1 0x1F DUP2 ADD DUP8 SGT PUSH2 0x59CD JUMPI PUSH1 0x0 DUP1 REVERT JUMPDEST DUP1 CALLDATALOAD PUSH8 0xFFFFFFFFFFFFFFFF DUP2 GT ISZERO PUSH2 0x59E4 JUMPI PUSH1 0x0 DUP1 REVERT JUMPDEST DUP8 PUSH1 0x20 DUP3 PUSH1 0x5 SHL DUP5 ADD ADD GT ISZERO PUSH2 0x59F9 JUMPI PUSH1 0x0 DUP1 REVERT JUMPDEST SWAP5 SWAP8 SWAP4 SWAP7 POP PUSH1 0x20 ADD SWAP5 POP POP POP JUMP JUMPDEST PUSH32 0x4E487B7100000000000000000000000000000000000000000000000000000000 PUSH1 0x0 MSTORE PUSH1 0x11 PUSH1 0x4 MSTORE PUSH1 0x24 PUSH1 0x0 REVERT JUMPDEST DUP1 DUP3 MUL DUP2 ISZERO DUP3 DUP3 DIV DUP5 EQ OR PUSH2 0x25A9 JUMPI PUSH2 0x25A9 PUSH2 0x5A07 JUMP JUMPDEST DUP2 DUP2 SUB DUP2 DUP2 GT ISZERO PUSH2 0x25A9 JUMPI PUSH2 0x25A9 PUSH2 0x5A07 JUMP JUMPDEST DUP1 DUP3 ADD DUP1 DUP3 GT ISZERO PUSH2 0x25A9 JUMPI PUSH2 0x25A9 PUSH2 0x5A07 JUMP JUMPDEST PUSH1 0x0 DUP1 DUP6 DUP6 GT ISZERO PUSH2 0x5A83 JUMPI PUSH1 0x0 DUP1 REVERT JUMPDEST DUP4 DUP7 GT ISZERO PUSH2 0x5A90 JUMPI PUSH1 0x0 DUP1 REVERT JUMPDEST POP POP DUP3 ADD SWAP4 SWAP2 SWAP1 SWAP3 SUB SWAP2 POP JUMP JUMPDEST PUSH32 0x4E487B7100000000000000000000000000000000000000000000000000000000 PUSH1 0x0 MSTORE PUSH1 0x32 PUSH1 0x4 MSTORE PUSH1 0x24 PUSH1 0x0 REVERT JUMPDEST PUSH1 0x0 PUSH32 0xFFFFFFFFFFFFFFFFFFFFFFFFFFFFFFFFFFFFFFFFFFFFFFFFFFFFFFFFFFFFFFFF DUP3 SUB PUSH2 0x5AFD JUMPI PUSH2 0x5AFD PUSH2 0x5A07 JUMP JUMPDEST POP PUSH1 0x1 ADD SWAP1 JUMP JUMPDEST DUP1 CALLDATALOAD PUSH1 0x20 DUP4 LT ISZERO PUSH2 0x25A9 JUMPI PUSH32 0xFFFFFFFFFFFFFFFFFFFFFFFFFFFFFFFFFFFFFFFFFFFFFFFFFFFFFFFFFFFFFFFF PUSH1 0x20 DUP5 SWAP1 SUB PUSH1 0x3 SHL SHL AND SWAP3 SWAP2 POP POP JUMP JUMPDEST PUSH1 0x0 DUP2 DUP4 DUP3 JUMPDEST PUSH1 0x9 DUP2 LT ISZERO PUSH2 0x5B65 JUMPI DUP2 MLOAD DUP4 MSTORE PUSH1 0x20 SWAP3 DUP4 ADD SWAP3 SWAP1 SWAP2 ADD SWAP1 PUSH1 0x1 ADD PUSH2 0x5B46 JUMP JUMPDEST POP POP POP PUSH2 0x120 DUP3 ADD SWAP1 POP SWAP3 SWAP2 POP POP JUMP JUMPDEST PUSH32 0x4E487B7100000000000000000000000000000000000000000000000000000000 PUSH1 0x0 MSTORE PUSH1 0x12 PUSH1 0x4 MSTORE PUSH1 0x24 PUSH1 0x0 REVERT JUMPDEST PUSH1 0x0 DUP3 PUSH2 0x5BB3 JUMPI PUSH2 0x5BB3 PUSH2 0x5B75 JUMP JUMPDEST POP DIV SWAP1 JUMP JUMPDEST PUSH1 0x0 DUP2 DUP4 DUP3 JUMPDEST PUSH1 0x29 DUP2 LT ISZERO PUSH2 0x5BDD JUMPI DUP2 MLOAD DUP4 MSTORE PUSH1 0x20 SWAP3 DUP4 ADD SWAP3 SWAP1 SWAP2 ADD SWAP1 PUSH1 0x1 ADD PUSH2 0x5BBE JUMP JUMPDEST POP POP POP PUSH2 0x520 DUP3 ADD SWAP1 POP SWAP3 SWAP2 POP POP JUMP JUMPDEST PUSH1 0x0 DUP2 DUP4 DUP3 JUMPDEST PUSH1 0x6D DUP2 LT ISZERO PUSH2 0x5C12 JUMPI DUP2 MLOAD DUP4 MSTORE PUSH1 0x20 SWAP3 DUP4 ADD SWAP3 SWAP1 SWAP2 ADD SWAP1 PUSH1 0x1 ADD PUSH2 0x5BF3 JUMP JUMPDEST POP POP POP PUSH2 0xDA0 DUP3 ADD SWAP1 POP SWAP3 SWAP2 POP POP JUMP JUMPDEST PUSH1 0x0 DUP2 DUP4 DUP3 JUMPDEST PUSH1 0x1D DUP2 LT ISZERO PUSH2 0x5C47 JUMPI DUP2 MLOAD DUP4 MSTORE PUSH1 0x20 SWAP3 DUP4 ADD SWAP3 SWAP1 SWAP2 ADD SWAP1 PUSH1 0x1 ADD PUSH2 0x5C28 JUMP JUMPDEST POP POP POP PUSH2 0x3A0 DUP3 ADD SWAP1 POP SWAP3 SWAP2 POP POP JUMP JUMPDEST PUSH1 0x0 DUP2 DUP4 DUP3 JUMPDEST PUSH1 0x5 DUP2 LT ISZERO PUSH2 0x5C7C JUMPI DUP2 MLOAD DUP4 MSTORE PUSH1 0x20 SWAP3 DUP4 ADD SWAP3 SWAP1 SWAP2 ADD SWAP1 PUSH1 0x1 ADD PUSH2 0x5C5D JUMP JUMPDEST POP POP POP PUSH1 0xA0 DUP3 ADD SWAP1 POP SWAP3 SWAP2 POP POP JUMP JUMPDEST PUSH1 0x0 DUP3 PUSH2 0x5C9A JUMPI PUSH2 0x5C9A PUSH2 0x5B75 JUMP JUMPDEST POP MOD SWAP1 JUMP JUMPDEST PUSH1 0x0 DUP2 PUSH2 0x5CAE JUMPI PUSH2 0x5CAE PUSH2 0x5A07 JUMP JUMPDEST POP PUSH32 0xFFFFFFFFFFFFFFFFFFFFFFFFFFFFFFFFFFFFFFFFFFFFFFFFFFFFFFFFFFFFFFFF ADD SWAP1 JUMP JUMPDEST PUSH1 0x0 DUP3 MLOAD PUSH1 0x0 JUMPDEST DUP2 DUP2 LT ISZERO PUSH2 0x5CF5 JUMPI PUSH1 0x20 DUP2 DUP7 ADD DUP2 ADD MLOAD DUP6 DUP4 ADD MSTORE ADD PUSH2 0x5CDB JUMP JUMPDEST POP PUSH1 0x0 SWAP3 ADD SWAP2 DUP3 MSTORE POP SWAP2 SWAP1 POP JUMP JUMPDEST PUSH1 0x0 PUSH1 0x20 DUP3 DUP5 SUB SLT ISZERO PUSH2 0x5D15 JUMPI PUSH1 0x0 DUP1 REVERT JUMPDEST DUP2 MLOAD DUP1 ISZERO ISZERO DUP2 EQ PUSH2 0x1E5A JUMPI PUSH1 0x0 DUP1 REVERT JUMPDEST PUSH32 0x4E487B7100000000000000000000000000000000000000000000000000000000 PUSH1 0x0 MSTORE PUSH1 0x41 PUSH1 0x4 MSTORE PUSH1 0x24 PUSH1 0x0 REVERT JUMPDEST DUP2 MLOAD PUSH1 0x0 SWAP1 DUP3 SWAP1 PUSH1 0x20 DUP6 ADD DUP4 JUMPDEST DUP3 DUP2 LT ISZERO PUSH2 0x5D7F JUMPI DUP2 MLOAD DUP5 MSTORE PUSH1 0x20 SWAP4 DUP5 ADD SWAP4 SWAP1 SWAP2 ADD SWAP1 PUSH1 0x1 ADD PUSH2 0x5D61 JUMP JUMPDEST POP SWAP2 SWAP6 SWAP5 POP POP POP POP POP JUMP JUMPDEST PUSH1 0x0 DUP2 DUP4 DUP3 JUMPDEST PUSH1 0xD DUP2 LT ISZERO PUSH2 0x5DAF JUMPI DUP2 MLOAD DUP4 MSTORE PUSH1 0x20 SWAP3 DUP4 ADD SWAP3 SWAP1 SWAP2 ADD SWAP1 PUSH1 0x1 ADD PUSH2 0x5D90 JUMP JUMPDEST POP POP POP PUSH2 0x1A0 DUP3 ADD SWAP1 POP SWAP3 SWAP2 POP POP JUMP JUMPDEST PUSH32 0x4E487B7100000000000000000000000000000000000000000000000000000000 PUSH1 0x0 MSTORE PUSH1 0x21 PUSH1 0x4 MSTORE PUSH1 0x24 PUSH1 0x0 REVERT INVALID LOG2 PUSH5 0x6970667358 0x22 SLT KECCAK256 CALL CODESIZE SLOAD PUSH12 0x405D833C808E19A22186D9B2 PUSH26 0xE2001B988347B2C185571763FC726C64736F6C634300081B0033 "},"methodIdentifiers":{"verify(bytes,bytes32[])":"ea50d0e4"}}}}}