{
  "_format": "hh-sol-artifact-1",
  "contractName": "ZkTLSPriceOracle",
  "sourceName": "contracts/ZkTLSPriceOracle.sol",
  "abi": [
    {
      "inputs": [
        {
          "internalType": "address",
          "name": "_verifier",
          "type": "address"
        },
        {
          "internalType": "address",
          "name": "_trustedAttestor",
          "type": "address"
        }
      ],
      "stateMutability": "nonpayable",
      "type": "constructor"
    },
    {
      "inputs": [],
      "name": "InvalidAttestor",
      "type": "error"
    },
    {
      "inputs": [],
      "name": "InvalidProof",
      "type": "error"
    },
    {
      "inputs": [],
      "name": "OnlyOwner",
      "type": "error"
    },
    {
      "anonymous": false,
      "inputs": [
        {
          "indexed": true,
          "internalType": "address",
          "name": "oldAttestor",
          "type": "address"
        },
        {
          "indexed": true,
          "internalType": "address",
          "name": "newAttestor",
          "type": "address"
        }
      ],
      "name": "AttestorUpdated",
      "type": "event"
    },
    {
      "anonymous": false,
      "inputs": [
        {
          "indexed": true,
          "internalType": "address",
          "name": "oldOwner",
          "type": "address"
        },
        {
          "indexed": true,
          "internalType": "address",
          "name": "newOwner",
          "type": "address"
        }
      ],
      "name": "OwnerUpdated",
      "type": "event"
    },
    {
      "anonymous": false,
      "inputs": [
        {
          "indexed": false,
          "internalType": "uint256",
          "name": "price",
          "type": "uint256"
        },
        {
          "indexed": false,
          "internalType": "bytes32",
          "name": "packedInputsHash",
          "type": "bytes32"
        },
        {
          "indexed": false,
          "internalType": "uint256",
          "name": "timestamp",
          "type": "uint256"
        }
      ],
      "name": "PriceUpdated",
      "type": "event"
    },
    {
      "inputs": [],
      "name": "getPrice",
      "outputs": [
        {
          "internalType": "uint256",
          "name": "price",
          "type": "uint256"
        },
        {
          "internalType": "uint256",
          "name": "timestamp",
          "type": "uint256"
        }
      ],
      "stateMutability": "view",
      "type": "function"
    },
    {
      "inputs": [],
      "name": "latestPrice",
      "outputs": [
        {
          "internalType": "uint256",
          "name": "price",
          "type": "uint256"
        },
        {
          "internalType": "uint256",
          "name": "timestamp",
          "type": "uint256"
        },
        {
          "internalType": "bytes32",
          "name": "proofHash",
          "type": "bytes32"
        }
      ],
      "stateMutability": "view",
      "type": "function"
    },
    {
      "inputs": [],
      "name": "owner",
      "outputs": [
        {
          "internalType": "address",
          "name": "",
          "type": "address"
        }
      ],
      "stateMutability": "view",
      "type": "function"
    },
    {
      "inputs": [
        {
          "internalType": "address",
          "name": "newAttestor",
          "type": "address"
        }
      ],
      "name": "setTrustedAttestor",
      "outputs": [],
      "stateMutability": "nonpayable",
      "type": "function"
    },
    {
      "inputs": [
        {
          "internalType": "address",
          "name": "newOwner",
          "type": "address"
        }
      ],
      "name": "transferOwnership",
      "outputs": [],
      "stateMutability": "nonpayable",
      "type": "function"
    },
    {
      "inputs": [],
      "name": "trustedAttestor",
      "outputs": [
        {
          "internalType": "address",
          "name": "",
          "type": "address"
        }
      ],
      "stateMutability": "view",
      "type": "function"
    },
    {
      "inputs": [
        {
          "internalType": "bytes",
          "name": "proof",
          "type": "bytes"
        },
        {
          "internalType": "bytes32[]",
          "name": "publicInputs",
          "type": "bytes32[]"
        }
      ],
      "name": "updatePrice",
      "outputs": [],
      "stateMutability": "nonpayable",
      "type": "function"
    },
    {
      "inputs": [],
      "name": "verifier",
      "outputs": [
        {
          "internalType": "contract HonkVerifier",
          "name": "",
          "type": "address"
        }
      ],
      "stateMutability": "view",
      "type": "function"
    }
  ],
  "bytecode": "0x60a060405234801561001057600080fd5b506040516108cf3803806108cf83398101604081905261002f91610081565b6001600160a01b0391821660805260008054919092166001600160a01b03199182161790915560018054909116331790556100b4565b80516001600160a01b038116811461007c57600080fd5b919050565b6000806040838503121561009457600080fd5b61009d83610065565b91506100ab60208401610065565b90509250929050565b6080516107fa6100d56000396000818160a701526101e101526107fa6000f3fe608060405234801561001057600080fd5b50600436106100885760003560e01c8063a3e6ba941161005b578063a3e6ba941461012e578063ac6bffbd1461015b578063e3d477d91461017b578063f2fde38b1461018e57600080fd5b80631eac29f51461008d5780632b7ac3f3146100a25780638da5cb5b146100f357806398d5fdca14610113575b600080fd5b6100a061009b366004610588565b6101a1565b005b6100c97f000000000000000000000000000000000000000000000000000000000000000081565b60405173ffffffffffffffffffffffffffffffffffffffff90911681526020015b60405180910390f35b6001546100c99073ffffffffffffffffffffffffffffffffffffffff1681565b600254600354604080519283526020830191909152016100ea565b60025460035460045461014092919083565b604080519384526020840192909252908201526060016100ea565b6000546100c99073ffffffffffffffffffffffffffffffffffffffff1681565b6100a061018936600461065b565b6103cb565b6100a061019c36600461065b565b6104a9565b6040517fea50d0e400000000000000000000000000000000000000000000000000000000815260009073ffffffffffffffffffffffffffffffffffffffff7f0000000000000000000000000000000000000000000000000000000000000000169063ea50d0e49061021c908890889088908890600401610698565b602060405180830381865afa158015610239573d6000803e3d6000fd5b505050506040513d601f19601f8201168201806040525081019061025d9190610733565b905080610296576040517f09bde33900000000000000000000000000000000000000000000000000000000815260040160405180910390fd5b6000838360008181106102ab576102ab610755565b6000546020909102929092013560601c92505073ffffffffffffffffffffffffffffffffffffffff16811461030c576040517facec475300000000000000000000000000000000000000000000000000000000815260040160405180910390fd5b60008484600181811061032157610321610755565b6020029190910135915060009050858561033c600182610784565b81811061034b5761034b610755565b604080516060808201835287825242602080840182905294850296909601359183018290526002889055600386905560048290558251888152938401829052918301949094529293507f0cb6cb3aba79f708af2bd3e80abe5fedc0201fcbbf44bbe1b46a372b6742bb089201905060405180910390a15050505050505050565b60015473ffffffffffffffffffffffffffffffffffffffff16331461041c576040517f5fc483c500000000000000000000000000000000000000000000000000000000815260040160405180910390fd5b6000805460405173ffffffffffffffffffffffffffffffffffffffff808516939216917fb2609665f07e4b0d216ff87ff7103a8dc4adbf90f137d3a26b1560da2b8fb7d691a3600080547fffffffffffffffffffffffff00000000000000000000000000000000000000001673ffffffffffffffffffffffffffffffffffffffff92909216919091179055565b60015473ffffffffffffffffffffffffffffffffffffffff1633146104fa576040517f5fc483c500000000000000000000000000000000000000000000000000000000815260040160405180910390fd5b60015460405173ffffffffffffffffffffffffffffffffffffffff8084169216907f8292fce18fa69edf4db7b94ea2e58241df0ae57f97e0a6c9b29067028bf92d7690600090a3600180547fffffffffffffffffffffffff00000000000000000000000000000000000000001673ffffffffffffffffffffffffffffffffffffffff92909216919091179055565b6000806000806040858703121561059e57600080fd5b843567ffffffffffffffff8111156105b557600080fd5b8501601f810187136105c657600080fd5b803567ffffffffffffffff8111156105dd57600080fd5b8760208284010111156105ef57600080fd5b60209182019550935085013567ffffffffffffffff81111561061057600080fd5b8501601f8101871361062157600080fd5b803567ffffffffffffffff81111561063857600080fd5b8760208260051b840101111561064d57600080fd5b949793965060200194505050565b60006020828403121561066d57600080fd5b813573ffffffffffffffffffffffffffffffffffffffff8116811461069157600080fd5b9392505050565b604081528360408201528385606083013760006060858301015260007fffffffffffffffffffffffffffffffffffffffffffffffffffffffffffffffe0601f860116820160608382030160208401528360608201527f07ffffffffffffffffffffffffffffffffffffffffffffffffffffffffffffff84111561071a57600080fd5b8360051b80866080840137016080019695505050505050565b60006020828403121561074557600080fd5b8151801515811461069157600080fd5b7f4e487b7100000000000000000000000000000000000000000000000000000000600052603260045260246000fd5b818103818111156107be577f4e487b7100000000000000000000000000000000000000000000000000000000600052601160045260246000fd5b9291505056fea2646970667358221220f878baebcf9c1409e7633725fb7348df7f3a5a94cfda12b90920afc5ef8481da64736f6c634300081b0033",
  "linkReferences": {},
  "deployedLinkReferences": {}
}