{
  "_format": "hh-sol-artifact-1",
  "contractName": "ZkTLSPriceOracle",
  "sourceName": "contracts/ZkTLSPriceOracle.sol",
  "abi": [
    {
      "inputs": [
        {
          "internalType": "address",
          "name": "_verifier",
          "type": "address"
        },
        {
          "internalType": "address",
          "name": "_trustedAttestor",
          "type": "address"
        }
      ],
      "stateMutability": "nonpayable",
      "type": "constructor"
    },
    {
      "inputs": [],
      "name": "AttestationTooOld",
      "type": "error"
    },
    {
      "inputs": [],
      "name": "InvalidAttestor",
      "type": "error"
    },
    {
      "inputs": [],
      "name": "InvalidProof",
      "type": "error"
    },
    {
      "inputs": [],
      "name": "InvalidPublicInputsLength",
      "type": "error"
    },
    {
      "inputs": [],
      "name": "NoPendingChange",
      "type": "error"
    },
    {
      "inputs": [],
      "name": "OnlyOwner",
      "type": "error"
    },
    {
      "inputs": [],
      "name": "ProofAlreadyUsed",
      "type": "error"
    },
    {
      "inputs": [],
      "name": "TimelockNotExpired",
      "type": "error"
    },
    {
      "inputs": [],
      "name": "ZeroAddress",
      "type": "error"
    },
    {
      "anonymous": false,
      "inputs": [
        {
          "indexed": true,
          "internalType": "address",
          "name": "cancelledAttestor",
          "type": "address"
        }
      ],
      "name": "AttestorChangeCancelled",
      "type": "event"
    },
    {
      "anonymous": false,
      "inputs": [
        {
          "indexed": true,
          "internalType": "address",
          "name": "oldAttestor",
          "type": "address"
        },
        {
          "indexed": true,
          "internalType": "address",
          "name": "newAttestor",
          "type": "address"
        }
      ],
      "name": "AttestorChangeExecuted",
      "type": "event"
    },
    {
      "anonymous": false,
      "inputs": [
        {
          "indexed": true,
          "internalType": "address",
          "name": "proposedAttestor",
          "type": "address"
        },
        {
          "indexed": false,
          "internalType": "uint256",
          "name": "executeAfter",
          "type": "uint256"
        }
      ],
      "name": "AttestorChangeProposed",
      "type": "event"
    },
    {
      "anonymous": false,
      "inputs": [
        {
          "indexed": true,
          "internalType": "address",
          "name": "oldOwner",
          "type": "address"
        },
        {
          "indexed": true,
          "internalType": "address",
          "name": "newOwner",
          "type": "address"
        }
      ],
      "name": "OwnerUpdated",
      "type": "event"
    },
    {
      "anonymous": false,
      "inputs": [
        {
          "indexed": false,
          "internalType": "uint256",
          "name": "price",
          "type": "uint256"
        },
        {
          "indexed": false,
          "internalType": "uint256",
          "name": "attestationTimestamp",
          "type": "uint256"
        },
        {
          "indexed": false,
          "internalType": "bytes32",
          "name": "responseDataHash",
          "type": "bytes32"
        },
        {
          "indexed": false,
          "internalType": "bytes32",
          "name": "packedHash",
          "type": "bytes32"
        },
        {
          "indexed": false,
          "internalType": "uint256",
          "name": "blockTimestamp",
          "type": "uint256"
        }
      ],
      "name": "PriceUpdated",
      "type": "event"
    },
    {
      "inputs": [],
      "name": "ATTESTOR_TIMELOCK",
      "outputs": [
        {
          "internalType": "uint256",
          "name": "",
          "type": "uint256"
        }
      ],
      "stateMutability": "view",
      "type": "function"
    },
    {
      "inputs": [],
      "name": "EXPECTED_PUBLIC_INPUTS",
      "outputs": [
        {
          "internalType": "uint256",
          "name": "",
          "type": "uint256"
        }
      ],
      "stateMutability": "view",
      "type": "function"
    },
    {
      "inputs": [],
      "name": "MAX_ATTESTATION_AGE",
      "outputs": [
        {
          "internalType": "uint256",
          "name": "",
          "type": "uint256"
        }
      ],
      "stateMutability": "view",
      "type": "function"
    },
    {
      "inputs": [],
      "name": "cancelAttestorChange",
      "outputs": [],
      "stateMutability": "nonpayable",
      "type": "function"
    },
    {
      "inputs": [],
      "name": "executeAttestorChange",
      "outputs": [],
      "stateMutability": "nonpayable",
      "type": "function"
    },
    {
      "inputs": [],
      "name": "getPrice",
      "outputs": [
        {
          "internalType": "uint256",
          "name": "price",
          "type": "uint256"
        },
        {
          "internalType": "uint256",
          "name": "timestamp",
          "type": "uint256"
        }
      ],
      "stateMutability": "view",
      "type": "function"
    },
    {
      "inputs": [],
      "name": "getPriceData",
      "outputs": [
        {
          "components": [
            {
              "internalType": "uint256",
              "name": "price",
              "type": "uint256"
            },
            {
              "internalType": "uint256",
              "name": "attestationTimestamp",
              "type": "uint256"
            },
            {
              "internalType": "uint256",
              "name": "blockTimestamp",
              "type": "uint256"
            },
            {
              "internalType": "bytes32",
              "name": "responseDataHash",
              "type": "bytes32"
            },
            {
              "internalType": "bytes32",
              "name": "packedHash",
              "type": "bytes32"
            }
          ],
          "internalType": "struct ZkTLSPriceOracle.PriceData",
          "name": "",
          "type": "tuple"
        }
      ],
      "stateMutability": "view",
      "type": "function"
    },
    {
      "inputs": [],
      "name": "latestPrice",
      "outputs": [
        {
          "internalType": "uint256",
          "name": "price",
          "type": "uint256"
        },
        {
          "internalType": "uint256",
          "name": "attestationTimestamp",
          "type": "uint256"
        },
        {
          "internalType": "uint256",
          "name": "blockTimestamp",
          "type": "uint256"
        },
        {
          "internalType": "bytes32",
          "name": "responseDataHash",
          "type": "bytes32"
        },
        {
          "internalType": "bytes32",
          "name": "packedHash",
          "type": "bytes32"
        }
      ],
      "stateMutability": "view",
      "type": "function"
    },
    {
      "inputs": [],
      "name": "owner",
      "outputs": [
        {
          "internalType": "address",
          "name": "",
          "type": "address"
        }
      ],
      "stateMutability": "view",
      "type": "function"
    },
    {
      "inputs": [],
      "name": "pendingAttestorChange",
      "outputs": [
        {
          "internalType": "address",
          "name": "newAttestor",
          "type": "address"
        },
        {
          "internalType": "uint256",
          "name": "executeAfter",
          "type": "uint256"
        }
      ],
      "stateMutability": "view",
      "type": "function"
    },
    {
      "inputs": [
        {
          "internalType": "address",
          "name": "newAttestor",
          "type": "address"
        }
      ],
      "name": "proposeAttestor",
      "outputs": [],
      "stateMutability": "nonpayable",
      "type": "function"
    },
    {
      "inputs": [
        {
          "internalType": "address",
          "name": "newOwner",
          "type": "address"
        }
      ],
      "name": "transferOwnership",
      "outputs": [],
      "stateMutability": "nonpayable",
      "type": "function"
    },
    {
      "inputs": [],
      "name": "trustedAttestor",
      "outputs": [
        {
          "internalType": "address",
          "name": "",
          "type": "address"
        }
      ],
      "stateMutability": "view",
      "type": "function"
    },
    {
      "inputs": [
        {
          "internalType": "bytes",
          "name": "proof",
          "type": "bytes"
        },
        {
          "internalType": "bytes32[]",
          "name": "publicInputs",
          "type": "bytes32[]"
        }
      ],
      "name": "updatePrice",
      "outputs": [],
      "stateMutability": "nonpayable",
      "type": "function"
    },
    {
      "inputs": [
        {
          "internalType": "bytes32",
          "name": "",
          "type": "bytes32"
        }
      ],
      "name": "usedProofHashes",
      "outputs": [
        {
          "internalType": "bool",
          "name": "",
          "type": "bool"
        }
      ],
      "stateMutability": "view",
      "type": "function"
    },
    {
      "inputs": [],
      "name": "verifier",
      "outputs": [
        {
          "internalType": "contract HonkVerifier",
          "name": "",
          "type": "address"
        }
      ],
      "stateMutability": "view",
      "type": "function"
    }
  ],
  "bytecode": "0x60a060405234801561001057600080fd5b5060405161104638038061104683398101604081905261002f916100cf565b6001600160a01b0382166100565760405163d92e233d60e01b815260040160405180910390fd5b6001600160a01b03811661007d5760405163d92e233d60e01b815260040160405180910390fd5b6001600160a01b0391821660805260008054919092166001600160a01b0319918216179091556001805490911633179055610102565b80516001600160a01b03811681146100ca57600080fd5b919050565b600080604083850312156100e257600080fd5b6100eb836100b3565b91506100f9602084016100b3565b90509250929050565b608051610f226101246000396000818161017401526104090152610f226000f3fe608060405234801561001057600080fd5b50600436106101005760003560e01c806398d5fdca11610097578063b9f7bb8d11610066578063b9f7bb8d14610338578063d87318b214610341578063e36a469814610374578063f2fde38b1461037c57600080fd5b806398d5fdca14610216578063a3e6ba9414610231578063a4a2816814610273578063ac6bffbd1461031857600080fd5b8063457175db116100d3578063457175db146101d357806347acad6f146101e65780637e8bcf52146101ee5780638da5cb5b146101f657600080fd5b80631eac29f51461010557806329f0b03a1461011a5780632b7ac3f31461016f57806341696649146101bb575b600080fd5b610118610113366004610c97565b61038f565b005b60025460035461013e9173ffffffffffffffffffffffffffffffffffffffff169082565b6040805173ffffffffffffffffffffffffffffffffffffffff90931683526020830191909152015b60405180910390f35b6101967f000000000000000000000000000000000000000000000000000000000000000081565b60405173ffffffffffffffffffffffffffffffffffffffff9091168152602001610166565b6101c56202a30081565b604051908152602001610166565b6101186101e1366004610d6a565b6106e6565b610118610826565b61011861099f565b6001546101969073ffffffffffffffffffffffffffffffffffffffff1681565b60055460065460408051928352602083019190915201610166565b60055460065460075460085460095461024b949392919085565b604080519586526020860194909452928401919091526060830152608082015260a001610166565b6102d66040805160a081018252600080825260208201819052918101829052606081018290526080810191909152506040805160a08101825260055481526006546020820152600754918101919091526008546060820152600954608082015290565b6040516101669190600060a082019050825182526020830151602083015260408301516040830152606083015160608301526080830151608083015292915050565b6000546101969073ffffffffffffffffffffffffffffffffffffffff1681565b6101c561012c81565b61036461034f366004610da7565b60046020526000908152604090205460ff1681565b6040519015158152602001610166565b6101c5605681565b61011861038a366004610d6a565b610ab0565b605681146103c9576040517f3e15742300000000000000000000000000000000000000000000000000000000815260040160405180910390fd5b6040517fea50d0e400000000000000000000000000000000000000000000000000000000815260009073ffffffffffffffffffffffffffffffffffffffff7f0000000000000000000000000000000000000000000000000000000000000000169063ea50d0e490610444908890889088908890600401610dc0565b602060405180830381865afa158015610461573d6000803e3d6000fd5b505050506040513d601f19601f820116820180604052508101906104859190610e5b565b9050806104be576040517f09bde33900000000000000000000000000000000000000000000000000000000815260040160405180910390fd5b60006104cc84846000610bdc565b60005490915073ffffffffffffffffffffffffffffffffffffffff808316911614610523576040517facec475300000000000000000000000000000000000000000000000000000000815260040160405180910390fd5b60008484601481811061053857610538610e7d565b9050602002013560001c905060008585601581811061055957610559610e7d565b60200291909101359150610571905061012c82610eac565b4211156105aa576040517f696bbf1f00000000000000000000000000000000000000000000000000000000815260040160405180910390fd5b60006105b887876016610c4c565b905060006105c888886036610c4c565b60008181526004602052604090205490915060ff1615610614576040517fc9838a6500000000000000000000000000000000000000000000000000000000815260040160405180910390fd5b60008181526004602090815260409182902080547fffffffffffffffffffffffffffffffffffffffffffffffffffffffffffffff00166001179055815160a08082018452878252818301879052428285018190526060808401889052608093840187905260058a9055600689905560078290556008889055600987905585518a8152948501899052948401879052938301859052908201929092527f8c8f1a1a2212cb941d39a1d03785d6baa3aca3c9cac41b996f467499ca7cc6da910160405180910390a150505050505050505050565b60015473ffffffffffffffffffffffffffffffffffffffff163314610737576040517f5fc483c500000000000000000000000000000000000000000000000000000000815260040160405180910390fd5b73ffffffffffffffffffffffffffffffffffffffff8116610784576040517fd92e233d00000000000000000000000000000000000000000000000000000000815260040160405180910390fd5b60006107936202a30042610eac565b60408051808201825273ffffffffffffffffffffffffffffffffffffffff85168082526020918201849052600280547fffffffffffffffffffffffff000000000000000000000000000000000000000016821790556003849055915183815292935090917f13d258b597d6f68d0688caba09ac2a37fcec48426f16404c15157789c1061f38910160405180910390a25050565b60015473ffffffffffffffffffffffffffffffffffffffff163314610877576040517f5fc483c500000000000000000000000000000000000000000000000000000000815260040160405180910390fd5b6040805180820190915260025473ffffffffffffffffffffffffffffffffffffffff1680825260035460208301526108db576040517fa3fef2f800000000000000000000000000000000000000000000000000000000815260040160405180910390fd5b8060200151421015610919576040517f621e25c300000000000000000000000000000000000000000000000000000000815260040160405180910390fd5b60008054825173ffffffffffffffffffffffffffffffffffffffff9081167fffffffffffffffffffffffff0000000000000000000000000000000000000000808416821785556002805490911690556003849055604051919092169283917faa2c7527a6f5d4ca5512d4ca5c56472c36b55efee67d9af46524c68d3712c5e49190a35050565b60015473ffffffffffffffffffffffffffffffffffffffff1633146109f0576040517f5fc483c500000000000000000000000000000000000000000000000000000000815260040160405180910390fd5b60025473ffffffffffffffffffffffffffffffffffffffff1680610a40576040517fa3fef2f800000000000000000000000000000000000000000000000000000000815260040160405180910390fd5b600280547fffffffffffffffffffffffff00000000000000000000000000000000000000001690556000600381905560405173ffffffffffffffffffffffffffffffffffffffff8316917f8f313155525752fad1d925c8c27fa12035c74e025e522a516332fcebfc9ed30491a250565b60015473ffffffffffffffffffffffffffffffffffffffff163314610b01576040517f5fc483c500000000000000000000000000000000000000000000000000000000815260040160405180910390fd5b73ffffffffffffffffffffffffffffffffffffffff8116610b4e576040517fd92e233d00000000000000000000000000000000000000000000000000000000815260040160405180910390fd5b60015460405173ffffffffffffffffffffffffffffffffffffffff8084169216907f8292fce18fa69edf4db7b94ea2e58241df0ae57f97e0a6c9b29067028bf92d7690600090a3600180547fffffffffffffffffffffffff00000000000000000000000000000000000000001673ffffffffffffffffffffffffffffffffffffffff92909216919091179055565b600080805b6014811015610c435760008686610bf88488610eac565b818110610c0757610c07610e7d565b9050602002013560001c90508060ff1660088473ffffffffffffffffffffffffffffffffffffffff16901b179250508080600101915050610be1565b50949350505050565b600080805b6020811015610c435760008686610c688488610eac565b818110610c7757610c77610e7d565b602002919091013560ff1660089490941b93909317925050600101610c51565b60008060008060408587031215610cad57600080fd5b843567ffffffffffffffff811115610cc457600080fd5b8501601f81018713610cd557600080fd5b803567ffffffffffffffff811115610cec57600080fd5b876020828401011115610cfe57600080fd5b60209182019550935085013567ffffffffffffffff811115610d1f57600080fd5b8501601f81018713610d3057600080fd5b803567ffffffffffffffff811115610d4757600080fd5b8760208260051b8401011115610d5c57600080fd5b949793965060200194505050565b600060208284031215610d7c57600080fd5b813573ffffffffffffffffffffffffffffffffffffffff81168114610da057600080fd5b9392505050565b600060208284031215610db957600080fd5b5035919050565b604081528360408201528385606083013760006060858301015260007fffffffffffffffffffffffffffffffffffffffffffffffffffffffffffffffe0601f860116820160608382030160208401528360608201527f07ffffffffffffffffffffffffffffffffffffffffffffffffffffffffffffff841115610e4257600080fd5b8360051b80866080840137016080019695505050505050565b600060208284031215610e6d57600080fd5b81518015158114610da057600080fd5b7f4e487b7100000000000000000000000000000000000000000000000000000000600052603260045260246000fd5b80820180821115610ee6577f4e487b7100000000000000000000000000000000000000000000000000000000600052601160045260246000fd5b9291505056fea2646970667358221220c20855adc9ab8418641f99e2adfd114d539a8d7d02ebc300055e780358f9a5b164736f6c634300081b0033",
  "linkReferences": {},
  "deployedLinkReferences": {}
}