{
  "_format": "hh-sol-artifact-1",
  "contractName": "HonkVerifier",
  "sourceName": "contracts/ZkTLSVerifier.sol",
  "abi": [
    {
      "inputs": [],
      "name": "ProofLengthWrong",
      "type": "error"
    },
    {
      "inputs": [
        {
          "internalType": "uint256",
          "name": "logN",
          "type": "uint256"
        },
        {
          "internalType": "uint256",
          "name": "actualLength",
          "type": "uint256"
        },
        {
          "internalType": "uint256",
          "name": "expectedLength",
          "type": "uint256"
        }
      ],
      "name": "ProofLengthWrongWithLogN",
      "type": "error"
    },
    {
      "inputs": [],
      "name": "PublicInputsLengthWrong",
      "type": "error"
    },
    {
      "inputs": [],
      "name": "ShpleminiFailed",
      "type": "error"
    },
    {
      "inputs": [],
      "name": "SumcheckFailed",
      "type": "error"
    },
    {
      "inputs": [
        {
          "internalType": "bytes",
          "name": "proof",
          "type": "bytes"
        },
        {
          "internalType": "bytes32[]",
          "name": "publicInputs",
          "type": "bytes32[]"
        }
      ],
      "name": "verify",
      "outputs": [
        {
          "internalType": "bool",
          "name": "",
          "type": "bool"
        }
      ],
      "stateMutability": "view",
      "type": "function"
    }
  ],
  "bytecode": "0x61010060405234801561001157600080fd5b5062080000608052601360a0527f164443ec63de03452322d19143cd2830489cfe541ea149ba90802b99bb49309260c052604560e05260805160a05160c05160e0516160bd6100e4600039600081816101ba015261082701526000610199015260008181605f01528181609801528181610120015281816101db0152818161094401528181610a7101528181610a9e01528181610b1a015281816113a301528181611445015281816116bb0152818161170701528181611755015281816117ac0152612d320152600050506160bd6000f3fe608060405234801561001057600080fd5b506004361061002b5760003560e01c8063ea50d0e414610030575b600080fd5b61004361003e366004615bcf565b610057565b604051901515815260200160405180910390f35b6000806100837f00000000000000000000000000000000000000000000000000000000000000006102fa565b9050610090816020615cd1565b851461010b577f0000000000000000000000000000000000000000000000000000000000000000856100c3836020615cd1565b6040517f59895a530000000000000000000000000000000000000000000000000000000081526004810193909352602483019190915260448201526064015b60405180910390fd5b60006101156103a9565b9050600061014488887f00000000000000000000000000000000000000000000000000000000000000006103be565b9050601082604001516101579190615ce8565b851461018f576040517ffa06659300000000000000000000000000000000000000000000000000000000815260040160405180910390fd5b60006101ff8288887f00000000000000000000000000000000000000000000000000000000000000007f00000000000000000000000000000000000000000000000000000000000000007f000000000000000000000000000000000000000000000000000000000000000061071b565b905061025087878080602002602001604051908101604052809392919081815260200183836020028082843760009201919091525050855185516060810151608090910151919350915060016107ce565b815160a001526000610262838361093b565b90508061029b576040517f9fc3a21800000000000000000000000000000000000000000000000000000000815260040160405180910390fd5b60006102a8848685610a5b565b9050806102e1576040517fa5d82e8a00000000000000000000000000000000000000000000000000000000815260040160405180910390fd5b8180156102eb5750805b9b9a5050505050505050505050565b60008061030960026008615cd1565b90506001610318600885615cd1565b6103229190615cd1565b61032c9082615cfb565b905061033a60016029615cd1565b6103449082615cfb565b90506002610353600185615ce8565b61035d9190615cd1565b6103679082615cfb565b9050610374600184615cd1565b61037e9082615cfb565b905061038b600280615cd1565b6103959082615cfb565b90506103a2601082615cfb565b9392505050565b6103b16153dc565b6103b961194c565b905090565b6103c66157b5565b6000805b6010811015610429576103f68683876103e4602083615cfb565b926103f193929190615d0e565b611f43565b8351826010811061040957610409615d38565b60200201818152505060208261041f9190615cfb565b91506001016103ca565b5061044d85828661043b604083615cfb565b9261044893929190615d0e565b611f57565b602083015261045d604082615cfb565b905061047085828661043b604083615cfb565b6040808401919091526104839082615cfb565b905061049685828661043b604083615cfb565b60608301526104a6604082615cfb565b90506104b985828661043b604083615cfb565b60c08301526104c9604082615cfb565b90506104dc85828661043b604083615cfb565b60e08301526104ec604082615cfb565b90506104ff85828661043b604083615cfb565b608083015261050f604082615cfb565b905061052285828661043b604083615cfb565b610100830152610533604082615cfb565b905061054685828661043b604083615cfb565b60a0830152610556604082615cfb565b905060005b838110156105d65760005b60088110156105cd576105808784886103e4602083615cfb565b84610120015183601c811061059757610597615d38565b602002015182600881106105ad576105ad615d38565b6020020181815250506020836105c39190615cfb565b9250600101610566565b5060010161055b565b5060005b602981101561062b576105f48683876103e4602083615cfb565b836101400151826029811061060b5761060b615d38565b6020020181815250506020826106219190615cfb565b91506001016105da565b5060005b61063a600185615ce8565b8110156106835761065286838761043b604083615cfb565b83610160015182601b811061066957610669615d38565b6020020152610679604083615cfb565b915060010161062f565b5060005b838110156106d7576106a08683876103e4602083615cfb565b83610180015182601c81106106b7576106b7615d38565b6020020181815250506020826106cd9190615cfb565b9150600101610687565b506106e985828661043b604083615cfb565b6101a08301526106fa604082615cfb565b905061070d85828661043b604083615cfb565b6101c0830152509392505050565b61072361590d565b600061073388888888888661200c565b90835290506107428189612092565b602084019190915290506107568184612241565b6040840191909152905061076b8882856122d1565b6060840191909152905061077f88826123a8565b60808401919091529050610794888285612436565b60a084019190915290506107a98882856125b0565b60c084019190915290506107bd8882612679565b5060e0830152509695505050505050565b6000600180826107fc866107f7896107f26107ed8a6310000000615cfb565b6126b7565b6126e3565b612712565b9050600061081b876108168a6107f26107ed8b6001615cfb565b61273f565b905060005b61084b60107f0000000000000000000000000000000000000000000000000000000000000000615ce8565b8110156108b95760006108768c838151811061086957610869615d38565b602002602001015161278e565b9050610886866107f28684612712565b9550610896856107f28584612712565b94506108a2848b612712565b93506108ae838b61273f565b925050600101610820565b5060005b60108110156109225760008a82601081106108da576108da615d38565b602002015190506108ef866107f28684612712565b95506108ff856107f28584612712565b945061090b848b612712565b9350610917838b61273f565b9250506001016108bd565b5061092d84846127b7565b9a9950505050505050505050565b6000806001815b7f0000000000000000000000000000000000000000000000000000000000000000811015610a2f57600086610120015182601c811061098357610983615d38565b60200201519050600061099682866127c6565b9050806109cf576040517f9fc3a21800000000000000000000000000000000000000000000000000000000815260040160405180910390fd5b6000876060015184601c81106109e7576109e7615d38565b602002015190506109f883826127e7565b9550610a1f886040015185601c8110610a1357610a13615d38565b6020020151868361299b565b9450505050806001019050610942565b506000610a4b86610140015186600001518760200151856129c7565b90508281145b9695505050505050565b6000610a6561599b565b6000610a958460a001517f0000000000000000000000000000000000000000000000000000000000000000612a41565b90506000610ac47f00000000000000000000000000000000000000000000000000000000000000006024615cfb565b610acf906002615cfb565b67ffffffffffffffff811115610ae757610ae7615d67565b604051908082528060200260200182016040528015610b10578160200160208202803683370190505b5090506000610b407f00000000000000000000000000000000000000000000000000000000000000006024615cfb565b610b4b906002615cfb565b67ffffffffffffffff811115610b6357610b63615d67565b604051908082528060200260200182016040528015610ba857816020015b6040805180820190915260008082526020820152815260200190600190039081610b815790505b509050610bdb610bd68760e0015185600081518110610bc957610bc9615d38565b602002602001015161273f565b612b0d565b84610120018181525050610c10610bd68760e0015185600081518110610c0357610c03615d38565b6020026020010151612712565b610140850181905261012085015160c0880151610c31926107f791906126e3565b845260a0860151610c6190610c4590612b0d565b6107f28661012001516108168a60c001518961014001516126e3565b602085015281516001908390600090610c7c57610c7c615d38565b602002602001018181525050876101a0015181600081518110610ca157610ca1615d38565b6020908102919091010152600160a0850152600060c085015283517f30644e72e131a029b85045b68181585d2833e84879b9709143e1f593f000000103604085015260208401517f30644e72e131a029b85045b68181585d2833e84879b9709143e1f593f000000103606085015260015b60248111610db557610d2c85604001518660a001516126e3565b838281518110610d3e57610d3e615d38565b602002602001018181525050610d878560c001516107f78b6101400151600185610d689190615ce8565b60298110610d7857610d78615d38565b60200201518860a001516126e3565b60c086015260a08501516080880151610da091906126e3565b60a0860152610dae81615d96565b9050610d12565b5060005b6005811015610e86576000610dcf601d83615cfb565b90506000610dde602484615cfb565b9050610e0f858381518110610df557610df5615d38565b60200260200101516107f789606001518a60a001516126e3565b858381518110610e2157610e21615d38565b602002602001018181525050610e5e8760c001516107f78d61014001518460298110610e4f57610e4f615d38565b60200201518a60a001516126e3565b60c088015260a087015160808a0151610e7791906126e3565b60a08801525050600101610db9565b50866060015181600181518110610e9f57610e9f615d38565b6020026020010181905250866080015181600281518110610ec257610ec2615d38565b60200260200101819052508660a0015181600381518110610ee557610ee5615d38565b60200260200101819052508660c0015181600481518110610f0857610f08615d38565b60200260200101819052508660e0015181600581518110610f2b57610f2b615d38565b602002602001018190525086610100015181600681518110610f4f57610f4f615d38565b602002602001018190525086610120015181600781518110610f7357610f73615d38565b602002602001018190525086610140015181600881518110610f9757610f97615d38565b602002602001018190525086610160015181600981518110610fbb57610fbb615d38565b6020026020010181905250866101c0015181600a81518110610fdf57610fdf615d38565b602002602001018190525086610180015181600b8151811061100357611003615d38565b6020026020010181905250866101a0015181600c8151811061102757611027615d38565b6020026020010181905250866101e0015181600d8151811061104b5761104b615d38565b602002602001018190525086610200015181600e8151811061106f5761106f615d38565b602002602001018190525086610220015181600f8151811061109357611093615d38565b6020026020010181905250866102400151816010815181106110b7576110b7615d38565b6020026020010181905250866102600151816011815181106110db576110db615d38565b6020026020010181905250866102800151816012815181106110ff576110ff615d38565b6020026020010181905250866102a001518160138151811061112357611123615d38565b6020026020010181905250866102c001518160148151811061114757611147615d38565b6020026020010181905250866102e001518160158151811061116b5761116b615d38565b60200260200101819052508661030001518160168151811061118f5761118f615d38565b6020026020010181905250866103200151816017815181106111b3576111b3615d38565b6020026020010181905250866103400151816018815181106111d7576111d7615d38565b6020026020010181905250866103600151816019815181106111fb576111fb615d38565b602002602001018190525086610380015181601a8151811061121f5761121f615d38565b6020026020010181905250866103a0015181601b8151811061124357611243615d38565b6020026020010181905250866103c0015181601c8151811061126757611267615d38565b6020026020010181905250876020015181601d8151811061128a5761128a615d38565b6020026020010181905250876040015181601e815181106112ad576112ad615d38565b6020026020010181905250876060015181601f815181106112d0576112d0615d38565b60200260200101819052508760800151816020815181106112f3576112f3615d38565b60200260200101819052508760a001518160218151811061131657611316615d38565b60200260200101819052508761010001518160228151811061133a5761133a615d38565b60200260200101819052508760c001518160238151811061135d5761135d615d38565b60200260200101819052508760e001518160248151811061138057611380615d38565b602002602001018190525060006113c787606001518660c001518b6101800151877f0000000000000000000000000000000000000000000000000000000000000000612ba8565b90506113f2816000815181106113df576113df615d38565b60200260200101518661012001516126e3565b608086018190526101808a01515160c089015161142392916107f79161141891906126e3565b8861014001516126e3565b608086015260c087015161143690612d0b565b60a086015260005b61146960017f0000000000000000000000000000000000000000000000000000000000000000615ce8565b81101561169f57611499610bd68960e00151878460016114899190615cfb565b81518110610bc957610bc9615d38565b61012087015260e08801516114c890610bd690876114b8856001615cfb565b81518110610c0357610c03615d38565b61014087015260a08601516101208701516114e391906126e3565b61016087015260a086015160c089015161150b91611500916126e3565b8761014001516126e3565b6101808701819052611566907f30644e72e131a029b85045b68181585d2833e84879b9709143e1f593f0000001036101608801517f30644e72e131a029b85045b68181585d2833e84879b9709143e1f593f000000103612712565b848261157460246001615cfb565b61157e9190615cfb565b8151811061158e5761158e615d38565b60200260200101818152505060006115d28761018001518c61018001518460016115b89190615cfb565b601c81106115c8576115c8615d38565b60200201516126e3565b905061160c816107f7896101600151868660016115ef9190615cfb565b815181106115ff576115ff615d38565b60200260200101516126e3565b905061161c876080015182612712565b608088015260a087015160c08a015161164291611638916126e3565b8a60c001516126e3565b60a08801526101608b015182601b811061165e5761165e615d38565b6020020151848361167160246001615cfb565b61167b9190615cfb565b8151811061168b5761168b615d38565b60209081029190910101525060010161143e565b50604080518082019091526001815260026020820152826116e17f00000000000000000000000000000000000000000000000000000000000000006024615cfb565b815181106116f1576116f1615d38565b602090810291909101015260808501518361172d7f00000000000000000000000000000000000000000000000000000000000000006024615cfb565b8151811061173d5761173d615d38565b60209081029190910101526101c0890151808361177b7f00000000000000000000000000000000000000000000000000000000000000006024615cfb565b611786906001615cfb565b8151811061179657611796615d38565b602090810291909101015260e0880151846117d27f00000000000000000000000000000000000000000000000000000000000000006024615cfb565b6117dd906001615cfb565b815181106117ed576117ed615d38565b60200260200101818152505060006118058486612d17565b9050600061181283612e4e565b905060006118258d600001518484612ec6565b90506000806118ff8f60000151604080518082018252600080825260208083018281528451808601865283815280830193845286519287015195870151606088015160cc90811b608892831b6044998a1b90961795909517949094178652608088015160a089015160c08a015160e08b0151871b90841b918a1b90921717179092526101008701516101208801516101408901516101608a0151861b90851b91891b909217171781526101808701516101a08801516101c08901516101e09099015190941b9790921b9290951b1717939093179092529091565b9150915061190c82613006565b61191581613006565b611920858385613110565b945061192d848285613110565b9350611939858561314e565b9f9e505050505050505050505050505050565b6119546153dc565b50604080516103e081018252620800008152601360208083019190915260458284015282518084018452700849133eae8a7bdf1e4d4e5f65853e3c7d81526e218a826d71f28f4992026dab6e6b218183015260608301528251808401845270287352cd99bf05d0c5733a44cc906b15b481526e29e13117d13160de7a819e216a14738183015260808301528251808401845270e26e155883c78830739539e9e4c4ec57ab81526e1c0bdd79afc669106acfd973d47fab8183015260a083015282518084018452702eb25b3adb30bc47015a580fe1ee4c9c5381526e0813b15775b4cd51bfcc51f37f744a8183015260c083015282518084018452706fd9924b747b216621e295903873c61c7a81526e1ffad4443f1345b3744c75beb4a8228183015260e083015282518084018452707ad45e4ee2ffa63a126f77734051c38d9e81526e2d6a1b0b6ffcb967484d7e2e42dbf4818301526101008301528251808401845270e2dfc6b850233287cfa250b946669de07381526e1d2528552ffc34e3aa6b31ab58748a818301526101208301528251808401845270a3b49324c97e225034bfe9ad3f6eafb11781526e273c6f6cef9b657b11306446c4a552818301526101408301528251808401845270a273264b316623b81b5486c9cfd40c7ec081526e1869c6a9ab7a2fa1e9bd28a1c9baf5818301526101608301528251808401845270d02be8725eb90bad94b5e4a6ce8e193d9b81526e2b0b1a5062ed283b21e76129513858818301526101808301528251808401845270e8bd4c1af1505cd2a7059adf0985bf48d081526d9e80f43eae5344325335bf735590818301526101a083015282518084018452700c5ccefc34d7426dedb769c404f10cdabe81526e07f886a9f41f67418a1d2854a750e1818301526101c083015282518084018452702f5efc8ac7e0508e29b48fdbadee8d2ac281526e2ae332b81bcdb41902d4369b84edbe818301526101e083015282518084018452708a2cb6ea40b359418a1ab4a90fba79e42081526e2017340c63c6f6c21e3947aaf50915818301526102008301528251808401845270a74950f3c8e5b1b27c4b778b4d180c1e0281526e147ecf5a4a49e09073259d94f47fb881830152610220830152825180840184527047e058b2def9a0414338245df358be6e7681526d6283a20a837608bcba2912d82c51818301526102408301528251808401845270358a53ea49e1997aad4e36226342732c3a81526e27ca30e0f659c34021160e0825ab2d8183015261026083015282518084018452704d0e1ed4ee31a1e9fbd239c20d26c051e381526e041184347da3e8decc3764e79a3896818301526102808301528251808401845270614e097957b1a2902f826a2b05ee100a9281526e23ddff5b2838faca3efda29a338036818301526102a08301528251808401845270b599426813a40a9aaf7c61ec1b615ba8c681526e25625bc6e1c9cda1299dbd061ac270818301526102c08301528251808401845270cf25322a5a29642b0992eea9213de9d83481526e28accc8eac74be5b7e35aebe2d4c7d818301526102e08301528251808401845270a6dc783001c68921dd94aa74c0cc2068df81526e1181e53bf8c038631147f399a64c1581830152610300830152825180840184527070f2a413af7d37dfcfcadba541e42418d881526e073b2afd0fb999a6cc3d119cf0a0628183015261032083015282518084018452701639f2c955b839c71bb3f72777f63fdbab81526e07bd0ecd975c067da5275708e58e6781830152610340830152825180840184527081aed9d6acd0b9ba3a088859e5f6fc760481526e149f2dda31634cb07be61e419948cd81830152610360830152825180840184527013ee40b0bfad8a564ac494fd8b13f25df681526e195e06c186b9e1e462da3bc0da4977818301526103808301528251808401845270cbc2fd82461f787c66d82da1051a2c704981526e27776bf3b62f38509d6ef46f84087a818301526103a0830152825180840190935270c90b91d12047a8707a1ce80465f606750083526e1cede9d64983745d28a54d0202dd54908301526103c081019190915290565b60006103a2611f528385615dce565b61278e565b604080518082019091526000808252602082015260408051808201909152807f30644e72e131a029b85045b68181585d97816a916871ca8d3c208c16d87cfd47611fa5602060008789615d0e565b611fae91615dce565b611fb89190615e39565b81526020908101907f30644e72e131a029b85045b68181585d97816a916871ca8d3c208c16d87cfd4790611ff0906040908789615d0e565b611ff991615dce565b6120039190615e39565b90529392505050565b6120456040518060c001604052806000815260200160008152602001600081526020016000815260200160008152602001600081525090565b60006120548888888888613354565b6040860191909152602085019190915290835292506120738389613659565b6080850191909152606084019190915291989197509095505050505050565b61209a615a16565b60006120a4615a35565b8481526101008401805151602080840191909152905181015160408084019190915260a08601805151606085015251820151608084015251612107916120ec91849101615e4d565b6040516020818303038152906040528051906020012061278e565b9150612112826136e2565b6020850152835260015b600261212a6001601c615ce8565b6121349190615e81565b8110156121b457612151836040516020016120ec91815260200190565b925061215c836136e2565b85612168846002615cd1565b601b811061217857612178615d38565b6020020186612188856002615cd1565b612193906001615cfb565b601b81106121a3576121a3615d38565b60200201919091525260010161211c565b506121c16001601c615ce8565b60011660011480156121de575060026121dc6001601c615ce8565b115b15612239576121f9826040516020016120ec91815260200190565b91506000612206836136e2565b85600161221481601c615ce8565b61221e9190615ce8565b601b811061222e5761222e615d38565b602002019190915250505b509250929050565b612249615a53565b6000612261846040516020016120ec91815260200190565b935061226c846136e2565b50825260015b838110156122c9576122aa83612289600184615ce8565b601c811061229957612299615d38565b6020020151846115b8600185615ce8565b8382601c81106122bc576122bc615d38565b6020020152600101612272565b509093915050565b6122d9615a53565b6000805b8381101561239e576122ed615a72565b85815260005b60088110156123575787610120015183601c811061231357612313615d38565b6020020151816008811061232957612329615d38565b60200201518261233a836001615cfb565b6009811061234a5761234a615d38565b60200201526001016122f3565b5061236c816040516020016120ec9190615e95565b95506000612379876136e2565b8685601c811061238b5761238b615d38565b60200201919091525050506001016122dd565b5090949293505050565b6000806123b3615a91565b83815260005b60298110156124075785610140015181602981106123d9576123d9615d38565b6020020151826123ea836001615cfb565b602a81106123fa576123fa615d38565b60200201526001016123b9565b5061241c816040516020016120ec9190615eca565b91506000612429836136e2565b5096929550919350505050565b60008080612445600185615ce8565b612450906002615cd1565b61245b906001615cfb565b67ffffffffffffffff81111561247357612473615d67565b60405190808252806020026020018201604052801561249c578160200160208202803683370190505b50905084816000815181106124b3576124b3615d38565b60200260200101818152505060005b6124cd600186615ce8565b8110156125805786610160015181601b81106124eb576124eb615d38565b602002015151826124fd836002615cd1565b612508906001615cfb565b8151811061251857612518615d38565b60200260200101818152505086610160015181601b811061253b5761253b615d38565b602002015160200151828260026125529190615cd1565b61255d906002615cfb565b8151811061256d5761256d615d38565b60209081029190910101526001016124c2565b50612595816040516020016120ec9190615eff565b915060006125a2836136e2565b509792965091945050505050565b600080806125bf846001615cfb565b67ffffffffffffffff8111156125d7576125d7615d67565b604051908082528060200260200182016040528015612600578160200160208202803683370190505b509050848160008151811061261757612617615d38565b60200260200101818152505060005b848110156125805786610180015181601c811061264557612645615d38565b602002015182612656836001615cfb565b8151811061266657612666615d38565b6020908102919091010152600101612626565b600080612684615ab0565b8381526101a0850180515160208084019190915290518101516040808401919091525161241c916120ec91849101615f35565b60007f30644e72e131a029b85045b68181585d2833e84879b9709143e1f593f0000001825b0692915050565b60007f30644e72e131a029b85045b68181585d2833e84879b9709143e1f593f000000182840990505b92915050565b60007f30644e72e131a029b85045b68181585d2833e84879b9709143e1f593f00000018284089392505050565b60007f30644e72e131a029b85045b68181585d2833e84879b9709143e1f593f0000001827f30644e72e131a029b85045b68181585d2833e84879b9709143e1f593f00000010384089392505050565b60007f30644e72e131a029b85045b68181585d2833e84879b9709143e1f593f0000001826126dc565b60006103a2836107f284612b0d565b8151602083015160009182916127dc9190612712565b929092149392505050565b60408051610100810182527f30644e72e131a029b85045b68181585d2833e84879b9709143e1f593efffec5181526102d060208201527f30644e72e131a029b85045b68181585d2833e84879b9709143e1f593efffff1191810191909152609060608201527f30644e72e131a029b85045b68181585d2833e84879b9709143e1f593efffff71608082015260f060a08201527f30644e72e131a029b85045b68181585d2833e84879b9709143e1f593effffd3160c08201526113b060e08201526000906001825b60088110156128cf576128c5826107f2878461273f565b91506001016128ae565b506128d8615ace565b60005b600881101561293b5760008482600881106128f8576128f8615d38565b6020020151905061290d816107f2898561273f565b905061291881612b0d565b90508083836008811061292d5761292d615d38565b6020020152506001016128db565b5060005b600881101561299057600087826008811061295c5761295c615d38565b60200201519050612979818484600881106115c8576115c8615d38565b90506129858682612712565b95505060010161293f565b50610a5184836126e3565b6000806129b260016107f7856107f289600161273f565b90506129be84826126e3565b95945050505050565b60006129d1615a53565b6129dc86828561371c565b6129e8868683866138cd565b6129f486868386613abe565b6129ff868285613cf6565b612a0a868285613ef4565b612a1686868386614259565b612a21868285614763565b612a2c868285614b8a565b612a37868285614f5c565b610a518185615269565b606060008267ffffffffffffffff811115612a5e57612a5e615d67565b604051908082528060200260200182016040528015612a87578160200160208202803683370190505b5090508381600081518110612a9e57612a9e615d38565b602090810291909101015260015b83811015612b0557612ae082612ac3600184615ce8565b81518110612ad357612ad3615d38565b6020026020010151612d0b565b828281518110612af257612af2615d38565b6020908102919091010152600101612aac565b509392505050565b6000808290506000604051602081526020808201526020604082015282606082015260027f30644e72e131a029b85045b68181585d2833e84879b9709143e1f593f00000010360808201527f30644e72e131a029b85045b68181585d2833e84879b9709143e1f593f000000160a08201526020600060c08360055afa80612b9357600080fd5b50600051608091909101604052949350505050565b606060008267ffffffffffffffff811115612bc557612bc5615d67565b604051908082528060200260200182016040528015612bee578160200160208202803683370190505b509050825b8015612d0057600085612c07600184615ce8565b81518110612c1757612c17615d38565b60200260200101519050600089600184612c319190615ce8565b601c8110612c4157612c41615d38565b602002015190506000612c9d612c61612c5a858d6126e3565b60026126e3565b6108168b612c70600189615ce8565b601c8110612c8057612c80615d38565b60200201516107f2612c97886107f260018a61273f565b8761273f565b9050612cbe816107f2610bd6612cb8876107f260018961273f565b86612712565b99508990508085612cd0600187615ce8565b81518110612ce057612ce0615d38565b60200260200101818152505050505080612cf990615f69565b9050612bf3565b509695505050505050565b600061270c82836126e3565b60408051808201909152600080825260208201526000612d587f00000000000000000000000000000000000000000000000000000000000000006024615cfb565b612d63906002615cfb565b905060005b81811015612d9a57612d92858281518110612d8557612d85615d38565b6020026020010151613006565b600101612d68565b50604051600190815b60018401811015612dff5760208102870160208202870181515160408501528151602001516060850152805160808501525050604080830160606040850160075afa8316925060408260808460065afa90921691600101612da3565b5080518452602081015160208501525080612e46576040517fa5d82e8a00000000000000000000000000000000000000000000000000000000815260040160405180910390fd5b505092915050565b60408051808201909152600080825260208201527f30644e72e131a029b85045b68181585d97816a916871ca8d3c208c16d87cfd4782602001517f30644e72e131a029b85045b68181585d97816a916871ca8d3c208c16d87cfd47612eb39190615ce8565b612ebd9190615e39565b60208301525090565b6000806000612f9c86604080518082018252600080825260208083018281528451808601865283815280830193845286519287015195870151606088015160cc90811b608892831b6044998a1b90961795909517949094178652608088015160a089015160c08a015160e08b0151871b90841b918a1b90921717179092526101008701516101208801516101408901516101608a0151861b90851b91891b909217171781526101808701516101a08801516101c08901516101e09099015190941b9790921b9290951b1717939093179092529091565b91509150612fa8615ace565b82518152602080840151818301528251604080840191909152838201516060840152875160808401528782015160a0840152865160c08401528682015160e084015251612ffb916120ec91849101615f9e565b979650505050505050565b8051602082015160007f30644e72e131a029b85045b68181585d97816a916871ca8d3c208c16d87cfd478380097f30644e72e131a029b85045b68181585d97816a916871ca8d3c208c16d87cfd4760037f30644e72e131a029b85045b68181585d97816a916871ca8d3c208c16d87cfd47838709087f30644e72e131a029b85045b68181585d97816a916871ca8d3c208c16d87cfd47848509149150508061310a576040517f08c379a000000000000000000000000000000000000000000000000000000000815260206004820152601960248201527f706f696e74206973206e6f74206f6e20746865206375727665000000000000006044820152606401610102565b50505050565b6040805180820190915260008082526020820152604080518082019091526000808252602082015261314283866152c2565b90506129be8185615331565b81516020808401518351848301516040805194850195909552938301919091527f198e9393920d483a7260bfb731fb5d25f1aa493335a9e71297e485b7aef312c260608301527f1800deef121f1e76426a00665e5c4479674322d4f75edadd46debd5cd992f6ed60808301527f090689d0585ff075ec9e99ad690c3395bc4b313370b38ef355acdadcd122975b60a08301527f12c85ea5db8c6deb4aab71808dcb408fe3d1e7690c43d37b4ce6cc0166fa7daa60c083015260e08201526101008101919091527f260e01b251f6f1c7e7ff4e580791dee8ea51d87a358e038b4efe30fac09383c16101208201527f0118c4d5b837bcc2bc89b5b398b5974e9f5944073b32078b7e231fec938883b06101408201527f04fc6369f7110fe3d25156c1bb9a72859cf2a04641f99ba4ee413c80da6a5fe46101608201527f22febda3c0c0632a56475b4214e5615e11e6dd3f96e6cea2854a87d4dacc5e5561018082015260009081906101a0016040516020818303038152906040529050600080600873ffffffffffffffffffffffffffffffffffffffff16836040516132f39190615fd3565b600060405180830381855afa9150503d806000811461332e576040519150601f19603f3d011682016040523d82523d6000602084013e613333565b606091505b5091509150818015610a51575080806020019051810190610a519190616002565b600080808080613365866001615cfb565b613370906006615cfb565b67ffffffffffffffff81111561338857613388615d67565b6040519080825280602002602001820160405280156133b1578160200160208202803683370190505b5090508660001b816000815181106133cb576133cb615d38565b60200260200101818152505060005b6133e5601088615ce8565b811015613436578989828181106133fe576133fe615d38565b90506020020135828260016134139190615cfb565b8151811061342357613423615d38565b60209081029190910101526001016133da565b5060005b60108110156134a8578a5161346290826010811061345a5761345a615d38565b602002015190565b828260106134718b6001615cfb565b61347b9190615ce8565b6134859190615cfb565b8151811061349557613495615d38565b602090810291909101015260010161343a565b5060208a015151816134bb886001615cfb565b815181106134cb576134cb615d38565b6020908102919091018101919091528a8101510151816134ec886001615cfb565b6134f7906001615cfb565b8151811061350757613507615d38565b602090810291909101015260408a01515181613524886001615cfb565b61352f906002615cfb565b8151811061353f5761353f615d38565b60209081029190910181019190915260408b0151015181613561886001615cfb565b61356c906003615cfb565b8151811061357c5761357c615d38565b602090810291909101015260608a01515181613599886001615cfb565b6135a4906004615cfb565b815181106135b4576135b4615d38565b60209081029190910181019190915260608b01510151816135d6886001615cfb565b6135e1906005615cfb565b815181106135f1576135f1615d38565b602002602001018181525050613611816040516020016120ec9190615eff565b915061361c826136e2565b604080516020810186905292975090955061363791016120ec565b91506000613644836136e2565b50959b949a5094985090965091945050505050565b6000806000613666615aed565b85815260c0858101805151602080850191909152905181015160408085019190915260e08801805151606086015251820151608080860191909152880180515160a0860152518201519284019290925290516136c8916120ec91849101616024565b91506136d3826136e2565b90979096509194509092505050565b600080826fffffffffffffffffffffffffffffffff8116608082901c6137078261278e565b94506137128161278e565b9350505050915091565b60006137298460076153ab565b90507f183227397098d014dc2822db40c0ac2e9419f4243cdcb848a1f0fac9f8000000600061378c61378661375f85600361273f565b6107f261377b6137708b60006153ab565b6107f28c601d6153ab565b6107f28b601c6153ab565b836126e3565b905061380d6138026137e96137d06137b7856107f76137ac8d60026153ab565b6107f28e601c6153ab565b6107f76137c58c60036153ab565b6107f28d601d6153ab565b6107f76137de8b60046153ab565b6107f28c601e6153ab565b6107f76137f78a60056153ab565b6107f28b601f6153ab565b6107f78860016153ab565b905061382c816107f761382186600161273f565b6107f28a60276153ab565b905061383881846126e3565b905061384481856126e3565b8552506000905061388061387561386a61385f88601c6153ab565b6107f789601f6153ab565b6108168860246153ab565b6107f78760006153ab565b9050613891816107f284600261273f565b90506138a2816107f284600161273f565b90506138ae81836126e3565b90506138ba81846126e3565b9050808460015b60200201525050505050565b60008060006139056138fb6138e389601c6153ab565b6107f76138f18b60126153ab565b8a606001516126e3565b8760800151612712565b905061393e816107f261393461391c8b601d6153ab565b6107f761392a8d60136153ab565b8c606001516126e3565b8960800151612712565b9050613963816107f26139346139558b601e6153ab565b6107f761392a8d60146153ab565b9050613988816107f261393461397a8b601f6153ab565b6107f761392a8d60156153ab565b9250600090506139ad6138fb61399f89601c6153ab565b6107f76138f18b600e6153ab565b90506139d2816107f26139346139c48b601d6153ab565b6107f761392a8d600f6153ab565b90506139f7816107f26139346139e98b601e6153ab565b6107f761392a8d60106153ab565b9050613a1c816107f2613934613a0e8b601f6153ab565b6107f761392a8d60116153ab565b915060009050613a44613a3e613a338960206153ab565b6107f78a601a6153ab565b846126e3565b9050613a7981610816613a73613a5b8b60286153ab565b6107f7613a698d601b6153ab565b8c60a001516126e3565b856126e3565b9050613a8581856126e3565b6040860152506000613aa9613a73613a9e89601b6153ab565b6107f28a60286153ab565b9050808560035b602002015250505050505050565b600080613b1d613b05613aed613ad86139348a60166153ab565b6107f7613ae68b60176153ab565b8a516126e3565b6107f7613afb8a60186153ab565b89602001516126e3565b6107f7613b138960196153ab565b88604001516126e3565b91506000613b55613b3c613b3289601c6153ab565b8860800151612712565b6107f7613b4a8a60036153ab565b6107f28b60246153ab565b90506000613b80613b6789601d6153ab565b6107f7613b758b60006153ab565b6107f28c60256153ab565b90506000613bab613b928a601e6153ab565b6107f7613ba08c60016153ab565b6107f28d60266153ab565b9050613beb613bd3613bc5856107f7868d600001516126e3565b6107f7848c602001516126e3565b6107f7613be18c60046153ab565b8b604001516126e3565b93505050506000613c00613a3e8860216153ab565b90506000613c12613a3e8960216153ab565b90506000613c4b613c32613c278b60236153ab565b6107f78c60066153ab565b610816613c408c60236153ab565b6107f28d60066153ab565b90506000613c70613c6a613c5f87896126e3565b6107f28d60216153ab565b8361273f565b9050613c7c81886126e3565b90506000613ca5613c97613c918d60066153ab565b876126e3565b610816613c918e60226153ab565b90506000613cb48c60236153ab565b90506000613cc5613c6a83846126e3565b60808c0185905260a08c018490529050613cdf818b6126e3565b8b6006602002015250505050505050505050505050565b6000613d046000600161273f565b90506000613d146000600261273f565b90506000613d246000600361273f565b90506000613d41613d3688601d6153ab565b61081689601c6153ab565b90506000613d5e613d5389601e6153ab565b6108168a601d6153ab565b90506000613d7b613d708a601f6153ab565b6108168b601e6153ab565b90506000613d98613d8d8b60246153ab565b6108168c601f6153ab565b905083613da9816107f2818b612712565b9050613db9816107f2878a612712565b9050613dc9816107f28789612712565b9050613dda816107f28d60086153ab565b9050613de6818a6126e3565b60e08b01525082613dfb816107f2818b612712565b9050613e0b816107f2868a612712565b9050613e1b816107f28689612712565b9050613e2c816107f28d60086153ab565b9050613e38818a6126e3565b6101008b01525081613e4e816107f2818b612712565b9050613e5e816107f2858a612712565b9050613e6e816107f28589612712565b9050613e7f816107f28d60086153ab565b9050613e8b818a6126e3565b6101208b01525080613ea1816107f2818b612712565b9050613eb1816107f2848a612712565b9050613ec1816107f28489612712565b9050613ed2816107f28d60086153ab565b9050613ede818a6126e3565b610140909a019990995250505050505050505050565b613f346040518060e00160405280600081526020016000815260200160008152602001600081526020016000815260200160008152602001600081525090565b613f3f84601d6153ab565b8152613f4c84601e6153ab565b6020820152613f5c8460246153ab565b6040820152613f6c8460276153ab565b6060820152613f7c8460266153ab565b6080820152613f8c8460256153ab565b60a08201526000613f9e8560026153ab565b90506000613fad8660006153ab565b90506000613fc38460400151856000015161273f565b90506000613fd9856020015186602001516126e3565b60608601519091508690600090613ff090806126e3565b9050600061400f61400989602001518a606001516126e3565b886126e3565b9050600061402f6140288a60a001518b60400151612712565b8a51612712565b905061403e613c9182886126e3565b905061406561405f614059614053848761273f565b8861273f565b84612712565b83612712565b905061408d61408261407783876126e3565b6107f28f60096153ab565b6107f260018a61273f565b6101608c015250505050602085015160808601516000916140ad91612712565b905060006140cc6140c28860600151886126e3565b886020015161273f565b905060006140f26140dd84876126e3565b6107f7613a738b60a001518c6000015161273f565b905061411a61410f614104838c6126e3565b6107f28e60096153ab565b6107f260018961273f565b6101808b0152506000915061413c9050614135836011612712565b87516126e3565b9050600061414a8384612712565b90506141568182612712565b905060006141658360096126e3565b905061418f614189613a3e6141828b60a001518c60000151612712565b8b51612712565b8261273f565b60c089018190526000906141ab9061400990614077908d6126e3565b90506141be8b600b602002015182612712565b6101608c015250508651600092506141e69150614135906141df9080612712565b8851612712565b90506000614228614203836107f28a600001518b60a0015161273f565b6020890151610816906142169080612712565b6107f28b602001518c60800151612712565b905061424589600c60200201516107f7614009614077858d6126e3565b89600c602002015250505050505050505050565b6142d2604051806101e001604052806000815260200160008152602001600081526020016000815260200160008152602001600081526020016000815260200160008152602001600081526020016000815260200160008152602001600081526020016000815260200160008152602001600081525090565b6142ea6142e086601e6153ab565b85604001516126e3565b808252614309906107f76142ff88601d6153ab565b87602001516126e3565b80825261431e906107f761413588601c6153ab565b808252614330906107f78760016153ab565b808252602082018190526143499061081687601f6153ab565b81526143646143598660246153ab565b61081687601c6153ab565b60808201526143826143778660276153ab565b61081687601f6153ab565b6060820152608081015161439b906107f281600161273f565b6101c082015260808101516143ee906143e4906143dd906107f260017f30644e72e131a029b85045b68181585d2833e84879b9709143e1f593f0000001615ce8565b6001612712565b82606001516126e3565b60a0820181905261442490614416906107f261440b8960026153ab565b6107f28a60036153ab565b6107f2613a7388600a6153ab565b83600e60200201526101c081015161444890614416906107f261440b8960026153ab565b6101e0840152805161446d906107f26144628860026153ab565b6107f28960036153ab565b610120820152600061448d61448387601f6153ab565b836020015161273f565b905061449e816107f283600161273f565b60e08301526144bb6144b18760266153ab565b86604001516126e3565b604083018190526144de906107f76144d48960256153ab565b88602001516126e3565b604083018190526144fe906107f76144f78960246153ab565b88516126e3565b604083015261451b6145118760276153ab565b836040015161273f565b6040830152600061453b6145308860266153ab565b61081689601e6153ab565b90506145b361457b6137866143dd866080015160017f30644e72e131a029b85045b68181585d2833e84879b9709143e1f593f00000016107f29190615ce8565b6107f26143dd866040015160017f30644e72e131a029b85045b68181585d2833e84879b9709143e1f593f00000016107f29190615ce8565b60c084015260408301516145d5906145cb90806126e3565b846040015161273f565b61010084015260c0830151614601906145f3906107f28a60046153ab565b6107f2613c918a600a6153ab565b6102008601526101c0830151614620906145f3906107f28a60046153ab565b61022086015261010083015161463f906145f3906107f28a60046153ab565b61024086015260e0830151614659906107f28960046153ab565b61014084015261467861466d8860256153ab565b61081689601d6153ab565b61016084015260808301516146c990614530906146be906143dd906107f260017f30644e72e131a029b85045b68181585d2833e84879b9709143e1f593f0000001615ce8565b8561016001516126e3565b61018084018190526101208401516101a08501819052614700916107f7906107f26146f58c60056153ab565b6107f28d60026153ab565b6101a08401819052835161472191906107f7906107f26146f58c60006153ab565b6101a084018190526101408401516147399190612712565b6101a08401819052614753906107f2613c918a600a6153ab565b6101a0840181905285600d613ab0565b6147a36040518060e00160405280600081526020016000815260200160008152602001600081526020016000815260200160008152602001600081525090565b6147d86147bf6147b486601c6153ab565b6107f28760256153ab565b6107f76147cd8760246153ab565b6107f288601d6153ab565b815261481d6148126147f96147ee87601c6153ab565b6107f288601f6153ab565b6107f761480788601d6153ab565b6107f289601e6153ab565b6108168660266153ab565b6040820181905261483790681000000000000000006126e3565b6040820181905261484d906108168660276153ab565b6040820181905281516148609190612712565b60408201819052614876906107f28660056153ab565b6040820152805161489090681000000000000000006126e3565b8082526148b0906107f76148a58760246153ab565b6107f28860256153ab565b808252602082018190526148d7906108166148cc87601e6153ab565b6107f788601f6153ab565b602082018190526148ed906107f28660046153ab565b602082015280516060820181905261490a906107f786601f6153ab565b6060820181905261492e906108166149238760266153ab565b6107f78860276153ab565b60608201819052614944906107f28660006153ab565b816060018181525050600061496e61496483602001518460400151612712565b8360600151612712565b905061497f816107f28760036153ab565b905061499761498f8660256153ab565b6140006126e3565b608083018190526149ad906107f78760246153ab565b608083018190526149c0906140006126e3565b608083018190526149d6906107f787601e6153ab565b608083018190526149e9906140006126e3565b608083018190526149ff906107f787601d6153ab565b60808301819052614a12906140006126e3565b60808301819052614a28906107f787601c6153ab565b60808301819052614a3e9061081687601f6153ab565b60808301819052614a54906107f28760056153ab565b6080830152614a6761498f8660266153ab565b60a08301819052614a7d906107f78760256153ab565b60a08301819052614a90906140006126e3565b60a08301819052614aa6906107f78760246153ab565b60a08301819052614ab9906140006126e3565b60a08301819052614acf906107f787601f6153ab565b60a08301819052614ae2906140006126e3565b60a08301819052614af8906107f787601e6153ab565b60a08301819052614b0e906108168760276153ab565b60a08301819052614b24906107f28760006153ab565b60a083018190526080830151600091614b3d9190612712565b9050614b4e816107f28860046153ab565b9050614b5a8282612712565b60c08401819052614b73906107f2613c9189600b6153ab565b60c084018190528560136020020152505050505050565b614c1160405180610220016040528060008152602001600081526020016000815260200160008152602001600081526020016000815260200160008152602001600081526020016000815260200160008152602001600081526020016000815260200160008152602001600081526020016000815260200160008152602001600081525090565b614c2a614c1f85601c6153ab565b6107f78660026153ab565b8152614c45614c3a85601d6153ab565b6107f78660036153ab565b6020820152614c63614c5885601e6153ab565b6107f78660046153ab565b6040820152614c81614c7685601f6153ab565b6107f78660056153ab565b60608201528051614cb390614cac90614ca590614c9e90806126e3565b84516126e3565b83516126e3565b82516126e3565b60808201526020810151614cf190614ce790614cdd90614cd390806126e3565b84602001516126e3565b83602001516126e3565b82602001516126e3565b60a08201526040810151614d2f90614d2590614d1b90614d1190806126e3565b84604001516126e3565b83604001516126e3565b82604001516126e3565b60c08201526060810151614d63906143e490614d5990614d4f90806126e3565b84606001516126e3565b83606001516126e3565b60e0820152608081015160a0820151614d7c9190612712565b61010082015260c081015160e0820151614d969190612712565b61012082015260a0810151614dba90614daf9080612712565b826101200151612712565b61014082015260e0810151614dde90614dd39080612712565b826101000151612712565b610160820152610120810151614df49080612712565b6101e08201819052614e1590614e0a9080612712565b826101600151612712565b6101e0820152610100810151614e2b9080612712565b6101a08201819052614e4c90614e419080612712565b826101400151612712565b6101a08201819052610160820151614e6391612712565b6101808201526101408101516101e0820151614e7f9190612712565b6101c0820152614e9361378685600c6153ab565b6102008201819052610280840151610180830151614ebe926107f7916107f2906108168a60246153ab565b8360146020020152614eee83601560200201516107f78361020001516107f2856101a001516108168a60256153ab565b8360156020020152614f1e83601660200201516107f78361020001516107f2856101c001516108168a60266153ab565b8360166020020152614f4e83601760200201516107f78361020001516107f2856101e001516108168a60276153ab565b836017602002015250505050565b614fb960405180610160016040528060008152602001600081526020016000815260200160008152602001600081526020016000815260200160008152602001600081526020016000815260200160008152602001600081525090565b60006040518060800160405280614fef7f10dc6e9c006ea38b04b1e03b4bd9490c0d03f98929ca1d7fb56821fd19d3b6e76126b7565b815260200161501d7f0c28145b6a44df3e0149b3d0a30b3bb599df9756d4dd9b84a86b38cfb45a740b6126b7565b815260200161504a7e544b8338791518b2c7645a50392798b21f75bb60e3596170067d00141cac156126b7565b81526020016150787f222c01175718386f2e2e82eb122789e352e105a3b8fa852613bc534433ee428b6126b7565b9052905061509561508a86601c6153ab565b6107f78760026153ab565b61012083018190526150d4906150c9906150be906150b390806126e3565b8561012001516126e3565b8461012001516126e3565b8361012001516126e3565b82526150e185601d6153ab565b60208301526150f185601e6153ab565b604083015261510185601f6153ab565b606083015281516020830151615129916149649161511f9190612712565b8460400151612712565b608083015261513c613a3e86600d6153ab565b610140830152815161515e90615154908360006115c8565b8360800151612712565b60a083015261518a84601860200201516107f78461014001516107f28660a001516108168b60246153ab565b61030085015260208201516151a590615154908360016115c8565b60c08301526151d184601960200201516107f78461014001516107f28660c001516108168b60256153ab565b61032085015260408201516151ec90615154908360026115c8565b60e083015261521884601a60200201516107f78461014001516107f28660e001516108168b60266153ab565b610340850152606082015161523390615154908360036115c8565b61010083015261526184601b60200201516107f78461014001516107f28661010001516108168b60276153ab565b84601b6138c1565b815160015b601c8110156152bb576152b1826107f78684601c811061529057615290615d38565b6020020151866152a1600187615ce8565b601b81106115c8576115c8615d38565b915060010161526e565b5092915050565b60408051808201909152600080825260208201526040805180820190915260008082526020820152604051835181526020840151602082015284604082015260408160608360075afa8061531557600080fd5b5080518252602080820151908301526060016040529392505050565b604080518082019091526000808252602082015260408051808201909152600080825260208201526040518451815260208501516020820152835160408201526020840151606082015260408160808360065afa8061538f57600080fd5b5080518252602080820151908301526080016040529392505050565b6000828260288111156153c0576153c0616058565b602981106153d0576153d0615d38565b60200201519392505050565b604051806103e0016040528060008152602001600081526020016000815260200161541a604051806040016040528060008152602001600081525090565b815260200161543c604051806040016040528060008152602001600081525090565b815260200161545e604051806040016040528060008152602001600081525090565b8152602001615480604051806040016040528060008152602001600081525090565b81526020016154a2604051806040016040528060008152602001600081525090565b81526020016154c4604051806040016040528060008152602001600081525090565b81526020016154e6604051806040016040528060008152602001600081525090565b8152602001615508604051806040016040528060008152602001600081525090565b815260200161552a604051806040016040528060008152602001600081525090565b815260200161554c604051806040016040528060008152602001600081525090565b815260200161556e604051806040016040528060008152602001600081525090565b8152602001615590604051806040016040528060008152602001600081525090565b81526020016155b2604051806040016040528060008152602001600081525090565b81526020016155d4604051806040016040528060008152602001600081525090565b81526020016155f6604051806040016040528060008152602001600081525090565b8152602001615618604051806040016040528060008152602001600081525090565b815260200161563a604051806040016040528060008152602001600081525090565b815260200161565c604051806040016040528060008152602001600081525090565b815260200161567e604051806040016040528060008152602001600081525090565b81526020016156a0604051806040016040528060008152602001600081525090565b81526020016156c2604051806040016040528060008152602001600081525090565b81526020016156e4604051806040016040528060008152602001600081525090565b8152602001615706604051806040016040528060008152602001600081525090565b8152602001615728604051806040016040528060008152602001600081525090565b815260200161574a604051806040016040528060008152602001600081525090565b815260200161576c604051806040016040528060008152602001600081525090565b815260200161578e604051806040016040528060008152602001600081525090565b81526020016157b0604051806040016040528060008152602001600081525090565b905290565b604051806101e001604052806157c9615b0b565b81526020016157eb604051806040016040528060008152602001600081525090565b815260200161580d604051806040016040528060008152602001600081525090565b815260200161582f604051806040016040528060008152602001600081525090565b8152602001615851604051806040016040528060008152602001600081525090565b8152602001615873604051806040016040528060008152602001600081525090565b8152602001615895604051806040016040528060008152602001600081525090565b81526020016158b7604051806040016040528060008152602001600081525090565b81526020016158d9604051806040016040528060008152602001600081525090565b81526020016158e6615b2a565b81526020016158f3615b58565b8152602001615900615b77565b815260200161576c615a53565b6040518061010001604052806159526040518060c001604052806000815260200160008152602001600081526020016000815260200160008152602001600081525090565b815260200161595f615a16565b815260200161596c615a53565b8152602001615979615a53565b8152602001600081526020016000815260200160008152602001600081525090565b604051806101c00160405280600081526020016000815260200160008152602001600081526020016000815260200160008152602001600081526020016159e0615bb1565b81526020016159ed615bb1565b815260200160008152602001600081526020016000815260200160008152602001606081525090565b604051806103600160405280601b906020820280368337509192915050565b6040518060a001604052806005906020820280368337509192915050565b604051806103800160405280601c906020820280368337509192915050565b6040518061012001604052806009906020820280368337509192915050565b604051806105400160405280602a906020820280368337509192915050565b60405180606001604052806003906020820280368337509192915050565b6040518061010001604052806008906020820280368337509192915050565b6040518060e001604052806007906020820280368337509192915050565b6040518061020001604052806010906020820280368337509192915050565b604051806103800160405280601c905b615b42615ace565b815260200190600190039081615b3a5790505090565b6040518061052001604052806029906020820280368337509192915050565b604051806103600160405280601b905b6040805180820190915260008082526020820152815260200190600190039081615b875790505090565b60405180608001604052806004906020820280368337509192915050565b60008060008060408587031215615be557600080fd5b843567ffffffffffffffff811115615bfc57600080fd5b8501601f81018713615c0d57600080fd5b803567ffffffffffffffff811115615c2457600080fd5b876020828401011115615c3657600080fd5b60209182019550935085013567ffffffffffffffff811115615c5757600080fd5b8501601f81018713615c6857600080fd5b803567ffffffffffffffff811115615c7f57600080fd5b8760208260051b8401011115615c9457600080fd5b949793965060200194505050565b7f4e487b7100000000000000000000000000000000000000000000000000000000600052601160045260246000fd5b808202811582820484141761270c5761270c615ca2565b8181038181111561270c5761270c615ca2565b8082018082111561270c5761270c615ca2565b60008085851115615d1e57600080fd5b83861115615d2b57600080fd5b5050820193919092039150565b7f4e487b7100000000000000000000000000000000000000000000000000000000600052603260045260246000fd5b7f4e487b7100000000000000000000000000000000000000000000000000000000600052604160045260246000fd5b60007fffffffffffffffffffffffffffffffffffffffffffffffffffffffffffffffff8203615dc757615dc7615ca2565b5060010190565b8035602083101561270c577fffffffffffffffffffffffffffffffffffffffffffffffffffffffffffffffff602084900360031b1b1692915050565b7f4e487b7100000000000000000000000000000000000000000000000000000000600052601260045260246000fd5b600082615e4857615e48615e0a565b500690565b60008183825b6005811015615e72578151835260209283019290910190600101615e53565b50505060a08201905092915050565b600082615e9057615e90615e0a565b500490565b60008183825b6009811015615eba578151835260209283019290910190600101615e9b565b5050506101208201905092915050565b60008183825b602a811015615eef578151835260209283019290910190600101615ed0565b5050506105408201905092915050565b8151600090829060208501835b82811015615f2a578151845260209384019390910190600101615f0c565b509195945050505050565b60008183825b6003811015615f5a578151835260209283019290910190600101615f3b565b50505060608201905092915050565b600081615f7857615f78615ca2565b507fffffffffffffffffffffffffffffffffffffffffffffffffffffffffffffffff0190565b60008183825b6008811015615fc3578151835260209283019290910190600101615fa4565b5050506101008201905092915050565b6000825160005b81811015615ff45760208186018101518583015201615fda565b506000920191825250919050565b60006020828403121561601457600080fd5b815180151581146103a257600080fd5b60008183825b600781101561604957815183526020928301929091019060010161602a565b50505060e08201905092915050565b7f4e487b7100000000000000000000000000000000000000000000000000000000600052602160045260246000fdfea2646970667358221220f8792cb8b40315b4223d507b404686c0c911a0a29b150cdf00b01a6b8222656a64736f6c634300081b0033",
  "linkReferences": {},
  "deployedLinkReferences": {}
}