{
  "_format": "hh-sol-artifact-1",
  "contractName": "HonkVerifier",
  "sourceName": "noir/target/simple_price.sol",
  "abi": [
    {
      "inputs": [],
      "name": "ProofLengthWrong",
      "type": "error"
    },
    {
      "inputs": [],
      "name": "PublicInputsLengthWrong",
      "type": "error"
    },
    {
      "inputs": [],
      "name": "ShpleminiFailed",
      "type": "error"
    },
    {
      "inputs": [],
      "name": "SumcheckFailed",
      "type": "error"
    },
    {
      "inputs": [
        {
          "internalType": "bytes",
          "name": "proof",
          "type": "bytes"
        },
        {
          "internalType": "bytes32[]",
          "name": "publicInputs",
          "type": "bytes32[]"
        }
      ],
      "name": "verify",
      "outputs": [
        {
          "internalType": "bool",
          "name": "",
          "type": "bool"
        }
      ],
      "stateMutability": "view",
      "type": "function"
    }
  ],
  "bytecode": "0x60e060405234801561001057600080fd5b5062010000608052601060a052602560c05260805160a05160c051615e246100666000396000818161011001526106c90152600081816107d8015281816110a101526111400152600061066b0152615e246000f3fe608060405234801561001057600080fd5b506004361061002b5760003560e01c8063ea50d0e414610030575b600080fd5b61004361003e366004615934565b610057565b604051901515815260200160405180910390f35b60006100666101c86020615a36565b841461009e576040517fed74ac0a00000000000000000000000000000000000000000000000000000000815260040160405180910390fd5b60006100a8610230565b905060006100b68787610245565b9050601082604001516100c99190615a4d565b8414610101576040517ffa06659300000000000000000000000000000000000000000000000000000000815260040160405180910390fd5b600061013682878786600001517f000000000000000000000000000000000000000000000000000000000000000060016105a4565b90506101878686808060200260200160405190810160405280939291908181526020018383602002808284376000920191909152505085518551606081015160809091015191935091506001610654565b815160a00152600061019983836107cf565b9050806101d2576040517f9fc3a21800000000000000000000000000000000000000000000000000000000815260040160405180910390fd5b60006101df8486856108ef565b905080610218576040517fa5d82e8a00000000000000000000000000000000000000000000000000000000815260040160405180910390fd5b8180156102225750805b9a9950505050505050505050565b610238614ff1565b6102406114d0565b905090565b61024d6153a8565b6000805b60108110156102b05761027d85838661026b826020615a60565b9261027893929190615a73565b611db6565b8351826010811061029057610290615a9d565b6020020181815250506020826102a69190615a60565b9150600101610251565b506102d48482856102c2826080615a60565b926102cf93929190615a73565b611e61565b60208301526102e4608082615a60565b90506102f78482856102c2826080615a60565b6040830152610307608082615a60565b905061031a8482856102c2826080615a60565b606083015261032a608082615a60565b905061033d8482856102c2826080615a60565b60c083015261034d608082615a60565b90506103608482856102c2826080615a60565b60e0830152610370608082615a60565b90506103838482856102c2826080615a60565b6080808401919091526103969082615a60565b90506103a98482856102c2826080615a60565b6101008301526103ba608082615a60565b90506103cd8482856102c2826080615a60565b60a08301526103dd608082615a60565b905060005b601c81101561045e5760005b60088110156104555761040886848761026b826020615a60565b84610120015183601c811061041f5761041f615a9d565b6020020151826008811061043557610435615a9d565b60200201818152505060208361044b9190615a60565b92506001016103ee565b506001016103e2565b5060005b60288110156104b35761047c85838661026b826020615a60565b836101400151826028811061049357610493615a9d565b6020020181815250506020826104a99190615a60565b9150600101610462565b5060005b6104c36001601c615a4d565b81101561050c576104db8583866102c2826080615a60565b83610160015182601b81106104f2576104f2615a9d565b6020020152610502608083615a60565b91506001016104b7565b5060005b601c8110156105615761052a85838661026b826020615a60565b83610180015182601c811061054157610541615a9d565b6020020181815250506020826105579190615a60565b9150600101610510565b506105738482856102c2826080615a60565b6101a0830152610584608082615a60565b90506105978482856102c2826080615a60565b6101c08301525092915050565b6105ac6155d0565b60006105bd88888888888887611f9f565b90835290506105cc8189612027565b602084019190915290506105df81612179565b604084019190915290506105f388826121dc565b6060840191909152905061060788826122b3565b6080840191909152905061061b8882612341565b60a0840191909152905061062f88826124b1565b60c084019190915290506106438882612525565b5060e0830152509695505050505050565b60006001808261069e866106998961069461068f8a7f0000000000000000000000000000000000000000000000000000000000000000615a60565b61257d565b6125af565b6125dc565b905060006106bd876106b88a61069461068f8b6001615a60565b612609565b905060005b6106ed60107f0000000000000000000000000000000000000000000000000000000000000000615a4d565b81101561075b5760006107188c838151811061070b5761070b615a9d565b602002602001015161257d565b90506107288661069486846125dc565b95506107388561069485846125dc565b9450610744848b6125dc565b9350610750838b612609565b9250506001016106c2565b5060005b60108110156107c45760008a826010811061077c5761077c615a9d565b602002015190506107918661069486846125dc565b95506107a18561069485846125dc565b94506107ad848b6125dc565b93506107b9838b612609565b92505060010161075f565b50610222848461265f565b6000806001815b7f00000000000000000000000000000000000000000000000000000000000000008110156108c357600086610120015182601c811061081757610817615a9d565b60200201519050600061082a828661266e565b905080610863576040517f9fc3a21800000000000000000000000000000000000000000000000000000000815260040160405180910390fd5b6000876060015184601c811061087b5761087b615a9d565b6020020151905061088c838261268c565b95506108b3886040015185601c81106108a7576108a7615a9d565b60200201518683612840565b94505050508060010190506107d6565b5060006108df866101400151866000015187602001518561286c565b90508281145b9695505050505050565b60006108f961565e565b60006109088460a001516128db565b90506109126156cb565b61091a6156ea565b60e086015161093a90610935908560005b6020020151612609565b612940565b60e08086019190915286015161095c90610935908560005b60200201516125dc565b610100850181905260e085015160c088015161097c9261069991906125af565b845260a08601516109ab9061099090612940565b6106948660e001516106b88a60c001518961010001516125af565b602085810191909152600183526101a089015160408051808201825260008082529084015280518082018252828401518351608891821b178252606084015192909301519190921b17918101919091528152600160608501819052600060808601525b60238111610ab557610a30610a2686600001516129d4565b86606001516125af565b838260468110610a4257610a42615a9d565b602002015260808501516101408a0151610a85919061069990610a66600186615a4d565b60288110610a7657610a76615a9d565b602002015188606001516125af565b856080018181525050610aa0856060015188608001516125af565b6060860152610aae81615acc565b9050610a0e565b506000610ac460236001615a60565b90505b60288111610b4557610adf610a2686602001516129d4565b838260468110610af157610af1615a9d565b602002015260808501516101408a0151610b15919061069990610a66600186615a4d565b856080018181525050610b30856060015188608001516125af565b6060860152610b3e81615acc565b9050610ac7565b50606087015181600160200201526080870151816002602002015260a0870151816003602002015260c0870151816004602002015260e0870151816005602002015261010087015181600660200201526101208701518160076020020152610140870151816008602002015261016087015181600960200201526101a087015181600a602002015261018087015181600b60200201526101c087015181600c60200201526101e087015181600d602002015261020087015181600e602002015261022087015181600f60200201526102408701518160106020020152610260870151816011602002015261028087015181601260200201526102a087015181601360200201526102c087015181601460200201526102e08701518160156020020152610300870151816016602002015261032087015181601760200201526103408701518160186020020152610360870151816019602002015261038087015181601a60200201526103a087015181601b6020020181905250610d1288602001516040805180820190915260008082526020820152604051806040016040528060888460200151901b846000015117815260200160888460600151901b8460400151178152509050919050565b61038082015260408881015181518083018352600080825260209182015282518084018452818301518351608891821b178252606084015193909401519290931b909117908201526103a0820152606088810151604080518082018252600080825260209182015281518083018352818401518451608891821b1782529484015192909301519190931b17918101919091526103c08201526080880151604080518082018252600080825260209182015281518083018352818401518451608891821b178252606085015193909401519290931b909117908201526103e082015260a0880151604080518082018252600080825260209182015281518083018352818401518451608891821b178252606085015193909401519290931b90911790820152610400820152610100880151604080518082018252600080825260209182015281518083018352818401518451608891821b178252606085015193909401519290931b9091179082015261042082015260c0880151604080518082018252600080825260209182015281518083018352818401518451608891821b178252606085015193909401519290931b9091179082015261044082015260e0880151604080518082018252600080825260209182015281518083018352818401518451608891821b178252606085015193909401519290931b9091179082015261046082015260208881015160408051808201825260008082529084015280518082018252828401518351608891821b178252606084015192909301519190921b179181019190915261048082015260408881015181518083018352600080825260209182015282518084018452818301518351608891821b178252606084015193909401519290931b909117908201526104a0820152606088810151604080518082018252600080825260209182015281518083018352818401518451608891821b1782529484015192909301519190931b17918101919091526104c08201526080880151604080518082018252600080825260209182015281518083018352818401518451608891821b178252606085015193909401519290931b909117908201526104e082015260a0880151604080518082018252600080825260209182015281518083018352818401518451608891821b178252606085015193909401519290931b90911790820152610500820152606086015160808501516101808a01516000926110c5929091877f0000000000000000000000000000000000000000000000000000000000000000612a00565b805160e08701519192506110d8916125af565b604086018190526101808a01515160c08901516111099291610699916110fe91906125af565b8861010001516125af565b604086015260c087015161111c90612b1e565b606086015260005b6111306001601c615a4d565b81101561138157600061116460017f0000000000000000000000000000000000000000000000000000000000000000615a4d565b8210159050806112e0576111976109358a60e00151888560016111879190615a60565b601c811061092b5761092b615a9d565b60e0808901919091528901516111c79061093590886111b7866001615a60565b601c811061095257610952615a9d565b610100880152606087015160e08801516111e191906125af565b610120880152606087015160c08a01516111fe916110fe916125af565b610140880181905261122190611213906129d4565b6106998961012001516129d4565b858361122f60286001615a60565b6112399190615a60565b6046811061124957611249615a9d565b60200201526101408701516101808c01516000916112869161126c866001615a60565b601c811061127c5761127c615a9d565b60200201516125af565b90506112a3816106998a61012001518787600161126c9190615a60565b90506112b38860400151826125dc565b6040890152606088015160c08b01516112d9916112cf916125af565b8b60c001516125af565b6060890152505b61134b8b610160015183601b81106112fa576112fa615a9d565b60200201516040805180820190915260008082526020820152604051806040016040528060888460200151901b846000015117815260200160888460600151901b8460400151178152509050919050565b848361135960286001615a60565b6113639190615a60565b6046811061137357611373615a9d565b602002015250600101611124565b50604080518082019091526001815260026020820152826113a4601c6028615a60565b604681106113b4576113b4615a9d565b60200201526040850151836113cb601c6028615a60565b604681106113db576113db615a9d565b60200201526101c0890151600090611439906040805180820190915260008082526020820152604051806040016040528060888460200151901b846000015117815260200160888460600151901b8460400151178152509050919050565b90508083611449601c6028615a60565b611454906001615a60565b6046811061146457611464615a9d565b602002015260e08801518461147b601c6028615a60565b611486906001615a60565b6046811061149657611496615a9d565b602002015260006114a78486612b2a565b905060006114b483612bfd565b90506114c08282612c75565b9c9b505050505050505050505050565b6114d8614ff1565b50604080516103c0810182526201000081526010602080830191909152602582840152825180840184527f2be1c5a83a9bb45ccc72715215e11aee13d12bd14e44631b79c9a7bc6867460a81527f1ce1b2e74b29f47141488b7ffc4fa985c9efae113c864041b42857f806c548ca818301526060830152825180840184527f2d444ccd32996f4199ead2691d645146d4c80f40bbbe7ce91c6ed2e79bba092c81527f17eae415f44057a8150b5c31adc879e66e08f296acef84b7bcc40b0f38850193818301526080830152825180840184527f1fb9453d9930841028164017a77e4ea18e5ac5a6d9d762b165a95d5f76ca366d81527f1619ee9e7240a3f1ed899c6d5d52c4c0cd8385c985b60bd2dc6fb394eda64f548183015260a0830152825180840184527f1f8364d500486b7c4b7953254747399e4d9b3aa698d947896d483cc69b1b36e981527f2c632f2b7fc3ed54625d1d9ea149215c4c0a6feac3aa5a616352845edd4134b58183015260c0830152825180840184527f08ab575287c40193f72516c9b0f16e63bc98abf00e6b2b718ceb4210be51f83a81527f1670b6bd12b552588b777ff289ecb666d6574bd52612658ffb065056f46a0ae58183015260e0830152825180840184527f1049807df058fdd0232f25f33e344bdaed9ba87c397cdb607f67b1f399cf5b2b81527f212c81642ba2f4e9ff537ed6f01d8c63308dd0301d67406741f061eb91cbcea181830152610100830152825180840184527f2c4d447b22aa60596802b0c76efb96642e91a4cd4ba9b5fea6cef463a51e8fdd81527f29185a4cac6a0fb9990b63700e694c042e7f0801029cda067e67fe248802e1a881830152610120830152825180840184527f08fe669521564cd7b4955f8ba617c4af0942b39ed8793bd5d368bc4b44d8637c81527f0b3f4e454a02385cc373a39cc42f1e3c9a2e1eda3515a9ea0cd4aab48f8660ca81830152610140830152825180840184527f1b0496b81801081998ffc464e31733e20dc5cae78118e213675142878aa80af881527f036487f719d87081b59f559df9887531c2565789b18256bf1e727659554eed0281830152610160830152825180840184527f0a2c96286e7983f1b5947f54939ab5af76eebaba18ad9c79f2dafba30339933881527f0918a2102ef11fc29b27d975cf7e38d17f250c24e733916d645fa59c98930afa81830152610180830152825180840184527f065023e2a2ef1b33b6eb46ef1b07143791b80205396b5f6c909475d2b61d234781527f0c62d95fc5c548307536d9f5a3a88bddf145cf8c6ad7a8b7376601b766dd0c23818301526101a0830152825180840184527f0e319e733c17f729465dfa447c9fc401145e57d7e5c628aa91b4b923b23cc57f81527f1c491172c301fdb9b5ab72a7869dd3034389a2f60cd5f3df87681fffe2c0a9fd818301526101c0830152825180840184527f08d9bc2e5547488f591201c197d1d98861a4373ea780701cc9d7d8f5c1dec9c181527f1759d05380a8775c9330fcbcf03b30390a177b2d3b7d91b1b23529e9fe52d94d818301526101e0830152825180840184527f29f175a342eea2e0d29e2b722c6278c8b1da959bdb525e46be05907d96ad822b81527f2c53447ac61252576d6acac3991b92db0641f7e37bb720295110bc938bf2821981830152610200830152825180840184527f0d2e379ec5bc6f5c77face3d06b7b04aacaf95119b5038df14efca139a25f28781527f23ba3ed0422b1a1448bee236eeaa3d58559236e5d370aefebf1a878b54d4139981830152610220830152825180840184527f3058c4d4673f2e8e608456d42b799850b2142a213a66c9d0cc14f45b3b47ac2681527f12f15afa653c1d8e34043fdd2edba7d6f499576b777563cba087c66ae508315781830152610240830152825180840184527f241a63b8bff0253d02157eefb23cdeb7f628f82bd49262d9a75458a60553ddf981527f0c38e8e62a578bae09fe52b7e61e652bcc8ac391fff56a71167a158331be807a81830152610260830152825180840184527f25d964b18d3d27c3addfec533a43330485e7fc2c004ab65946c569ac8da7e61381527f2ccadba02fc8b19e6b353882afc417c09b2b2407ba5223a7ec3d90fb3310a60381830152610280830152825180840184527f2250e2352728391e1985e9b691ee9c6db3af42a1973f6d2b162ed0df51fca62e81527f1ff4a936df4c21f02bf08236cd9f602904c7996a6a73b2f628156e51852a6e51818301526102a0830152825180840184527f04fbc8b219dddd1914a371f04d9b948f487530452765974a7eac59f696fed29281527f2360d6fa214ba961282a4ec5be1ab44a3cb6b05b5b3b9a47319d08169aa1e294818301526102c0830152825180840184527f302005e3f37d26c24c8504950f63a1110d47da957169f6686d48cd0a59a6034081527f0ef0552db1a1726d96ff943d32a65b7f9c950444ea26809df70d25c4f71374c5818301526102e0830152825180840184527f03c9857603c62c4b13a7be8beb30c3a852548d7218bf373abc4edf49dbb5eba781527f303a555afab20e7aa7e8f38670b98353c291ab2198dd6b2ae0031818a05e996381830152610300830152825180840184527f15250006c2072e54fb550a16ae90ac799901ace1b18ba767d78a845ccd2d1f5d81527f176840c8ad52e220e167dfc832b4e7e5c0599b44eb928eff28bd2186855e3efb81830152610320830152825180840184527f0f40a25db17c59d2810e2cddf25585bda7199b1d3f9582adf229a947a2ea021e81527f26825f765eb8fef3da4574e4e6b6e7140b7e3e04f88a5e1db19e2770f94bacb181830152610340830152825180840184527f067e3889977ad6bf917065041c2b3f2a3978dbb70c3e9dfbb1cc9a4b192098c581527f1b9ba68888ec6674fab4d9e078d5e65cf401e0bf1b52f13bace717467921ab3381830152610360830152825180840184526001815260028183015261038083015282518084019093527f16c3d7d2e6a45353d3403048ddb0d74ed37ba6654a78d7875504a4856e2ccf9783527f0316f8edc6227217ce96b5974742a6377c0483494cea3940f0a6dc50711966c8908301526103a081019190915290565b600060208214611e4d576040517f08c379a000000000000000000000000000000000000000000000000000000000815260206004820152602e60248201527f696e76616c6964206e756d626572206f6620627974657320746f20636f6e737460448201527f72756374204672207363616c617200000000000000000000000000000000000060648201526084015b60405180910390fd5b611e5a61068f8385615b04565b9392505050565b611e8c6040518060800160405280600081526020016000815260200160008152602001600081525090565b60808214611f1c576040517f08c379a000000000000000000000000000000000000000000000000000000000815260206004820152602f60248201527f696e76616c6964206e756d626572206f6620627974657320746f20636f6e737460448201527f72756374206120473120706f696e7400000000000000000000000000000000006064820152608401611e44565b604080516080810190915280611f36602060008688615a73565b611f3f91615b04565b8152602090810190611f55906040908688615a73565b611f5e91615b04565b8152602001611f71606060408688615a73565b611f7a91615b04565b8152602001611f8d608060608688615a73565b611f9691615b04565b90529392505050565b611fd86040518060c001604052806000815260200160008152602001600081526020016000815260200160008152602001600081525090565b6000611fe8898989898989612e7b565b604086019190915260208501919091529083529250612007838a61332b565b608085019190915260608401919091529199919850909650505050505050565b61202f615724565b6000612039615743565b848152610100848101805151602080850191909152815181015160408086019190915282518101516060808701919091529251830151608086015260a080890180515191870191909152805183015160c0870152805182015160e0870152519092015192840192909252516120cf916120b491849101615b40565b6040516020818303038152906040528051906020012061257d565b91506120da826133fc565b6020850152835260015b6120f06002601a615ba4565b8110156121705761210d836040516020016120b491815260200190565b9250612118836133fc565b85612124846002615a36565b601a811061213457612134615a9d565b6020020186612144856002615a36565b61214f906001615a60565b601a811061215f5761215f615a9d565b6020020191909152526001016120e4565b50509250929050565b612181615762565b6000805b601c8110156121d5576121a4846040516020016120b491815260200190565b935060006121b1856133fc565b8584601c81106121c3576121c3615a9d565b60200201919091525050600101612185565b5090929050565b6121e4615762565b6000805b601c8110156122aa576121f9615743565b84815260005b60088110156122635786610120015183601c811061221f5761221f615a9d565b6020020151816008811061223557612235615a9d565b602002015182612246836001615a60565b6009811061225657612256615a9d565b60200201526001016121ff565b50612278816040516020016120b49190615b40565b94506000612285866133fc565b8685601c811061229757612297615a9d565b60200201919091525050506001016121e8565b50909391925050565b6000806122be615781565b83815260005b60288110156123125785610140015181602881106122e4576122e4615a9d565b6020020151826122f5836001615a60565b6029811061230557612305615a9d565b60200201526001016122c4565b50612327816040516020016120b49190615bb8565b91506000612334836133fc565b5096929550919350505050565b60008061234c6157a0565b83815260005b61235e6001601c615a4d565b81101561249c5785610160015181601b811061237c5761237c615a9d565b6020020151518261238e836004615a36565b612399906001615a60565b606d81106123a9576123a9615a9d565b602002015261016086015181601b81106123c5576123c5615a9d565b602002015160200151828260046123dc9190615a36565b6123e7906002615a60565b606d81106123f7576123f7615a9d565b602002015261016086015181601b811061241357612413615a9d565b60200201516040015182612428836004615a36565b612433906003615a60565b606d811061244357612443615a9d565b602002015261016086015181601b811061245f5761245f615a9d565b60200201516060015182612474836004615a36565b61247f906004615a60565b606d811061248f5761248f615a9d565b6020020152600101612352565b50612327816040516020016120b49190615bed565b6000806124bc6157bf565b83815260005b601c8110156125105785610180015181601c81106124e2576124e2615a9d565b6020020151826124f3836001615a60565b601d811061250357612503615a9d565b60200201526001016124c2565b50612327816040516020016120b49190615c22565b6000806125306157de565b8381526101a085018051516020808401919091528151810151604080850191909152825181015160608086019190915292519092015160808401529051612327916120b491849101615c57565b60006125a97f30644e72e131a029b85045b68181585d2833e84879b9709143e1f593f000000183615c8b565b92915050565b60007f30644e72e131a029b85045b68181585d2833e84879b9709143e1f593f00000018284099392505050565b60007f30644e72e131a029b85045b68181585d2833e84879b9709143e1f593f00000018284089392505050565b60007f30644e72e131a029b85045b68181585d2833e84879b9709143e1f593f0000001612656837f30644e72e131a029b85045b68181585d2833e84879b9709143e1f593f0000001615a4d565b84089392505050565b6000611e5a8361069484612940565b8151600090819061268190856001610952565b929092149392505050565b60408051610100810182527f30644e72e131a029b85045b68181585d2833e84879b9709143e1f593efffec5181526102d060208201527f30644e72e131a029b85045b68181585d2833e84879b9709143e1f593efffff1191810191909152609060608201527f30644e72e131a029b85045b68181585d2833e84879b9709143e1f593efffff71608082015260f060a08201527f30644e72e131a029b85045b68181585d2833e84879b9709143e1f593effffd3160c08201526113b060e08201526000906001825b60088110156127745761276a826106948784612609565b9150600101612753565b5061277d6157fc565b60005b60088110156127e057600084826008811061279d5761279d615a9d565b602002015190506127b2816106948985612609565b90506127bd81612940565b9050808383600881106127d2576127d2615a9d565b602002015250600101612780565b5060005b600881101561283557600087826008811061280157612801615a9d565b6020020151905061281e8184846008811061127c5761127c615a9d565b905061282a86826125dc565b9550506001016127e4565b506108e584836125af565b600080612857600161069985610694896001612609565b905061286384826125af565b95945050505050565b600061287661581b565b612881868285613436565b61288d868683866135e7565b612899868683866137d4565b6128a4868285613a0c565b6128af868285613c0a565b6128bb86868386613f6f565b6128c686828561487c565b6128d1868285614c58565b6108e58185614f5a565b6128e3615762565b81815260015b601c81101561293a5761291b82612901600184615a4d565b601c811061291157612911615a9d565b6020020151612b1e565b8282601c811061292d5761292d615a9d565b60200201526001016128e9565b50919050565b6000808290506000604051602081526020808201526020604082015282606082015260027f30644e72e131a029b85045b68181585d2833e84879b9709143e1f593f00000010360808201527f30644e72e131a029b85045b68181585d2833e84879b9709143e1f593f000000160a08201526020600060c08360055afa9050806129c857600080fd5b50506000519392505050565b60006125a9827f30644e72e131a029b85045b68181585d2833e84879b9709143e1f593f0000001615a4d565b612a08615762565b601c5b8015612b1457600084612a1f600184615a4d565b601c8110612a2f57612a2f615a9d565b60200201519050600088612a44600185615a4d565b601c8110612a5457612a54615a9d565b602002015190506000612ab0612a74612a6d858c6125af565b60026125af565b6106b88a612a83600189615a4d565b601c8110612a9357612a93615a9d565b6020020151610694612aaa8861069460018a612609565b87612609565b9050612ad181610694610935612acb87610694600189612609565b866125dc565b9050858411612b00579750878085612aea600187615a4d565b601c8110612afa57612afa615a9d565b60200201525b50505080612b0d90615c9f565b9050612a0b565b5095945050505050565b60006125a982836125af565b60408051808201909152600080825260208201526000612b4c601c6028615a60565b612b57906002615a60565b90506001604051855151604082015285516020015160608201528451608082015260408160606040840160075afa8216915060015b83811015612be55760208102870160208202870181515160408501528151602001516060850152805160808501525050604080830160606040850160075afa8316925060408260808460065afa90921691600101612b8c565b50805184526020810151602085015250505092915050565b60408051808201909152600080825260208201527f30644e72e131a029b85045b68181585d97816a916871ca8d3c208c16d87cfd4782602001517f30644e72e131a029b85045b68181585d97816a916871ca8d3c208c16d87cfd47612c629190615a4d565b612c6c9190615c8b565b60208301525090565b81516020808401518351848301516040805194850195909552938301919091527f198e9393920d483a7260bfb731fb5d25f1aa493335a9e71297e485b7aef312c260608301527f1800deef121f1e76426a00665e5c4479674322d4f75edadd46debd5cd992f6ed60808301527f090689d0585ff075ec9e99ad690c3395bc4b313370b38ef355acdadcd122975b60a08301527f12c85ea5db8c6deb4aab71808dcb408fe3d1e7690c43d37b4ce6cc0166fa7daa60c083015260e08201526101008101919091527f260e01b251f6f1c7e7ff4e580791dee8ea51d87a358e038b4efe30fac09383c16101208201527f0118c4d5b837bcc2bc89b5b398b5974e9f5944073b32078b7e231fec938883b06101408201527f04fc6369f7110fe3d25156c1bb9a72859cf2a04641f99ba4ee413c80da6a5fe46101608201527f22febda3c0c0632a56475b4214e5615e11e6dd3f96e6cea2854a87d4dacc5e5561018082015260009081906101a0016040516020818303038152906040529050600080600873ffffffffffffffffffffffffffffffffffffffff1683604051612e1a9190615cd4565b600060405180830381855afa9150503d8060008114612e55576040519150601f19603f3d011682016040523d82523d6000602084013e612e5a565b606091505b50915091508180156108e55750808060200190518101906108e59190615d03565b600080808080612e8c876003615a60565b612e9790600c615a60565b67ffffffffffffffff811115612eaf57612eaf615d25565b604051908082528060200260200182016040528015612ed8578160200160208202803683370190505b5090508760001b81600081518110612ef257612ef2615a9d565b6020026020010181815250508660001b81600181518110612f1557612f15615a9d565b6020026020010181815250508560001b81600281518110612f3857612f38615a9d565b60200260200101818152505060005b612f52601089615a4d565b811015612fa3578a8a82818110612f6b57612f6b615a9d565b9050602002013582826003612f809190615a60565b81518110612f9057612f90615a9d565b6020908102919091010152600101612f47565b5060005b6010811015613015578b51612fcf908260108110612fc757612fc7615a9d565b602002015190565b82826010612fde8c6003615a60565b612fe89190615a4d565b612ff29190615a60565b8151811061300257613002615a9d565b6020908102919091010152600101612fa7565b5060208b01515181613028896003615a60565b8151811061303857613038615a9d565b6020908102919091018101919091528b810151015181613059896003615a60565b613064906001615a60565b8151811061307457613074615a9d565b6020908102919091018101919091528b01516040015181613096896003615a60565b6130a1906002615a60565b815181106130b1576130b1615a9d565b6020908102919091018101919091528b015160600151816130d3896003615a60565b6130de906003615a60565b815181106130ee576130ee615a9d565b602090810291909101015260408b0151518161310b896003615a60565b613116906004615a60565b8151811061312657613126615a9d565b60209081029190910181019190915260408c0151015181613148896003615a60565b613153906005615a60565b8151811061316357613163615a9d565b60209081029190910101526040808c0151015181613182896003615a60565b61318d906006615a60565b8151811061319d5761319d615a9d565b602090810291909101015260408b015160600151816131bd896003615a60565b6131c8906007615a60565b815181106131d8576131d8615a9d565b602090810291909101015260608b015151816131f5896003615a60565b613200906008615a60565b8151811061321057613210615a9d565b60209081029190910181019190915260608c0151015181613232896003615a60565b61323d906009615a60565b8151811061324d5761324d615a9d565b602090810291909101015260608b0151604001518161326d896003615a60565b61327890600a615a60565b8151811061328857613288615a9d565b60209081029190910101526060808c01510151816132a7896003615a60565b6132b290600b615a60565b815181106132c2576132c2615a9d565b6020026020010181815250506132e2816040516020016120b49190615d54565b91506132ed826133fc565b604080516020810186905292975090955061330891016120b4565b91506000613315836133fc565b50959c949b509499509097509195505050505050565b600080600061333861583a565b85815260c085810180515160208085019190915281518101516040808601919091528251810151606080870191909152925183015160808087019190915260e0808b0180515160a0890152805185015196880196909652855183015190870152935183015161010086015292880180515161012086015280518201516101408601528051840151610160860152519091015161018084015290516133e2916120b491849101615d8a565b91506133ed826133fc565b90979096509194509092505050565b600080826fffffffffffffffffffffffffffffffff8116608082901c6134218261257d565b945061342c8161257d565b9350505050915091565b6000613443846007614fc0565b90507f183227397098d014dc2822db40c0ac2e9419f4243cdcb848a1f0fac9f800000060006134a66134a0613479856003612609565b61069461349561348a8b6000614fc0565b6106948c601c614fc0565b6106948b601b614fc0565b836125af565b905061352761351c6135036134ea6134d1856106996134c68d6002614fc0565b6106948e601b614fc0565b6106996134df8c6003614fc0565b6106948d601c614fc0565b6106996134f88b6004614fc0565b6106948c601d614fc0565b6106996135118a6005614fc0565b6106948b601e614fc0565b610699886001614fc0565b90506135468161069961353b866001612609565b6106948a6026614fc0565b905061355281846125af565b905061355e81856125af565b8552506000905061359a61358f61358461357988601b614fc0565b61069989601e614fc0565b6106b8886023614fc0565b610699876000614fc0565b90506135ab81610694846002612609565b90506135bc81610694846001612609565b90506135c881836125af565b90506135d481846125af565b9050808460015b60200201525050505050565b600080600061361f6136156135fd89601b614fc0565b61069961360b8b6011614fc0565b8a606001516125af565b87608001516125dc565b90506136588161069461364e6136368b601c614fc0565b6106996136448d6012614fc0565b8c606001516125af565b89608001516125dc565b905061367d8161069461364e61366f8b601d614fc0565b6106996136448d6013614fc0565b90506136a28161069461364e6136948b601e614fc0565b6106996136448d6014614fc0565b9250600090506136c76136156136b989601b614fc0565b61069961360b8b600d614fc0565b90506136ec8161069461364e6136de8b601c614fc0565b6106996136448d600e614fc0565b90506137118161069461364e6137038b601d614fc0565b6106996136448d600f614fc0565b90506137368161069461364e6137288b601e614fc0565b6106996136448d6010614fc0565b91506000905061375e61375861374d89601f614fc0565b6106998a6019614fc0565b846125af565b9050613793816106b861378d6137758b6027614fc0565b6106996137838d601a614fc0565b8c60a001516125af565b856125af565b905061379f81856125af565b60408601525060006137c361378d6137b889601a614fc0565b6106948a6027614fc0565b606090950194909452505050505050565b60008061383361381b6138036137ee61364e8a6015614fc0565b6106996137fc8b6016614fc0565b8a516125af565b6106996138118a6017614fc0565b89602001516125af565b610699613829896018614fc0565b88604001516125af565b9150600061386b61385261384889601b614fc0565b88608001516125dc565b6106996138608a6003614fc0565b6106948b6023614fc0565b9050600061389661387d89601c614fc0565b61069961388b8b6000614fc0565b6106948c6024614fc0565b905060006138c16138a88a601d614fc0565b6106996138b68c6001614fc0565b6106948d6025614fc0565b90506139016138e96138db85610699868d600001516125af565b610699848c602001516125af565b6106996138f78c6004614fc0565b8b604001516125af565b93505050506000613916613758886020614fc0565b90506000613928613758896020614fc0565b9050600061396161394861393d8b6022614fc0565b6106998c6006614fc0565b6106b86139568c6022614fc0565b6106948d6006614fc0565b9050600061398661398061397587896125af565b6106948d6020614fc0565b83612609565b905061399281886125af565b905060006139bb6139ad6139a78d6006614fc0565b876125af565b6106b86139a78e6021614fc0565b905060006139ca8c6022614fc0565b905060006139db61398083846125af565b60808c0185905260a08c0184905290506139f5818b6125af565b8b6006602002015250505050505050505050505050565b6000613a1a60006001612609565b90506000613a2a60006002612609565b90506000613a3a60006003612609565b90506000613a57613a4c88601c614fc0565b6106b889601b614fc0565b90506000613a74613a6989601d614fc0565b6106b88a601c614fc0565b90506000613a91613a868a601e614fc0565b6106b88b601d614fc0565b90506000613aae613aa38b6023614fc0565b6106b88c601e614fc0565b905083613abf81610694818b6125dc565b9050613acf81610694878a6125dc565b9050613adf8161069487896125dc565b9050613af0816106948d6008614fc0565b9050613afc818a6125af565b60e08b01525082613b1181610694818b6125dc565b9050613b2181610694868a6125dc565b9050613b318161069486896125dc565b9050613b42816106948d6008614fc0565b9050613b4e818a6125af565b6101008b01525081613b6481610694818b6125dc565b9050613b7481610694858a6125dc565b9050613b848161069485896125dc565b9050613b95816106948d6008614fc0565b9050613ba1818a6125af565b6101208b01525080613bb781610694818b6125dc565b9050613bc781610694848a6125dc565b9050613bd78161069484896125dc565b9050613be8816106948d6008614fc0565b9050613bf4818a6125af565b610140909a019990995250505050505050505050565b613c4a6040518060e00160405280600081526020016000815260200160008152602001600081526020016000815260200160008152602001600081525090565b613c5584601c614fc0565b8152613c6284601d614fc0565b6020820152613c72846023614fc0565b6040820152613c82846026614fc0565b6060820152613c92846025614fc0565b6080820152613ca2846024614fc0565b60a08201526000613cb4856002614fc0565b90506000613cc3866000614fc0565b90506000613cd984604001518560000151612609565b90506000613cef856020015186602001516125af565b60608601519091508690600090613d0690806125af565b90506000613d25613d1f89602001518a606001516125af565b886125af565b90506000613d45613d3e8a60a001518b604001516125dc565b8a516125dc565b9050613d546139a782886125af565b9050613d7b613d75613d6f613d698487612609565b88612609565b846125dc565b836125dc565b9050613da3613d98613d8d83876125af565b6106948f6009614fc0565b61069460018a612609565b6101608c01525050505060208501516080860151600091613dc3916125dc565b90506000613de2613dd88860600151886125af565b8860200151612609565b90506000613e08613df384876125af565b61069961378d8b60a001518c60000151612609565b9050613e30613e25613e1a838c6125af565b6106948e6009614fc0565b610694600189612609565b6101808b01525060009150613e529050613e4b8360116125dc565b87516125af565b90506000613e6083846125dc565b9050613e6c81826125dc565b90506000613e7b8360096125af565b9050613ea5613e9f613758613e988b60a001518c600001516125dc565b8b516125dc565b82612609565b60c08901819052600090613ec190613d1f90613d8d908d6125af565b9050613ed48b600b6020020151826125dc565b6101608c01525050865160009250613efc9150613e4b90613ef590806125dc565b88516125dc565b90506000613f3e613f19836106948a600001518b60a00151612609565b60208901516106b890613f2c90806125dc565b6106948b602001518c608001516125dc565b9050613f5b89600c6020020151610699613d1f613d8d858d6125af565b89600c602002015250505050505050505050565b614019604051806102c00160405280600081526020016000815260200160008152602001600081526020016000815260200160008152602001600081526020016000815260200160008152602001600081526020016000815260200160008152602001600081526020016000815260200160008152602001600081526020016000815260200160008152602001600081526020016000815260200160008152602001600081525090565b61404e61403561402a87601b614fc0565b610694886024614fc0565b610699614043886023614fc0565b61069489601c614fc0565b815261409361408861406f61406488601b614fc0565b61069489601e614fc0565b61069961407d89601c614fc0565b6106948a601d614fc0565b6106b8876025614fc0565b604082018190526140ad90681000000000000000006125af565b604082018190526140c3906106b8876026614fc0565b6040820181905281516140d691906125dc565b604082018190526140ec90610694876005614fc0565b6040820152805161410690681000000000000000006125af565b8082526141269061069961411b886023614fc0565b610694896024614fc0565b80825260208201819052614142906106b861357988601d614fc0565b6020820181905261415890610694876004614fc0565b60208201528051606082018190526141759061069987601e614fc0565b60608201819052614199906106b861418e886025614fc0565b610699896026614fc0565b606082018190526141af90610694876000614fc0565b81606001818152505060006141d96141cf836020015184604001516125dc565b83606001516125dc565b90506141ea81610694886003614fc0565b90506142026141fa876024614fc0565b6140006125af565b6080830181905261421890610699886023614fc0565b6080830181905261422b906140006125af565b608083018190526142419061069988601d614fc0565b60808301819052614254906140006125af565b6080830181905261426a9061069988601c614fc0565b6080830181905261427d906140006125af565b608083018190526142939061069988601b614fc0565b608083018190526142a9906106b888601e614fc0565b608083018190526142bf90610694886005614fc0565b60808301526142d26141fa876025614fc0565b60a083018190526142e890610699886024614fc0565b60a083018190526142fb906140006125af565b60a0830181905261431190610699886023614fc0565b60a08301819052614324906140006125af565b60a0830181905261433a9061069988601e614fc0565b60a0830181905261434d906140006125af565b60a083018190526143639061069988601d614fc0565b60a08301819052614379906106b8886026614fc0565b60a0830181905261438f90610694886000614fc0565b60a0830181905260808301516000916143a891906125dc565b90506143b981610694896004614fc0565b90506143d36143c988601d614fc0565b87604001516125af565b60c084018190526143ec906106996138118a601c614fc0565b60c0840181905261440c906106996144058a601b614fc0565b89516125af565b60c0840181905261442290610699896001614fc0565b60c0840181905260e0840181905261443f906106b889601e614fc0565b60c0840152614452613a4c886023614fc0565b610140840152614471614466886026614fc0565b6106b889601e614fc0565b6101208401526101408301516144969061448b90806125af565b846101400151612609565b6102808401526101408301516144eb906144e0906144d99061069460017f30644e72e131a029b85045b68181585d2833e84879b9709143e1f593f0000001615a4d565b60016125dc565b8461012001516125af565b610160840181905261452290614514906106946145098b6002614fc0565b6106948c6003614fc0565b6106946139a78a600a614fc0565b6101c086015261028083015161454490614514906106946145098b6002614fc0565b6101e086015260c083015161456c906106946145618a6002614fc0565b6106948b6003614fc0565b6101e0840152600061458c61458289601e614fc0565b8560e00151612609565b905061459b613e9f82836125af565b6101a08501526145af613829896025614fc0565b61010085018190526145d3906106996145c98b6024614fc0565b8a602001516125af565b61010085018190526145ed906106996137fc8b6023614fc0565b61010085015261460c614601896026614fc0565b856101000151612609565b6101008501526000614622613a868a6025614fc0565b905061469c6146636134a06144d988610140015160017f30644e72e131a029b85045b68181585d2833e84879b9709143e1f593f00000016106949190615a4d565b6106946144d988610100015160017f30644e72e131a029b85045b68181585d2833e84879b9709143e1f593f00000016106949190615a4d565b6101808601526101008501516146c1906146b690806125af565b866101000151612609565b6101c08601526101808501516146f4906146e0906106948c6007614fc0565b6106946146ee8c600a614fc0565b896125af565b610200880152610280850151614713906146e0906106948c6007614fc0565b6102208801526101c0850151614732906146e0906106948c6007614fc0565b6102408801526101a085015161474d906106948b6007614fc0565b61020086015261476c6147618a6024614fc0565b6106b88b601c614fc0565b6102208601526101408501516147be90613a86906147b3906144d99061069460017f30644e72e131a029b85045b68181585d2833e84879b9709143e1f593f0000001615a4d565b8761022001516125af565b61024086018190526101e086015161026087018190526147f591610699906106946147ea8e6005614fc0565b6106948f6002614fc0565b610260860181905260c08601516148199190610699906106946147ea8e6000614fc0565b610260860181905261020086015161483191906125dc565b610260860181905261484790613d6f90866125dc565b6102a08601819052614861906106946146ee8c600a614fc0565b6102a0860181905287600d6020020152505050505050505050565b61490360405180610220016040528060008152602001600081526020016000815260200160008152602001600081526020016000815260200160008152602001600081526020016000815260200160008152602001600081526020016000815260200160008152602001600081526020016000815260200160008152602001600081525090565b61491c61491185601b614fc0565b610699866002614fc0565b815261493761492c85601c614fc0565b610699866003614fc0565b602082015261495561494a85601d614fc0565b610699866004614fc0565b604082015261497361496885601e614fc0565b610699866005614fc0565b606082015280516149a59061499e906149979061499090806125af565b84516125af565b83516125af565b82516125af565b608082015260208101516149e3906149d9906149cf906149c590806125af565b84602001516125af565b83602001516125af565b82602001516125af565b60a08201526040810151614a2190614a1790614a0d90614a0390806125af565b84604001516125af565b83604001516125af565b82604001516125af565b60c08201526060810151614a5f90614a5590614a4b90614a4190806125af565b84606001516125af565b83606001516125af565b82606001516125af565b60e0820152608081015160a0820151614a7891906125dc565b61010082015260c081015160e0820151614a9291906125dc565b61012082015260a0810151614ab690614aab90806125dc565b8261012001516125dc565b61014082015260e0810151614ada90614acf90806125dc565b8261010001516125dc565b610160820152610120810151614af090806125dc565b6101e08201819052614b1190614b0690806125dc565b8261016001516125dc565b6101e0820152610100810151614b2790806125dc565b6101a08201819052614b4890614b3d90806125dc565b8261014001516125dc565b6101a08201819052610160820151614b5f916125dc565b6101808201526101408101516101e0820151614b7b91906125dc565b6101c0820152614b8f6134a085600b614fc0565b6102008201819052610260840151610180830151614bba9261069991610694906106b88a6023614fc0565b8360136020020152614bea8360146020020151610699836102000151610694856101a001516106b88a6024614fc0565b8360146020020152614c1a8360156020020151610699836102000151610694856101c001516106b88a6025614fc0565b8360156020020152614c4a8360166020020151610699836102000151610694856101e001516106b88a6026614fc0565b836016602002015250505050565b614cb560405180610160016040528060008152602001600081526020016000815260200160008152602001600081526020016000815260200160008152602001600081526020016000815260200160008152602001600081525090565b60006040518060800160405280614ceb7f10dc6e9c006ea38b04b1e03b4bd9490c0d03f98929ca1d7fb56821fd19d3b6e761257d565b8152602001614d197f0c28145b6a44df3e0149b3d0a30b3bb599df9756d4dd9b84a86b38cfb45a740b61257d565b8152602001614d467e544b8338791518b2c7645a50392798b21f75bb60e3596170067d00141cac1561257d565b8152602001614d747f222c01175718386f2e2e82eb122789e352e105a3b8fa852613bc534433ee428b61257d565b90529050614d91614d8686601b614fc0565b610699876002614fc0565b6101208301819052614dc590614dba906144e090614daf90806125af565b8561012001516125af565b8361012001516125af565b8252614dd285601c614fc0565b6020830152614de285601d614fc0565b6040830152614df285601e614fc0565b606083015281516020830151614e1a916141cf91614e1091906125dc565b84604001516125dc565b6080830152614e2d61375886600c614fc0565b6101408301528151614e4f90614e459083600061127c565b83608001516125dc565b60a0830152614e7b84601760200201516106998461014001516106948660a001516106b88b6023614fc0565b6102e08501526020820151614e9690614e459083600161127c565b60c0830152614ec284601860200201516106998461014001516106948660c001516106b88b6024614fc0565b6103008501526040820151614edd90614e459083600261127c565b60e0830152614f0984601960200201516106998461014001516106948660e001516106b88b6025614fc0565b6103208501526060820151614f2490614e459083600361127c565b610100830152614f5284601a60200201516106998461014001516106948661010001516106b88b6026614fc0565b84601a6135db565b6000614f67818481610952565b905060015b601b811015614fb957614faf826106998684601b8110614f8e57614f8e615a9d565b602002015186614f9f600187615a4d565b601a811061127c5761127c615a9d565b9150600101614f6c565b5092915050565b600082826027811115614fd557614fd5615dbf565b60288110614fe557614fe5615a9d565b60200201519392505050565b604051806103c0016040528060008152602001600081526020016000815260200161502f604051806040016040528060008152602001600081525090565b8152602001615051604051806040016040528060008152602001600081525090565b8152602001615073604051806040016040528060008152602001600081525090565b8152602001615095604051806040016040528060008152602001600081525090565b81526020016150b7604051806040016040528060008152602001600081525090565b81526020016150d9604051806040016040528060008152602001600081525090565b81526020016150fb604051806040016040528060008152602001600081525090565b815260200161511d604051806040016040528060008152602001600081525090565b815260200161513f604051806040016040528060008152602001600081525090565b8152602001615161604051806040016040528060008152602001600081525090565b8152602001615183604051806040016040528060008152602001600081525090565b81526020016151a5604051806040016040528060008152602001600081525090565b81526020016151c7604051806040016040528060008152602001600081525090565b81526020016151e9604051806040016040528060008152602001600081525090565b815260200161520b604051806040016040528060008152602001600081525090565b815260200161522d604051806040016040528060008152602001600081525090565b815260200161524f604051806040016040528060008152602001600081525090565b8152602001615271604051806040016040528060008152602001600081525090565b8152602001615293604051806040016040528060008152602001600081525090565b81526020016152b5604051806040016040528060008152602001600081525090565b81526020016152d7604051806040016040528060008152602001600081525090565b81526020016152f9604051806040016040528060008152602001600081525090565b815260200161531b604051806040016040528060008152602001600081525090565b815260200161533d604051806040016040528060008152602001600081525090565b815260200161535f604051806040016040528060008152602001600081525090565b8152602001615381604051806040016040528060008152602001600081525090565b81526020016153a3604051806040016040528060008152602001600081525090565b905290565b604051806101e001604052806153bc615859565b81526020016153ec6040518060800160405280600081526020016000815260200160008152602001600081525090565b815260200161541c6040518060800160405280600081526020016000815260200160008152602001600081525090565b815260200161544c6040518060800160405280600081526020016000815260200160008152602001600081525090565b815260200161547c6040518060800160405280600081526020016000815260200160008152602001600081525090565b81526020016154ac6040518060800160405280600081526020016000815260200160008152602001600081525090565b81526020016154dc6040518060800160405280600081526020016000815260200160008152602001600081525090565b815260200161550c6040518060800160405280600081526020016000815260200160008152602001600081525090565b815260200161553c6040518060800160405280600081526020016000815260200160008152602001600081525090565b8152602001615549615878565b81526020016155566158a6565b81526020016155636158c5565b8152602001615570615762565b81526020016155a06040518060800160405280600081526020016000815260200160008152602001600081525090565b81526020016153a36040518060800160405280600081526020016000815260200160008152602001600081525090565b6040518061010001604052806156156040518060c001604052806000815260200160008152602001600081526020016000815260200160008152602001600081525090565b8152602001615622615724565b815260200161562f615762565b815260200161563c615762565b8152602001600081526020016000815260200160008152602001600081525090565b6040518061018001604052806000815260200160008152602001600081526020016000815260200160008152602001615695615916565b81526020016156a2615916565b8152602001600081526020016000815260200160008152602001600081526020016153a3615762565b604051806108c001604052806046906020820280368337509192915050565b604051806108c001604052806046905b60408051808201909152600080825260208201528152602001906001900390816156fa5790505090565b604051806103400160405280601a906020820280368337509192915050565b6040518061012001604052806009906020820280368337509192915050565b604051806103800160405280601c906020820280368337509192915050565b6040518061052001604052806029906020820280368337509192915050565b60405180610da00160405280606d906020820280368337509192915050565b604051806103a00160405280601d906020820280368337509192915050565b6040518060a001604052806005906020820280368337509192915050565b6040518061010001604052806008906020820280368337509192915050565b604051806103600160405280601b906020820280368337509192915050565b604051806101a00160405280600d906020820280368337509192915050565b6040518061020001604052806010906020820280368337509192915050565b604051806103800160405280601c905b6158906157fc565b8152602001906001900390816158885790505090565b6040518061050001604052806028906020820280368337509192915050565b604051806103600160405280601b905b6159006040518060800160405280600081526020016000815260200160008152602001600081525090565b8152602001906001900390816158d55790505090565b60405180608001604052806004906020820280368337509192915050565b6000806000806040858703121561594a57600080fd5b843567ffffffffffffffff81111561596157600080fd5b8501601f8101871361597257600080fd5b803567ffffffffffffffff81111561598957600080fd5b87602082840101111561599b57600080fd5b60209182019550935085013567ffffffffffffffff8111156159bc57600080fd5b8501601f810187136159cd57600080fd5b803567ffffffffffffffff8111156159e457600080fd5b8760208260051b84010111156159f957600080fd5b949793965060200194505050565b7f4e487b7100000000000000000000000000000000000000000000000000000000600052601160045260246000fd5b80820281158282048414176125a9576125a9615a07565b818103818111156125a9576125a9615a07565b808201808211156125a9576125a9615a07565b60008085851115615a8357600080fd5b83861115615a9057600080fd5b5050820193919092039150565b7f4e487b7100000000000000000000000000000000000000000000000000000000600052603260045260246000fd5b60007fffffffffffffffffffffffffffffffffffffffffffffffffffffffffffffffff8203615afd57615afd615a07565b5060010190565b803560208310156125a9577fffffffffffffffffffffffffffffffffffffffffffffffffffffffffffffffff602084900360031b1b1692915050565b60008183825b6009811015615b65578151835260209283019290910190600101615b46565b5050506101208201905092915050565b7f4e487b7100000000000000000000000000000000000000000000000000000000600052601260045260246000fd5b600082615bb357615bb3615b75565b500490565b60008183825b6029811015615bdd578151835260209283019290910190600101615bbe565b5050506105208201905092915050565b60008183825b606d811015615c12578151835260209283019290910190600101615bf3565b505050610da08201905092915050565b60008183825b601d811015615c47578151835260209283019290910190600101615c28565b5050506103a08201905092915050565b60008183825b6005811015615c7c578151835260209283019290910190600101615c5d565b50505060a08201905092915050565b600082615c9a57615c9a615b75565b500690565b600081615cae57615cae615a07565b507fffffffffffffffffffffffffffffffffffffffffffffffffffffffffffffffff0190565b6000825160005b81811015615cf55760208186018101518583015201615cdb565b506000920191825250919050565b600060208284031215615d1557600080fd5b81518015158114611e5a57600080fd5b7f4e487b7100000000000000000000000000000000000000000000000000000000600052604160045260246000fd5b8151600090829060208501835b82811015615d7f578151845260209384019390910190600101615d61565b509195945050505050565b60008183825b600d811015615daf578151835260209283019290910190600101615d90565b5050506101a08201905092915050565b7f4e487b7100000000000000000000000000000000000000000000000000000000600052602160045260246000fdfea2646970667358221220f138546b405d833c808e19a22186d9b279e2001b988347b2c185571763fc726c64736f6c634300081b0033",
  "linkReferences": {},
  "deployedLinkReferences": {}
}